{
  "contractName": "ERC165Support",
  "abi": [
    {
      "constant": true,
      "inputs": [
        {
          "name": "_interfaceId",
          "type": "bytes4"
        }
      ],
      "name": "supportsInterface",
      "outputs": [
        {
          "name": "",
          "type": "bool"
        }
      ],
      "payable": false,
      "stateMutability": "view",
      "type": "function"
    }
  ],
  "bytecode": "0x608060405234801561001057600080fd5b5061010d806100206000396000f300608060405260043610603e5763ffffffff7c010000000000000000000000000000000000000000000000000000000060003504166301ffc9a781146043575b600080fd5b348015604e57600080fd5b5060777bffffffffffffffffffffffffffffffffffffffffffffffffffffffff1960043516608b565b604080519115158252519081900360200190f35b6000609482609a565b92915050565b7bffffffffffffffffffffffffffffffffffffffffffffffffffffffff1981167f01ffc9a700000000000000000000000000000000000000000000000000000000149190505600a165627a7a723058204c476c2d9f60a593620dff7792cb1d6550a6c96c69c7c77e1374876b0fdb706a0029",
  "source": "pragma solidity ^0.4.21;\n\nimport \"./ERC165.sol\";\n\n/**\n * @title ERC165Support\n * @dev Implements ERC165 returning true for ERC165 interface identifier\n */\ncontract ERC165Support is ERC165 {\n\n  bytes4 internal constant InterfaceId_ERC165 = 0x01ffc9a7;\n  /**\n   * 0x01ffc9a7 ===\n   *   bytes4(keccak256('supportsInterface(bytes4)'))\n   */\n\n  function supportsInterface(bytes4 _interfaceId)\n    external\n    view\n    returns (bool) \n  {\n    return _supportsInterface(_interfaceId);\n  }\n\n  function _supportsInterface(bytes4 _interfaceId)\n    internal\n    view\n    returns (bool) \n  {\n    return _interfaceId == InterfaceId_ERC165;\n  }\n}\n",
  "sourcePath": "openzeppelin-zos/contracts/introspection/ERC165Support.sol",
  "compiler": {
    "name": "solc",
    "version": "0.4.25+commit.59dbf8f1.Emscripten.clang"
  },
  "schemaVersion": "3.0.1",
  "updatedAt": "2019-04-24T15:16:56.193Z",
  "devdoc": {
    "methods": {},
    "title": "ERC165Support"
  },
  "userdoc": {
    "methods": {
      "supportsInterface(bytes4)": {
        "notice": "0x01ffc9a7 ===  bytes4(keccak256('supportsInterface(bytes4)'))"
      }
    }
  }
}