{
  "contractName": "ERC721Token",
  "abi": [
    {
      "constant": true,
      "inputs": [
        {
          "name": "_interfaceId",
          "type": "bytes4"
        }
      ],
      "name": "supportsInterface",
      "outputs": [
        {
          "name": "",
          "type": "bool"
        }
      ],
      "payable": false,
      "stateMutability": "view",
      "type": "function"
    },
    {
      "constant": true,
      "inputs": [
        {
          "name": "_tokenId",
          "type": "uint256"
        }
      ],
      "name": "getApproved",
      "outputs": [
        {
          "name": "",
          "type": "address"
        }
      ],
      "payable": false,
      "stateMutability": "view",
      "type": "function"
    },
    {
      "constant": false,
      "inputs": [
        {
          "name": "_to",
          "type": "address"
        },
        {
          "name": "_tokenId",
          "type": "uint256"
        }
      ],
      "name": "approve",
      "outputs": [],
      "payable": false,
      "stateMutability": "nonpayable",
      "type": "function"
    },
    {
      "constant": false,
      "inputs": [
        {
          "name": "_from",
          "type": "address"
        },
        {
          "name": "_to",
          "type": "address"
        },
        {
          "name": "_tokenId",
          "type": "uint256"
        }
      ],
      "name": "transferFrom",
      "outputs": [],
      "payable": false,
      "stateMutability": "nonpayable",
      "type": "function"
    },
    {
      "constant": false,
      "inputs": [
        {
          "name": "_from",
          "type": "address"
        },
        {
          "name": "_to",
          "type": "address"
        },
        {
          "name": "_tokenId",
          "type": "uint256"
        }
      ],
      "name": "safeTransferFrom",
      "outputs": [],
      "payable": false,
      "stateMutability": "nonpayable",
      "type": "function"
    },
    {
      "constant": true,
      "inputs": [
        {
          "name": "_tokenId",
          "type": "uint256"
        }
      ],
      "name": "exists",
      "outputs": [
        {
          "name": "",
          "type": "bool"
        }
      ],
      "payable": false,
      "stateMutability": "view",
      "type": "function"
    },
    {
      "constant": true,
      "inputs": [
        {
          "name": "_tokenId",
          "type": "uint256"
        }
      ],
      "name": "ownerOf",
      "outputs": [
        {
          "name": "",
          "type": "address"
        }
      ],
      "payable": false,
      "stateMutability": "view",
      "type": "function"
    },
    {
      "constant": true,
      "inputs": [
        {
          "name": "_owner",
          "type": "address"
        }
      ],
      "name": "balanceOf",
      "outputs": [
        {
          "name": "",
          "type": "uint256"
        }
      ],
      "payable": false,
      "stateMutability": "view",
      "type": "function"
    },
    {
      "constant": false,
      "inputs": [
        {
          "name": "_to",
          "type": "address"
        },
        {
          "name": "_approved",
          "type": "bool"
        }
      ],
      "name": "setApprovalForAll",
      "outputs": [],
      "payable": false,
      "stateMutability": "nonpayable",
      "type": "function"
    },
    {
      "constant": false,
      "inputs": [
        {
          "name": "_from",
          "type": "address"
        },
        {
          "name": "_to",
          "type": "address"
        },
        {
          "name": "_tokenId",
          "type": "uint256"
        },
        {
          "name": "_data",
          "type": "bytes"
        }
      ],
      "name": "safeTransferFrom",
      "outputs": [],
      "payable": false,
      "stateMutability": "nonpayable",
      "type": "function"
    },
    {
      "constant": true,
      "inputs": [
        {
          "name": "contractName",
          "type": "string"
        },
        {
          "name": "migrationId",
          "type": "string"
        }
      ],
      "name": "isMigrated",
      "outputs": [
        {
          "name": "",
          "type": "bool"
        }
      ],
      "payable": false,
      "stateMutability": "view",
      "type": "function"
    },
    {
      "constant": true,
      "inputs": [
        {
          "name": "_owner",
          "type": "address"
        },
        {
          "name": "_operator",
          "type": "address"
        }
      ],
      "name": "isApprovedForAll",
      "outputs": [
        {
          "name": "",
          "type": "bool"
        }
      ],
      "payable": false,
      "stateMutability": "view",
      "type": "function"
    },
    {
      "anonymous": false,
      "inputs": [
        {
          "indexed": true,
          "name": "_from",
          "type": "address"
        },
        {
          "indexed": true,
          "name": "_to",
          "type": "address"
        },
        {
          "indexed": true,
          "name": "_tokenId",
          "type": "uint256"
        }
      ],
      "name": "Transfer",
      "type": "event"
    },
    {
      "anonymous": false,
      "inputs": [
        {
          "indexed": true,
          "name": "_owner",
          "type": "address"
        },
        {
          "indexed": true,
          "name": "_approved",
          "type": "address"
        },
        {
          "indexed": true,
          "name": "_tokenId",
          "type": "uint256"
        }
      ],
      "name": "Approval",
      "type": "event"
    },
    {
      "anonymous": false,
      "inputs": [
        {
          "indexed": true,
          "name": "_owner",
          "type": "address"
        },
        {
          "indexed": true,
          "name": "_operator",
          "type": "address"
        },
        {
          "indexed": false,
          "name": "_approved",
          "type": "bool"
        }
      ],
      "name": "ApprovalForAll",
      "type": "event"
    },
    {
      "anonymous": false,
      "inputs": [
        {
          "indexed": false,
          "name": "contractName",
          "type": "string"
        },
        {
          "indexed": false,
          "name": "migrationId",
          "type": "string"
        }
      ],
      "name": "Migrated",
      "type": "event"
    },
    {
      "constant": false,
      "inputs": [
        {
          "name": "_name",
          "type": "string"
        },
        {
          "name": "_symbol",
          "type": "string"
        }
      ],
      "name": "initialize",
      "outputs": [],
      "payable": false,
      "stateMutability": "nonpayable",
      "type": "function"
    },
    {
      "constant": true,
      "inputs": [],
      "name": "name",
      "outputs": [
        {
          "name": "",
          "type": "string"
        }
      ],
      "payable": false,
      "stateMutability": "view",
      "type": "function"
    },
    {
      "constant": true,
      "inputs": [],
      "name": "symbol",
      "outputs": [
        {
          "name": "",
          "type": "string"
        }
      ],
      "payable": false,
      "stateMutability": "view",
      "type": "function"
    },
    {
      "constant": true,
      "inputs": [
        {
          "name": "_tokenId",
          "type": "uint256"
        }
      ],
      "name": "tokenURI",
      "outputs": [
        {
          "name": "",
          "type": "string"
        }
      ],
      "payable": false,
      "stateMutability": "view",
      "type": "function"
    },
    {
      "constant": true,
      "inputs": [
        {
          "name": "_owner",
          "type": "address"
        },
        {
          "name": "_index",
          "type": "uint256"
        }
      ],
      "name": "tokenOfOwnerByIndex",
      "outputs": [
        {
          "name": "",
          "type": "uint256"
        }
      ],
      "payable": false,
      "stateMutability": "view",
      "type": "function"
    },
    {
      "constant": true,
      "inputs": [],
      "name": "totalSupply",
      "outputs": [
        {
          "name": "",
          "type": "uint256"
        }
      ],
      "payable": false,
      "stateMutability": "view",
      "type": "function"
    },
    {
      "constant": true,
      "inputs": [
        {
          "name": "_index",
          "type": "uint256"
        }
      ],
      "name": "tokenByIndex",
      "outputs": [
        {
          "name": "",
          "type": "uint256"
        }
      ],
      "payable": false,
      "stateMutability": "view",
      "type": "function"
    }
  ],
  "bytecode": "0x608060405234801561001057600080fd5b506114f4806100206000396000f3006080604052600436106101065763ffffffff7c010000000000000000000000000000000000000000000000000000000060003504166301ffc9a7811461010b57806306fdde0314610141578063081812fc146101cb578063095ea7b3146101ff57806318160ddd1461022557806323b872dd1461024c5780632f745c591461027657806342842e0e1461029a5780634cd88b76146102c45780634f558e791461035b5780634f6ccce7146103735780636352211e1461038b57806370a08231146103a357806395d89b41146103c4578063a22cb465146103d9578063b88d4fde146103ff578063c0bac1a81461046e578063c87b56dd14610505578063e985e9c51461051d575b600080fd5b34801561011757600080fd5b5061012d600160e060020a031960043516610544565b604080519115158252519081900360200190f35b34801561014d57600080fd5b50610156610555565b6040805160208082528351818301528351919283929083019185019080838360005b83811015610190578181015183820152602001610178565b50505050905090810190601f1680156101bd5780820380516001836020036101000a031916815260200191505b509250505060405180910390f35b3480156101d757600080fd5b506101e36004356105ec565b60408051600160a060020a039092168252519081900360200190f35b34801561020b57600080fd5b50610223600160a060020a0360043516602435610607565b005b34801561023157600080fd5b5061023a6106bd565b60408051918252519081900360200190f35b34801561025857600080fd5b50610223600160a060020a03600435811690602435166044356106c3565b34801561028257600080fd5b5061023a600160a060020a0360043516602435610768565b3480156102a657600080fd5b50610223600160a060020a03600435811690602435166044356107b5565b3480156102d057600080fd5b506040805160206004803580820135601f810184900484028501840190955284845261022394369492936024939284019190819084018382808284375050604080516020601f89358b018035918201839004830284018301909452808352979a9998810197919650918201945092508291508401838280828437509497506107ed9650505050505050565b34801561036757600080fd5b5061012d600435610a68565b34801561037f57600080fd5b5061023a600435610a85565b34801561039757600080fd5b506101e3600435610aba565b3480156103af57600080fd5b5061023a600160a060020a0360043516610ade565b3480156103d057600080fd5b50610156610b11565b3480156103e557600080fd5b50610223600160a060020a03600435166024351515610b72565b34801561040b57600080fd5b50604080516020601f60643560048181013592830184900484028501840190955281845261022394600160a060020a038135811695602480359092169560443595369560849401918190840183828082843750949750610bf69650505050505050565b34801561047a57600080fd5b506040805160206004803580820135601f810184900484028501840190955284845261012d94369492936024939284019190819084018382808284375050604080516020601f89358b018035918201839004830284018301909452808352979a999881019791965091820194509250829150840183828082843750949750610c359650505050505050565b34801561051157600080fd5b50610156600435610cfc565b34801561052957600080fd5b5061012d600160a060020a0360043581169060243516610db1565b600061054f82610ddf565b92915050565b60058054604080516020601f60026000196101006001881615020190951694909404938401819004810282018101909252828152606093909290918301828280156105e15780601f106105b6576101008083540402835291602001916105e1565b820191906000526020600020905b8154815290600101906020018083116105c457829003601f168201915b505050505090505b90565b600090815260026020526040902054600160a060020a031690565b600061061282610aba565b9050600160a060020a03838116908216141561062d57600080fd5b33600160a060020a038216148061064957506106498133610db1565b151561065457600080fd5b600082815260026020526040808220805473ffffffffffffffffffffffffffffffffffffffff1916600160a060020a0387811691821790925591518593918516917f8c5be1e5ebec7d5bd14f71427d1e84f3dd0314c0f7b2291e5b200ac8c7c3b92591a4505050565b60095490565b806106ce3382610e54565b15156106d957600080fd5b600160a060020a03841615156106ee57600080fd5b600160a060020a038316151561070357600080fd5b61070d8483610eb3565b6107178483610f24565b610721838361105d565b8183600160a060020a031685600160a060020a03167fddf252ad1be2c89b69c2b068fc378daa952ba7f163c4a11628f55a4df523b3ef60405160405180910390a450505050565b600061077383610ade565b821061077e57600080fd5b600160a060020a03831660009081526007602052604090208054839081106107a257fe5b9060005260206000200154905092915050565b806107c03382610e54565b15156107cb57600080fd5b6107e78484846020604051908101604052806000815250610bf6565b50505050565b6040805190810160405280600b81526020017f455243373231546f6b656e0000000000000000000000000000000000000000008152506040805190810160405280600581526020017f312e392e300000000000000000000000000000000000000000000000000000008152506108638282610c35565b1561086d57600080fd5b8351610880906005906020870190611407565b508251610894906006906020860190611407565b507fdd117a11c22118c9dee4b5a67ce578bc44529dce21ee0ccc439588fbb9fb4ea38282604051808060200180602001838103835285818151815260200191508051906020019080838360005b838110156108f95781810151838201526020016108e1565b50505050905090810190601f1680156109265780820380516001836020036101000a031916815260200191505b50838103825284518152845160209182019186019080838360005b83811015610959578181015183820152602001610941565b50505050905090810190601f1680156109865780820380516001836020036101000a031916815260200191505b5094505050505060405180910390a160016000836040518082805190602001908083835b602083106109c95780518252601f1990920191602091820191016109aa565b51815160209384036101000a6000190180199092169116179052920194855250604051938490038101842086519094879450925082918401908083835b60208310610a255780518252601f199092019160209182019101610a06565b51815160209384036101000a60001901801990921691161790529201948552506040519384900301909220805460ff191693151593909317909255505050505050565b600090815260016020526040902054600160a060020a0316151590565b6000610a8f6106bd565b8210610a9a57600080fd5b6009805483908110610aa857fe5b90600052602060002001549050919050565b600081815260016020526040812054600160a060020a031680151561054f57600080fd5b6000600160a060020a0382161515610af557600080fd5b50600160a060020a031660009081526003602052604090205490565b60068054604080516020601f60026000196101006001881615020190951694909404938401819004810282018101909252828152606093909290918301828280156105e15780601f106105b6576101008083540402835291602001916105e1565b600160a060020a038216331415610b8857600080fd5b336000818152600460209081526040808320600160a060020a03871680855290835292819020805460ff1916861515908117909155815190815290519293927f17307eab39ab6107e8899845ad3d59bd9653f200f220920489ca2b5937696c31929181900390910190a35050565b81610c013382610e54565b1515610c0c57600080fd5b610c178585856106c3565b610c23858585856110a6565b1515610c2e57600080fd5b5050505050565b600080836040518082805190602001908083835b60208310610c685780518252601f199092019160209182019101610c49565b51815160209384036101000a6000190180199092169116179052920194855250604051938490038101842086519094879450925082918401908083835b60208310610cc45780518252601f199092019160209182019101610ca5565b51815160209384036101000a600019018019909216911617905292019485525060405193849003019092205460ff1695945050505050565b6060610d0782610a68565b1515610d1257600080fd5b6000828152600b602090815260409182902080548351601f600260001961010060018616150201909316929092049182018490048402810184019094528084529091830182828015610da55780601f10610d7a57610100808354040283529160200191610da5565b820191906000526020600020905b815481529060010190602001808311610d8857829003601f168201915b50505050509050919050565b600160a060020a03918216600090815260046020908152604080832093909416825291909152205460ff1690565b6000610dea82611213565b80610e1e5750600160e060020a031982167f780e9d6300000000000000000000000000000000000000000000000000000000145b8061054f575050600160e060020a0319167f5b5e139f000000000000000000000000000000000000000000000000000000001490565b600080610e6083610aba565b905080600160a060020a031684600160a060020a03161480610e9b575083600160a060020a0316610e90846105ec565b600160a060020a0316145b80610eab5750610eab8185610db1565b949350505050565b81600160a060020a0316610ec682610aba565b600160a060020a031614610ed957600080fd5b600081815260026020526040902054600160a060020a031615610f20576000818152600260205260409020805473ffffffffffffffffffffffffffffffffffffffff191690555b5050565b6000806000610f338585611288565b600084815260086020908152604080832054600160a060020a0389168452600790925290912054909350610f6e90600163ffffffff61131e16565b600160a060020a038616600090815260076020526040902080549193509083908110610f9657fe5b90600052602060002001549050806007600087600160a060020a0316600160a060020a0316815260200190815260200160002084815481101515610fd657fe5b6000918252602080832090910192909255600160a060020a038716815260079091526040812080548490811061100857fe5b6000918252602080832090910192909255600160a060020a038716815260079091526040902080549061103f906000198301611485565b50600093845260086020526040808520859055908452909220555050565b60006110698383611330565b50600160a060020a039091166000908152600760209081526040808320805460018101825590845282842081018590559383526008909152902055565b6000806110bb85600160a060020a03166113c0565b15156110ca576001915061120a565b6040517f150b7a020000000000000000000000000000000000000000000000000000000081523360048201818152600160a060020a03898116602485015260448401889052608060648501908152875160848601528751918a169463150b7a0294938c938b938b93909160a490910190602085019080838360005b8381101561115d578181015183820152602001611145565b50505050905090810190601f16801561118a5780820380516001836020036101000a031916815260200191505b5095505050505050602060405180830381600087803b1580156111ac57600080fd5b505af11580156111c0573d6000803e3d6000fd5b505050506040513d60208110156111d657600080fd5b5051600160e060020a031981167f150b7a020000000000000000000000000000000000000000000000000000000014925090505b50949350505050565b600061121e826113c8565b806112525750600160e060020a031982167f80ac58cd00000000000000000000000000000000000000000000000000000000145b8061054f575050600160e060020a0319167f4f558e79000000000000000000000000000000000000000000000000000000001490565b81600160a060020a031661129b82610aba565b600160a060020a0316146112ae57600080fd5b600160a060020a0382166000908152600360205260409020546112d890600163ffffffff61131e16565b600160a060020a03909216600090815260036020908152604080832094909455918152600190915220805473ffffffffffffffffffffffffffffffffffffffff19169055565b60008282111561132a57fe5b50900390565b600081815260016020526040902054600160a060020a03161561135257600080fd5b6000818152600160208181526040808420805473ffffffffffffffffffffffffffffffffffffffff1916600160a060020a03881690811790915584526003909152909120546113a0916113fa565b600160a060020a0390921660009081526003602052604090209190915550565b6000903b1190565b600160e060020a031981167f01ffc9a70000000000000000000000000000000000000000000000000000000014919050565b8181018281101561054f57fe5b828054600181600116156101000203166002900490600052602060002090601f016020900481019282601f1061144857805160ff1916838001178555611475565b82800160010185558215611475579182015b8281111561147557825182559160200191906001019061145a565b506114819291506114ae565b5090565b8154818355818111156114a9576000838152602090206114a99181019083016114ae565b505050565b6105e991905b8082111561148157600081556001016114b45600a165627a7a7230582035bafeb534b11f900215d35a407c5bb247c5740763001363f868d81ecf5f40f90029",
  "source": "pragma solidity ^0.4.21;\n\nimport \"./ERC721.sol\";\nimport \"./ERC721BasicToken.sol\";\nimport \"../../introspection/ERC165.sol\";\nimport \"zos-lib/contracts/migrations/Migratable.sol\";\n\n\n/**\n * @title Full ERC721 Token\n * This implementation includes all the required and some optional functionality of the ERC721 standard\n * Moreover, it includes approve all functionality using operator terminology\n * @dev see https://github.com/ethereum/EIPs/blob/master/EIPS/eip-721.md\n */\ncontract ERC721Token is Migratable, ERC165Support, ERC721BasicToken, ERC721 {\n\n  bytes4 private constant InterfaceId_ERC721Enumerable = 0x780e9d63;\n  /**\n   * 0x780e9d63 ===\n   *   bytes4(keccak256('totalSupply()')) ^\n   *   bytes4(keccak256('tokenOfOwnerByIndex(address,uint256)')) ^\n   *   bytes4(keccak256('tokenByIndex(uint256)'))\n   */\n\n  bytes4 private constant InterfaceId_ERC721Metadata = 0x5b5e139f;\n  /**\n   * 0x5b5e139f ===\n   *   bytes4(keccak256('name()')) ^\n   *   bytes4(keccak256('symbol()')) ^\n   *   bytes4(keccak256('tokenURI(uint256)'))\n   */\n\n  // Token name\n  string internal name_;\n\n  // Token symbol\n  string internal symbol_;\n\n  // Mapping from owner to list of owned token IDs\n  mapping(address => uint256[]) internal ownedTokens;\n\n  // Mapping from token ID to index of the owner tokens list\n  mapping(uint256 => uint256) internal ownedTokensIndex;\n\n  // Array with all token ids, used for enumeration\n  uint256[] internal allTokens;\n\n  // Mapping from token id to position in the allTokens array\n  mapping(uint256 => uint256) internal allTokensIndex;\n\n  // Optional mapping for token URIs\n  mapping(uint256 => string) internal tokenURIs;\n\n  /**\n   * @dev Constructor function\n   */\n  function initialize(string _name, string _symbol) public isInitializer(\"ERC721Token\", \"1.9.0\") {\n    name_ = _name;\n    symbol_ = _symbol;\n  }\n\n  function _supportsInterface(bytes4 _interfaceId)\n    internal\n    view\n    returns (bool)\n  {\n    return super._supportsInterface(_interfaceId) || \n      _interfaceId == InterfaceId_ERC721Enumerable || _interfaceId == InterfaceId_ERC721Metadata;\n  }\n\n  /**\n   * @dev Gets the token name\n   * @return string representing the token name\n   */\n  function name() external view returns (string) {\n    return name_;\n  }\n\n  /**\n   * @dev Gets the token symbol\n   * @return string representing the token symbol\n   */\n  function symbol() external view returns (string) {\n    return symbol_;\n  }\n\n  /**\n   * @dev Returns an URI for a given token ID\n   * Throws if the token ID does not exist. May return an empty string.\n   * @param _tokenId uint256 ID of the token to query\n   */\n  function tokenURI(uint256 _tokenId) public view returns (string) {\n    require(exists(_tokenId));\n    return tokenURIs[_tokenId];\n  }\n\n  /**\n   * @dev Gets the token ID at a given index of the tokens list of the requested owner\n   * @param _owner address owning the tokens list to be accessed\n   * @param _index uint256 representing the index to be accessed of the requested tokens list\n   * @return uint256 token ID at the given index of the tokens list owned by the requested address\n   */\n  function tokenOfOwnerByIndex(\n    address _owner,\n    uint256 _index\n  )\n    public\n    view\n    returns (uint256)\n  {\n    require(_index < balanceOf(_owner));\n    return ownedTokens[_owner][_index];\n  }\n\n  /**\n   * @dev Gets the total amount of tokens stored by the contract\n   * @return uint256 representing the total amount of tokens\n   */\n  function totalSupply() public view returns (uint256) {\n    return allTokens.length;\n  }\n\n  /**\n   * @dev Gets the token ID at a given index of all the tokens in this contract\n   * Reverts if the index is greater or equal to the total number of tokens\n   * @param _index uint256 representing the index to be accessed of the tokens list\n   * @return uint256 token ID at the given index of the tokens list\n   */\n  function tokenByIndex(uint256 _index) public view returns (uint256) {\n    require(_index < totalSupply());\n    return allTokens[_index];\n  }\n\n  /**\n   * @dev Internal function to set the token URI for a given token\n   * Reverts if the token ID does not exist\n   * @param _tokenId uint256 ID of the token to set its URI\n   * @param _uri string URI to assign\n   */\n  function _setTokenURI(uint256 _tokenId, string _uri) internal {\n    require(exists(_tokenId));\n    tokenURIs[_tokenId] = _uri;\n  }\n\n  /**\n   * @dev Internal function to add a token ID to the list of a given address\n   * @param _to address representing the new owner of the given token ID\n   * @param _tokenId uint256 ID of the token to be added to the tokens list of the given address\n   */\n  function addTokenTo(address _to, uint256 _tokenId) internal {\n    super.addTokenTo(_to, _tokenId);\n    uint256 length = ownedTokens[_to].length;\n    ownedTokens[_to].push(_tokenId);\n    ownedTokensIndex[_tokenId] = length;\n  }\n\n  /**\n   * @dev Internal function to remove a token ID from the list of a given address\n   * @param _from address representing the previous owner of the given token ID\n   * @param _tokenId uint256 ID of the token to be removed from the tokens list of the given address\n   */\n  function removeTokenFrom(address _from, uint256 _tokenId) internal {\n    super.removeTokenFrom(_from, _tokenId);\n\n    uint256 tokenIndex = ownedTokensIndex[_tokenId];\n    uint256 lastTokenIndex = ownedTokens[_from].length.sub(1);\n    uint256 lastToken = ownedTokens[_from][lastTokenIndex];\n\n    ownedTokens[_from][tokenIndex] = lastToken;\n    ownedTokens[_from][lastTokenIndex] = 0;\n    // Note that this will handle single-element arrays. In that case, both tokenIndex and lastTokenIndex are going to\n    // be zero. Then we can make sure that we will remove _tokenId from the ownedTokens list since we are first swapping\n    // the lastToken to the first position, and then dropping the element placed in the last position of the list\n\n    ownedTokens[_from].length--;\n    ownedTokensIndex[_tokenId] = 0;\n    ownedTokensIndex[lastToken] = tokenIndex;\n  }\n\n  /**\n   * @dev Internal function to mint a new token\n   * Reverts if the given token ID already exists\n   * @param _to address the beneficiary that will own the minted token\n   * @param _tokenId uint256 ID of the token to be minted by the msg.sender\n   */\n  function _mint(address _to, uint256 _tokenId) internal {\n    super._mint(_to, _tokenId);\n\n    allTokensIndex[_tokenId] = allTokens.length;\n    allTokens.push(_tokenId);\n  }\n\n  /**\n   * @dev Internal function to burn a specific token\n   * Reverts if the token does not exist\n   * @param _owner owner of the token to burn\n   * @param _tokenId uint256 ID of the token being burned by the msg.sender\n   */\n  function _burn(address _owner, uint256 _tokenId) internal {\n    super._burn(_owner, _tokenId);\n\n    // Clear metadata (if any)\n    if (bytes(tokenURIs[_tokenId]).length != 0) {\n      delete tokenURIs[_tokenId];\n    }\n\n    // Reorg all tokens array\n    uint256 tokenIndex = allTokensIndex[_tokenId];\n    uint256 lastTokenIndex = allTokens.length.sub(1);\n    uint256 lastToken = allTokens[lastTokenIndex];\n\n    allTokens[tokenIndex] = lastToken;\n    allTokens[lastTokenIndex] = 0;\n\n    allTokens.length--;\n    allTokensIndex[_tokenId] = 0;\n    allTokensIndex[lastToken] = tokenIndex;\n  }\n\n}\n",
  "sourcePath": "openzeppelin-zos/contracts/token/ERC721/ERC721Token.sol",
  "compiler": {
    "name": "solc",
    "version": "0.4.25+commit.59dbf8f1.Emscripten.clang"
  },
  "schemaVersion": "3.0.1",
  "updatedAt": "2019-04-24T15:16:56.199Z",
  "devdoc": {
    "methods": {
      "approve(address,uint256)": {
        "details": "Approves another address to transfer the given token ID The zero address indicates there is no approved address. There can only be one approved address per token at a given time. Can only be called by the token owner or an approved operator.",
        "params": {
          "_to": "address to be approved for the given token ID",
          "_tokenId": "uint256 ID of the token to be approved"
        }
      },
      "balanceOf(address)": {
        "details": "Gets the balance of the specified address",
        "params": {
          "_owner": "address to query the balance of"
        },
        "return": "uint256 representing the amount owned by the passed address"
      },
      "exists(uint256)": {
        "details": "Returns whether the specified token exists",
        "params": {
          "_tokenId": "uint256 ID of the token to query the existence of"
        },
        "return": "whether the token exists"
      },
      "getApproved(uint256)": {
        "details": "Gets the approved address for a token ID, or zero if no address set",
        "params": {
          "_tokenId": "uint256 ID of the token to query the approval of"
        },
        "return": "address currently approved for the given token ID"
      },
      "initialize(string,string)": {
        "details": "Constructor function"
      },
      "isApprovedForAll(address,address)": {
        "details": "Tells whether an operator is approved by a given owner",
        "params": {
          "_operator": "operator address which you want to query the approval of",
          "_owner": "owner address which you want to query the approval of"
        },
        "return": "bool whether the given operator is approved by the given owner"
      },
      "isMigrated(string,string)": {
        "params": {
          "contractName": "Contract name",
          "migrationId": "migration id"
        },
        "return": "if the contract was already migrated with given migration"
      },
      "name()": {
        "details": "Gets the token name",
        "return": "string representing the token name"
      },
      "ownerOf(uint256)": {
        "details": "Gets the owner of the specified token ID",
        "params": {
          "_tokenId": "uint256 ID of the token to query the owner of"
        },
        "return": "owner address currently marked as the owner of the given token ID"
      },
      "safeTransferFrom(address,address,uint256)": {
        "details": "Safely transfers the ownership of a given token ID to another address If the target address is a contract, it must implement `onERC721Received`, which is called upon a safe transfer, and return the magic value `bytes4(keccak256(\"onERC721Received(address,address,uint256,bytes)\"))`; otherwise, the transfer is reverted.   * Requires the msg sender to be the owner, approved, or operator",
        "params": {
          "_from": "current owner of the token",
          "_to": "address to receive the ownership of the given token ID",
          "_tokenId": "uint256 ID of the token to be transferred"
        }
      },
      "safeTransferFrom(address,address,uint256,bytes)": {
        "details": "Safely transfers the ownership of a given token ID to another address If the target address is a contract, it must implement `onERC721Received`, which is called upon a safe transfer, and return the magic value `bytes4(keccak256(\"onERC721Received(address,address,uint256,bytes)\"))`; otherwise, the transfer is reverted. Requires the msg sender to be the owner, approved, or operator",
        "params": {
          "_data": "bytes data to send along with a safe transfer check",
          "_from": "current owner of the token",
          "_to": "address to receive the ownership of the given token ID",
          "_tokenId": "uint256 ID of the token to be transferred"
        }
      },
      "setApprovalForAll(address,bool)": {
        "details": "Sets or unsets the approval of a given operator An operator is allowed to transfer all tokens of the sender on their behalf",
        "params": {
          "_approved": "representing the status of the approval to be set",
          "_to": "operator address to set the approval"
        }
      },
      "symbol()": {
        "details": "Gets the token symbol",
        "return": "string representing the token symbol"
      },
      "tokenByIndex(uint256)": {
        "details": "Gets the token ID at a given index of all the tokens in this contract Reverts if the index is greater or equal to the total number of tokens",
        "params": {
          "_index": "uint256 representing the index to be accessed of the tokens list"
        },
        "return": "uint256 token ID at the given index of the tokens list"
      },
      "tokenOfOwnerByIndex(address,uint256)": {
        "details": "Gets the token ID at a given index of the tokens list of the requested owner",
        "params": {
          "_index": "uint256 representing the index to be accessed of the requested tokens list",
          "_owner": "address owning the tokens list to be accessed"
        },
        "return": "uint256 token ID at the given index of the tokens list owned by the requested address"
      },
      "tokenURI(uint256)": {
        "details": "Returns an URI for a given token ID Throws if the token ID does not exist. May return an empty string.",
        "params": {
          "_tokenId": "uint256 ID of the token to query"
        }
      },
      "totalSupply()": {
        "details": "Gets the total amount of tokens stored by the contract",
        "return": "uint256 representing the total amount of tokens"
      },
      "transferFrom(address,address,uint256)": {
        "details": "Transfers the ownership of a given token ID to another address Usage of this method is discouraged, use `safeTransferFrom` whenever possible Requires the msg sender to be the owner, approved, or operator",
        "params": {
          "_from": "current owner of the token",
          "_to": "address to receive the ownership of the given token ID",
          "_tokenId": "uint256 ID of the token to be transferred"
        }
      }
    },
    "title": "Full ERC721 Token This implementation includes all the required and some optional functionality of the ERC721 standard Moreover, it includes approve all functionality using operator terminology"
  },
  "userdoc": {
    "methods": {
      "supportsInterface(bytes4)": {
        "notice": "0x01ffc9a7 ===  bytes4(keccak256('supportsInterface(bytes4)'))"
      }
    }
  }
}