{
  "contractName": "ERC721BasicToken",
  "abi": [
    {
      "constant": true,
      "inputs": [
        {
          "name": "_interfaceId",
          "type": "bytes4"
        }
      ],
      "name": "supportsInterface",
      "outputs": [
        {
          "name": "",
          "type": "bool"
        }
      ],
      "payable": false,
      "stateMutability": "view",
      "type": "function"
    },
    {
      "anonymous": false,
      "inputs": [
        {
          "indexed": true,
          "name": "_from",
          "type": "address"
        },
        {
          "indexed": true,
          "name": "_to",
          "type": "address"
        },
        {
          "indexed": true,
          "name": "_tokenId",
          "type": "uint256"
        }
      ],
      "name": "Transfer",
      "type": "event"
    },
    {
      "anonymous": false,
      "inputs": [
        {
          "indexed": true,
          "name": "_owner",
          "type": "address"
        },
        {
          "indexed": true,
          "name": "_approved",
          "type": "address"
        },
        {
          "indexed": true,
          "name": "_tokenId",
          "type": "uint256"
        }
      ],
      "name": "Approval",
      "type": "event"
    },
    {
      "anonymous": false,
      "inputs": [
        {
          "indexed": true,
          "name": "_owner",
          "type": "address"
        },
        {
          "indexed": true,
          "name": "_operator",
          "type": "address"
        },
        {
          "indexed": false,
          "name": "_approved",
          "type": "bool"
        }
      ],
      "name": "ApprovalForAll",
      "type": "event"
    },
    {
      "constant": true,
      "inputs": [
        {
          "name": "_owner",
          "type": "address"
        }
      ],
      "name": "balanceOf",
      "outputs": [
        {
          "name": "",
          "type": "uint256"
        }
      ],
      "payable": false,
      "stateMutability": "view",
      "type": "function"
    },
    {
      "constant": true,
      "inputs": [
        {
          "name": "_tokenId",
          "type": "uint256"
        }
      ],
      "name": "ownerOf",
      "outputs": [
        {
          "name": "",
          "type": "address"
        }
      ],
      "payable": false,
      "stateMutability": "view",
      "type": "function"
    },
    {
      "constant": true,
      "inputs": [
        {
          "name": "_tokenId",
          "type": "uint256"
        }
      ],
      "name": "exists",
      "outputs": [
        {
          "name": "",
          "type": "bool"
        }
      ],
      "payable": false,
      "stateMutability": "view",
      "type": "function"
    },
    {
      "constant": false,
      "inputs": [
        {
          "name": "_to",
          "type": "address"
        },
        {
          "name": "_tokenId",
          "type": "uint256"
        }
      ],
      "name": "approve",
      "outputs": [],
      "payable": false,
      "stateMutability": "nonpayable",
      "type": "function"
    },
    {
      "constant": true,
      "inputs": [
        {
          "name": "_tokenId",
          "type": "uint256"
        }
      ],
      "name": "getApproved",
      "outputs": [
        {
          "name": "",
          "type": "address"
        }
      ],
      "payable": false,
      "stateMutability": "view",
      "type": "function"
    },
    {
      "constant": false,
      "inputs": [
        {
          "name": "_to",
          "type": "address"
        },
        {
          "name": "_approved",
          "type": "bool"
        }
      ],
      "name": "setApprovalForAll",
      "outputs": [],
      "payable": false,
      "stateMutability": "nonpayable",
      "type": "function"
    },
    {
      "constant": true,
      "inputs": [
        {
          "name": "_owner",
          "type": "address"
        },
        {
          "name": "_operator",
          "type": "address"
        }
      ],
      "name": "isApprovedForAll",
      "outputs": [
        {
          "name": "",
          "type": "bool"
        }
      ],
      "payable": false,
      "stateMutability": "view",
      "type": "function"
    },
    {
      "constant": false,
      "inputs": [
        {
          "name": "_from",
          "type": "address"
        },
        {
          "name": "_to",
          "type": "address"
        },
        {
          "name": "_tokenId",
          "type": "uint256"
        }
      ],
      "name": "transferFrom",
      "outputs": [],
      "payable": false,
      "stateMutability": "nonpayable",
      "type": "function"
    },
    {
      "constant": false,
      "inputs": [
        {
          "name": "_from",
          "type": "address"
        },
        {
          "name": "_to",
          "type": "address"
        },
        {
          "name": "_tokenId",
          "type": "uint256"
        }
      ],
      "name": "safeTransferFrom",
      "outputs": [],
      "payable": false,
      "stateMutability": "nonpayable",
      "type": "function"
    },
    {
      "constant": false,
      "inputs": [
        {
          "name": "_from",
          "type": "address"
        },
        {
          "name": "_to",
          "type": "address"
        },
        {
          "name": "_tokenId",
          "type": "uint256"
        },
        {
          "name": "_data",
          "type": "bytes"
        }
      ],
      "name": "safeTransferFrom",
      "outputs": [],
      "payable": false,
      "stateMutability": "nonpayable",
      "type": "function"
    }
  ],
  "bytecode": "0x608060405234801561001057600080fd5b50610a35806100206000396000f3006080604052600436106100ae5763ffffffff7c010000000000000000000000000000000000000000000000000000000060003504166301ffc9a781146100b3578063081812fc146100e9578063095ea7b31461011d57806323b872dd1461014357806342842e0e1461016d5780634f558e79146101975780636352211e146101af57806370a08231146101c7578063a22cb465146101fa578063b88d4fde14610220578063e985e9c51461028f575b600080fd5b3480156100bf57600080fd5b506100d5600160e060020a0319600435166102b6565b604080519115158252519081900360200190f35b3480156100f557600080fd5b506101016004356102c7565b60408051600160a060020a039092168252519081900360200190f35b34801561012957600080fd5b50610141600160a060020a03600435166024356102e2565b005b34801561014f57600080fd5b50610141600160a060020a0360043581169060243516604435610398565b34801561017957600080fd5b50610141600160a060020a036004358116906024351660443561043d565b3480156101a357600080fd5b506100d5600435610475565b3480156101bb57600080fd5b50610101600435610492565b3480156101d357600080fd5b506101e8600160a060020a03600435166104b6565b60408051918252519081900360200190f35b34801561020657600080fd5b50610141600160a060020a036004351660243515156104e9565b34801561022c57600080fd5b50604080516020601f60643560048181013592830184900484028501840190955281845261014194600160a060020a03813581169560248035909216956044359536956084940191819084018382808284375094975061056d9650505050505050565b34801561029b57600080fd5b506100d5600160a060020a03600435811690602435166105ac565b60006102c1826105da565b92915050565b600090815260016020526040902054600160a060020a031690565b60006102ed82610492565b9050600160a060020a03838116908216141561030857600080fd5b33600160a060020a0382161480610324575061032481336105ac565b151561032f57600080fd5b600082815260016020526040808220805473ffffffffffffffffffffffffffffffffffffffff1916600160a060020a0387811691821790925591518593918516917f8c5be1e5ebec7d5bd14f71427d1e84f3dd0314c0f7b2291e5b200ac8c7c3b92591a4505050565b806103a3338261064f565b15156103ae57600080fd5b600160a060020a03841615156103c357600080fd5b600160a060020a03831615156103d857600080fd5b6103e284836106ae565b6103ec848361071f565b6103f683836107b4565b8183600160a060020a031685600160a060020a03167fddf252ad1be2c89b69c2b068fc378daa952ba7f163c4a11628f55a4df523b3ef60405160405180910390a450505050565b80610448338261064f565b151561045357600080fd5b61046f848484602060405190810160405280600081525061056d565b50505050565b600090815260208190526040902054600160a060020a0316151590565b600081815260208190526040812054600160a060020a03168015156102c157600080fd5b6000600160a060020a03821615156104cd57600080fd5b50600160a060020a031660009081526002602052604090205490565b600160a060020a0382163314156104ff57600080fd5b336000818152600360209081526040808320600160a060020a03871680855290835292819020805460ff1916861515908117909155815190815290519293927f17307eab39ab6107e8899845ad3d59bd9653f200f220920489ca2b5937696c31929181900390910190a35050565b81610578338261064f565b151561058357600080fd5b61058e858585610398565b61059a85858585610843565b15156105a557600080fd5b5050505050565b600160a060020a03918216600090815260036020908152604080832093909416825291909152205460ff1690565b60006105e5826109b0565b806106195750600160e060020a031982167f80ac58cd00000000000000000000000000000000000000000000000000000000145b806102c1575050600160e060020a0319167f4f558e79000000000000000000000000000000000000000000000000000000001490565b60008061065b83610492565b905080600160a060020a031684600160a060020a03161480610696575083600160a060020a031661068b846102c7565b600160a060020a0316145b806106a657506106a681856105ac565b949350505050565b81600160a060020a03166106c182610492565b600160a060020a0316146106d457600080fd5b600081815260016020526040902054600160a060020a03161561071b576000818152600160205260409020805473ffffffffffffffffffffffffffffffffffffffff191690555b5050565b81600160a060020a031661073282610492565b600160a060020a03161461074557600080fd5b600160a060020a03821660009081526002602052604090205461076f90600163ffffffff6109e216565b600160a060020a039092166000908152600260209081526040808320949094559181529081905220805473ffffffffffffffffffffffffffffffffffffffff19169055565b600081815260208190526040902054600160a060020a0316156107d657600080fd5b600081815260208181526040808320805473ffffffffffffffffffffffffffffffffffffffff1916600160a060020a038716908117909155835260029091529020546108239060016109f4565b600160a060020a0390921660009081526002602052604090209190915550565b60008061085885600160a060020a0316610a01565b151561086757600191506109a7565b6040517f150b7a020000000000000000000000000000000000000000000000000000000081523360048201818152600160a060020a03898116602485015260448401889052608060648501908152875160848601528751918a169463150b7a0294938c938b938b93909160a490910190602085019080838360005b838110156108fa5781810151838201526020016108e2565b50505050905090810190601f1680156109275780820380516001836020036101000a031916815260200191505b5095505050505050602060405180830381600087803b15801561094957600080fd5b505af115801561095d573d6000803e3d6000fd5b505050506040513d602081101561097357600080fd5b5051600160e060020a031981167f150b7a020000000000000000000000000000000000000000000000000000000014925090505b50949350505050565b600160e060020a031981167f01ffc9a70000000000000000000000000000000000000000000000000000000014919050565b6000828211156109ee57fe5b50900390565b818101828110156102c157fe5b6000903b11905600a165627a7a72305820160bc695f682a1fbb6dd940b7e8b80c884bb868e1ffc50bf37518cf4eec8aa5d0029",
  "source": "pragma solidity ^0.4.21;\n\nimport \"./ERC721Basic.sol\";\nimport \"./ERC721Receiver.sol\";\nimport \"../../math/SafeMath.sol\";\nimport \"../../AddressUtils.sol\";\nimport \"../../introspection/ERC165Support.sol\";\n\n\n/**\n * @title ERC721 Non-Fungible Token Standard basic implementation\n * @dev see https://github.com/ethereum/EIPs/blob/master/EIPS/eip-721.md\n */\ncontract ERC721BasicToken is ERC165Support, ERC721Basic {\n\n  bytes4 private constant InterfaceId_ERC721 = 0x80ac58cd;\n  /*\n   * 0x80ac58cd ===\n   *   bytes4(keccak256('balanceOf(address)')) ^\n   *   bytes4(keccak256('ownerOf(uint256)')) ^\n   *   bytes4(keccak256('approve(address,uint256)')) ^\n   *   bytes4(keccak256('getApproved(uint256)')) ^\n   *   bytes4(keccak256('setApprovalForAll(address,bool)')) ^\n   *   bytes4(keccak256('isApprovedForAll(address,address)')) ^\n   *   bytes4(keccak256('transferFrom(address,address,uint256)')) ^\n   *   bytes4(keccak256('safeTransferFrom(address,address,uint256)')) ^\n   *   bytes4(keccak256('safeTransferFrom(address,address,uint256,bytes)'))\n   */\n\n  bytes4 private constant InterfaceId_ERC721Exists = 0x4f558e79;\n  /*\n   * 0x4f558e79 ===\n   *   bytes4(keccak256('exists(uint256)'))\n   */\n\n  using SafeMath for uint256;\n  using AddressUtils for address;\n\n  // Equals to `bytes4(keccak256(\"onERC721Received(address,address,uint256,bytes)\"))`\n  // which can be also obtained as `ERC721Receiver(0).onERC721Received.selector`\n  bytes4 private constant ERC721_RECEIVED = 0x150b7a02;\n\n  // Mapping from token ID to owner\n  mapping (uint256 => address) internal tokenOwner;\n\n  // Mapping from token ID to approved address\n  mapping (uint256 => address) internal tokenApprovals;\n\n  // Mapping from owner to number of owned token\n  mapping (address => uint256) internal ownedTokensCount;\n\n  // Mapping from owner to operator approvals\n  mapping (address => mapping (address => bool)) internal operatorApprovals;\n\n  /**\n   * @dev Guarantees msg.sender is owner of the given token\n   * @param _tokenId uint256 ID of the token to validate its ownership belongs to msg.sender\n   */\n  modifier onlyOwnerOf(uint256 _tokenId) {\n    require(ownerOf(_tokenId) == msg.sender);\n    _;\n  }\n\n  /**\n   * @dev Checks msg.sender can transfer a token, by being owner, approved, or operator\n   * @param _tokenId uint256 ID of the token to validate\n   */\n  modifier canTransfer(uint256 _tokenId) {\n    require(isApprovedOrOwner(msg.sender, _tokenId));\n    _;\n  }\n\n  function _supportsInterface(bytes4 _interfaceId)\n    internal\n    view\n    returns (bool)\n  {\n    return super._supportsInterface(_interfaceId) || \n      _interfaceId == InterfaceId_ERC721 || _interfaceId == InterfaceId_ERC721Exists;\n  }\n\n  /**\n   * @dev Gets the balance of the specified address\n   * @param _owner address to query the balance of\n   * @return uint256 representing the amount owned by the passed address\n   */\n  function balanceOf(address _owner) public view returns (uint256) {\n    require(_owner != address(0));\n    return ownedTokensCount[_owner];\n  }\n\n  /**\n   * @dev Gets the owner of the specified token ID\n   * @param _tokenId uint256 ID of the token to query the owner of\n   * @return owner address currently marked as the owner of the given token ID\n   */\n  function ownerOf(uint256 _tokenId) public view returns (address) {\n    address owner = tokenOwner[_tokenId];\n    require(owner != address(0));\n    return owner;\n  }\n\n  /**\n   * @dev Returns whether the specified token exists\n   * @param _tokenId uint256 ID of the token to query the existence of\n   * @return whether the token exists\n   */\n  function exists(uint256 _tokenId) public view returns (bool) {\n    address owner = tokenOwner[_tokenId];\n    return owner != address(0);\n  }\n\n  /**\n   * @dev Approves another address to transfer the given token ID\n   * The zero address indicates there is no approved address.\n   * There can only be one approved address per token at a given time.\n   * Can only be called by the token owner or an approved operator.\n   * @param _to address to be approved for the given token ID\n   * @param _tokenId uint256 ID of the token to be approved\n   */\n  function approve(address _to, uint256 _tokenId) public {\n    address owner = ownerOf(_tokenId);\n    require(_to != owner);\n    require(msg.sender == owner || isApprovedForAll(owner, msg.sender));\n\n    tokenApprovals[_tokenId] = _to;\n    emit Approval(owner, _to, _tokenId);\n  }\n\n  /**\n   * @dev Gets the approved address for a token ID, or zero if no address set\n   * @param _tokenId uint256 ID of the token to query the approval of\n   * @return address currently approved for the given token ID\n   */\n  function getApproved(uint256 _tokenId) public view returns (address) {\n    return tokenApprovals[_tokenId];\n  }\n\n  /**\n   * @dev Sets or unsets the approval of a given operator\n   * An operator is allowed to transfer all tokens of the sender on their behalf\n   * @param _to operator address to set the approval\n   * @param _approved representing the status of the approval to be set\n   */\n  function setApprovalForAll(address _to, bool _approved) public {\n    require(_to != msg.sender);\n    operatorApprovals[msg.sender][_to] = _approved;\n    emit ApprovalForAll(msg.sender, _to, _approved);\n  }\n\n  /**\n   * @dev Tells whether an operator is approved by a given owner\n   * @param _owner owner address which you want to query the approval of\n   * @param _operator operator address which you want to query the approval of\n   * @return bool whether the given operator is approved by the given owner\n   */\n  function isApprovedForAll(\n    address _owner,\n    address _operator\n  )\n    public\n    view\n    returns (bool)\n  {\n    return operatorApprovals[_owner][_operator];\n  }\n\n  /**\n   * @dev Transfers the ownership of a given token ID to another address\n   * Usage of this method is discouraged, use `safeTransferFrom` whenever possible\n   * Requires the msg sender to be the owner, approved, or operator\n   * @param _from current owner of the token\n   * @param _to address to receive the ownership of the given token ID\n   * @param _tokenId uint256 ID of the token to be transferred\n  */\n  function transferFrom(\n    address _from,\n    address _to,\n    uint256 _tokenId\n  )\n    public\n    canTransfer(_tokenId)\n  {\n    require(_from != address(0));\n    require(_to != address(0));\n\n    clearApproval(_from, _tokenId);\n    removeTokenFrom(_from, _tokenId);\n    addTokenTo(_to, _tokenId);\n\n    emit Transfer(_from, _to, _tokenId);\n  }\n\n  /**\n   * @dev Safely transfers the ownership of a given token ID to another address\n   * If the target address is a contract, it must implement `onERC721Received`,\n   * which is called upon a safe transfer, and return the magic value\n   * `bytes4(keccak256(\"onERC721Received(address,address,uint256,bytes)\"))`; otherwise,\n   * the transfer is reverted.\n   *\n   * Requires the msg sender to be the owner, approved, or operator\n   * @param _from current owner of the token\n   * @param _to address to receive the ownership of the given token ID\n   * @param _tokenId uint256 ID of the token to be transferred\n  */\n  function safeTransferFrom(\n    address _from,\n    address _to,\n    uint256 _tokenId\n  )\n    public\n    canTransfer(_tokenId)\n  {\n    // solium-disable-next-line arg-overflow\n    safeTransferFrom(_from, _to, _tokenId, \"\");\n  }\n\n  /**\n   * @dev Safely transfers the ownership of a given token ID to another address\n   * If the target address is a contract, it must implement `onERC721Received`,\n   * which is called upon a safe transfer, and return the magic value\n   * `bytes4(keccak256(\"onERC721Received(address,address,uint256,bytes)\"))`; otherwise,\n   * the transfer is reverted.\n   * Requires the msg sender to be the owner, approved, or operator\n   * @param _from current owner of the token\n   * @param _to address to receive the ownership of the given token ID\n   * @param _tokenId uint256 ID of the token to be transferred\n   * @param _data bytes data to send along with a safe transfer check\n   */\n  function safeTransferFrom(\n    address _from,\n    address _to,\n    uint256 _tokenId,\n    bytes _data\n  )\n    public\n    canTransfer(_tokenId)\n  {\n    transferFrom(_from, _to, _tokenId);\n    // solium-disable-next-line arg-overflow\n    require(checkAndCallSafeTransfer(_from, _to, _tokenId, _data));\n  }\n\n  /**\n   * @dev Returns whether the given spender can transfer a given token ID\n   * @param _spender address of the spender to query\n   * @param _tokenId uint256 ID of the token to be transferred\n   * @return bool whether the msg.sender is approved for the given token ID,\n   *  is an operator of the owner, or is the owner of the token\n   */\n  function isApprovedOrOwner(\n    address _spender,\n    uint256 _tokenId\n  )\n    internal\n    view\n    returns (bool)\n  {\n    address owner = ownerOf(_tokenId);\n    // Disable solium check because of\n    // https://github.com/duaraghav8/Solium/issues/175\n    // solium-disable-next-line operator-whitespace\n    return (\n      _spender == owner ||\n      getApproved(_tokenId) == _spender ||\n      isApprovedForAll(owner, _spender)\n    );\n  }\n\n  /**\n   * @dev Internal function to mint a new token\n   * Reverts if the given token ID already exists\n   * @param _to The address that will own the minted token\n   * @param _tokenId uint256 ID of the token to be minted by the msg.sender\n   */\n  function _mint(address _to, uint256 _tokenId) internal {\n    require(_to != address(0));\n    addTokenTo(_to, _tokenId);\n    emit Transfer(address(0), _to, _tokenId);\n  }\n\n  /**\n   * @dev Internal function to burn a specific token\n   * Reverts if the token does not exist\n   * @param _tokenId uint256 ID of the token being burned by the msg.sender\n   */\n  function _burn(address _owner, uint256 _tokenId) internal {\n    clearApproval(_owner, _tokenId);\n    removeTokenFrom(_owner, _tokenId);\n    emit Transfer(_owner, address(0), _tokenId);\n  }\n\n  /**\n   * @dev Internal function to clear current approval of a given token ID\n   * Reverts if the given address is not indeed the owner of the token\n   * @param _owner owner of the token\n   * @param _tokenId uint256 ID of the token to be transferred\n   */\n  function clearApproval(address _owner, uint256 _tokenId) internal {\n    require(ownerOf(_tokenId) == _owner);\n    if (tokenApprovals[_tokenId] != address(0)) {\n      tokenApprovals[_tokenId] = address(0);\n    }\n  }\n\n  /**\n   * @dev Internal function to add a token ID to the list of a given address\n   * @param _to address representing the new owner of the given token ID\n   * @param _tokenId uint256 ID of the token to be added to the tokens list of the given address\n   */\n  function addTokenTo(address _to, uint256 _tokenId) internal {\n    require(tokenOwner[_tokenId] == address(0));\n    tokenOwner[_tokenId] = _to;\n    ownedTokensCount[_to] = ownedTokensCount[_to].add(1);\n  }\n\n  /**\n   * @dev Internal function to remove a token ID from the list of a given address\n   * @param _from address representing the previous owner of the given token ID\n   * @param _tokenId uint256 ID of the token to be removed from the tokens list of the given address\n   */\n  function removeTokenFrom(address _from, uint256 _tokenId) internal {\n    require(ownerOf(_tokenId) == _from);\n    ownedTokensCount[_from] = ownedTokensCount[_from].sub(1);\n    tokenOwner[_tokenId] = address(0);\n  }\n\n  /**\n   * @dev Internal function to invoke `onERC721Received` on a target address\n   * The call is not executed if the target address is not a contract\n   * @param _from address representing the previous owner of the given token ID\n   * @param _to target address that will receive the tokens\n   * @param _tokenId uint256 ID of the token to be transferred\n   * @param _data bytes optional data to send along with the call\n   * @return whether the call correctly returned the expected magic value\n   */\n  function checkAndCallSafeTransfer(\n    address _from,\n    address _to,\n    uint256 _tokenId,\n    bytes _data\n  )\n    internal\n    returns (bool)\n  {\n    if (!_to.isContract()) {\n      return true;\n    }\n    bytes4 retval = ERC721Receiver(_to).onERC721Received(\n      msg.sender, _from, _tokenId, _data);\n    return (retval == ERC721_RECEIVED);\n  }\n}\n",
  "sourcePath": "openzeppelin-zos/contracts/token/ERC721/ERC721BasicToken.sol",
  "compiler": {
    "name": "solc",
    "version": "0.4.25+commit.59dbf8f1.Emscripten.clang"
  },
  "schemaVersion": "3.0.1",
  "updatedAt": "2019-04-22T23:06:36.496Z",
  "devdoc": {
    "methods": {
      "approve(address,uint256)": {
        "details": "Approves another address to transfer the given token ID The zero address indicates there is no approved address. There can only be one approved address per token at a given time. Can only be called by the token owner or an approved operator.",
        "params": {
          "_to": "address to be approved for the given token ID",
          "_tokenId": "uint256 ID of the token to be approved"
        }
      },
      "balanceOf(address)": {
        "details": "Gets the balance of the specified address",
        "params": {
          "_owner": "address to query the balance of"
        },
        "return": "uint256 representing the amount owned by the passed address"
      },
      "exists(uint256)": {
        "details": "Returns whether the specified token exists",
        "params": {
          "_tokenId": "uint256 ID of the token to query the existence of"
        },
        "return": "whether the token exists"
      },
      "getApproved(uint256)": {
        "details": "Gets the approved address for a token ID, or zero if no address set",
        "params": {
          "_tokenId": "uint256 ID of the token to query the approval of"
        },
        "return": "address currently approved for the given token ID"
      },
      "isApprovedForAll(address,address)": {
        "details": "Tells whether an operator is approved by a given owner",
        "params": {
          "_operator": "operator address which you want to query the approval of",
          "_owner": "owner address which you want to query the approval of"
        },
        "return": "bool whether the given operator is approved by the given owner"
      },
      "ownerOf(uint256)": {
        "details": "Gets the owner of the specified token ID",
        "params": {
          "_tokenId": "uint256 ID of the token to query the owner of"
        },
        "return": "owner address currently marked as the owner of the given token ID"
      },
      "safeTransferFrom(address,address,uint256)": {
        "details": "Safely transfers the ownership of a given token ID to another address If the target address is a contract, it must implement `onERC721Received`, which is called upon a safe transfer, and return the magic value `bytes4(keccak256(\"onERC721Received(address,address,uint256,bytes)\"))`; otherwise, the transfer is reverted.   * Requires the msg sender to be the owner, approved, or operator",
        "params": {
          "_from": "current owner of the token",
          "_to": "address to receive the ownership of the given token ID",
          "_tokenId": "uint256 ID of the token to be transferred"
        }
      },
      "safeTransferFrom(address,address,uint256,bytes)": {
        "details": "Safely transfers the ownership of a given token ID to another address If the target address is a contract, it must implement `onERC721Received`, which is called upon a safe transfer, and return the magic value `bytes4(keccak256(\"onERC721Received(address,address,uint256,bytes)\"))`; otherwise, the transfer is reverted. Requires the msg sender to be the owner, approved, or operator",
        "params": {
          "_data": "bytes data to send along with a safe transfer check",
          "_from": "current owner of the token",
          "_to": "address to receive the ownership of the given token ID",
          "_tokenId": "uint256 ID of the token to be transferred"
        }
      },
      "setApprovalForAll(address,bool)": {
        "details": "Sets or unsets the approval of a given operator An operator is allowed to transfer all tokens of the sender on their behalf",
        "params": {
          "_approved": "representing the status of the approval to be set",
          "_to": "operator address to set the approval"
        }
      },
      "transferFrom(address,address,uint256)": {
        "details": "Transfers the ownership of a given token ID to another address Usage of this method is discouraged, use `safeTransferFrom` whenever possible Requires the msg sender to be the owner, approved, or operator",
        "params": {
          "_from": "current owner of the token",
          "_to": "address to receive the ownership of the given token ID",
          "_tokenId": "uint256 ID of the token to be transferred"
        }
      }
    },
    "title": "ERC721 Non-Fungible Token Standard basic implementation"
  },
  "userdoc": {
    "methods": {
      "supportsInterface(bytes4)": {
        "notice": "0x01ffc9a7 ===  bytes4(keccak256('supportsInterface(bytes4)'))"
      }
    }
  }
}