{
  "contractName": "ERC721Base",
  "abi": [
    {
      "anonymous": false,
      "inputs": [
        {
          "indexed": true,
          "name": "from",
          "type": "address"
        },
        {
          "indexed": true,
          "name": "to",
          "type": "address"
        },
        {
          "indexed": true,
          "name": "assetId",
          "type": "uint256"
        },
        {
          "indexed": false,
          "name": "operator",
          "type": "address"
        },
        {
          "indexed": false,
          "name": "userData",
          "type": "bytes"
        },
        {
          "indexed": false,
          "name": "operatorData",
          "type": "bytes"
        }
      ],
      "name": "Transfer",
      "type": "event"
    },
    {
      "anonymous": false,
      "inputs": [
        {
          "indexed": true,
          "name": "from",
          "type": "address"
        },
        {
          "indexed": true,
          "name": "to",
          "type": "address"
        },
        {
          "indexed": true,
          "name": "assetId",
          "type": "uint256"
        },
        {
          "indexed": false,
          "name": "operator",
          "type": "address"
        },
        {
          "indexed": false,
          "name": "userData",
          "type": "bytes"
        }
      ],
      "name": "Transfer",
      "type": "event"
    },
    {
      "anonymous": false,
      "inputs": [
        {
          "indexed": true,
          "name": "from",
          "type": "address"
        },
        {
          "indexed": true,
          "name": "to",
          "type": "address"
        },
        {
          "indexed": true,
          "name": "assetId",
          "type": "uint256"
        }
      ],
      "name": "Transfer",
      "type": "event"
    },
    {
      "anonymous": false,
      "inputs": [
        {
          "indexed": true,
          "name": "holder",
          "type": "address"
        },
        {
          "indexed": true,
          "name": "operator",
          "type": "address"
        },
        {
          "indexed": false,
          "name": "authorized",
          "type": "bool"
        }
      ],
      "name": "ApprovalForAll",
      "type": "event"
    },
    {
      "anonymous": false,
      "inputs": [
        {
          "indexed": true,
          "name": "owner",
          "type": "address"
        },
        {
          "indexed": true,
          "name": "operator",
          "type": "address"
        },
        {
          "indexed": true,
          "name": "assetId",
          "type": "uint256"
        }
      ],
      "name": "Approval",
      "type": "event"
    },
    {
      "constant": true,
      "inputs": [],
      "name": "totalSupply",
      "outputs": [
        {
          "name": "",
          "type": "uint256"
        }
      ],
      "payable": false,
      "stateMutability": "view",
      "type": "function"
    },
    {
      "constant": true,
      "inputs": [
        {
          "name": "assetId",
          "type": "uint256"
        }
      ],
      "name": "ownerOf",
      "outputs": [
        {
          "name": "",
          "type": "address"
        }
      ],
      "payable": false,
      "stateMutability": "view",
      "type": "function"
    },
    {
      "constant": true,
      "inputs": [
        {
          "name": "owner",
          "type": "address"
        }
      ],
      "name": "balanceOf",
      "outputs": [
        {
          "name": "",
          "type": "uint256"
        }
      ],
      "payable": false,
      "stateMutability": "view",
      "type": "function"
    },
    {
      "constant": true,
      "inputs": [
        {
          "name": "assetHolder",
          "type": "address"
        },
        {
          "name": "operator",
          "type": "address"
        }
      ],
      "name": "isApprovedForAll",
      "outputs": [
        {
          "name": "",
          "type": "bool"
        }
      ],
      "payable": false,
      "stateMutability": "view",
      "type": "function"
    },
    {
      "constant": true,
      "inputs": [
        {
          "name": "assetId",
          "type": "uint256"
        }
      ],
      "name": "getApproved",
      "outputs": [
        {
          "name": "",
          "type": "address"
        }
      ],
      "payable": false,
      "stateMutability": "view",
      "type": "function"
    },
    {
      "constant": true,
      "inputs": [
        {
          "name": "assetId",
          "type": "uint256"
        }
      ],
      "name": "getApprovedAddress",
      "outputs": [
        {
          "name": "",
          "type": "address"
        }
      ],
      "payable": false,
      "stateMutability": "view",
      "type": "function"
    },
    {
      "constant": true,
      "inputs": [
        {
          "name": "operator",
          "type": "address"
        },
        {
          "name": "assetId",
          "type": "uint256"
        }
      ],
      "name": "isAuthorized",
      "outputs": [
        {
          "name": "",
          "type": "bool"
        }
      ],
      "payable": false,
      "stateMutability": "view",
      "type": "function"
    },
    {
      "constant": false,
      "inputs": [
        {
          "name": "operator",
          "type": "address"
        },
        {
          "name": "authorized",
          "type": "bool"
        }
      ],
      "name": "setApprovalForAll",
      "outputs": [],
      "payable": false,
      "stateMutability": "nonpayable",
      "type": "function"
    },
    {
      "constant": false,
      "inputs": [
        {
          "name": "operator",
          "type": "address"
        },
        {
          "name": "assetId",
          "type": "uint256"
        }
      ],
      "name": "approve",
      "outputs": [],
      "payable": false,
      "stateMutability": "nonpayable",
      "type": "function"
    },
    {
      "constant": false,
      "inputs": [
        {
          "name": "from",
          "type": "address"
        },
        {
          "name": "to",
          "type": "address"
        },
        {
          "name": "assetId",
          "type": "uint256"
        }
      ],
      "name": "safeTransferFrom",
      "outputs": [],
      "payable": false,
      "stateMutability": "nonpayable",
      "type": "function"
    },
    {
      "constant": false,
      "inputs": [
        {
          "name": "from",
          "type": "address"
        },
        {
          "name": "to",
          "type": "address"
        },
        {
          "name": "assetId",
          "type": "uint256"
        },
        {
          "name": "userData",
          "type": "bytes"
        }
      ],
      "name": "safeTransferFrom",
      "outputs": [],
      "payable": false,
      "stateMutability": "nonpayable",
      "type": "function"
    },
    {
      "constant": false,
      "inputs": [
        {
          "name": "from",
          "type": "address"
        },
        {
          "name": "to",
          "type": "address"
        },
        {
          "name": "assetId",
          "type": "uint256"
        }
      ],
      "name": "transferFrom",
      "outputs": [],
      "payable": false,
      "stateMutability": "nonpayable",
      "type": "function"
    },
    {
      "constant": true,
      "inputs": [
        {
          "name": "_interfaceID",
          "type": "bytes4"
        }
      ],
      "name": "supportsInterface",
      "outputs": [
        {
          "name": "",
          "type": "bool"
        }
      ],
      "payable": false,
      "stateMutability": "view",
      "type": "function"
    }
  ],
  "bytecode": "0x608060405234801561001057600080fd5b50610d0f806100206000396000f3006080604052600436106100ab5763ffffffff60e060020a60003504166301ffc9a781146100b0578063081812fc146100e6578063095ea7b31461011a57806318160ddd1461014057806323b872dd146101675780632972b0f01461019157806342842e0e146101b55780636352211e146101df57806370a08231146101f7578063a22cb46514610218578063b88d4fde1461023e578063e985e9c514610277578063eca4742a146100e6575b600080fd5b3480156100bc57600080fd5b506100d2600160e060020a03196004351661029e565b604080519115158252519081900360200190f35b3480156100f257600080fd5b506100fe600435610357565b60408051600160a060020a039092168252519081900360200190f35b34801561012657600080fd5b5061013e600160a060020a0360043516602435610362565b005b34801561014c57600080fd5b5061015561043a565b60408051918252519081900360200190f35b34801561017357600080fd5b5061013e600160a060020a036004358116906024351660443561044a565b34801561019d57600080fd5b506100d2600160a060020a0360043516602435610468565b3480156101c157600080fd5b5061013e600160a060020a036004358116906024351660443561047b565b3480156101eb57600080fd5b506100fe600435610499565b34801561020357600080fd5b50610155600160a060020a03600435166104a4565b34801561022457600080fd5b5061013e600160a060020a036004351660243515156104af565b34801561024a57600080fd5b5061013e600160a060020a03600480358216916024803590911691604435916064359081019101356104bd565b34801561028357600080fd5b506100d2600160a060020a0360043581169060243516610503565b6000600160e060020a031980831614156102ba57506000610352565b600160e060020a031982167f01ffc9a700000000000000000000000000000000000000000000000000000000148061031b5750600160e060020a031982167f7c0633c600000000000000000000000000000000000000000000000000000000145b8061034f5750600160e060020a031982167f80ac58cd00000000000000000000000000000000000000000000000000000000145b90505b919050565b600061034f8261050f565b600061036d8261052a565b905033600160a060020a038216148061038b575061038b3382610545565b151561039657600080fd5b600160a060020a0383811690821614156103af57600080fd5b82600160a060020a03166103c28361050f565b600160a060020a03161461043557600082815260096020526040808220805473ffffffffffffffffffffffffffffffffffffffff1916600160a060020a0387811691821790925591518593918516917f8c5be1e5ebec7d5bd14f71427d1e84f3dd0314c0f7b2291e5b200ac8c7c3b92591a45b505050565b6000610444610573565b90505b90565b61043583838360206040519081016040528060008152506000610579565b600061047483836105a4565b9392505050565b61043583838360206040519081016040528060008152506001610579565b600061034f8261052a565b600061034f82610622565b6104b9828261063d565b5050565b6104fc85858585858080601f01602080910402602001604051908101604052809392919081815260200183838082843750600194506105799350505050565b5050505050565b60006104748383610545565b600090815260096020526040902054600160a060020a031690565b600090815260056020526040902054600160a060020a031690565b600160a060020a03918216600090815260086020908152604080832093909416825291909152205460ff1690565b60035490565b8261058433826105a4565b151561058f57600080fd5b61059c86868686866106cb565b505050505050565b600080600160a060020a03841615156105bc57600080fd5b6105c58361052a565b905080600160a060020a031684600160a060020a031614156105ea576001915061061b565b6105f48185610545565b80610618575083600160a060020a031661060d8461050f565b600160a060020a0316145b91505b5092915050565b600160a060020a031660009081526004602052604090205490565b80156106665761064d3383610545565b1561065757600080fd5b6106618233610921565b610685565b6106703383610545565b151561067b57600080fd5b6106858233610956565b6040805182151581529051600160a060020a0384169133917f17307eab39ab6107e8899845ad3d59bd9653f200f220920489ca2b5937696c319181900360200190a35050565b600084600160a060020a03811615156106e357600080fd5b848680600160a060020a03166106f88361052a565b600160a060020a0316141561070c57600080fd5b888781600160a060020a03166107218261052a565b600160a060020a03161461073457600080fd5b600089815260056020526040902054600160a060020a03169550610758868a610988565b610762868a610a2e565b61076c8a8a610bbc565b888a600160a060020a031687600160a060020a03167fddf252ad1be2c89b69c2b068fc378daa952ba7f163c4a11628f55a4df523b3ef60405160405180910390a48680156107be57506107be8a610c53565b156109145763150b7a0260e060020a027bffffffffffffffffffffffffffffffffffffffffffffffffffffffff19168a600160a060020a031663150b7a0233898d8d6040518563ffffffff1660e060020a0281526004018085600160a060020a0316600160a060020a0316815260200184600160a060020a0316600160a060020a0316815260200183815260200180602001828103825283818151815260200191508051906020019080838360005b8381101561088557818101518382015260200161086d565b50505050905090810190601f1680156108b25780820380516001836020036101000a031916815260200191505b5095505050505050602060405180830381600087803b1580156108d457600080fd5b505af11580156108e8573d6000803e3d6000fd5b505050506040513d60208110156108fe57600080fd5b5051600160e060020a0319161461091457600080fd5b5050505050505050505050565b600160a060020a039081166000908152600860209081526040808320949093168252929092529020805460ff19166001179055565b600160a060020a039081166000908152600860209081526040808320949093168252929092529020805460ff19169055565b81600160a060020a031661099b8261052a565b600160a060020a03161480156109c75750600081815260096020526040902054600160a060020a031615155b156104b957600081815260096020526040808220805473ffffffffffffffffffffffffffffffffffffffff1916905551829190600160a060020a038516907f8c5be1e5ebec7d5bd14f71427d1e84f3dd0314c0f7b2291e5b200ac8c7c3b925908390a45050565b6000818152600660205260408120549080610a596001610a4d87610622565b9063ffffffff610c5b16565b600160a060020a038616600090815260046020526040902080549193509083908110610a8157fe5b6000918252602080832090910154868352600582526040808420805473ffffffffffffffffffffffffffffffffffffffff19169055600160a060020a0389168452600490925291208054919250829185908110610ada57fe5b6000918252602080832090910192909255600160a060020a0387168152600490915260408120805484908110610b0c57fe5b6000918252602080832090910192909255600160a060020a0387168152600490915260409020805490610b43906000198301610c80565b50600160a060020a0385166000908152600460205260409020541515610b8457600160a060020a0385166000908152600460205260408120610b8491610ca4565b6000848152600660205260408082208290558282529020839055600354610bb290600163ffffffff610c5b16565b6003555050505050565b6000818152600560205260408120805473ffffffffffffffffffffffffffffffffffffffff1916600160a060020a038516179055610bf983610622565b600160a060020a0384166000908152600460209081526040808320805460018181018355918552838520018790558684526006909252909120829055600354919250610c4b919063ffffffff610c6d16565b600355505050565b6000903b1190565b600082821115610c6757fe5b50900390565b81810182811015610c7a57fe5b92915050565b81548183558181111561043557600083815260209020610435918101908301610cc5565b5080546000825590600052602060002090810190610cc29190610cc5565b50565b61044791905b80821115610cdf5760008155600101610ccb565b50905600a165627a7a72305820053723af5b4c0e01e55b7195b34de72d52a503a86a89f4ed146468cfcb1942150029",
  "source": "pragma solidity ^0.4.18;\n\nimport 'openzeppelin-solidity/contracts/math/SafeMath.sol';\n\nimport './AssetRegistryStorage.sol';\n\nimport './IERC721Base.sol';\n\nimport './IERC721Receiver.sol';\n\nimport './ERC165.sol';\n\ncontract ERC721Base is AssetRegistryStorage, IERC721Base, ERC165 {\n  using SafeMath for uint256;\n\n  // Equals to `bytes4(keccak256(\"onERC721Received(address,address,uint256,bytes)\"))`\n  bytes4 private constant ERC721_RECEIVED = 0x150b7a02;\n\n  bytes4 private constant InterfaceId_ERC165 = 0x01ffc9a7;\n  /*\n   * 0x01ffc9a7 ===\n   *   bytes4(keccak256('supportsInterface(bytes4)'))\n   */\n\n  bytes4 private constant Old_InterfaceId_ERC721 = 0x7c0633c6;\n  bytes4 private constant InterfaceId_ERC721 = 0x80ac58cd;\n   /*\n   * 0x80ac58cd ===\n   *   bytes4(keccak256('balanceOf(address)')) ^\n   *   bytes4(keccak256('ownerOf(uint256)')) ^\n   *   bytes4(keccak256('approve(address,uint256)')) ^\n   *   bytes4(keccak256('getApproved(uint256)')) ^\n   *   bytes4(keccak256('setApprovalForAll(address,bool)')) ^\n   *   bytes4(keccak256('isApprovedForAll(address,address)')) ^\n   *   bytes4(keccak256('transferFrom(address,address,uint256)')) ^\n   *   bytes4(keccak256('safeTransferFrom(address,address,uint256)')) ^\n   *   bytes4(keccak256('safeTransferFrom(address,address,uint256,bytes)'))\n   */\n\n  //\n  // Global Getters\n  //\n\n  /**\n   * @dev Gets the total amount of assets stored by the contract\n   * @return uint256 representing the total amount of assets\n   */\n  function totalSupply() external view returns (uint256) {\n    return _totalSupply();\n  }\n  function _totalSupply() internal view returns (uint256) {\n    return _count;\n  }\n\n  //\n  // Asset-centric getter functions\n  //\n\n  /**\n   * @dev Queries what address owns an asset. This method does not throw.\n   * In order to check if the asset exists, use the `exists` function or check if the\n   * return value of this call is `0`.\n   * @return uint256 the assetId\n   */\n  function ownerOf(uint256 assetId) external view returns (address) {\n    return _ownerOf(assetId);\n  }\n  function _ownerOf(uint256 assetId) internal view returns (address) {\n    return _holderOf[assetId];\n  }\n\n  //\n  // Holder-centric getter functions\n  //\n  /**\n   * @dev Gets the balance of the specified address\n   * @param owner address to query the balance of\n   * @return uint256 representing the amount owned by the passed address\n   */\n  function balanceOf(address owner) external view returns (uint256) {\n    return _balanceOf(owner);\n  }\n  function _balanceOf(address owner) internal view returns (uint256) {\n    return _assetsOf[owner].length;\n  }\n\n  //\n  // Authorization getters\n  //\n\n  /**\n   * @dev Query whether an address has been authorized to move any assets on behalf of someone else\n   * @param operator the address that might be authorized\n   * @param assetHolder the address that provided the authorization\n   * @return bool true if the operator has been authorized to move any assets\n   */\n  function isApprovedForAll(address assetHolder, address operator)\n    external view returns (bool)\n  {\n    return _isApprovedForAll(assetHolder, operator);\n  }\n  function _isApprovedForAll(address assetHolder, address operator)\n    internal view returns (bool)\n  {\n    return _operators[assetHolder][operator];\n  }\n\n  /**\n   * @dev Query what address has been particularly authorized to move an asset\n   * @param assetId the asset to be queried for\n   * @return bool true if the asset has been approved by the holder\n   */\n  function getApproved(uint256 assetId) external view returns (address) {\n    return _getApprovedAddress(assetId);\n  }\n  function getApprovedAddress(uint256 assetId) external view returns (address) {\n    return _getApprovedAddress(assetId);\n  }\n  function _getApprovedAddress(uint256 assetId) internal view returns (address) {\n    return _approval[assetId];\n  }\n\n  /**\n   * @dev Query if an operator can move an asset.\n   * @param operator the address that might be authorized\n   * @param assetId the asset that has been `approved` for transfer\n   * @return bool true if the asset has been approved by the holder\n   */\n  function isAuthorized(address operator, uint256 assetId) external view returns (bool) {\n    return _isAuthorized(operator, assetId);\n  }\n  function _isAuthorized(address operator, uint256 assetId) internal view returns (bool)\n  {\n    require(operator != 0);\n    address owner = _ownerOf(assetId);\n    if (operator == owner) {\n      return true;\n    }\n    return _isApprovedForAll(owner, operator) || _getApprovedAddress(assetId) == operator;\n  }\n\n  //\n  // Authorization\n  //\n\n  /**\n   * @dev Authorize a third party operator to manage (send) msg.sender's asset\n   * @param operator address to be approved\n   * @param authorized bool set to true to authorize, false to withdraw authorization\n   */\n  function setApprovalForAll(address operator, bool authorized) external {\n    return _setApprovalForAll(operator, authorized);\n  }\n  function _setApprovalForAll(address operator, bool authorized) internal {\n    if (authorized) {\n      require(!_isApprovedForAll(msg.sender, operator));\n      _addAuthorization(operator, msg.sender);\n    } else {\n      require(_isApprovedForAll(msg.sender, operator));\n      _clearAuthorization(operator, msg.sender);\n    }\n    emit ApprovalForAll(msg.sender, operator, authorized);\n  }\n\n  /**\n   * @dev Authorize a third party operator to manage one particular asset\n   * @param operator address to be approved\n   * @param assetId asset to approve\n   */\n  function approve(address operator, uint256 assetId) external {\n    address holder = _ownerOf(assetId);\n    require(msg.sender == holder || _isApprovedForAll(msg.sender, holder));\n    require(operator != holder);\n\n    if (_getApprovedAddress(assetId) != operator) {\n      _approval[assetId] = operator;\n      emit Approval(holder, operator, assetId);\n    }\n  }\n\n  function _addAuthorization(address operator, address holder) private {\n    _operators[holder][operator] = true;\n  }\n\n  function _clearAuthorization(address operator, address holder) private {\n    _operators[holder][operator] = false;\n  }\n\n  //\n  // Internal Operations\n  //\n\n  function _addAssetTo(address to, uint256 assetId) internal {\n    _holderOf[assetId] = to;\n\n    uint256 length = _balanceOf(to);\n\n    _assetsOf[to].push(assetId);\n\n    _indexOfAsset[assetId] = length;\n\n    _count = _count.add(1);\n  }\n\n  function _removeAssetFrom(address from, uint256 assetId) internal {\n    uint256 assetIndex = _indexOfAsset[assetId];\n    uint256 lastAssetIndex = _balanceOf(from).sub(1);\n    uint256 lastAssetId = _assetsOf[from][lastAssetIndex];\n\n    _holderOf[assetId] = 0;\n\n    // Insert the last asset into the position previously occupied by the asset to be removed\n    _assetsOf[from][assetIndex] = lastAssetId;\n\n    // Resize the array\n    _assetsOf[from][lastAssetIndex] = 0;\n    _assetsOf[from].length--;\n\n    // Remove the array if no more assets are owned to prevent pollution\n    if (_assetsOf[from].length == 0) {\n      delete _assetsOf[from];\n    }\n\n    // Update the index of positions for the asset\n    _indexOfAsset[assetId] = 0;\n    _indexOfAsset[lastAssetId] = assetIndex;\n\n    _count = _count.sub(1);\n  }\n\n  function _clearApproval(address holder, uint256 assetId) internal {\n    if (_ownerOf(assetId) == holder && _approval[assetId] != 0) {\n      _approval[assetId] = 0;\n      emit Approval(holder, 0, assetId);\n    }\n  }\n\n  //\n  // Supply-altering functions\n  //\n\n  function _generate(uint256 assetId, address beneficiary) internal {\n    require(_holderOf[assetId] == 0);\n\n    _addAssetTo(beneficiary, assetId);\n\n    emit Transfer(0, beneficiary, assetId);\n  }\n\n  function _destroy(uint256 assetId) internal {\n    address holder = _holderOf[assetId];\n    require(holder != 0);\n\n    _removeAssetFrom(holder, assetId);\n\n    emit Transfer(holder, 0, assetId);\n  }\n\n  //\n  // Transaction related operations\n  //\n\n  modifier onlyHolder(uint256 assetId) {\n    require(_ownerOf(assetId) == msg.sender);\n    _;\n  }\n\n  modifier onlyAuthorized(uint256 assetId) {\n    require(_isAuthorized(msg.sender, assetId));\n    _;\n  }\n\n  modifier isCurrentOwner(address from, uint256 assetId) {\n    require(_ownerOf(assetId) == from);\n    _;\n  }\n\n  modifier isDestinataryDefined(address destinatary) {\n    require(destinatary != 0);\n    _;\n  }\n\n  modifier destinataryIsNotHolder(uint256 assetId, address to) {\n    require(_ownerOf(assetId) != to);\n    _;\n  }\n\n  /**\n   * @dev Alias of `safeTransferFrom(from, to, assetId, '')`\n   *\n   * @param from address that currently owns an asset\n   * @param to address to receive the ownership of the asset\n   * @param assetId uint256 ID of the asset to be transferred\n   */\n  function safeTransferFrom(address from, address to, uint256 assetId) external {\n    return _doTransferFrom(from, to, assetId, '', true);\n  }\n\n  /**\n   * @dev Securely transfers the ownership of a given asset from one address to\n   * another address, calling the method `onNFTReceived` on the target address if\n   * there's code associated with it\n   *\n   * @param from address that currently owns an asset\n   * @param to address to receive the ownership of the asset\n   * @param assetId uint256 ID of the asset to be transferred\n   * @param userData bytes arbitrary user information to attach to this transfer\n   */\n  function safeTransferFrom(address from, address to, uint256 assetId, bytes userData) external {\n    return _doTransferFrom(from, to, assetId, userData, true);\n  }\n\n  /**\n   * @dev Transfers the ownership of a given asset from one address to another address\n   * Warning! This function does not attempt to verify that the target address can send\n   * tokens.\n   *\n   * @param from address sending the asset\n   * @param to address to receive the ownership of the asset\n   * @param assetId uint256 ID of the asset to be transferred\n   */\n  function transferFrom(address from, address to, uint256 assetId) external {\n    return _doTransferFrom(from, to, assetId, '', false);\n  }\n\n  function _doTransferFrom(\n    address from,\n    address to,\n    uint256 assetId,\n    bytes userData,\n    bool doCheck\n  )\n    onlyAuthorized(assetId)\n    internal\n  {\n    _moveToken(from, to, assetId, userData, doCheck);\n  }\n\n  function _moveToken(\n    address from,\n    address to,\n    uint256 assetId,\n    bytes userData,\n    bool doCheck\n  )\n    isDestinataryDefined(to)\n    destinataryIsNotHolder(assetId, to)\n    isCurrentOwner(from, assetId)\n    private\n  {\n    address holder = _holderOf[assetId];\n    _clearApproval(holder, assetId);\n    _removeAssetFrom(holder, assetId);\n    _addAssetTo(to, assetId);\n    emit Transfer(holder, to, assetId);\n\n    if (doCheck && _isContract(to)) {\n      // Equals to `bytes4(keccak256(\"onERC721Received(address,address,uint256,bytes)\"))\n      require(\n        IERC721Receiver(to).onERC721Received(\n          msg.sender, holder, assetId, userData\n        ) == ERC721_RECEIVED\n      );\n    }\n  }\n\n  /**\n   * Internal function that moves an asset from one holder to another\n   */\n\n  /**\n   * @dev Returns `true` if the contract implements `interfaceID` and `interfaceID` is not 0xffffffff, `false` otherwise\n   * @param  _interfaceID The interface identifier, as specified in ERC-165\n   */\n  function supportsInterface(bytes4 _interfaceID) external view returns (bool) {\n\n    if (_interfaceID == 0xffffffff) {\n      return false;\n    }\n    return _interfaceID == InterfaceId_ERC165 || _interfaceID == Old_InterfaceId_ERC721 || _interfaceID == InterfaceId_ERC721;\n  }\n\n  //\n  // Utilities\n  //\n\n  function _isContract(address addr) internal view returns (bool) {\n    uint size;\n    assembly { size := extcodesize(addr) }\n    return size > 0;\n  }\n}\n",
  "sourcePath": "/Users/jules/WebstormProjects/RobInTheHood/chain/landSC/node_modules/erc821/contracts/ERC721Base.sol",
  "compiler": {
    "name": "solc",
    "version": "0.4.25+commit.59dbf8f1.Emscripten.clang"
  },
  "schemaVersion": "3.0.1",
  "updatedAt": "2019-04-24T14:55:24.036Z",
  "devdoc": {
    "methods": {
      "approve(address,uint256)": {
        "details": "Authorize a third party operator to manage one particular asset",
        "params": {
          "assetId": "asset to approve",
          "operator": "address to be approved"
        }
      },
      "balanceOf(address)": {
        "details": "Gets the balance of the specified address",
        "params": {
          "owner": "address to query the balance of"
        },
        "return": "uint256 representing the amount owned by the passed address"
      },
      "getApproved(uint256)": {
        "details": "Query what address has been particularly authorized to move an asset",
        "params": {
          "assetId": "the asset to be queried for"
        },
        "return": "bool true if the asset has been approved by the holder"
      },
      "isApprovedForAll(address,address)": {
        "details": "Query whether an address has been authorized to move any assets on behalf of someone else",
        "params": {
          "assetHolder": "the address that provided the authorization",
          "operator": "the address that might be authorized"
        },
        "return": "bool true if the operator has been authorized to move any assets"
      },
      "isAuthorized(address,uint256)": {
        "details": "Query if an operator can move an asset.",
        "params": {
          "assetId": "the asset that has been `approved` for transfer",
          "operator": "the address that might be authorized"
        },
        "return": "bool true if the asset has been approved by the holder"
      },
      "ownerOf(uint256)": {
        "details": "Queries what address owns an asset. This method does not throw. In order to check if the asset exists, use the `exists` function or check if the return value of this call is `0`.",
        "return": "uint256 the assetId"
      },
      "safeTransferFrom(address,address,uint256)": {
        "details": "Alias of `safeTransferFrom(from, to, assetId, '')`",
        "params": {
          "assetId": "uint256 ID of the asset to be transferred",
          "from": "address that currently owns an asset",
          "to": "address to receive the ownership of the asset"
        }
      },
      "safeTransferFrom(address,address,uint256,bytes)": {
        "details": "Securely transfers the ownership of a given asset from one address to another address, calling the method `onNFTReceived` on the target address if there's code associated with it",
        "params": {
          "assetId": "uint256 ID of the asset to be transferred",
          "from": "address that currently owns an asset",
          "to": "address to receive the ownership of the asset",
          "userData": "bytes arbitrary user information to attach to this transfer"
        }
      },
      "setApprovalForAll(address,bool)": {
        "details": "Authorize a third party operator to manage (send) msg.sender's asset",
        "params": {
          "authorized": "bool set to true to authorize, false to withdraw authorization",
          "operator": "address to be approved"
        }
      },
      "supportsInterface(bytes4)": {
        "details": "Returns `true` if the contract implements `interfaceID` and `interfaceID` is not 0xffffffff, `false` otherwise",
        "params": {
          "_interfaceID": "The interface identifier, as specified in ERC-165"
        }
      },
      "totalSupply()": {
        "details": "Gets the total amount of assets stored by the contract",
        "return": "uint256 representing the total amount of assets"
      },
      "transferFrom(address,address,uint256)": {
        "details": "Transfers the ownership of a given asset from one address to another address Warning! This function does not attempt to verify that the target address can send tokens.",
        "params": {
          "assetId": "uint256 ID of the asset to be transferred",
          "from": "address sending the asset",
          "to": "address to receive the ownership of the asset"
        }
      }
    }
  },
  "userdoc": {
    "methods": {}
  }
}