{
  "contractName": "EstateRegistry",
  "abi": [
    {
      "constant": true,
      "inputs": [
        {
          "name": "_interfaceId",
          "type": "bytes4"
        }
      ],
      "name": "supportsInterface",
      "outputs": [
        {
          "name": "",
          "type": "bool"
        }
      ],
      "payable": false,
      "stateMutability": "view",
      "type": "function",
      "signature": "0x01ffc9a7"
    },
    {
      "constant": true,
      "inputs": [],
      "name": "name",
      "outputs": [
        {
          "name": "",
          "type": "string"
        }
      ],
      "payable": false,
      "stateMutability": "view",
      "type": "function",
      "signature": "0x06fdde03"
    },
    {
      "constant": true,
      "inputs": [
        {
          "name": "_tokenId",
          "type": "uint256"
        }
      ],
      "name": "getApproved",
      "outputs": [
        {
          "name": "",
          "type": "address"
        }
      ],
      "payable": false,
      "stateMutability": "view",
      "type": "function",
      "signature": "0x081812fc"
    },
    {
      "constant": false,
      "inputs": [
        {
          "name": "_to",
          "type": "address"
        },
        {
          "name": "_tokenId",
          "type": "uint256"
        }
      ],
      "name": "approve",
      "outputs": [],
      "payable": false,
      "stateMutability": "nonpayable",
      "type": "function",
      "signature": "0x095ea7b3"
    },
    {
      "constant": true,
      "inputs": [
        {
          "name": "",
          "type": "uint256"
        }
      ],
      "name": "landIdEstate",
      "outputs": [
        {
          "name": "",
          "type": "uint256"
        }
      ],
      "payable": false,
      "stateMutability": "view",
      "type": "function",
      "signature": "0x0a354fce"
    },
    {
      "constant": true,
      "inputs": [],
      "name": "totalSupply",
      "outputs": [
        {
          "name": "",
          "type": "uint256"
        }
      ],
      "payable": false,
      "stateMutability": "view",
      "type": "function",
      "signature": "0x18160ddd"
    },
    {
      "constant": true,
      "inputs": [
        {
          "name": "_owner",
          "type": "address"
        },
        {
          "name": "_index",
          "type": "uint256"
        }
      ],
      "name": "tokenOfOwnerByIndex",
      "outputs": [
        {
          "name": "",
          "type": "uint256"
        }
      ],
      "payable": false,
      "stateMutability": "view",
      "type": "function",
      "signature": "0x2f745c59"
    },
    {
      "constant": true,
      "inputs": [
        {
          "name": "",
          "type": "uint256"
        },
        {
          "name": "",
          "type": "uint256"
        }
      ],
      "name": "estateLandIds",
      "outputs": [
        {
          "name": "",
          "type": "uint256"
        }
      ],
      "payable": false,
      "stateMutability": "view",
      "type": "function",
      "signature": "0x3970bfd3"
    },
    {
      "constant": false,
      "inputs": [
        {
          "name": "_from",
          "type": "address"
        },
        {
          "name": "_to",
          "type": "address"
        },
        {
          "name": "_tokenId",
          "type": "uint256"
        }
      ],
      "name": "safeTransferFrom",
      "outputs": [],
      "payable": false,
      "stateMutability": "nonpayable",
      "type": "function",
      "signature": "0x42842e0e"
    },
    {
      "constant": true,
      "inputs": [
        {
          "name": "_tokenId",
          "type": "uint256"
        }
      ],
      "name": "exists",
      "outputs": [
        {
          "name": "",
          "type": "bool"
        }
      ],
      "payable": false,
      "stateMutability": "view",
      "type": "function",
      "signature": "0x4f558e79"
    },
    {
      "constant": true,
      "inputs": [
        {
          "name": "_index",
          "type": "uint256"
        }
      ],
      "name": "tokenByIndex",
      "outputs": [
        {
          "name": "",
          "type": "uint256"
        }
      ],
      "payable": false,
      "stateMutability": "view",
      "type": "function",
      "signature": "0x4f6ccce7"
    },
    {
      "constant": true,
      "inputs": [
        {
          "name": "_tokenId",
          "type": "uint256"
        }
      ],
      "name": "ownerOf",
      "outputs": [
        {
          "name": "",
          "type": "address"
        }
      ],
      "payable": false,
      "stateMutability": "view",
      "type": "function",
      "signature": "0x6352211e"
    },
    {
      "constant": true,
      "inputs": [
        {
          "name": "_owner",
          "type": "address"
        }
      ],
      "name": "balanceOf",
      "outputs": [
        {
          "name": "",
          "type": "uint256"
        }
      ],
      "payable": false,
      "stateMutability": "view",
      "type": "function",
      "signature": "0x70a08231"
    },
    {
      "constant": true,
      "inputs": [],
      "name": "registry",
      "outputs": [
        {
          "name": "",
          "type": "address"
        }
      ],
      "payable": false,
      "stateMutability": "view",
      "type": "function",
      "signature": "0x7b103999"
    },
    {
      "constant": true,
      "inputs": [],
      "name": "owner",
      "outputs": [
        {
          "name": "",
          "type": "address"
        }
      ],
      "payable": false,
      "stateMutability": "view",
      "type": "function",
      "signature": "0x8da5cb5b"
    },
    {
      "constant": true,
      "inputs": [],
      "name": "symbol",
      "outputs": [
        {
          "name": "",
          "type": "string"
        }
      ],
      "payable": false,
      "stateMutability": "view",
      "type": "function",
      "signature": "0x95d89b41"
    },
    {
      "constant": true,
      "inputs": [
        {
          "name": "",
          "type": "uint256"
        }
      ],
      "name": "updateOperator",
      "outputs": [
        {
          "name": "",
          "type": "address"
        }
      ],
      "payable": false,
      "stateMutability": "view",
      "type": "function",
      "signature": "0x9d40b850"
    },
    {
      "constant": true,
      "inputs": [
        {
          "name": "",
          "type": "uint256"
        },
        {
          "name": "",
          "type": "uint256"
        }
      ],
      "name": "estateLandIndex",
      "outputs": [
        {
          "name": "",
          "type": "uint256"
        }
      ],
      "payable": false,
      "stateMutability": "view",
      "type": "function",
      "signature": "0x9f813b1b"
    },
    {
      "constant": false,
      "inputs": [
        {
          "name": "_to",
          "type": "address"
        },
        {
          "name": "_approved",
          "type": "bool"
        }
      ],
      "name": "setApprovalForAll",
      "outputs": [],
      "payable": false,
      "stateMutability": "nonpayable",
      "type": "function",
      "signature": "0xa22cb465"
    },
    {
      "constant": false,
      "inputs": [
        {
          "name": "_from",
          "type": "address"
        },
        {
          "name": "_to",
          "type": "address"
        },
        {
          "name": "_tokenId",
          "type": "uint256"
        },
        {
          "name": "_data",
          "type": "bytes"
        }
      ],
      "name": "safeTransferFrom",
      "outputs": [],
      "payable": false,
      "stateMutability": "nonpayable",
      "type": "function",
      "signature": "0xb88d4fde"
    },
    {
      "constant": true,
      "inputs": [
        {
          "name": "contractName",
          "type": "string"
        },
        {
          "name": "migrationId",
          "type": "string"
        }
      ],
      "name": "isMigrated",
      "outputs": [
        {
          "name": "",
          "type": "bool"
        }
      ],
      "payable": false,
      "stateMutability": "view",
      "type": "function",
      "signature": "0xc0bac1a8"
    },
    {
      "constant": true,
      "inputs": [
        {
          "name": "_tokenId",
          "type": "uint256"
        }
      ],
      "name": "tokenURI",
      "outputs": [
        {
          "name": "",
          "type": "string"
        }
      ],
      "payable": false,
      "stateMutability": "view",
      "type": "function",
      "signature": "0xc87b56dd"
    },
    {
      "constant": true,
      "inputs": [
        {
          "name": "_owner",
          "type": "address"
        },
        {
          "name": "_operator",
          "type": "address"
        }
      ],
      "name": "isApprovedForAll",
      "outputs": [
        {
          "name": "",
          "type": "bool"
        }
      ],
      "payable": false,
      "stateMutability": "view",
      "type": "function",
      "signature": "0xe985e9c5"
    },
    {
      "constant": false,
      "inputs": [
        {
          "name": "newOwner",
          "type": "address"
        }
      ],
      "name": "transferOwnership",
      "outputs": [],
      "payable": false,
      "stateMutability": "nonpayable",
      "type": "function",
      "signature": "0xf2fde38b"
    },
    {
      "anonymous": false,
      "inputs": [
        {
          "indexed": true,
          "name": "previousOwner",
          "type": "address"
        },
        {
          "indexed": true,
          "name": "newOwner",
          "type": "address"
        }
      ],
      "name": "OwnershipTransferred",
      "type": "event",
      "signature": "0x8be0079c531659141344cd1fd0a4f28419497f9722a3daafe3b4186f6b6457e0"
    },
    {
      "anonymous": false,
      "inputs": [
        {
          "indexed": true,
          "name": "_from",
          "type": "address"
        },
        {
          "indexed": true,
          "name": "_to",
          "type": "address"
        },
        {
          "indexed": true,
          "name": "_tokenId",
          "type": "uint256"
        }
      ],
      "name": "Transfer",
      "type": "event",
      "signature": "0xddf252ad1be2c89b69c2b068fc378daa952ba7f163c4a11628f55a4df523b3ef"
    },
    {
      "anonymous": false,
      "inputs": [
        {
          "indexed": true,
          "name": "_owner",
          "type": "address"
        },
        {
          "indexed": true,
          "name": "_approved",
          "type": "address"
        },
        {
          "indexed": true,
          "name": "_tokenId",
          "type": "uint256"
        }
      ],
      "name": "Approval",
      "type": "event",
      "signature": "0x8c5be1e5ebec7d5bd14f71427d1e84f3dd0314c0f7b2291e5b200ac8c7c3b925"
    },
    {
      "anonymous": false,
      "inputs": [
        {
          "indexed": true,
          "name": "_owner",
          "type": "address"
        },
        {
          "indexed": true,
          "name": "_operator",
          "type": "address"
        },
        {
          "indexed": false,
          "name": "_approved",
          "type": "bool"
        }
      ],
      "name": "ApprovalForAll",
      "type": "event",
      "signature": "0x17307eab39ab6107e8899845ad3d59bd9653f200f220920489ca2b5937696c31"
    },
    {
      "anonymous": false,
      "inputs": [
        {
          "indexed": true,
          "name": "_owner",
          "type": "address"
        },
        {
          "indexed": true,
          "name": "_estateId",
          "type": "uint256"
        },
        {
          "indexed": false,
          "name": "_data",
          "type": "string"
        }
      ],
      "name": "CreateEstate",
      "type": "event",
      "signature": "0xd66691e9db811aef0bc0900328bd314b23f1f2285d5cb6d4baa4d959b3645a3c"
    },
    {
      "anonymous": false,
      "inputs": [
        {
          "indexed": true,
          "name": "_estateId",
          "type": "uint256"
        },
        {
          "indexed": true,
          "name": "_landId",
          "type": "uint256"
        }
      ],
      "name": "AddLand",
      "type": "event",
      "signature": "0xff0e52667d53255667dc777a00af81038a4646367b0d73d8ee8540ca5b0c9a2e"
    },
    {
      "anonymous": false,
      "inputs": [
        {
          "indexed": true,
          "name": "_estateId",
          "type": "uint256"
        },
        {
          "indexed": true,
          "name": "_landId",
          "type": "uint256"
        },
        {
          "indexed": true,
          "name": "_destinatary",
          "type": "address"
        }
      ],
      "name": "RemoveLand",
      "type": "event",
      "signature": "0x7932eb5ab0d4d4d172776074ee15d13d708465ff5476902ed15a4965434fcab1"
    },
    {
      "anonymous": false,
      "inputs": [
        {
          "indexed": true,
          "name": "_assetId",
          "type": "uint256"
        },
        {
          "indexed": true,
          "name": "_holder",
          "type": "address"
        },
        {
          "indexed": true,
          "name": "_operator",
          "type": "address"
        },
        {
          "indexed": false,
          "name": "_data",
          "type": "string"
        }
      ],
      "name": "Update",
      "type": "event",
      "signature": "0x47c705b9219229ad762fca605f08fb024a3415d0ae78af5d319820c72e510414"
    },
    {
      "anonymous": false,
      "inputs": [
        {
          "indexed": true,
          "name": "_estateId",
          "type": "uint256"
        },
        {
          "indexed": true,
          "name": "_operator",
          "type": "address"
        }
      ],
      "name": "UpdateOperator",
      "type": "event",
      "signature": "0x9d9dd80a56a16f715df6eb40b771e24ff8cbea6eed9de28473ce0f28fe5602a9"
    },
    {
      "anonymous": false,
      "inputs": [
        {
          "indexed": true,
          "name": "_registry",
          "type": "address"
        }
      ],
      "name": "SetLANDRegistry",
      "type": "event",
      "signature": "0x2e88792af6f2248ed486ffffc86edf9bc197596990f7b406d5f867a1dd930ba5"
    },
    {
      "anonymous": false,
      "inputs": [
        {
          "indexed": false,
          "name": "contractName",
          "type": "string"
        },
        {
          "indexed": false,
          "name": "migrationId",
          "type": "string"
        }
      ],
      "name": "Migrated",
      "type": "event",
      "signature": "0xdd117a11c22118c9dee4b5a67ce578bc44529dce21ee0ccc439588fbb9fb4ea3"
    },
    {
      "constant": false,
      "inputs": [
        {
          "name": "to",
          "type": "address"
        },
        {
          "name": "metadata",
          "type": "string"
        }
      ],
      "name": "mint",
      "outputs": [
        {
          "name": "",
          "type": "uint256"
        }
      ],
      "payable": false,
      "stateMutability": "nonpayable",
      "type": "function",
      "signature": "0xd0def521"
    },
    {
      "constant": false,
      "inputs": [
        {
          "name": "estateId",
          "type": "uint256"
        },
        {
          "name": "landId",
          "type": "uint256"
        },
        {
          "name": "destinatary",
          "type": "address"
        }
      ],
      "name": "transferLand",
      "outputs": [],
      "payable": false,
      "stateMutability": "nonpayable",
      "type": "function",
      "signature": "0xa506e5dc"
    },
    {
      "constant": false,
      "inputs": [
        {
          "name": "estateId",
          "type": "uint256"
        },
        {
          "name": "landIds",
          "type": "uint256[]"
        },
        {
          "name": "destinatary",
          "type": "address"
        }
      ],
      "name": "transferManyLands",
      "outputs": [],
      "payable": false,
      "stateMutability": "nonpayable",
      "type": "function",
      "signature": "0x40807049"
    },
    {
      "constant": true,
      "inputs": [
        {
          "name": "landId",
          "type": "uint256"
        }
      ],
      "name": "getLandEstateId",
      "outputs": [
        {
          "name": "",
          "type": "uint256"
        }
      ],
      "payable": false,
      "stateMutability": "view",
      "type": "function",
      "signature": "0xbb969132"
    },
    {
      "constant": false,
      "inputs": [
        {
          "name": "_registry",
          "type": "address"
        }
      ],
      "name": "setLANDRegistry",
      "outputs": [],
      "payable": false,
      "stateMutability": "nonpayable",
      "type": "function",
      "signature": "0x535a920c"
    },
    {
      "constant": false,
      "inputs": [],
      "name": "ping",
      "outputs": [],
      "payable": false,
      "stateMutability": "nonpayable",
      "type": "function",
      "signature": "0x5c36b186"
    },
    {
      "constant": true,
      "inputs": [
        {
          "name": "estateId",
          "type": "uint256"
        }
      ],
      "name": "getEstateSize",
      "outputs": [
        {
          "name": "",
          "type": "uint256"
        }
      ],
      "payable": false,
      "stateMutability": "view",
      "type": "function",
      "signature": "0xf4a43448"
    },
    {
      "constant": false,
      "inputs": [
        {
          "name": "estateId",
          "type": "uint256"
        },
        {
          "name": "metadata",
          "type": "string"
        }
      ],
      "name": "updateMetadata",
      "outputs": [],
      "payable": false,
      "stateMutability": "nonpayable",
      "type": "function",
      "signature": "0x53c8388e"
    },
    {
      "constant": true,
      "inputs": [
        {
          "name": "estateId",
          "type": "uint256"
        }
      ],
      "name": "getMetadata",
      "outputs": [
        {
          "name": "",
          "type": "string"
        }
      ],
      "payable": false,
      "stateMutability": "view",
      "type": "function",
      "signature": "0xa574cea4"
    },
    {
      "constant": true,
      "inputs": [
        {
          "name": "operator",
          "type": "address"
        },
        {
          "name": "estateId",
          "type": "uint256"
        }
      ],
      "name": "isUpdateAuthorized",
      "outputs": [
        {
          "name": "",
          "type": "bool"
        }
      ],
      "payable": false,
      "stateMutability": "view",
      "type": "function",
      "signature": "0x65937ab9"
    },
    {
      "constant": false,
      "inputs": [
        {
          "name": "estateId",
          "type": "uint256"
        },
        {
          "name": "operator",
          "type": "address"
        }
      ],
      "name": "setUpdateOperator",
      "outputs": [],
      "payable": false,
      "stateMutability": "nonpayable",
      "type": "function",
      "signature": "0xb0b02c60"
    },
    {
      "constant": false,
      "inputs": [
        {
          "name": "estateId",
          "type": "uint256"
        },
        {
          "name": "landId",
          "type": "uint256"
        },
        {
          "name": "operator",
          "type": "address"
        }
      ],
      "name": "setLandUpdateOperator",
      "outputs": [],
      "payable": false,
      "stateMutability": "nonpayable",
      "type": "function",
      "signature": "0x1d11016a"
    },
    {
      "constant": false,
      "inputs": [
        {
          "name": "_name",
          "type": "string"
        },
        {
          "name": "_symbol",
          "type": "string"
        }
      ],
      "name": "initialize",
      "outputs": [],
      "payable": false,
      "stateMutability": "nonpayable",
      "type": "function",
      "signature": "0x4cd88b76"
    },
    {
      "constant": false,
      "inputs": [
        {
          "name": "_name",
          "type": "string"
        },
        {
          "name": "_symbol",
          "type": "string"
        },
        {
          "name": "_registry",
          "type": "address"
        }
      ],
      "name": "initialize",
      "outputs": [],
      "payable": false,
      "stateMutability": "nonpayable",
      "type": "function",
      "signature": "0x077f224a"
    },
    {
      "constant": false,
      "inputs": [
        {
          "name": "_sender",
          "type": "address"
        }
      ],
      "name": "initialize",
      "outputs": [],
      "payable": false,
      "stateMutability": "nonpayable",
      "type": "function",
      "signature": "0xc4d66de8"
    },
    {
      "constant": false,
      "inputs": [
        {
          "name": "_operator",
          "type": "address"
        },
        {
          "name": "_from",
          "type": "address"
        },
        {
          "name": "_tokenId",
          "type": "uint256"
        },
        {
          "name": "_data",
          "type": "bytes"
        }
      ],
      "name": "onERC721Received",
      "outputs": [
        {
          "name": "",
          "type": "bytes4"
        }
      ],
      "payable": false,
      "stateMutability": "nonpayable",
      "type": "function",
      "signature": "0x150b7a02"
    },
    {
      "constant": true,
      "inputs": [
        {
          "name": "estateId",
          "type": "uint256"
        }
      ],
      "name": "getFingerprint",
      "outputs": [
        {
          "name": "result",
          "type": "bytes32"
        }
      ],
      "payable": false,
      "stateMutability": "view",
      "type": "function",
      "signature": "0x159a6475"
    },
    {
      "constant": true,
      "inputs": [
        {
          "name": "estateId",
          "type": "uint256"
        },
        {
          "name": "fingerprint",
          "type": "bytes"
        }
      ],
      "name": "verifyFingerprint",
      "outputs": [
        {
          "name": "",
          "type": "bool"
        }
      ],
      "payable": false,
      "stateMutability": "view",
      "type": "function",
      "signature": "0x8f9f4b63"
    },
    {
      "constant": false,
      "inputs": [
        {
          "name": "from",
          "type": "address"
        },
        {
          "name": "to",
          "type": "address"
        },
        {
          "name": "estateIds",
          "type": "uint256[]"
        }
      ],
      "name": "safeTransferManyFrom",
      "outputs": [],
      "payable": false,
      "stateMutability": "nonpayable",
      "type": "function",
      "signature": "0x73b913fa"
    },
    {
      "constant": false,
      "inputs": [
        {
          "name": "from",
          "type": "address"
        },
        {
          "name": "to",
          "type": "address"
        },
        {
          "name": "estateIds",
          "type": "uint256[]"
        },
        {
          "name": "data",
          "type": "bytes"
        }
      ],
      "name": "safeTransferManyFrom",
      "outputs": [],
      "payable": false,
      "stateMutability": "nonpayable",
      "type": "function",
      "signature": "0xd93eeb5c"
    },
    {
      "constant": false,
      "inputs": [
        {
          "name": "estateId",
          "type": "uint256"
        },
        {
          "name": "landId",
          "type": "uint256"
        },
        {
          "name": "data",
          "type": "string"
        }
      ],
      "name": "updateLandData",
      "outputs": [],
      "payable": false,
      "stateMutability": "nonpayable",
      "type": "function",
      "signature": "0x28b34ef6"
    },
    {
      "constant": false,
      "inputs": [
        {
          "name": "estateId",
          "type": "uint256"
        },
        {
          "name": "landIds",
          "type": "uint256[]"
        },
        {
          "name": "data",
          "type": "string"
        }
      ],
      "name": "updateManyLandData",
      "outputs": [],
      "payable": false,
      "stateMutability": "nonpayable",
      "type": "function",
      "signature": "0x426a0af3"
    },
    {
      "constant": false,
      "inputs": [
        {
          "name": "_from",
          "type": "address"
        },
        {
          "name": "_to",
          "type": "address"
        },
        {
          "name": "_tokenId",
          "type": "uint256"
        }
      ],
      "name": "transferFrom",
      "outputs": [],
      "payable": false,
      "stateMutability": "nonpayable",
      "type": "function",
      "signature": "0x23b872dd"
    }
  ],
  "bytecode": "0x608060405234801561001057600080fd5b50613aab806100206000396000f30060806040526004361061023a5763ffffffff7c010000000000000000000000000000000000000000000000000000000060003504166301ffc9a7811461023f57806306fdde0314610275578063077f224a146102ff578063081812fc146103a3578063095ea7b3146103d75780630a354fce146103fb578063150b7a0214610425578063159a6475146104b157806318160ddd146104c95780631d11016a146104de57806323b872dd1461050557806328b34ef61461052f5780632f745c591461058f5780633970bfd3146105b357806340807049146105ce578063426a0af3146105fe57806342842e0e146106965780634cd88b76146106c05780634f558e79146107575780634f6ccce71461076f578063535a920c1461078757806353c8388e146107a85780635c36b186146107cc5780636352211e146107e157806365937ab9146107f957806370a082311461081d57806373b913fa1461083e5780637b103999146108a95780638da5cb5b146108be5780638f9f4b63146108d357806395d89b41146109315780639d40b850146109465780639f813b1b1461095e578063a22cb46514610979578063a506e5dc1461099f578063a574cea4146109c6578063b0b02c60146109de578063b88d4fde14610a02578063bb96913214610a71578063c0bac1a814610a89578063c4d66de814610b20578063c87b56dd14610b41578063d0def52114610b59578063d93eeb5c14610b86578063e985e9c514610c2f578063f2fde38b14610c56578063f4a4344814610c77575b600080fd5b34801561024b57600080fd5b50610261600160e060020a031960043516610c8f565b604080519115158252519081900360200190f35b34801561028157600080fd5b5061028a610ca0565b6040805160208082528351818301528351919283929083019185019080838360005b838110156102c45781810151838201526020016102ac565b50505050905090810190601f1680156102f15780820380516001836020036101000a031916815260200191505b509250505060405180910390f35b34801561030b57600080fd5b506040805160206004803580820135601f81018490048402850184019095528484526103a194369492936024939284019190819084018382808284375050604080516020601f89358b018035918201839004830284018301909452808352979a99988101979196509182019450925082915084018382808284375094975050509235600160a060020a03169350610d3792505050565b005b3480156103af57600080fd5b506103bb600435611042565b60408051600160a060020a039092168252519081900360200190f35b3480156103e357600080fd5b506103a1600160a060020a036004351660243561105d565b34801561040757600080fd5b50610413600435611106565b60408051918252519081900360200190f35b34801561043157600080fd5b50604080516020601f60643560048181013592830184900484028501840190955281845261049494600160a060020a0381358116956024803590921695604435953695608494019181908401838280828437509497506111189650505050505050565b60408051600160e060020a03199092168252519081900360200190f35b3480156104bd57600080fd5b506104136004356111e7565b3480156104d557600080fd5b50610413611361565b3480156104ea57600080fd5b506103a1600435602435600160a060020a0360443516611367565b34801561051157600080fd5b506103a1600160a060020a03600435811690602435166044356114dc565b34801561053b57600080fd5b50604080516020600460443581810135601f81018490048402850184019095528484526103a19482359460248035953695946064949201919081908401838280828437509497506115089650505050505050565b34801561059b57600080fd5b50610413600160a060020a0360043516602435611513565b3480156105bf57600080fd5b50610413600435602435611560565b3480156105da57600080fd5b506103a1600480359060248035908101910135600160a060020a0360443516611590565b34801561060a57600080fd5b506040805160206004602480358281013584810280870186019097528086526103a19684359636966044959194909101929182918501908490808284375050604080516020601f89358b018035918201839004830284018301909452808352979a9998810197919650918201945092508291508401838280828437509497506116329650505050505050565b3480156106a257600080fd5b506103a1600160a060020a0360043581169060243516604435611670565b3480156106cc57600080fd5b506040805160206004803580820135601f81018490048402850184019095528484526103a194369492936024939284019190819084018382808284375050604080516020601f89358b018035918201839004830284018301909452808352979a9998810197919650918201945092508291508401838280828437509497506116f09650505050505050565b34801561076357600080fd5b5061026160043561196b565b34801561077b57600080fd5b50610413600435611988565b34801561079357600080fd5b506103a1600160a060020a03600435166119bd565b3480156107b457600080fd5b506103a1600480359060248035908101910135611b38565b3480156107d857600080fd5b506103a1611c3d565b3480156107ed57600080fd5b506103bb600435611cbd565b34801561080557600080fd5b50610261600160a060020a0360043516602435611ce1565b34801561082957600080fd5b50610413600160a060020a0360043516611cf4565b34801561084a57600080fd5b5060408051602060046044358181013583810280860185019096528085526103a1958335600160a060020a039081169660248035909216963696956064959294930192829185019084908082843750949750611d279650505050505050565b3480156108b557600080fd5b506103bb611d43565b3480156108ca57600080fd5b506103bb611d52565b3480156108df57600080fd5b5060408051602060046024803582810135601f8101859004850286018501909652858552610261958335953695604494919390910191908190840183828082843750949750611d619650505050505050565b34801561093d57600080fd5b5061028a611d7d565b34801561095257600080fd5b506103bb600435611dde565b34801561096a57600080fd5b50610413600435602435611df9565b34801561098557600080fd5b506103a1600160a060020a03600435166024351515611e16565b3480156109ab57600080fd5b506103a1600435602435600160a060020a0360443516611e9a565b3480156109d257600080fd5b5061028a600435611f03565b3480156109ea57600080fd5b506103a1600435600160a060020a0360243516611fa4565b348015610a0e57600080fd5b50604080516020601f6064356004818101359283018490048402850184019095528184526103a194600160a060020a03813581169560248035909216956044359536956084940191819084018382808284375094975061205c9650505050505050565b348015610a7d57600080fd5b506104136004356120dc565b348015610a9557600080fd5b506040805160206004803580820135601f810184900484028501840190955284845261026194369492936024939284019190819084018382808284375050604080516020601f89358b018035918201839004830284018301909452808352979a9998810197919650918201945092508291508401838280828437509497506120ee9650505050505050565b348015610b2c57600080fd5b506103a1600160a060020a03600435166121b5565b348015610b4d57600080fd5b5061028a600435612425565b348015610b6557600080fd5b5061041360048035600160a060020a031690602480359081019101356124a3565b348015610b9257600080fd5b5060408051602060046044358181013583810280860185019096528085526103a1958335600160a060020a03908116966024803590921696369695606495929493019282918501908490808284375050604080516020601f89358b018035918201839004830284018301909452808352979a9998810197919650918201945092508291508401838280828437509497506125709650505050505050565b348015610c3b57600080fd5b50610261600160a060020a03600435811690602435166125a7565b348015610c6257600080fd5b506103a1600160a060020a03600435166125d5565b348015610c8357600080fd5b5061041360043561265d565b6000610c9a8261266f565b92915050565b60058054604080516020601f6002600019610100600188161502019095169490940493840181900481028201810190925282815260609390929091830182828015610d2c5780601f10610d0157610100808354040283529160200191610d2c565b820191906000526020600020905b815481529060010190602001808311610d0f57829003601f168201915b505050505090505b90565b6040805190810160405280600e81526020017f45737461746552656769737472790000000000000000000000000000000000008152506040805190810160405280600581526020017f302e302e32000000000000000000000000000000000000000000000000000000815250610dad82826120ee565b15610db757600080fd5b600160a060020a0383161515610e3d576040805160e560020a62461bcd02815260206004820152602660248201527f5468652072656769737472792073686f756c6420626520612076616c6964206160448201527f6464726573730000000000000000000000000000000000000000000000000000606482015290519081900360840190fd5b610e4785856116f0565b610e50336121b5565b600d8054600160a060020a031916600160a060020a0385161790556040805181815283519181019190915282517fdd117a11c22118c9dee4b5a67ce578bc44529dce21ee0ccc439588fbb9fb4ea39184918491908190602080830191606084019187019080838360005b83811015610ed2578181015183820152602001610eba565b50505050905090810190601f168015610eff5780820380516001836020036101000a031916815260200191505b50838103825284518152845160209182019186019080838360005b83811015610f32578181015183820152602001610f1a565b50505050905090810190601f168015610f5f5780820380516001836020036101000a031916815260200191505b5094505050505060405180910390a160016000836040518082805190602001908083835b60208310610fa25780518252601f199092019160209182019101610f83565b51815160209384036101000a6000190180199092169116179052920194855250604051938490038101842086519094879450925082918401908083835b60208310610ffe5780518252601f199092019160209182019101610fdf565b51815160209384036101000a60001901801990921691161790529201948552506040519384900301909220805460ff19169315159390931790925550505050505050565b600090815260026020526040902054600160a060020a031690565b600061106882611cbd565b9050600160a060020a03838116908216141561108357600080fd5b33600160a060020a038216148061109f575061109f81336125a7565b15156110aa57600080fd5b6000828152600260205260408082208054600160a060020a031916600160a060020a0387811691821790925591518593918516917f8c5be1e5ebec7d5bd14f71427d1e84f3dd0314c0f7b2291e5b200ac8c7c3b92591a4505050565b600f6020526000908152604090205481565b600d546000908190600160a060020a031633146111a5576040805160e560020a62461bcd02815260206004820152602960248201527f4f6e6c79207468652072656769737472792063616e206d616b6520746869732060448201527f6f7065726174696f6e0000000000000000000000000000000000000000000000606482015290519081900360840190fd5b6111ae83612710565b90506111ba818561271b565b7f150b7a020000000000000000000000000000000000000000000000000000000091505b50949350505050565b60008060008360405160200180807f65737461746549640000000000000000000000000000000000000000000000008152506008018281526020019150506040516020818303038152906040526040518082805190602001908083835b602083106112635780518252601f199092019160209182019101611244565b51815160209384036101000a6000190180199092169116179052604080519290940182900390912060008a8152600e909252928120549297509195509093505050505b8181101561135a576000848152600e602052604090208054829081106112c857fe5b9060005260206000200154604051602001808281526020019150506040516020818303038152906040526040518082805190602001908083835b602083106113215780518252601f199092019160209182019101611302565b5181516020939093036101000a6000190180199091169216919091179052604051920182900390912095909518945050506001016112a6565b5050919050565b60095490565b82611372338261298f565b15156113c5576040805160e560020a62461bcd0281526020600482015260236024820152600080516020613a60833981519152604482015260e960020a623332b902606482015290519081900360840190fd5b6000838152600f60205260409020548414611450576040805160e560020a62461bcd02815260206004820152602260248201527f546865204c414e44206973206e6f742070617274206f6620746865204573746160448201527f7465000000000000000000000000000000000000000000000000000000000000606482015290519081900360840190fd5b600d54604080517fb0b02c6000000000000000000000000000000000000000000000000000000000815260048101869052600160a060020a0385811660248301529151919092169163b0b02c6091604480830192600092919082900301818387803b1580156114be57600080fd5b505af11580156114d2573d6000803e3d6000fd5b5050505050505050565b60008181526012602052604090208054600160a060020a03191690556115038383836129e6565b505050565b611503838383612ad3565b600061151e83611cf4565b821061152957600080fd5b600160a060020a038316600090815260076020526040902080548390811061154d57fe5b9060005260206000200154905092915050565b600e6020528160005260406000208181548110151561157b57fe5b90600052602060002001600091509150505481565b6000808561159e338261298f565b15156115f1576040805160e560020a62461bcd0281526020600482015260236024820152600080516020613a60833981519152604482015260e960020a623332b902606482015290519081900360840190fd5b849250600091505b828210156116295761161e8787878581811061161157fe5b9050602002013586612d5c565b6001909101906115f9565b50505050505050565b815160005b818110156116695761166185858381518110151561165157fe5b9060200190602002015185612ad3565b600101611637565b5050505050565b8061167b338261298f565b15156116ce576040805160e560020a62461bcd0281526020600482015260236024820152600080516020613a60833981519152604482015260e960020a623332b902606482015290519081900360840190fd5b6116ea848484602060405190810160405280600081525061205c565b50505050565b6040805190810160405280600b81526020017f455243373231546f6b656e0000000000000000000000000000000000000000008152506040805190810160405280600581526020017f312e392e3000000000000000000000000000000000000000000000000000000081525061176682826120ee565b1561177057600080fd5b83516117839060059060208701906139a7565b5082516117979060069060208601906139a7565b507fdd117a11c22118c9dee4b5a67ce578bc44529dce21ee0ccc439588fbb9fb4ea38282604051808060200180602001838103835285818151815260200191508051906020019080838360005b838110156117fc5781810151838201526020016117e4565b50505050905090810190601f1680156118295780820380516001836020036101000a031916815260200191505b50838103825284518152845160209182019186019080838360005b8381101561185c578181015183820152602001611844565b50505050905090810190601f1680156118895780820380516001836020036101000a031916815260200191505b5094505050505060405180910390a160016000836040518082805190602001908083835b602083106118cc5780518252601f1990920191602091820191016118ad565b51815160209384036101000a6000190180199092169116179052920194855250604051938490038101842086519094879450925082918401908083835b602083106119285780518252601f199092019160209182019101611909565b51815160209384036101000a60001901801990921691161790529201948552506040519384900301909220805460ff191693151593909317909255505050505050565b600090815260016020526040902054600160a060020a0316151590565b6000611992611361565b821061199d57600080fd5b60098054839081106119ab57fe5b90600052602060002001549050919050565b600c54600160a060020a031633146119d457600080fd5b6119e681600160a060020a0316613024565b1515611a62576040805160e560020a62461bcd02815260206004820152602e60248201527f546865204c414e4420726567697374727920616464726573732073686f756c6460448201527f206265206120636f6e7472616374000000000000000000000000000000000000606482015290519081900360840190fd5b600160a060020a0381161515611ae8576040805160e560020a62461bcd02815260206004820152602960248201527f546865204c414e4420726567697374727920616464726573732073686f756c6460448201527f2062652076616c69640000000000000000000000000000000000000000000000606482015290519081900360840190fd5b600d8054600160a060020a031916600160a060020a0383811691909117918290556040519116907f2e88792af6f2248ed486ffffc86edf9bc197596990f7b406d5f867a1dd930ba590600090a250565b82611b43338261302c565b1515611b99576040805160e560020a62461bcd02815260206004820152601160248201527f556e617574686f72697a65642075736572000000000000000000000000000000604482015290519081900360640190fd5b611bd38484848080601f0160208091040260200160405190810160405280939291908181526020018383808284375061305f945050505050565b33611bdd85611cbd565b600160a060020a0316857f47c705b9219229ad762fca605f08fb024a3415d0ae78af5d319820c72e51041486866040518080602001828103825284848281815260200192508082843760405192018290039550909350505050a450505050565b600d60009054906101000a9004600160a060020a0316600160a060020a0316635c36b1866040518163ffffffff167c0100000000000000000000000000000000000000000000000000000000028152600401600060405180830381600087803b158015611ca957600080fd5b505af11580156116ea573d6000803e3d6000fd5b600081815260016020526040812054600160a060020a0316801515610c9a57600080fd5b6000611ced838361302c565b9392505050565b6000600160a060020a0382161515611d0b57600080fd5b50600160a060020a031660009081526003602052604090205490565b6115038383836020604051908101604052806000815250612570565b600d54600160a060020a031681565b600c54600160a060020a031681565b6000611d6c8261307e565b611d75846111e7565b149392505050565b60068054604080516020601f6002600019610100600188161502019095169490940493840181900481028201810190925282815260609390929091830182828015610d2c5780601f10610d0157610100808354040283529160200191610d2c565b601260205260009081526040902054600160a060020a031681565b601060209081526000928352604080842090915290825290205481565b600160a060020a038216331415611e2c57600080fd5b336000818152600460209081526040808320600160a060020a03871680855290835292819020805460ff1916861515908117909155815190815290519293927f17307eab39ab6107e8899845ad3d59bd9653f200f220920489ca2b5937696c31929181900390910190a35050565b82611ea5338261298f565b1515611ef8576040805160e560020a62461bcd0281526020600482015260236024820152600080516020613a60833981519152604482015260e960020a623332b902606482015290519081900360840190fd5b6116ea848484612d5c565b60008181526011602090815260409182902080548351601f6002600019610100600186161502019093169290920491820184900484028101840190945280845260609392830182828015611f985780601f10611f6d57610100808354040283529160200191611f98565b820191906000526020600020905b815481529060010190602001808311611f7b57829003601f168201915b50505050509050919050565b81611faf338261298f565b1515612002576040805160e560020a62461bcd0281526020600482015260236024820152600080516020613a60833981519152604482015260e960020a623332b902606482015290519081900360840190fd5b6000838152601260205260408082208054600160a060020a031916600160a060020a0386169081179091559051909185917f9d9dd80a56a16f715df6eb40b771e24ff8cbea6eed9de28473ce0f28fe5602a99190a3505050565b81612067338261298f565b15156120ba576040805160e560020a62461bcd0281526020600482015260236024820152600080516020613a60833981519152604482015260e960020a623332b902606482015290519081900360840190fd5b6120c58585856114dc565b6120d185858585613116565b151561166957600080fd5b6000908152600f602052604090205490565b600080836040518082805190602001908083835b602083106121215780518252601f199092019160209182019101612102565b51815160209384036101000a6000190180199092169116179052920194855250604051938490038101842086519094879450925082918401908083835b6020831061217d5780518252601f19909201916020918201910161215e565b51815160209384036101000a600019018019909216911617905292019485525060405193849003019092205460ff1695945050505050565b6040805190810160405280600781526020017f4f776e61626c65000000000000000000000000000000000000000000000000008152506040805190810160405280600581526020017f312e392e3000000000000000000000000000000000000000000000000000000081525061222b82826120ee565b1561223557600080fd5b600c8054600160a060020a031916600160a060020a0385161790556040805181815283519181019190915282517fdd117a11c22118c9dee4b5a67ce578bc44529dce21ee0ccc439588fbb9fb4ea39184918491908190602080830191606084019187019080838360005b838110156122b757818101518382015260200161229f565b50505050905090810190601f1680156122e45780820380516001836020036101000a031916815260200191505b50838103825284518152845160209182019186019080838360005b838110156123175781810151838201526020016122ff565b50505050905090810190601f1680156123445780820380516001836020036101000a031916815260200191505b5094505050505060405180910390a160016000836040518082805190602001908083835b602083106123875780518252601f199092019160209182019101612368565b51815160209384036101000a6000190180199092169116179052920194855250604051938490038101842086519094879450925082918401908083835b602083106123e35780518252601f1990920191602091820191016123c4565b51815160209384036101000a60001901801990921691161790529201948552506040519384900301909220805460ff1916931515939093179092555050505050565b60606124308261196b565b151561243b57600080fd5b6000828152600b602090815260409182902080548351601f600260001961010060018616150201909316929092049182018490048402810184019094528084529091830182828015611f985780601f10611f6d57610100808354040283529160200191611f98565b600d54600090600160a060020a0316331461252e576040805160e560020a62461bcd02815260206004820152602960248201527f4f6e6c79207468652072656769737472792063616e206d616b6520746869732060448201527f6f7065726174696f6e0000000000000000000000000000000000000000000000606482015290519081900360840190fd5b6125688484848080601f0160208091040260200160405190810160405280939291908181526020018383808284375061327e945050505050565b949350505050565b60005b82518110156116695761259f8585858481518110151561258f57fe5b906020019060200201518561205c565b600101612573565b600160a060020a03918216600090815260046020908152604080832093909416825291909152205460ff1690565b600c54600160a060020a031633146125ec57600080fd5b600160a060020a038116151561260157600080fd5b600c54604051600160a060020a038084169216907f8be0079c531659141344cd1fd0a4f28419497f9722a3daafe3b4186f6b6457e090600090a3600c8054600160a060020a031916600160a060020a0392909216919091179055565b6000908152600e602052604090205490565b600061267a826133cf565b806126c25750604080517f6765744d657461646174612875696e743235362900000000000000000000000081529051908190036014019020600160e060020a03198381169116145b80610c9a5750604080517f76657269667946696e6765727072696e742875696e743235362c62797465732981529051908190036020019020600160e060020a03198381169116149050919050565b6000610c9a8261307e565b6127248261196b565b151561277a576040805160e560020a62461bcd02815260206004820152601a60248201527f546865204573746174652069642073686f756c64206578697374000000000000604482015290519081900360640190fd5b6000818152600f602052604090205415612804576040805160e560020a62461bcd02815260206004820152602660248201527f546865204c414e4420697320616c7265616479206f776e656420627920616e2060448201527f4573746174650000000000000000000000000000000000000000000000000000606482015290519081900360840190fd5b600d54604080517f6352211e0000000000000000000000000000000000000000000000000000000081526004810184905290513092600160a060020a031691636352211e9160248083019260209291908290030181600087803b15801561286a57600080fd5b505af115801561287e573d6000803e3d6000fd5b505050506040513d602081101561289457600080fd5b5051600160a060020a03161461291a576040805160e560020a62461bcd02815260206004820152602960248201527f5468652045737461746552656769737472792063616e6e6f74206d616e61676560448201527f20746865204c414e440000000000000000000000000000000000000000000000606482015290519081900360840190fd5b6000828152600e60209081526040808320805460018101825581855283852001859055848452600f835281842086905585845254601083528184208585529092528083209190915551829184917fff0e52667d53255667dc777a00af81038a4646367b0d73d8ee8540ca5b0c9a2e9190a35050565b60008061299b83611cbd565b905080600160a060020a031684600160a060020a031614806129d6575083600160a060020a03166129cb84611042565b600160a060020a0316145b80612568575061256881856125a7565b806129f1338261298f565b1515612a44576040805160e560020a62461bcd0281526020600482015260236024820152600080516020613a60833981519152604482015260e960020a623332b902606482015290519081900360840190fd5b600160a060020a0384161515612a5957600080fd5b600160a060020a0383161515612a6e57600080fd5b612a788483613444565b612a8284836134a8565b612a8c83836135e1565b8183600160a060020a031685600160a060020a03167fddf252ad1be2c89b69c2b068fc378daa952ba7f163c4a11628f55a4df523b3ef60405160405180910390a450505050565b6000808484612ae333838361362a565b1515612b39576040805160e560020a62461bcd02815260206004820152601160248201527f756e617574686f72697a65642075736572000000000000000000000000000000604482015290519081900360640190fd5b6000868152600f60205260409020548714612bc4576040805160e560020a62461bcd02815260206004820152602260248201527f546865204c414e44206973206e6f742070617274206f6620746865204573746160448201527f7465000000000000000000000000000000000000000000000000000000000000606482015290519081900360840190fd5b600d54604080517f7efd9112000000000000000000000000000000000000000000000000000000008152600481018990528151600160a060020a0390931692637efd9112926024808401939192918290030181600087803b158015612c2857600080fd5b505af1158015612c3c573d6000803e3d6000fd5b505050506040513d6040811015612c5257600080fd5b508051602091820151600d546040517fd4dd159400000000000000000000000000000000000000000000000000000000815260048101848152602482018490526060604483019081528b5160648401528b51959a50939850600160a060020a039092169463d4dd1594948a948a948d949093919260849091019185019080838360005b83811015612ced578181015183820152602001612cd5565b50505050905090810190601f168015612d1a5780820380516001836020036101000a031916815260200191505b50945050505050600060405180830381600087803b158015612d3b57600080fd5b505af1158015612d4f573d6000803e3d6000fd5b5050505050505050505050565b600080808080600160a060020a0386161515612de8576040805160e560020a62461bcd02815260206004820152602d60248201527f596f752063616e206e6f74207472616e73666572204c414e4420746f20616e2060448201527f656d707479206164647265737300000000000000000000000000000000000000606482015290519081900360840190fd5b6000888152600e60209081526040808320601083528184208b85529283905292205491965094501515612e8b576040805160e560020a62461bcd02815260206004820152602260248201527f546865204c414e44206973206e6f742070617274206f6620746865204573746160448201527f7465000000000000000000000000000000000000000000000000000000000000606482015290519081900360840190fd5b8454612e9e90600163ffffffff6136e216565b600088815260208690526040902054909350612ec190600163ffffffff6136e216565b91508483815481101515612ed157fe5b6000918252602090912001549050612ef082600163ffffffff6136f416565b60008281526020869052604090205584548190869084908110612f0f57fe5b6000918252602090912001558454859084908110612f2957fe5b600091825260208220015582612f3f8682613a25565b50600087815260208581526040808320839055600f909152808220829055600d5481517f42842e0e000000000000000000000000000000000000000000000000000000008152306004820152600160a060020a038a81166024830152604482018c9052925192909116926342842e0e9260648084019382900301818387803b158015612fca57600080fd5b505af1158015612fde573d6000803e3d6000fd5b5050505085600160a060020a031687897f7932eb5ab0d4d4d172776074ee15d13d708465ff5476902ed15a4965434fcab160405160405180910390a45050505050505050565b6000903b1190565b6000613038838361298f565b80611ced575050600090815260126020526040902054600160a060020a0391821691161490565b60008281526011602090815260409091208251611503928401906139a7565b600080805b835181101561310f5761309d81600863ffffffff61370116565b84828151811015156130ab57fe5b60209101015160029190910a7f0100000000000000000000000000000000000000000000000000000000000000918290049091027fff0000000000000000000000000000000000000000000000000000000000000016049190911790600101613083565b5092915050565b60008061312b85600160a060020a0316613024565b151561313a57600191506111de565b6040517f150b7a020000000000000000000000000000000000000000000000000000000081523360048201818152600160a060020a03898116602485015260448401889052608060648501908152875160848601528751918a169463150b7a0294938c938b938b93909160a490910190602085019080838360005b838110156131cd5781810151838201526020016131b5565b50505050905090810190601f1680156131fa5780820380516001836020036101000a031916815260200191505b5095505050505050602060405180830381600087803b15801561321c57600080fd5b505af1158015613230573d6000803e3d6000fd5b505050506040513d602081101561324657600080fd5b5051600160e060020a0319167f150b7a0200000000000000000000000000000000000000000000000000000000149695505050505050565b600080600160a060020a0384161515613306576040805160e560020a62461bcd028152602060048201526024808201527f596f752063616e206e6f74206d696e7420746f20616e20656d7074792061646460448201527f7265737300000000000000000000000000000000000000000000000000000000606482015290519081900360840190fd5b61330e61372a565b905061331a848261374a565b613324818461305f565b8084600160a060020a03167fd66691e9db811aef0bc0900328bd314b23f1f2285d5cb6d4baa4d959b3645a3c856040518080602001828103825283818151815260200191508051906020019080838360005b8381101561338e578181015183820152602001613376565b50505050905090810190601f1680156133bb5780820380516001836020036101000a031916815260200191505b509250505060405180910390a39392505050565b60006133da82613799565b8061340e5750600160e060020a031982167f780e9d6300000000000000000000000000000000000000000000000000000000145b80610c9a575050600160e060020a0319167f5b5e139f000000000000000000000000000000000000000000000000000000001490565b81600160a060020a031661345782611cbd565b600160a060020a03161461346a57600080fd5b600081815260026020526040902054600160a060020a0316156134a45760008181526002602052604090208054600160a060020a03191690555b5050565b60008060006134b7858561380e565b600084815260086020908152604080832054600160a060020a03891684526007909252909120549093506134f290600163ffffffff6136e216565b600160a060020a03861660009081526007602052604090208054919350908390811061351a57fe5b90600052602060002001549050806007600087600160a060020a0316600160a060020a031681526020019081526020016000208481548110151561355a57fe5b6000918252602080832090910192909255600160a060020a038716815260079091526040812080548490811061358c57fe5b6000918252602080832090910192909255600160a060020a03871681526007909152604090208054906135c3906000198301613a25565b50600093845260086020526040808520859055908452909220555050565b60006135ed8383613897565b50600160a060020a039091166000908152600760209081526040808320805460018101825590845282842081018590559383526008909152902055565b6000613636848461302c565b806125685750600d54604080517f9d40b850000000000000000000000000000000000000000000000000000000008152600481018590529051600160a060020a03808816931691639d40b8509160248083019260209291908290030181600087803b1580156136a457600080fd5b505af11580156136b8573d6000803e3d6000fd5b505050506040513d60208110156136ce57600080fd5b5051600160a060020a031614949350505050565b6000828211156136ee57fe5b50900390565b81810182811015610c9a57fe5b600082151561371257506000610c9a565b5081810281838281151561372257fe5b0414610c9a57fe5b60006137456001613739611361565b9063ffffffff6136f416565b905090565b613754828261391a565b600980546000838152600a60205260408120829055600182018355919091527f6e1540171b6c0c960b71a7020d9f60077f6af931a8bbf590da0223dacf75c7af015550565b60006137a482613975565b806137d85750600160e060020a031982167f80ac58cd00000000000000000000000000000000000000000000000000000000145b80610c9a575050600160e060020a0319167f4f558e79000000000000000000000000000000000000000000000000000000001490565b81600160a060020a031661382182611cbd565b600160a060020a03161461383457600080fd5b600160a060020a03821660009081526003602052604090205461385e90600163ffffffff6136e216565b600160a060020a039092166000908152600360209081526040808320949094559181526001909152208054600160a060020a0319169055565b600081815260016020526040902054600160a060020a0316156138b957600080fd5b60008181526001602081815260408084208054600160a060020a031916600160a060020a03881690811790915584526003909152909120546138fa916136f4565b600160a060020a0390921660009081526003602052604090209190915550565b600160a060020a038216151561392f57600080fd5b61393982826135e1565b6040518190600160a060020a038416906000907fddf252ad1be2c89b69c2b068fc378daa952ba7f163c4a11628f55a4df523b3ef908290a45050565b600160e060020a031981167f01ffc9a70000000000000000000000000000000000000000000000000000000014919050565b828054600181600116156101000203166002900490600052602060002090601f016020900481019282601f106139e857805160ff1916838001178555613a15565b82800160010185558215613a15579182015b82811115613a155782518255916020019190600101906139fa565b50613a21929150613a45565b5090565b815481835581811115611503576000838152602090206115039181019083015b610d3491905b80821115613a215760008155600101613a4b56004f6e6c79206f776e6572206f72206f70657261746f722063616e207472616e73a165627a7a72305820fe5d006d3886d195e03bb9346054fd97d64fea3ae27bec3bf1d0b7702049541c0029",
  "source": "pragma solidity ^0.4.23;\n\nimport \"openzeppelin-zos/contracts/token/ERC721/ERC721Token.sol\";\nimport \"openzeppelin-zos/contracts/token/ERC721/ERC721Receiver.sol\";\nimport \"openzeppelin-zos/contracts/ownership/Ownable.sol\";\nimport \"zos-lib/contracts/migrations/Migratable.sol\";\n\nimport \"./IEstateRegistry.sol\";\nimport \"./EstateStorage.sol\";\n\n\n/**\n * @title ERC721 registry of every minted Estate and their owned LANDs\n * @dev Usings we are inheriting and depending on:\n * From ERC721Token:\n *   - using SafeMath for uint256;\n *   - using AddressUtils for address;\n */\n// solium-disable-next-line max-len\ncontract EstateRegistry is Migratable, IEstateRegistry, ERC721Token, ERC721Receiver, Ownable, EstateStorage {\n  modifier canTransfer(uint256 estateId) {\n    require(isApprovedOrOwner(msg.sender, estateId), \"Only owner or operator can transfer\");\n    _;\n  }\n\n  modifier onlyRegistry() {\n    require(msg.sender == address(registry), \"Only the registry can make this operation\");\n    _;\n  }\n\n  modifier onlyUpdateAuthorized(uint256 estateId) {\n    require(_isUpdateAuthorized(msg.sender, estateId), \"Unauthorized user\");\n    _;\n  }\n\n  modifier onlyLandUpdateAuthorized(uint256 estateId, uint256 landId) {\n    require(_isLandUpdateAuthorized(msg.sender, estateId, landId), \"unauthorized user\");\n    _;\n  }\n\n  /**\n   * @dev Mint a new Estate with some metadata\n   * @param to The address that will own the minted token\n   * @param metadata Set an initial metadata\n   * @return An uint256 representing the new token id\n   */\n  function mint(address to, string metadata) external onlyRegistry returns (uint256) {\n    return _mintEstate(to, metadata);\n  }\n\n  /**\n   * @notice Transfer a LAND owned by an Estate to a new owner\n   * @param estateId Current owner of the token\n   * @param landId LAND to be transfered\n   * @param destinatary New owner\n   */\n  function transferLand(\n    uint256 estateId,\n    uint256 landId,\n    address destinatary\n  )\n    external\n    canTransfer(estateId)\n  {\n    return _transferLand(estateId, landId, destinatary);\n  }\n\n  /**\n   * @notice Transfer many tokens owned by an Estate to a new owner\n   * @param estateId Current owner of the token\n   * @param landIds LANDs to be transfered\n   * @param destinatary New owner\n   */\n  function transferManyLands(\n    uint256 estateId,\n    uint256[] landIds,\n    address destinatary\n  )\n    external\n    canTransfer(estateId)\n  {\n    uint length = landIds.length;\n    for (uint i = 0; i < length; i++) {\n      _transferLand(estateId, landIds[i], destinatary);\n    }\n  }\n\n  /**\n   * @notice Get the Estate id for a given LAND id\n   * @dev This information also lives on estateLandIds,\n   *   but it being a mapping you need to know the Estate id beforehand.\n   * @param landId LAND to search\n   * @return The corresponding Estate id\n   */\n  function getLandEstateId(uint256 landId) external view returns (uint256) {\n    return landIdEstate[landId];\n  }\n\n  function setLANDRegistry(address _registry) external onlyOwner {\n    require(_registry.isContract(), \"The LAND registry address should be a contract\");\n    require(_registry != 0, \"The LAND registry address should be valid\");\n    registry = LANDRegistry(_registry);\n    emit SetLANDRegistry(registry);\n  }\n\n  function ping() external {\n    registry.ping();\n  }\n\n  /**\n   * @notice Return the amount of tokens for a given Estate\n   * @param estateId Estate id to search\n   * @return Tokens length\n   */\n  function getEstateSize(uint256 estateId) external view returns (uint256) {\n    return estateLandIds[estateId].length;\n  }\n\n  /**\n   * @notice Update the metadata of an Estate\n   * @dev Reverts if the Estate does not exist or the user is not authorized\n   * @param estateId Estate id to update\n   * @param metadata string metadata\n   */\n  function updateMetadata(\n    uint256 estateId,\n    string metadata\n  )\n    external\n    onlyUpdateAuthorized(estateId)\n  {\n    _updateMetadata(estateId, metadata);\n\n    emit Update(\n      estateId,\n      ownerOf(estateId),\n      msg.sender,\n      metadata\n    );\n  }\n\n  function getMetadata(uint256 estateId) external view returns (string) {\n    return estateData[estateId];\n  }\n\n  function isUpdateAuthorized(address operator, uint256 estateId) external view returns (bool) {\n    return _isUpdateAuthorized(operator, estateId);\n  }\n\n  function setUpdateOperator(uint256 estateId, address operator) public canTransfer(estateId) {\n    updateOperator[estateId] = operator;\n    emit UpdateOperator(estateId, operator);\n  }\n\n  function setLandUpdateOperator(\n    uint256 estateId,\n    uint256 landId,\n    address operator\n  )\n    public\n    canTransfer(estateId)\n  {\n    require(landIdEstate[landId] == estateId, \"The LAND is not part of the Estate\");\n    registry.setUpdateOperator(landId, operator);\n  }\n\n  function initialize(\n    string _name,\n    string _symbol,\n    address _registry\n  )\n    public\n    isInitializer(\"EstateRegistry\", \"0.0.2\")\n  {\n    require(_registry != 0, \"The registry should be a valid address\");\n\n    ERC721Token.initialize(_name, _symbol);\n    Ownable.initialize(msg.sender);\n    registry = LANDRegistry(_registry);\n  }\n\n  /**\n   * @notice Handle the receipt of an NFT\n   * @dev The ERC721 smart contract calls this function on the recipient\n   * after a `safetransfer`. This function MAY throw to revert and reject the\n   * transfer. Return of other than the magic value MUST result in the\n   * transaction being reverted.\n   * Note: the contract address is always the message sender.\n   * @param _operator The address which called `safeTransferFrom` function\n   * @param _from The address which previously owned the token\n   * @param _tokenId The NFT identifier which is being transferred\n   * @param _data Additional data with no specified format\n   * @return `bytes4(keccak256(\"onERC721Received(address,address,uint256,bytes)\"))`\n   */\n  function onERC721Received(\n    address _operator,\n    address _from,\n    uint256 _tokenId,\n    bytes _data\n  )\n    public\n    onlyRegistry\n    returns (bytes4)\n  {\n    uint256 estateId = _bytesToUint(_data);\n    _pushLandId(estateId, _tokenId);\n    return ERC721_RECEIVED;\n  }\n\n  /**\n   * @dev Creates a checksum of the contents of the Estate\n   * @param estateId the estateId to be verified\n   */\n  function getFingerprint(uint256 estateId)\n    public\n    view\n    returns (bytes32 result)\n  {\n    result = keccak256(abi.encodePacked(\"estateId\", estateId));\n\n    uint256 length = estateLandIds[estateId].length;\n    for (uint i = 0; i < length; i++) {\n      result ^= keccak256(abi.encodePacked(estateLandIds[estateId][i]));\n    }\n    return result;\n  }\n\n  /**\n   * @dev Verifies a checksum of the contents of the Estate\n   * @param estateId the estateid to be verified\n   * @param fingerprint the user provided identification of the Estate contents\n   */\n  function verifyFingerprint(uint256 estateId, bytes fingerprint) public view returns (bool) {\n    return getFingerprint(estateId) == _bytesToBytes32(fingerprint);\n  }\n\n  /**\n   * @dev Safely transfers the ownership of multiple Estate IDs to another address\n   * @dev Delegates to safeTransferFrom for each transfer\n   * @dev Requires the msg sender to be the owner, approved, or operator\n   * @param from current owner of the token\n   * @param to address to receive the ownership of the given token ID\n   * @param estateIds uint256 array of IDs to be transferred\n  */\n  function safeTransferManyFrom(address from, address to, uint256[] estateIds) public {\n    safeTransferManyFrom(\n      from,\n      to,\n      estateIds,\n      \"\"\n    );\n  }\n\n  /**\n   * @dev Safely transfers the ownership of multiple Estate IDs to another address\n   * @dev Delegates to safeTransferFrom for each transfer\n   * @dev Requires the msg sender to be the owner, approved, or operator\n   * @param from current owner of the token\n   * @param to address to receive the ownership of the given token ID\n   * @param estateIds uint256 array of IDs to be transferred\n   * @param data bytes data to send along with a safe transfer check\n  */\n  function safeTransferManyFrom(\n    address from,\n    address to,\n    uint256[] estateIds,\n    bytes data\n  )\n    public\n  {\n    for (uint i = 0; i < estateIds.length; i++) {\n      safeTransferFrom(\n        from,\n        to,\n        estateIds[i],\n        data\n      );\n    }\n  }\n\n  /**\n   * @dev update LAND data owned by an Estate\n   * @param estateId Estate\n   * @param landId LAND to be updated\n   * @param data string metadata\n   */\n  function updateLandData(uint256 estateId, uint256 landId, string data) public {\n    _updateLandData(estateId, landId, data);\n  }\n\n  /**\n   * @dev update LANDs data owned by an Estate\n   * @param estateId Estate id\n   * @param landIds LANDs to be updated\n   * @param data string metadata\n   */\n  function updateManyLandData(uint256 estateId, uint256[] landIds, string data) public {\n    uint length = landIds.length;\n    for (uint i = 0; i < length; i++) {\n      _updateLandData(estateId, landIds[i], data);\n    }\n  }\n\n  function transferFrom(address _from, address _to, uint256 _tokenId)\n  public\n  {\n    updateOperator[_tokenId] = address(0);\n    super.transferFrom(_from, _to, _tokenId);\n  }\n\n  // check the supported interfaces via ERC165\n  function _supportsInterface(bytes4 _interfaceId) internal view returns (bool) {\n    // solium-disable-next-line operator-whitespace\n    return super._supportsInterface(_interfaceId) ||\n      _interfaceId == InterfaceId_GetMetadata ||\n      _interfaceId == InterfaceId_VerifyFingerprint;\n  }\n\n  /**\n   * @dev Internal function to mint a new Estate with some metadata\n   * @param to The address that will own the minted token\n   * @param metadata Set an initial metadata\n   * @return An uint256 representing the new token id\n   */\n  function _mintEstate(address to, string metadata) internal returns (uint256) {\n    require(to != address(0), \"You can not mint to an empty address\");\n    uint256 estateId = _getNewEstateId();\n    _mint(to, estateId);\n    _updateMetadata(estateId, metadata);\n    emit CreateEstate(to, estateId, metadata);\n    return estateId;\n  }\n\n  /**\n   * @dev Internal function to update an Estate metadata\n   * @dev Does not require the Estate to exist, for a public interface use `updateMetadata`\n   * @param estateId Estate id to update\n   * @param metadata string metadata\n   */\n  function _updateMetadata(uint256 estateId, string metadata) internal {\n    estateData[estateId] = metadata;\n  }\n\n  /**\n   * @notice Return a new unique id\n   * @dev It uses totalSupply to determine the next id\n   * @return uint256 Representing the new Estate id\n   */\n  function _getNewEstateId() internal view returns (uint256) {\n    return totalSupply().add(1);\n  }\n\n  /**\n   * @dev Appends a new LAND id to an Estate updating all related storage\n   * @param estateId Estate where the LAND should go\n   * @param landId Transfered LAND\n   */\n  function _pushLandId(uint256 estateId, uint256 landId) internal {\n    require(exists(estateId), \"The Estate id should exist\");\n    require(landIdEstate[landId] == 0, \"The LAND is already owned by an Estate\");\n    require(registry.ownerOf(landId) == address(this), \"The EstateRegistry cannot manage the LAND\");\n\n    estateLandIds[estateId].push(landId);\n\n    landIdEstate[landId] = estateId;\n\n    estateLandIndex[estateId][landId] = estateLandIds[estateId].length;\n\n    emit AddLand(estateId, landId);\n  }\n\n  /**\n   * @dev Removes a LAND from an Estate and transfers it to a new owner\n   * @param estateId Current owner of the LAND\n   * @param landId LAND to be transfered\n   * @param destinatary New owner\n   */\n  function _transferLand(\n    uint256 estateId,\n    uint256 landId,\n    address destinatary\n  )\n    internal\n  {\n    require(destinatary != address(0), \"You can not transfer LAND to an empty address\");\n\n    uint256[] storage landIds = estateLandIds[estateId];\n    mapping(uint256 => uint256) landIndex = estateLandIndex[estateId];\n\n    /**\n     * Using 1-based indexing to be able to make this check\n     */\n    require(landIndex[landId] != 0, \"The LAND is not part of the Estate\");\n\n    uint lastIndexInArray = landIds.length.sub(1);\n\n    /**\n     * Get the landIndex of this token in the landIds list\n     */\n    uint indexInArray = landIndex[landId].sub(1);\n\n    /**\n     * Get the landId at the end of the landIds list\n     */\n    uint tempTokenId = landIds[lastIndexInArray];\n\n    /**\n     * Store the last token in the position previously occupied by landId\n     */\n    landIndex[tempTokenId] = indexInArray.add(1);\n    landIds[indexInArray] = tempTokenId;\n\n    /**\n     * Delete the landIds[last element]\n     */\n    delete landIds[lastIndexInArray];\n    landIds.length = lastIndexInArray;\n\n    /**\n     * Drop this landId from both the landIndex and landId list\n     */\n    landIndex[landId] = 0;\n\n    /**\n     * Drop this landId Estate\n     */\n    landIdEstate[landId] = 0;\n\n    registry.safeTransferFrom(this, destinatary, landId);\n\n    emit RemoveLand(estateId, landId, destinatary);\n  }\n\n  function _isUpdateAuthorized(address operator, uint256 estateId) internal view returns (bool) {\n    return isApprovedOrOwner(operator, estateId) || updateOperator[estateId] == operator;\n  }\n\n  function _isLandUpdateAuthorized(\n    address operator,\n    uint256 estateId,\n    uint256 landId\n  )\n    internal returns (bool)\n  {\n    return _isUpdateAuthorized(operator, estateId) || registry.updateOperator(landId) == operator;\n  }\n\n  function _bytesToUint(bytes b) internal pure returns (uint256) {\n    return uint256(_bytesToBytes32(b));\n  }\n\n  function _bytesToBytes32(bytes b) internal pure returns (bytes32) {\n    bytes32 out;\n\n    for (uint i = 0; i < b.length; i++) {\n      out |= bytes32(b[i] & 0xFF) >> i.mul(8);\n    }\n\n    return out;\n  }\n\n  function _updateLandData(\n    uint256 estateId,\n    uint256 landId,\n    string data\n  )\n    internal\n    onlyLandUpdateAuthorized(estateId, landId)\n  {\n    require(landIdEstate[landId] == estateId, \"The LAND is not part of the Estate\");\n    int x;\n    int y;\n    (x, y) = registry.decodeTokenId(landId);\n    registry.updateLandData(x, y, data);\n  }\n}\n",
  "sourcePath": "/Users/jules/WebstormProjects/RobInTheHood/chain/landSC/contracts/estate/EstateRegistry.sol",
  "compiler": {
    "name": "solc",
    "version": "0.4.25+commit.59dbf8f1.Emscripten.clang"
  },
  "schemaVersion": "3.0.1",
  "updatedAt": "2019-04-24T15:01:45.239Z",
  "devdoc": {
    "methods": {
      "approve(address,uint256)": {
        "details": "Approves another address to transfer the given token ID The zero address indicates there is no approved address. There can only be one approved address per token at a given time. Can only be called by the token owner or an approved operator.",
        "params": {
          "_to": "address to be approved for the given token ID",
          "_tokenId": "uint256 ID of the token to be approved"
        }
      },
      "balanceOf(address)": {
        "details": "Gets the balance of the specified address",
        "params": {
          "_owner": "address to query the balance of"
        },
        "return": "uint256 representing the amount owned by the passed address"
      },
      "exists(uint256)": {
        "details": "Returns whether the specified token exists",
        "params": {
          "_tokenId": "uint256 ID of the token to query the existence of"
        },
        "return": "whether the token exists"
      },
      "getApproved(uint256)": {
        "details": "Gets the approved address for a token ID, or zero if no address set",
        "params": {
          "_tokenId": "uint256 ID of the token to query the approval of"
        },
        "return": "address currently approved for the given token ID"
      },
      "getEstateSize(uint256)": {
        "params": {
          "estateId": "Estate id to search"
        },
        "return": "Tokens length"
      },
      "getFingerprint(uint256)": {
        "details": "Creates a checksum of the contents of the Estate",
        "params": {
          "estateId": "the estateId to be verified"
        }
      },
      "getLandEstateId(uint256)": {
        "details": "This information also lives on estateLandIds,  but it being a mapping you need to know the Estate id beforehand.",
        "params": {
          "landId": "LAND to search"
        },
        "return": "The corresponding Estate id"
      },
      "initialize(address)": {
        "details": "The Ownable constructor sets the original `owner` of the contract to the sender account."
      },
      "initialize(string,string)": {
        "details": "Constructor function"
      },
      "isApprovedForAll(address,address)": {
        "details": "Tells whether an operator is approved by a given owner",
        "params": {
          "_operator": "operator address which you want to query the approval of",
          "_owner": "owner address which you want to query the approval of"
        },
        "return": "bool whether the given operator is approved by the given owner"
      },
      "isMigrated(string,string)": {
        "params": {
          "contractName": "Contract name",
          "migrationId": "migration id"
        },
        "return": "if the contract was already migrated with given migration"
      },
      "mint(address,string)": {
        "details": "Mint a new Estate with some metadata",
        "params": {
          "metadata": "Set an initial metadata",
          "to": "The address that will own the minted token"
        },
        "return": "An uint256 representing the new token id"
      },
      "name()": {
        "details": "Gets the token name",
        "return": "string representing the token name"
      },
      "onERC721Received(address,address,uint256,bytes)": {
        "details": "The ERC721 smart contract calls this function on the recipient after a `safetransfer`. This function MAY throw to revert and reject the transfer. Return of other than the magic value MUST result in the transaction being reverted. Note: the contract address is always the message sender.",
        "params": {
          "_data": "Additional data with no specified format",
          "_from": "The address which previously owned the token",
          "_operator": "The address which called `safeTransferFrom` function",
          "_tokenId": "The NFT identifier which is being transferred"
        },
        "return": "`bytes4(keccak256(\"onERC721Received(address,address,uint256,bytes)\"))`"
      },
      "ownerOf(uint256)": {
        "details": "Gets the owner of the specified token ID",
        "params": {
          "_tokenId": "uint256 ID of the token to query the owner of"
        },
        "return": "owner address currently marked as the owner of the given token ID"
      },
      "safeTransferFrom(address,address,uint256)": {
        "details": "Safely transfers the ownership of a given token ID to another address If the target address is a contract, it must implement `onERC721Received`, which is called upon a safe transfer, and return the magic value `bytes4(keccak256(\"onERC721Received(address,address,uint256,bytes)\"))`; otherwise, the transfer is reverted.   * Requires the msg sender to be the owner, approved, or operator",
        "params": {
          "_from": "current owner of the token",
          "_to": "address to receive the ownership of the given token ID",
          "_tokenId": "uint256 ID of the token to be transferred"
        }
      },
      "safeTransferFrom(address,address,uint256,bytes)": {
        "details": "Safely transfers the ownership of a given token ID to another address If the target address is a contract, it must implement `onERC721Received`, which is called upon a safe transfer, and return the magic value `bytes4(keccak256(\"onERC721Received(address,address,uint256,bytes)\"))`; otherwise, the transfer is reverted. Requires the msg sender to be the owner, approved, or operator",
        "params": {
          "_data": "bytes data to send along with a safe transfer check",
          "_from": "current owner of the token",
          "_to": "address to receive the ownership of the given token ID",
          "_tokenId": "uint256 ID of the token to be transferred"
        }
      },
      "safeTransferManyFrom(address,address,uint256[])": {
        "details": "Safely transfers the ownership of multiple Estate IDs to another addressDelegates to safeTransferFrom for each transferRequires the msg sender to be the owner, approved, or operator",
        "params": {
          "estateIds": "uint256 array of IDs to be transferred",
          "from": "current owner of the token",
          "to": "address to receive the ownership of the given token ID"
        }
      },
      "safeTransferManyFrom(address,address,uint256[],bytes)": {
        "details": "Safely transfers the ownership of multiple Estate IDs to another addressDelegates to safeTransferFrom for each transferRequires the msg sender to be the owner, approved, or operator",
        "params": {
          "data": "bytes data to send along with a safe transfer check",
          "estateIds": "uint256 array of IDs to be transferred",
          "from": "current owner of the token",
          "to": "address to receive the ownership of the given token ID"
        }
      },
      "setApprovalForAll(address,bool)": {
        "details": "Sets or unsets the approval of a given operator An operator is allowed to transfer all tokens of the sender on their behalf",
        "params": {
          "_approved": "representing the status of the approval to be set",
          "_to": "operator address to set the approval"
        }
      },
      "symbol()": {
        "details": "Gets the token symbol",
        "return": "string representing the token symbol"
      },
      "tokenByIndex(uint256)": {
        "details": "Gets the token ID at a given index of all the tokens in this contract Reverts if the index is greater or equal to the total number of tokens",
        "params": {
          "_index": "uint256 representing the index to be accessed of the tokens list"
        },
        "return": "uint256 token ID at the given index of the tokens list"
      },
      "tokenOfOwnerByIndex(address,uint256)": {
        "details": "Gets the token ID at a given index of the tokens list of the requested owner",
        "params": {
          "_index": "uint256 representing the index to be accessed of the requested tokens list",
          "_owner": "address owning the tokens list to be accessed"
        },
        "return": "uint256 token ID at the given index of the tokens list owned by the requested address"
      },
      "tokenURI(uint256)": {
        "details": "Returns an URI for a given token ID Throws if the token ID does not exist. May return an empty string.",
        "params": {
          "_tokenId": "uint256 ID of the token to query"
        }
      },
      "totalSupply()": {
        "details": "Gets the total amount of tokens stored by the contract",
        "return": "uint256 representing the total amount of tokens"
      },
      "transferLand(uint256,uint256,address)": {
        "params": {
          "destinatary": "New owner",
          "estateId": "Current owner of the token",
          "landId": "LAND to be transfered"
        }
      },
      "transferManyLands(uint256,uint256[],address)": {
        "params": {
          "destinatary": "New owner",
          "estateId": "Current owner of the token",
          "landIds": "LANDs to be transfered"
        }
      },
      "transferOwnership(address)": {
        "details": "Allows the current owner to transfer control of the contract to a newOwner.",
        "params": {
          "newOwner": "The address to transfer ownership to."
        }
      },
      "updateLandData(uint256,uint256,string)": {
        "details": "update LAND data owned by an Estate",
        "params": {
          "data": "string metadata",
          "estateId": "Estate",
          "landId": "LAND to be updated"
        }
      },
      "updateManyLandData(uint256,uint256[],string)": {
        "details": "update LANDs data owned by an Estate",
        "params": {
          "data": "string metadata",
          "estateId": "Estate id",
          "landIds": "LANDs to be updated"
        }
      },
      "updateMetadata(uint256,string)": {
        "details": "Reverts if the Estate does not exist or the user is not authorized",
        "params": {
          "estateId": "Estate id to update",
          "metadata": "string metadata"
        }
      },
      "verifyFingerprint(uint256,bytes)": {
        "details": "Verifies a checksum of the contents of the Estate",
        "params": {
          "estateId": "the estateid to be verified",
          "fingerprint": "the user provided identification of the Estate contents"
        }
      }
    },
    "title": "ERC721 registry of every minted Estate and their owned LANDs"
  },
  "userdoc": {
    "methods": {
      "getEstateSize(uint256)": {
        "notice": "Return the amount of tokens for a given Estate"
      },
      "getLandEstateId(uint256)": {
        "notice": "Get the Estate id for a given LAND id"
      },
      "onERC721Received(address,address,uint256,bytes)": {
        "notice": "Handle the receipt of an NFT"
      },
      "supportsInterface(bytes4)": {
        "notice": "0x01ffc9a7 ===  bytes4(keccak256('supportsInterface(bytes4)'))"
      },
      "transferLand(uint256,uint256,address)": {
        "notice": "Transfer a LAND owned by an Estate to a new owner"
      },
      "transferManyLands(uint256,uint256[],address)": {
        "notice": "Transfer many tokens owned by an Estate to a new owner"
      },
      "updateMetadata(uint256,string)": {
        "notice": "Update the metadata of an Estate"
      }
    }
  }
}