{
  "contractName": "EstateStorage",
  "abi": [
    {
      "constant": true,
      "inputs": [
        {
          "name": "",
          "type": "uint256"
        }
      ],
      "name": "landIdEstate",
      "outputs": [
        {
          "name": "",
          "type": "uint256"
        }
      ],
      "payable": false,
      "stateMutability": "view",
      "type": "function"
    },
    {
      "constant": true,
      "inputs": [
        {
          "name": "",
          "type": "uint256"
        },
        {
          "name": "",
          "type": "uint256"
        }
      ],
      "name": "estateLandIds",
      "outputs": [
        {
          "name": "",
          "type": "uint256"
        }
      ],
      "payable": false,
      "stateMutability": "view",
      "type": "function"
    },
    {
      "constant": true,
      "inputs": [],
      "name": "registry",
      "outputs": [
        {
          "name": "",
          "type": "address"
        }
      ],
      "payable": false,
      "stateMutability": "view",
      "type": "function"
    },
    {
      "constant": true,
      "inputs": [
        {
          "name": "",
          "type": "uint256"
        }
      ],
      "name": "updateOperator",
      "outputs": [
        {
          "name": "",
          "type": "address"
        }
      ],
      "payable": false,
      "stateMutability": "view",
      "type": "function"
    },
    {
      "constant": true,
      "inputs": [
        {
          "name": "",
          "type": "uint256"
        },
        {
          "name": "",
          "type": "uint256"
        }
      ],
      "name": "estateLandIndex",
      "outputs": [
        {
          "name": "",
          "type": "uint256"
        }
      ],
      "payable": false,
      "stateMutability": "view",
      "type": "function"
    }
  ],
  "bytecode": "0x608060405234801561001057600080fd5b506101f6806100206000396000f30060806040526004361061006c5763ffffffff7c01000000000000000000000000000000000000000000000000000000006000350416630a354fce81146100715780633970bfd31461009b5780637b103999146100b65780639d40b850146100f45780639f813b1b1461010c575b600080fd5b34801561007d57600080fd5b50610089600435610127565b60408051918252519081900360200190f35b3480156100a757600080fd5b50610089600435602435610139565b3480156100c257600080fd5b506100cb610169565b6040805173ffffffffffffffffffffffffffffffffffffffff9092168252519081900360200190f35b34801561010057600080fd5b506100cb600435610185565b34801561011857600080fd5b506100896004356024356101ad565b60026020526000908152604090205481565b60016020528160005260406000208181548110151561015457fe5b90600052602060002001600091509150505481565b60005473ffffffffffffffffffffffffffffffffffffffff1681565b60056020526000908152604090205473ffffffffffffffffffffffffffffffffffffffff1681565b6003602090815260009283526040808420909152908252902054815600a165627a7a72305820dbffc51a43a3dd18de344086780d853b12a94c2bf697932a17e414e64e0e521b0029",
  "source": "pragma solidity ^0.4.23;\n\n\ncontract LANDRegistry {\n  function decodeTokenId(uint value) external pure returns (int, int);\n  function updateLandData(int x, int y, string data) external;\n  function setUpdateOperator(uint256 assetId, address operator) external;\n  function ping() public;\n  function ownerOf(uint256 tokenId) public returns (address);\n  function safeTransferFrom(address, address, uint256) public;\n  function updateOperator(uint256 landId) public returns (address);\n}\n\n\ncontract EstateStorage {\n  bytes4 internal constant InterfaceId_GetMetadata = bytes4(keccak256(\"getMetadata(uint256)\"));\n  bytes4 internal constant InterfaceId_VerifyFingerprint = bytes4(\n    keccak256(\"verifyFingerprint(uint256,bytes)\")\n  );\n\n  LANDRegistry public registry;\n\n  // From Estate to list of owned LAND ids (LANDs)\n  mapping(uint256 => uint256[]) public estateLandIds;\n\n  // From LAND id (LAND) to its owner Estate id\n  mapping(uint256 => uint256) public landIdEstate;\n\n  // From Estate id to mapping of LAND id to index on the array above (estateLandIds)\n  mapping(uint256 => mapping(uint256 => uint256)) public estateLandIndex;\n\n  // Metadata of the Estate\n  mapping(uint256 => string) internal estateData;\n\n  // Operator of the Estate\n  mapping (uint256 => address) public updateOperator;\n}\n",
  "sourcePath": "/Users/jules/WebstormProjects/RobInTheHood/chain/landSC/contracts/estate/EstateStorage.sol",
  "compiler": {
    "name": "solc",
    "version": "0.4.25+commit.59dbf8f1.Emscripten.clang"
  },
  "schemaVersion": "3.0.1",
  "updatedAt": "2019-04-24T14:55:24.019Z",
  "devdoc": {
    "methods": {}
  },
  "userdoc": {
    "methods": {}
  }
}