{
  "contractName": "FullAssetRegistry",
  "abi": [
    {
      "constant": true,
      "inputs": [
        {
          "name": "_interfaceID",
          "type": "bytes4"
        }
      ],
      "name": "supportsInterface",
      "outputs": [
        {
          "name": "",
          "type": "bool"
        }
      ],
      "payable": false,
      "stateMutability": "view",
      "type": "function"
    },
    {
      "constant": true,
      "inputs": [],
      "name": "name",
      "outputs": [
        {
          "name": "",
          "type": "string"
        }
      ],
      "payable": false,
      "stateMutability": "view",
      "type": "function"
    },
    {
      "constant": true,
      "inputs": [
        {
          "name": "assetId",
          "type": "uint256"
        }
      ],
      "name": "getApproved",
      "outputs": [
        {
          "name": "",
          "type": "address"
        }
      ],
      "payable": false,
      "stateMutability": "view",
      "type": "function"
    },
    {
      "constant": false,
      "inputs": [
        {
          "name": "operator",
          "type": "address"
        },
        {
          "name": "assetId",
          "type": "uint256"
        }
      ],
      "name": "approve",
      "outputs": [],
      "payable": false,
      "stateMutability": "nonpayable",
      "type": "function"
    },
    {
      "constant": true,
      "inputs": [],
      "name": "totalSupply",
      "outputs": [
        {
          "name": "",
          "type": "uint256"
        }
      ],
      "payable": false,
      "stateMutability": "view",
      "type": "function"
    },
    {
      "constant": false,
      "inputs": [
        {
          "name": "from",
          "type": "address"
        },
        {
          "name": "to",
          "type": "address"
        },
        {
          "name": "assetId",
          "type": "uint256"
        }
      ],
      "name": "transferFrom",
      "outputs": [],
      "payable": false,
      "stateMutability": "nonpayable",
      "type": "function"
    },
    {
      "constant": true,
      "inputs": [
        {
          "name": "operator",
          "type": "address"
        },
        {
          "name": "assetId",
          "type": "uint256"
        }
      ],
      "name": "isAuthorized",
      "outputs": [
        {
          "name": "",
          "type": "bool"
        }
      ],
      "payable": false,
      "stateMutability": "view",
      "type": "function"
    },
    {
      "constant": true,
      "inputs": [
        {
          "name": "owner",
          "type": "address"
        },
        {
          "name": "index",
          "type": "uint256"
        }
      ],
      "name": "tokenOfOwnerByIndex",
      "outputs": [
        {
          "name": "assetId",
          "type": "uint256"
        }
      ],
      "payable": false,
      "stateMutability": "view",
      "type": "function"
    },
    {
      "constant": false,
      "inputs": [
        {
          "name": "from",
          "type": "address"
        },
        {
          "name": "to",
          "type": "address"
        },
        {
          "name": "assetId",
          "type": "uint256"
        }
      ],
      "name": "safeTransferFrom",
      "outputs": [],
      "payable": false,
      "stateMutability": "nonpayable",
      "type": "function"
    },
    {
      "constant": true,
      "inputs": [
        {
          "name": "owner",
          "type": "address"
        }
      ],
      "name": "tokensOf",
      "outputs": [
        {
          "name": "",
          "type": "uint256[]"
        }
      ],
      "payable": false,
      "stateMutability": "view",
      "type": "function"
    },
    {
      "constant": true,
      "inputs": [
        {
          "name": "assetId",
          "type": "uint256"
        }
      ],
      "name": "ownerOf",
      "outputs": [
        {
          "name": "",
          "type": "address"
        }
      ],
      "payable": false,
      "stateMutability": "view",
      "type": "function"
    },
    {
      "constant": true,
      "inputs": [
        {
          "name": "assetId",
          "type": "uint256"
        }
      ],
      "name": "tokenMetadata",
      "outputs": [
        {
          "name": "",
          "type": "string"
        }
      ],
      "payable": false,
      "stateMutability": "view",
      "type": "function"
    },
    {
      "constant": true,
      "inputs": [
        {
          "name": "owner",
          "type": "address"
        }
      ],
      "name": "balanceOf",
      "outputs": [
        {
          "name": "",
          "type": "uint256"
        }
      ],
      "payable": false,
      "stateMutability": "view",
      "type": "function"
    },
    {
      "constant": true,
      "inputs": [],
      "name": "description",
      "outputs": [
        {
          "name": "",
          "type": "string"
        }
      ],
      "payable": false,
      "stateMutability": "view",
      "type": "function"
    },
    {
      "constant": true,
      "inputs": [],
      "name": "symbol",
      "outputs": [
        {
          "name": "",
          "type": "string"
        }
      ],
      "payable": false,
      "stateMutability": "view",
      "type": "function"
    },
    {
      "constant": false,
      "inputs": [
        {
          "name": "operator",
          "type": "address"
        },
        {
          "name": "authorized",
          "type": "bool"
        }
      ],
      "name": "setApprovalForAll",
      "outputs": [],
      "payable": false,
      "stateMutability": "nonpayable",
      "type": "function"
    },
    {
      "constant": false,
      "inputs": [
        {
          "name": "from",
          "type": "address"
        },
        {
          "name": "to",
          "type": "address"
        },
        {
          "name": "assetId",
          "type": "uint256"
        },
        {
          "name": "userData",
          "type": "bytes"
        }
      ],
      "name": "safeTransferFrom",
      "outputs": [],
      "payable": false,
      "stateMutability": "nonpayable",
      "type": "function"
    },
    {
      "constant": true,
      "inputs": [
        {
          "name": "assetHolder",
          "type": "address"
        },
        {
          "name": "operator",
          "type": "address"
        }
      ],
      "name": "isApprovedForAll",
      "outputs": [
        {
          "name": "",
          "type": "bool"
        }
      ],
      "payable": false,
      "stateMutability": "view",
      "type": "function"
    },
    {
      "constant": true,
      "inputs": [
        {
          "name": "assetId",
          "type": "uint256"
        }
      ],
      "name": "getApprovedAddress",
      "outputs": [
        {
          "name": "",
          "type": "address"
        }
      ],
      "payable": false,
      "stateMutability": "view",
      "type": "function"
    },
    {
      "inputs": [],
      "payable": false,
      "stateMutability": "nonpayable",
      "type": "constructor"
    },
    {
      "anonymous": false,
      "inputs": [
        {
          "indexed": true,
          "name": "from",
          "type": "address"
        },
        {
          "indexed": true,
          "name": "to",
          "type": "address"
        },
        {
          "indexed": true,
          "name": "assetId",
          "type": "uint256"
        },
        {
          "indexed": false,
          "name": "operator",
          "type": "address"
        },
        {
          "indexed": false,
          "name": "userData",
          "type": "bytes"
        },
        {
          "indexed": false,
          "name": "operatorData",
          "type": "bytes"
        }
      ],
      "name": "Transfer",
      "type": "event"
    },
    {
      "anonymous": false,
      "inputs": [
        {
          "indexed": true,
          "name": "from",
          "type": "address"
        },
        {
          "indexed": true,
          "name": "to",
          "type": "address"
        },
        {
          "indexed": true,
          "name": "assetId",
          "type": "uint256"
        },
        {
          "indexed": false,
          "name": "operator",
          "type": "address"
        },
        {
          "indexed": false,
          "name": "userData",
          "type": "bytes"
        }
      ],
      "name": "Transfer",
      "type": "event"
    },
    {
      "anonymous": false,
      "inputs": [
        {
          "indexed": true,
          "name": "from",
          "type": "address"
        },
        {
          "indexed": true,
          "name": "to",
          "type": "address"
        },
        {
          "indexed": true,
          "name": "assetId",
          "type": "uint256"
        }
      ],
      "name": "Transfer",
      "type": "event"
    },
    {
      "anonymous": false,
      "inputs": [
        {
          "indexed": true,
          "name": "holder",
          "type": "address"
        },
        {
          "indexed": true,
          "name": "operator",
          "type": "address"
        },
        {
          "indexed": false,
          "name": "authorized",
          "type": "bool"
        }
      ],
      "name": "ApprovalForAll",
      "type": "event"
    },
    {
      "anonymous": false,
      "inputs": [
        {
          "indexed": true,
          "name": "owner",
          "type": "address"
        },
        {
          "indexed": true,
          "name": "operator",
          "type": "address"
        },
        {
          "indexed": true,
          "name": "assetId",
          "type": "uint256"
        }
      ],
      "name": "Approval",
      "type": "event"
    },
    {
      "constant": true,
      "inputs": [
        {
          "name": "assetId",
          "type": "uint256"
        }
      ],
      "name": "exists",
      "outputs": [
        {
          "name": "",
          "type": "bool"
        }
      ],
      "payable": false,
      "stateMutability": "view",
      "type": "function"
    },
    {
      "constant": true,
      "inputs": [],
      "name": "decimals",
      "outputs": [
        {
          "name": "",
          "type": "uint256"
        }
      ],
      "payable": false,
      "stateMutability": "pure",
      "type": "function"
    }
  ],
  "bytecode": "0x608060405234801561001057600080fd5b506111f0806100206000396000f3006080604052600436106101035763ffffffff60e060020a60003504166301ffc9a7811461010857806306fdde031461013e578063081812fc146101c8578063095ea7b3146101fc57806318160ddd1461022257806323b872dd146102495780632972b0f0146102735780632f745c5914610297578063313ce567146102bb57806342842e0e146102d05780634f558e79146102fa5780635a3f2672146103125780636352211e146103835780636914db601461039b57806370a08231146103b35780637284e416146103d457806395d89b41146103e9578063a22cb465146103fe578063b88d4fde14610424578063e985e9c51461045d578063eca4742a146101c8575b600080fd5b34801561011457600080fd5b5061012a600160e060020a031960043516610484565b604080519115158252519081900360200190f35b34801561014a57600080fd5b5061015361053d565b6040805160208082528351818301528351919283929083019185019080838360005b8381101561018d578181015183820152602001610175565b50505050905090810190601f1680156101ba5780820380516001836020036101000a031916815260200191505b509250505060405180910390f35b3480156101d457600080fd5b506101e06004356105d4565b60408051600160a060020a039092168252519081900360200190f35b34801561020857600080fd5b50610220600160a060020a03600435166024356105df565b005b34801561022e57600080fd5b506102376106b7565b60408051918252519081900360200190f35b34801561025557600080fd5b50610220600160a060020a03600435811690602435166044356106c6565b34801561027f57600080fd5b5061012a600160a060020a03600435166024356106e4565b3480156102a357600080fd5b50610237600160a060020a03600435166024356106f7565b3480156102c757600080fd5b5061023761076e565b3480156102dc57600080fd5b50610220600160a060020a0360043581169060243516604435610773565b34801561030657600080fd5b5061012a600435610791565b34801561031e57600080fd5b50610333600160a060020a036004351661079c565b60408051602080825283518183015283519192839290830191858101910280838360005b8381101561036f578181015183820152602001610357565b505050509050019250505060405180910390f35b34801561038f57600080fd5b506101e0600435610808565b3480156103a757600080fd5b50610153600435610813565b3480156103bf57600080fd5b50610237600160a060020a03600435166108aa565b3480156103e057600080fd5b506101536108b5565b3480156103f557600080fd5b50610153610913565b34801561040a57600080fd5b50610220600160a060020a03600435166024351515610973565b34801561043057600080fd5b50610220600160a060020a0360048035821691602480359091169160443591606435908101910135610981565b34801561046957600080fd5b5061012a600160a060020a03600435811690602435166109c7565b6000600160e060020a031980831614156104a057506000610538565b600160e060020a031982167f01ffc9a70000000000000000000000000000000000000000000000000000000014806105015750600160e060020a031982167f7c0633c600000000000000000000000000000000000000000000000000000000145b806105355750600160e060020a031982167f80ac58cd00000000000000000000000000000000000000000000000000000000145b90505b919050565b60008054604080516020601f60026000196101006001881615020190951694909404938401819004810282018101909252828152606093909290918301828280156105c95780601f1061059e576101008083540402835291602001916105c9565b820191906000526020600020905b8154815290600101906020018083116105ac57829003601f168201915b505050505090505b90565b6000610535826109d3565b60006105ea826109ee565b905033600160a060020a038216148061060857506106083382610a09565b151561061357600080fd5b600160a060020a03838116908216141561062c57600080fd5b82600160a060020a031661063f836109d3565b600160a060020a0316146106b257600082815260096020526040808220805473ffffffffffffffffffffffffffffffffffffffff1916600160a060020a0387811691821790925591518593918516917f8c5be1e5ebec7d5bd14f71427d1e84f3dd0314c0f7b2291e5b200ac8c7c3b92591a45b505050565b60006106c1610a37565b905090565b6106b283838360206040519081016040528060008152506000610a3d565b60006106f08383610a68565b9392505050565b600160a060020a038216600090815260046020526040812054821061071b57600080fd5b6f80000000000000000000000000000000821061073757600080fd5b600160a060020a038316600090815260046020526040902080548390811061075b57fe5b9060005260206000200154905092915050565b600090565b6106b283838360206040519081016040528060008152506001610a3d565b600061053582610ae6565b600160a060020a0381166000908152600460209081526040918290208054835181840281018401909452808452606093928301828280156107fc57602002820191906000526020600020905b8154815260200190600101908083116107e8575b50505050509050919050565b6000610535826109ee565b60008181526007602090815260409182902080548351601f60026000196101006001861615020190931692909204918201849004840281018401909452808452606093928301828280156107fc5780601f1061087d576101008083540402835291602001916107fc565b820191906000526020600020905b81548152906001019060200180831161088b5750939695505050505050565b600061053582610b03565b60028054604080516020601f60001961010060018716150201909416859004938401819004810282018101909252828152606093909290918301828280156105c95780601f1061059e576101008083540402835291602001916105c9565b60018054604080516020601f600260001961010087891615020190951694909404938401819004810282018101909252828152606093909290918301828280156105c95780601f1061059e576101008083540402835291602001916105c9565b61097d8282610b1e565b5050565b6109c085858585858080601f0160208091040260200160405190810160405280939291908181526020018383808284375060019450610a3d9350505050565b5050505050565b60006106f08383610a09565b600090815260096020526040902054600160a060020a031690565b600090815260056020526040902054600160a060020a031690565b600160a060020a03918216600090815260086020908152604080832093909416825291909152205460ff1690565b60035490565b82610a483382610a68565b1515610a5357600080fd5b610a608686868686610bac565b505050505050565b600080600160a060020a0384161515610a8057600080fd5b610a89836109ee565b905080600160a060020a031684600160a060020a03161415610aae5760019150610adf565b610ab88185610a09565b80610adc575083600160a060020a0316610ad1846109d3565b600160a060020a0316145b91505b5092915050565b600090815260056020526040902054600160a060020a0316151590565b600160a060020a031660009081526004602052604090205490565b8015610b4757610b2e3383610a09565b15610b3857600080fd5b610b428233610e02565b610b66565b610b513383610a09565b1515610b5c57600080fd5b610b668233610e37565b6040805182151581529051600160a060020a0384169133917f17307eab39ab6107e8899845ad3d59bd9653f200f220920489ca2b5937696c319181900360200190a35050565b600084600160a060020a0381161515610bc457600080fd5b848680600160a060020a0316610bd9836109ee565b600160a060020a03161415610bed57600080fd5b888781600160a060020a0316610c02826109ee565b600160a060020a031614610c1557600080fd5b600089815260056020526040902054600160a060020a03169550610c39868a610e69565b610c43868a610f0f565b610c4d8a8a61109d565b888a600160a060020a031687600160a060020a03167fddf252ad1be2c89b69c2b068fc378daa952ba7f163c4a11628f55a4df523b3ef60405160405180910390a4868015610c9f5750610c9f8a611134565b15610df55763150b7a0260e060020a027bffffffffffffffffffffffffffffffffffffffffffffffffffffffff19168a600160a060020a031663150b7a0233898d8d6040518563ffffffff1660e060020a0281526004018085600160a060020a0316600160a060020a0316815260200184600160a060020a0316600160a060020a0316815260200183815260200180602001828103825283818151815260200191508051906020019080838360005b83811015610d66578181015183820152602001610d4e565b50505050905090810190601f168015610d935780820380516001836020036101000a031916815260200191505b5095505050505050602060405180830381600087803b158015610db557600080fd5b505af1158015610dc9573d6000803e3d6000fd5b505050506040513d6020811015610ddf57600080fd5b5051600160e060020a03191614610df557600080fd5b5050505050505050505050565b600160a060020a039081166000908152600860209081526040808320949093168252929092529020805460ff19166001179055565b600160a060020a039081166000908152600860209081526040808320949093168252929092529020805460ff19169055565b81600160a060020a0316610e7c826109ee565b600160a060020a0316148015610ea85750600081815260096020526040902054600160a060020a031615155b1561097d57600081815260096020526040808220805473ffffffffffffffffffffffffffffffffffffffff1916905551829190600160a060020a038516907f8c5be1e5ebec7d5bd14f71427d1e84f3dd0314c0f7b2291e5b200ac8c7c3b925908390a45050565b6000818152600660205260408120549080610f3a6001610f2e87610b03565b9063ffffffff61113c16565b600160a060020a038616600090815260046020526040902080549193509083908110610f6257fe5b6000918252602080832090910154868352600582526040808420805473ffffffffffffffffffffffffffffffffffffffff19169055600160a060020a0389168452600490925291208054919250829185908110610fbb57fe5b6000918252602080832090910192909255600160a060020a0387168152600490915260408120805484908110610fed57fe5b6000918252602080832090910192909255600160a060020a0387168152600490915260409020805490611024906000198301611161565b50600160a060020a038516600090815260046020526040902054151561106557600160a060020a038516600090815260046020526040812061106591611185565b600084815260066020526040808220829055828252902083905560035461109390600163ffffffff61113c16565b6003555050505050565b6000818152600560205260408120805473ffffffffffffffffffffffffffffffffffffffff1916600160a060020a0385161790556110da83610b03565b600160a060020a038416600090815260046020908152604080832080546001818101835591855283852001879055868452600690925290912082905560035491925061112c919063ffffffff61114e16565b600355505050565b6000903b1190565b60008282111561114857fe5b50900390565b8181018281101561115b57fe5b92915050565b8154818355818111156106b2576000838152602090206106b29181019083016111a6565b50805460008255906000526020600020908101906111a391906111a6565b50565b6105d191905b808211156111c057600081556001016111ac565b50905600a165627a7a72305820ca0b636102a989fc3be8ea72a65108da58550e1e5a0991235ad5d58dec63cd2f0029",
  "source": "pragma solidity ^0.4.18;\n\nimport './ERC721Base.sol';\nimport './ERC721Enumerable.sol';\nimport './ERC721Metadata.sol';\n\ncontract FullAssetRegistry is ERC721Base, ERC721Enumerable, ERC721Metadata {\n  constructor() public {\n  }\n\n  /**\n   * @dev Method to check if an asset identified by the given id exists under this DAR.\n   * @return uint256 the assetId\n   */\n  function exists(uint256 assetId) external view returns (bool) {\n    return _exists(assetId);\n  }\n  function _exists(uint256 assetId) internal view returns (bool) {\n    return _holderOf[assetId] != 0;\n  }\n\n  function decimals() external pure returns (uint256) {\n    return 0;\n  }\n}\n",
  "sourcePath": "/Users/jules/WebstormProjects/RobInTheHood/chain/landSC/node_modules/erc821/contracts/FullAssetRegistry.sol",
  "compiler": {
    "name": "solc",
    "version": "0.4.25+commit.59dbf8f1.Emscripten.clang"
  },
  "schemaVersion": "3.0.1",
  "updatedAt": "2019-04-23T11:14:05.441Z",
  "devdoc": {
    "methods": {
      "approve(address,uint256)": {
        "details": "Authorize a third party operator to manage one particular asset",
        "params": {
          "assetId": "asset to approve",
          "operator": "address to be approved"
        }
      },
      "balanceOf(address)": {
        "details": "Gets the balance of the specified address",
        "params": {
          "owner": "address to query the balance of"
        },
        "return": "uint256 representing the amount owned by the passed address"
      },
      "exists(uint256)": {
        "details": "Method to check if an asset identified by the given id exists under this DAR.",
        "return": "uint256 the assetId"
      },
      "getApproved(uint256)": {
        "details": "Query what address has been particularly authorized to move an asset",
        "params": {
          "assetId": "the asset to be queried for"
        },
        "return": "bool true if the asset has been approved by the holder"
      },
      "isApprovedForAll(address,address)": {
        "details": "Query whether an address has been authorized to move any assets on behalf of someone else",
        "params": {
          "assetHolder": "the address that provided the authorization",
          "operator": "the address that might be authorized"
        },
        "return": "bool true if the operator has been authorized to move any assets"
      },
      "isAuthorized(address,uint256)": {
        "details": "Query if an operator can move an asset.",
        "params": {
          "assetId": "the asset that has been `approved` for transfer",
          "operator": "the address that might be authorized"
        },
        "return": "bool true if the asset has been approved by the holder"
      },
      "ownerOf(uint256)": {
        "details": "Queries what address owns an asset. This method does not throw. In order to check if the asset exists, use the `exists` function or check if the return value of this call is `0`.",
        "return": "uint256 the assetId"
      },
      "safeTransferFrom(address,address,uint256)": {
        "details": "Alias of `safeTransferFrom(from, to, assetId, '')`",
        "params": {
          "assetId": "uint256 ID of the asset to be transferred",
          "from": "address that currently owns an asset",
          "to": "address to receive the ownership of the asset"
        }
      },
      "safeTransferFrom(address,address,uint256,bytes)": {
        "details": "Securely transfers the ownership of a given asset from one address to another address, calling the method `onNFTReceived` on the target address if there's code associated with it",
        "params": {
          "assetId": "uint256 ID of the asset to be transferred",
          "from": "address that currently owns an asset",
          "to": "address to receive the ownership of the asset",
          "userData": "bytes arbitrary user information to attach to this transfer"
        }
      },
      "setApprovalForAll(address,bool)": {
        "details": "Authorize a third party operator to manage (send) msg.sender's asset",
        "params": {
          "authorized": "bool set to true to authorize, false to withdraw authorization",
          "operator": "address to be approved"
        }
      },
      "supportsInterface(bytes4)": {
        "details": "Returns `true` if the contract implements `interfaceID` and `interfaceID` is not 0xffffffff, `false` otherwise",
        "params": {
          "_interfaceID": "The interface identifier, as specified in ERC-165"
        }
      },
      "tokenOfOwnerByIndex(address,uint256)": {
        "details": "Throws if `index` >= `balanceOf(owner)` or if `owner` is the zero address, representing invalid assets. Otherwise this must not throw.",
        "params": {
          "index": "A counter less than `balanceOf(owner)`",
          "owner": "An address where we are interested in assets owned by them"
        },
        "return": "The identifier for the `index`th asset assigned to `owner`,  (sort order not specified)"
      },
      "tokensOf(address)": {
        "details": "This is not intended to be used on-chain",
        "params": {
          "owner": "address of the owner to query"
        },
        "return": "a list of all assetIds of a user"
      },
      "totalSupply()": {
        "details": "Gets the total amount of assets stored by the contract",
        "return": "uint256 representing the total amount of assets"
      },
      "transferFrom(address,address,uint256)": {
        "details": "Transfers the ownership of a given asset from one address to another address Warning! This function does not attempt to verify that the target address can send tokens.",
        "params": {
          "assetId": "uint256 ID of the asset to be transferred",
          "from": "address sending the asset",
          "to": "address to receive the ownership of the asset"
        }
      }
    }
  },
  "userdoc": {
    "methods": {
      "tokenOfOwnerByIndex(address,uint256)": {
        "notice": "Enumerate tokens assigned to an owner"
      },
      "tokensOf(address)": {
        "notice": "Get all tokens of a given address"
      }
    }
  }
}