{
  "contractName": "LANDStorage",
  "abi": [
    {
      "constant": true,
      "inputs": [
        {
          "name": "",
          "type": "address"
        }
      ],
      "name": "latestPing",
      "outputs": [
        {
          "name": "",
          "type": "uint256"
        }
      ],
      "payable": false,
      "stateMutability": "view",
      "type": "function"
    },
    {
      "constant": true,
      "inputs": [
        {
          "name": "",
          "type": "address"
        }
      ],
      "name": "authorizedDeploy",
      "outputs": [
        {
          "name": "",
          "type": "bool"
        }
      ],
      "payable": false,
      "stateMutability": "view",
      "type": "function"
    },
    {
      "constant": true,
      "inputs": [
        {
          "name": "",
          "type": "uint256"
        }
      ],
      "name": "updateOperator",
      "outputs": [
        {
          "name": "",
          "type": "address"
        }
      ],
      "payable": false,
      "stateMutability": "view",
      "type": "function"
    },
    {
      "constant": true,
      "inputs": [],
      "name": "estateRegistry",
      "outputs": [
        {
          "name": "",
          "type": "address"
        }
      ],
      "payable": false,
      "stateMutability": "view",
      "type": "function"
    }
  ],
  "bytecode": "0x608060405234801561001057600080fd5b506101d5806100206000396000f3006080604052600436106100615763ffffffff7c01000000000000000000000000000000000000000000000000000000006000350416631e375901811461006657806329ffab3b146100a65780639d40b850146100e8578063e387d31a14610129575b600080fd5b34801561007257600080fd5b5061009473ffffffffffffffffffffffffffffffffffffffff6004351661013e565b60408051918252519081900360200190f35b3480156100b257600080fd5b506100d473ffffffffffffffffffffffffffffffffffffffff60043516610150565b604080519115158252519081900360200190f35b3480156100f457600080fd5b50610100600435610165565b6040805173ffffffffffffffffffffffffffffffffffffffff9092168252519081900360200190f35b34801561013557600080fd5b5061010061018d565b60006020819052908152604090205481565b60046020526000908152604090205460ff1681565b60026020526000908152604090205473ffffffffffffffffffffffffffffffffffffffff1681565b60035473ffffffffffffffffffffffffffffffffffffffff16815600a165627a7a72305820bc297d3b2d00b02dd05ff2ea6da6d56f4b939157a3cdf8a7ecfd302f15fdb59f0029",
  "source": "pragma solidity ^0.4.23;\n\nimport \"./.././estate/IEstateRegistry.sol\";\n\n\ncontract LANDStorage {\n  mapping (address => uint) public latestPing;\n\n  uint256 constant clearLow = 0xffffffffffffffffffffffffffffffff00000000000000000000000000000000;\n  uint256 constant clearHigh = 0x00000000000000000000000000000000ffffffffffffffffffffffffffffffff;\n  uint256 constant factor = 0x100000000000000000000000000000000;\n\n  mapping (address => bool) internal _deprecated_authorizedDeploy;\n\n  mapping (uint256 => address) public updateOperator;\n\n  IEstateRegistry public estateRegistry;\n\n  mapping (address => bool) public authorizedDeploy;\n}\n",
  "sourcePath": "/Users/jules/WebstormProjects/RobInTheHood/chain/landSC/contracts/land/LANDStorage.sol",
  "compiler": {
    "name": "solc",
    "version": "0.4.25+commit.59dbf8f1.Emscripten.clang"
  },
  "schemaVersion": "3.0.1",
  "updatedAt": "2019-04-24T14:55:24.026Z",
  "devdoc": {
    "methods": {}
  },
  "userdoc": {
    "methods": {}
  }
}