{
  "contractName": "MANAToken",
  "abi": [
    {
      "constant": true,
      "inputs": [],
      "name": "mintingFinished",
      "outputs": [
        {
          "name": "",
          "type": "bool"
        }
      ],
      "payable": false,
      "stateMutability": "view",
      "type": "function",
      "signature": "0x05d2035b"
    },
    {
      "constant": true,
      "inputs": [],
      "name": "name",
      "outputs": [
        {
          "name": "",
          "type": "string"
        }
      ],
      "payable": false,
      "stateMutability": "view",
      "type": "function",
      "signature": "0x06fdde03"
    },
    {
      "constant": false,
      "inputs": [
        {
          "name": "_spender",
          "type": "address"
        },
        {
          "name": "_value",
          "type": "uint256"
        }
      ],
      "name": "approve",
      "outputs": [
        {
          "name": "",
          "type": "bool"
        }
      ],
      "payable": false,
      "stateMutability": "nonpayable",
      "type": "function",
      "signature": "0x095ea7b3"
    },
    {
      "constant": true,
      "inputs": [],
      "name": "totalSupply",
      "outputs": [
        {
          "name": "",
          "type": "uint256"
        }
      ],
      "payable": false,
      "stateMutability": "view",
      "type": "function",
      "signature": "0x18160ddd"
    },
    {
      "constant": false,
      "inputs": [
        {
          "name": "_from",
          "type": "address"
        },
        {
          "name": "_to",
          "type": "address"
        },
        {
          "name": "_value",
          "type": "uint256"
        }
      ],
      "name": "transferFrom",
      "outputs": [
        {
          "name": "",
          "type": "bool"
        }
      ],
      "payable": false,
      "stateMutability": "nonpayable",
      "type": "function",
      "signature": "0x23b872dd"
    },
    {
      "constant": true,
      "inputs": [],
      "name": "decimals",
      "outputs": [
        {
          "name": "",
          "type": "uint8"
        }
      ],
      "payable": false,
      "stateMutability": "view",
      "type": "function",
      "signature": "0x313ce567"
    },
    {
      "constant": false,
      "inputs": [],
      "name": "unpause",
      "outputs": [
        {
          "name": "",
          "type": "bool"
        }
      ],
      "payable": false,
      "stateMutability": "nonpayable",
      "type": "function",
      "signature": "0x3f4ba83a"
    },
    {
      "constant": false,
      "inputs": [
        {
          "name": "_to",
          "type": "address"
        },
        {
          "name": "_amount",
          "type": "uint256"
        }
      ],
      "name": "mint",
      "outputs": [
        {
          "name": "",
          "type": "bool"
        }
      ],
      "payable": false,
      "stateMutability": "nonpayable",
      "type": "function",
      "signature": "0x40c10f19"
    },
    {
      "constant": true,
      "inputs": [],
      "name": "paused",
      "outputs": [
        {
          "name": "",
          "type": "bool"
        }
      ],
      "payable": false,
      "stateMutability": "view",
      "type": "function",
      "signature": "0x5c975abb"
    },
    {
      "constant": true,
      "inputs": [
        {
          "name": "_owner",
          "type": "address"
        }
      ],
      "name": "balanceOf",
      "outputs": [
        {
          "name": "balance",
          "type": "uint256"
        }
      ],
      "payable": false,
      "stateMutability": "view",
      "type": "function",
      "signature": "0x70a08231"
    },
    {
      "constant": false,
      "inputs": [],
      "name": "finishMinting",
      "outputs": [
        {
          "name": "",
          "type": "bool"
        }
      ],
      "payable": false,
      "stateMutability": "nonpayable",
      "type": "function",
      "signature": "0x7d64bcb4"
    },
    {
      "constant": false,
      "inputs": [],
      "name": "pause",
      "outputs": [
        {
          "name": "",
          "type": "bool"
        }
      ],
      "payable": false,
      "stateMutability": "nonpayable",
      "type": "function",
      "signature": "0x8456cb59"
    },
    {
      "constant": true,
      "inputs": [],
      "name": "owner",
      "outputs": [
        {
          "name": "",
          "type": "address"
        }
      ],
      "payable": false,
      "stateMutability": "view",
      "type": "function",
      "signature": "0x8da5cb5b"
    },
    {
      "constant": true,
      "inputs": [],
      "name": "symbol",
      "outputs": [
        {
          "name": "",
          "type": "string"
        }
      ],
      "payable": false,
      "stateMutability": "view",
      "type": "function",
      "signature": "0x95d89b41"
    },
    {
      "constant": false,
      "inputs": [
        {
          "name": "_to",
          "type": "address"
        },
        {
          "name": "_value",
          "type": "uint256"
        }
      ],
      "name": "transfer",
      "outputs": [
        {
          "name": "",
          "type": "bool"
        }
      ],
      "payable": false,
      "stateMutability": "nonpayable",
      "type": "function",
      "signature": "0xa9059cbb"
    },
    {
      "constant": true,
      "inputs": [
        {
          "name": "_owner",
          "type": "address"
        },
        {
          "name": "_spender",
          "type": "address"
        }
      ],
      "name": "allowance",
      "outputs": [
        {
          "name": "remaining",
          "type": "uint256"
        }
      ],
      "payable": false,
      "stateMutability": "view",
      "type": "function",
      "signature": "0xdd62ed3e"
    },
    {
      "constant": false,
      "inputs": [
        {
          "name": "newOwner",
          "type": "address"
        }
      ],
      "name": "transferOwnership",
      "outputs": [],
      "payable": false,
      "stateMutability": "nonpayable",
      "type": "function",
      "signature": "0xf2fde38b"
    },
    {
      "anonymous": false,
      "inputs": [
        {
          "indexed": true,
          "name": "to",
          "type": "address"
        },
        {
          "indexed": false,
          "name": "amount",
          "type": "uint256"
        }
      ],
      "name": "Mint",
      "type": "event",
      "signature": "0x0f6798a560793a54c3bcfe86a93cde1e73087d944c0ea20544137d4121396885"
    },
    {
      "anonymous": false,
      "inputs": [],
      "name": "MintFinished",
      "type": "event",
      "signature": "0xae5184fba832cb2b1f702aca6117b8d265eaf03ad33eb133f19dde0f5920fa08"
    },
    {
      "anonymous": false,
      "inputs": [],
      "name": "Pause",
      "type": "event",
      "signature": "0x6985a02210a168e66602d3235cb6db0e70f92b3ba4d376a33c0f3d9434bff625"
    },
    {
      "anonymous": false,
      "inputs": [],
      "name": "Unpause",
      "type": "event",
      "signature": "0x7805862f689e2f13df9f062ff482ad3ad112aca9e0847911ed832e158c525b33"
    },
    {
      "anonymous": false,
      "inputs": [
        {
          "indexed": true,
          "name": "burner",
          "type": "address"
        },
        {
          "indexed": false,
          "name": "value",
          "type": "uint256"
        }
      ],
      "name": "Burn",
      "type": "event",
      "signature": "0xcc16f5dbb4873280815c1ee09dbd06736cffcc184412cf7a71a0fdb75d397ca5"
    },
    {
      "anonymous": false,
      "inputs": [
        {
          "indexed": true,
          "name": "owner",
          "type": "address"
        },
        {
          "indexed": true,
          "name": "spender",
          "type": "address"
        },
        {
          "indexed": false,
          "name": "value",
          "type": "uint256"
        }
      ],
      "name": "Approval",
      "type": "event",
      "signature": "0x8c5be1e5ebec7d5bd14f71427d1e84f3dd0314c0f7b2291e5b200ac8c7c3b925"
    },
    {
      "anonymous": false,
      "inputs": [
        {
          "indexed": true,
          "name": "from",
          "type": "address"
        },
        {
          "indexed": true,
          "name": "to",
          "type": "address"
        },
        {
          "indexed": false,
          "name": "value",
          "type": "uint256"
        }
      ],
      "name": "Transfer",
      "type": "event",
      "signature": "0xddf252ad1be2c89b69c2b068fc378daa952ba7f163c4a11628f55a4df523b3ef"
    },
    {
      "constant": false,
      "inputs": [
        {
          "name": "_value",
          "type": "uint256"
        }
      ],
      "name": "burn",
      "outputs": [],
      "payable": false,
      "stateMutability": "nonpayable",
      "type": "function",
      "signature": "0x42966c68"
    }
  ],
  "bytecode": "0x608060405260038054600160b060020a03191633179055610b2c806100256000396000f3006080604052600436106100fb5763ffffffff7c010000000000000000000000000000000000000000000000000000000060003504166305d2035b811461010057806306fdde0314610129578063095ea7b3146101b357806318160ddd146101d757806323b872dd146101fe578063313ce567146102285780633f4ba83a1461025357806340c10f191461026857806342966c681461028c5780635c975abb146102a657806370a08231146102bb5780637d64bcb4146102dc5780638456cb59146102f15780638da5cb5b1461030657806395d89b4114610337578063a9059cbb1461034c578063dd62ed3e14610370578063f2fde38b14610397575b600080fd5b34801561010c57600080fd5b506101156103b8565b604080519115158252519081900360200190f35b34801561013557600080fd5b5061013e6103da565b6040805160208082528351818301528351919283929083019185019080838360005b83811015610178578181015183820152602001610160565b50505050905090810190601f1680156101a55780820380516001836020036101000a031916815260200191505b509250505060405180910390f35b3480156101bf57600080fd5b50610115600160a060020a0360043516602435610411565b3480156101e357600080fd5b506101ec6104b3565b60408051918252519081900360200190f35b34801561020a57600080fd5b50610115600160a060020a03600435811690602435166044356104b9565b34801561023457600080fd5b5061023d6104e6565b6040805160ff9092168252519081900360200190f35b34801561025f57600080fd5b506101156104eb565b34801561027457600080fd5b50610115600160a060020a036004351660243561056a565b34801561029857600080fd5b506102a4600435610646565b005b3480156102b257600080fd5b50610115610669565b3480156102c757600080fd5b506101ec600160a060020a0360043516610679565b3480156102e857600080fd5b50610115610694565b3480156102fd57600080fd5b50610115610714565b34801561031257600080fd5b5061031b610798565b60408051600160a060020a039092168252519081900360200190f35b34801561034357600080fd5b5061013e6107a7565b34801561035857600080fd5b50610115600160a060020a03600435166024356107de565b34801561037c57600080fd5b506101ec600160a060020a0360043581169060243516610809565b3480156103a357600080fd5b506102a4600160a060020a0360043516610834565b6003547501000000000000000000000000000000000000000000900460ff1681565b60408051808201909152601181527f446563656e7472616c616e64204d414e41000000000000000000000000000000602082015281565b60008115806104415750336000908152600260209081526040808320600160a060020a0387168452909152902054155b151561044c57600080fd5b336000818152600260209081526040808320600160a060020a03881680855290835292819020869055805186815290519293927f8c5be1e5ebec7d5bd14f71427d1e84f3dd0314c0f7b2291e5b200ac8c7c3b925929181900390910190a350600192915050565b60005481565b60035460009060a060020a900460ff16156104d357600080fd5b6104de848484610887565b949350505050565b601281565b600354600090600160a060020a0316331461050557600080fd5b60035460a060020a900460ff16151561051d57600080fd5b6003805474ff0000000000000000000000000000000000000000191690556040517f7805862f689e2f13df9f062ff482ad3ad112aca9e0847911ed832e158c525b3390600090a150600190565b600354600090600160a060020a0316331461058457600080fd5b6003547501000000000000000000000000000000000000000000900460ff16156105ad57600080fd5b6000546105c0908363ffffffff61099616565b6000908155600160a060020a0384168152600160205260409020546105eb908363ffffffff61099616565b600160a060020a038416600081815260016020908152604091829020939093558051858152905191927f0f6798a560793a54c3bcfe86a93cde1e73087d944c0ea20544137d412139688592918290030190a250600192915050565b60035460a060020a900460ff161561065d57600080fd5b610666816109a5565b50565b60035460a060020a900460ff1681565b600160a060020a031660009081526001602052604090205490565b600354600090600160a060020a031633146106ae57600080fd5b6003805475ff000000000000000000000000000000000000000000191675010000000000000000000000000000000000000000001790556040517fae5184fba832cb2b1f702aca6117b8d265eaf03ad33eb133f19dde0f5920fa0890600090a150600190565b600354600090600160a060020a0316331461072e57600080fd5b60035460a060020a900460ff161561074557600080fd5b6003805474ff0000000000000000000000000000000000000000191660a060020a1790556040517f6985a02210a168e66602d3235cb6db0e70f92b3ba4d376a33c0f3d9434bff62590600090a150600190565b600354600160a060020a031681565b60408051808201909152600481527f4d414e4100000000000000000000000000000000000000000000000000000000602082015281565b60035460009060a060020a900460ff16156107f857600080fd5b6108028383610a3e565b9392505050565b600160a060020a03918216600090815260026020908152604080832093909416825291909152205490565b600354600160a060020a0316331461084b57600080fd5b600160a060020a038116156106665760038054600160a060020a03831673ffffffffffffffffffffffffffffffffffffffff1990911617905550565b600160a060020a038084166000908152600260209081526040808320338452825280832054938616835260019091528120549091906108cc908463ffffffff61099616565b600160a060020a038086166000908152600160205260408082209390935590871681522054610901908463ffffffff610aee16565b600160a060020a03861660009081526001602052604090205561092a818463ffffffff610aee16565b600160a060020a03808716600081815260026020908152604080832033845282529182902094909455805187815290519288169391927fddf252ad1be2c89b69c2b068fc378daa952ba7f163c4a11628f55a4df523b3ef929181900390910190a3506001949350505050565b60008282018381101561080257fe5b60008082116109b357600080fd5b50336000818152600160205260409020546109d4908363ffffffff610aee16565b600160a060020a03821660009081526001602052604081209190915554610a01908363ffffffff610aee16565b60005560408051838152905133917fcc16f5dbb4873280815c1ee09dbd06736cffcc184412cf7a71a0fdb75d397ca5919081900360200190a25050565b33600090815260016020526040812054610a5e908363ffffffff610aee16565b3360009081526001602052604080822092909255600160a060020a03851681522054610a90908363ffffffff61099616565b600160a060020a0384166000818152600160209081526040918290209390935580518581529051919233927fddf252ad1be2c89b69c2b068fc378daa952ba7f163c4a11628f55a4df523b3ef9281900390910190a350600192915050565b600082821115610afa57fe5b509003905600a165627a7a723058209e65010903f5f1c6567fbc043f63ce6701a6bdb18fcc7ec096cf40dcc4c07a2b0029",
  "source": "pragma solidity ^0.4.11;\n\nimport \"zeppelin-solidity/contracts/token/PausableToken.sol\";\nimport \"zeppelin-solidity/contracts/token/MintableToken.sol\";\nimport \"./BurnableToken.sol\";\n\ncontract MANAToken is BurnableToken, PausableToken, MintableToken {\n\n  string public constant symbol = \"MANA\";\n\n  string public constant name = \"Decentraland MANA\";\n\n  uint8 public constant decimals = 18;\n\n  function burn(uint256 _value) whenNotPaused public {\n    super.burn(_value);\n  }\n}\n",
  "sourcePath": "/Users/jules/WebstormProjects/RobInTheHood/chain/landSC/contracts/mana/MANAToken.sol",
  "compiler": {
    "name": "solc",
    "version": "0.4.25+commit.59dbf8f1.Emscripten.clang"
  },
  "schemaVersion": "3.0.1",
  "updatedAt": "2019-04-26T18:05:01.349Z",
  "devdoc": {
    "methods": {
      "allowance(address,address)": {
        "details": "Function to check the amount of tokens that an owner allowed to a spender.",
        "params": {
          "_owner": "address The address which owns the funds.",
          "_spender": "address The address which will spend the funds."
        },
        "return": "A uint256 specifing the amount of tokens still avaible for the spender."
      },
      "approve(address,uint256)": {
        "details": "Aprove the passed address to spend the specified amount of tokens on behalf of msg.sender.",
        "params": {
          "_spender": "The address which will spend the funds.",
          "_value": "The amount of tokens to be spent."
        }
      },
      "balanceOf(address)": {
        "details": "Gets the balance of the specified address.",
        "params": {
          "_owner": "The address to query the the balance of. "
        },
        "return": "An uint256 representing the amount owned by the passed address."
      },
      "finishMinting()": {
        "details": "Function to stop minting new tokens.",
        "return": "True if the operation was successful."
      },
      "mint(address,uint256)": {
        "details": "Function to mint tokens",
        "params": {
          "_amount": "The amount of tokens to mint.",
          "_to": "The address that will recieve the minted tokens."
        },
        "return": "A boolean that indicates if the operation was successful."
      },
      "pause()": {
        "details": "called by the owner to pause, triggers stopped state"
      },
      "transferOwnership(address)": {
        "details": "Allows the current owner to transfer control of the contract to a newOwner.",
        "params": {
          "newOwner": "The address to transfer ownership to."
        }
      },
      "unpause()": {
        "details": "called by the owner to unpause, returns to normal state"
      }
    }
  },
  "userdoc": {
    "methods": {}
  }
}