{
  "contractName": "Marketplace",
  "abi": [
    {
      "constant": true,
      "inputs": [],
      "name": "ERC721_Interface",
      "outputs": [
        {
          "name": "",
          "type": "bytes4"
        }
      ],
      "payable": false,
      "stateMutability": "view",
      "type": "function",
      "signature": "0x2b4c32be"
    },
    {
      "constant": true,
      "inputs": [],
      "name": "InterfaceId_ValidateFingerprint",
      "outputs": [
        {
          "name": "",
          "type": "bytes4"
        }
      ],
      "payable": false,
      "stateMutability": "view",
      "type": "function",
      "signature": "0x37f82f37"
    },
    {
      "constant": false,
      "inputs": [],
      "name": "unpause",
      "outputs": [],
      "payable": false,
      "stateMutability": "nonpayable",
      "type": "function",
      "signature": "0x3f4ba83a"
    },
    {
      "constant": true,
      "inputs": [],
      "name": "acceptedToken",
      "outputs": [
        {
          "name": "",
          "type": "address"
        }
      ],
      "payable": false,
      "stateMutability": "view",
      "type": "function",
      "signature": "0x451c3d80"
    },
    {
      "constant": true,
      "inputs": [],
      "name": "paused",
      "outputs": [
        {
          "name": "",
          "type": "bool"
        }
      ],
      "payable": false,
      "stateMutability": "view",
      "type": "function",
      "signature": "0x5c975abb"
    },
    {
      "constant": false,
      "inputs": [],
      "name": "pause",
      "outputs": [],
      "payable": false,
      "stateMutability": "nonpayable",
      "type": "function",
      "signature": "0x8456cb59"
    },
    {
      "constant": true,
      "inputs": [],
      "name": "owner",
      "outputs": [
        {
          "name": "",
          "type": "address"
        }
      ],
      "payable": false,
      "stateMutability": "view",
      "type": "function",
      "signature": "0x8da5cb5b"
    },
    {
      "constant": true,
      "inputs": [],
      "name": "ownerCutPerMillion",
      "outputs": [
        {
          "name": "",
          "type": "uint256"
        }
      ],
      "payable": false,
      "stateMutability": "view",
      "type": "function",
      "signature": "0xa01f79d4"
    },
    {
      "constant": true,
      "inputs": [],
      "name": "publicationFeeInWei",
      "outputs": [
        {
          "name": "",
          "type": "uint256"
        }
      ],
      "payable": false,
      "stateMutability": "view",
      "type": "function",
      "signature": "0xae4f1198"
    },
    {
      "constant": true,
      "inputs": [
        {
          "name": "contractName",
          "type": "string"
        },
        {
          "name": "migrationId",
          "type": "string"
        }
      ],
      "name": "isMigrated",
      "outputs": [
        {
          "name": "",
          "type": "bool"
        }
      ],
      "payable": false,
      "stateMutability": "view",
      "type": "function",
      "signature": "0xc0bac1a8"
    },
    {
      "constant": true,
      "inputs": [],
      "name": "legacyNFTAddress",
      "outputs": [
        {
          "name": "",
          "type": "address"
        }
      ],
      "payable": false,
      "stateMutability": "view",
      "type": "function",
      "signature": "0xd6b26813"
    },
    {
      "constant": true,
      "inputs": [
        {
          "name": "",
          "type": "address"
        },
        {
          "name": "",
          "type": "uint256"
        }
      ],
      "name": "orderByAssetId",
      "outputs": [
        {
          "name": "id",
          "type": "bytes32"
        },
        {
          "name": "seller",
          "type": "address"
        },
        {
          "name": "nftAddress",
          "type": "address"
        },
        {
          "name": "price",
          "type": "uint256"
        },
        {
          "name": "expiresAt",
          "type": "uint256"
        }
      ],
      "payable": false,
      "stateMutability": "view",
      "type": "function",
      "signature": "0xe61f3851"
    },
    {
      "constant": false,
      "inputs": [
        {
          "name": "newOwner",
          "type": "address"
        }
      ],
      "name": "transferOwnership",
      "outputs": [],
      "payable": false,
      "stateMutability": "nonpayable",
      "type": "function",
      "signature": "0xf2fde38b"
    },
    {
      "anonymous": false,
      "inputs": [
        {
          "indexed": false,
          "name": "id",
          "type": "bytes32"
        },
        {
          "indexed": true,
          "name": "assetId",
          "type": "uint256"
        },
        {
          "indexed": true,
          "name": "seller",
          "type": "address"
        },
        {
          "indexed": false,
          "name": "nftAddress",
          "type": "address"
        },
        {
          "indexed": false,
          "name": "priceInWei",
          "type": "uint256"
        },
        {
          "indexed": false,
          "name": "expiresAt",
          "type": "uint256"
        }
      ],
      "name": "OrderCreated",
      "type": "event",
      "signature": "0x84c66c3f7ba4b390e20e8e8233e2a516f3ce34a72749e4f12bd010dfba238039"
    },
    {
      "anonymous": false,
      "inputs": [
        {
          "indexed": false,
          "name": "id",
          "type": "bytes32"
        },
        {
          "indexed": true,
          "name": "assetId",
          "type": "uint256"
        },
        {
          "indexed": true,
          "name": "seller",
          "type": "address"
        },
        {
          "indexed": false,
          "name": "nftAddress",
          "type": "address"
        },
        {
          "indexed": false,
          "name": "totalPrice",
          "type": "uint256"
        },
        {
          "indexed": true,
          "name": "buyer",
          "type": "address"
        }
      ],
      "name": "OrderSuccessful",
      "type": "event",
      "signature": "0x695ec315e8a642a74d450a4505eeea53df699b47a7378c7d752e97d5b16eb9bb"
    },
    {
      "anonymous": false,
      "inputs": [
        {
          "indexed": false,
          "name": "id",
          "type": "bytes32"
        },
        {
          "indexed": true,
          "name": "assetId",
          "type": "uint256"
        },
        {
          "indexed": true,
          "name": "seller",
          "type": "address"
        },
        {
          "indexed": false,
          "name": "nftAddress",
          "type": "address"
        }
      ],
      "name": "OrderCancelled",
      "type": "event",
      "signature": "0x0325426328de5b91ae4ad8462ad4076de4bcaf4551e81556185cacde5a425c6b"
    },
    {
      "anonymous": false,
      "inputs": [
        {
          "indexed": false,
          "name": "publicationFee",
          "type": "uint256"
        }
      ],
      "name": "ChangedPublicationFee",
      "type": "event",
      "signature": "0xe7fa8737293f41b5dfa0d5c3e552860a06275bed7015581b083c7be7003308ba"
    },
    {
      "anonymous": false,
      "inputs": [
        {
          "indexed": false,
          "name": "ownerCutPerMillion",
          "type": "uint256"
        }
      ],
      "name": "ChangedOwnerCutPerMillion",
      "type": "event",
      "signature": "0xfa406a120a9e7f2b332bfb7a43d3bf1c3f079262202907a6b69c94b2821a02c6"
    },
    {
      "anonymous": false,
      "inputs": [
        {
          "indexed": true,
          "name": "legacyNFTAddress",
          "type": "address"
        }
      ],
      "name": "ChangeLegacyNFTAddress",
      "type": "event",
      "signature": "0x6e65d1b616d558dd96db7a58e31a954d28d47d57d568e7d7fc7819803878928f"
    },
    {
      "anonymous": false,
      "inputs": [
        {
          "indexed": false,
          "name": "id",
          "type": "bytes32"
        },
        {
          "indexed": true,
          "name": "assetId",
          "type": "uint256"
        },
        {
          "indexed": true,
          "name": "seller",
          "type": "address"
        },
        {
          "indexed": false,
          "name": "priceInWei",
          "type": "uint256"
        },
        {
          "indexed": false,
          "name": "expiresAt",
          "type": "uint256"
        }
      ],
      "name": "AuctionCreated",
      "type": "event",
      "signature": "0x9493ae82b9872af74473effb9d302efba34e0df360a99cc5e577cd3f28e3cab2"
    },
    {
      "anonymous": false,
      "inputs": [
        {
          "indexed": false,
          "name": "id",
          "type": "bytes32"
        },
        {
          "indexed": true,
          "name": "assetId",
          "type": "uint256"
        },
        {
          "indexed": true,
          "name": "seller",
          "type": "address"
        },
        {
          "indexed": false,
          "name": "totalPrice",
          "type": "uint256"
        },
        {
          "indexed": true,
          "name": "winner",
          "type": "address"
        }
      ],
      "name": "AuctionSuccessful",
      "type": "event",
      "signature": "0xedcc7e1c269bc295dc24e74dc46b129c8449e6b0544af73b57c4201b78d119db"
    },
    {
      "anonymous": false,
      "inputs": [
        {
          "indexed": false,
          "name": "id",
          "type": "bytes32"
        },
        {
          "indexed": true,
          "name": "assetId",
          "type": "uint256"
        },
        {
          "indexed": true,
          "name": "seller",
          "type": "address"
        }
      ],
      "name": "AuctionCancelled",
      "type": "event",
      "signature": "0x88bd2ba46f3dc2567144331c35bd4c5ced3d547d8828638a152ddd9591c137a6"
    },
    {
      "anonymous": false,
      "inputs": [],
      "name": "Pause",
      "type": "event",
      "signature": "0x6985a02210a168e66602d3235cb6db0e70f92b3ba4d376a33c0f3d9434bff625"
    },
    {
      "anonymous": false,
      "inputs": [],
      "name": "Unpause",
      "type": "event",
      "signature": "0x7805862f689e2f13df9f062ff482ad3ad112aca9e0847911ed832e158c525b33"
    },
    {
      "anonymous": false,
      "inputs": [
        {
          "indexed": true,
          "name": "previousOwner",
          "type": "address"
        },
        {
          "indexed": true,
          "name": "newOwner",
          "type": "address"
        }
      ],
      "name": "OwnershipTransferred",
      "type": "event",
      "signature": "0x8be0079c531659141344cd1fd0a4f28419497f9722a3daafe3b4186f6b6457e0"
    },
    {
      "anonymous": false,
      "inputs": [
        {
          "indexed": false,
          "name": "contractName",
          "type": "string"
        },
        {
          "indexed": false,
          "name": "migrationId",
          "type": "string"
        }
      ],
      "name": "Migrated",
      "type": "event",
      "signature": "0xdd117a11c22118c9dee4b5a67ce578bc44529dce21ee0ccc439588fbb9fb4ea3"
    },
    {
      "constant": false,
      "inputs": [
        {
          "name": "_publicationFee",
          "type": "uint256"
        }
      ],
      "name": "setPublicationFee",
      "outputs": [],
      "payable": false,
      "stateMutability": "nonpayable",
      "type": "function",
      "signature": "0xaf8996f1"
    },
    {
      "constant": false,
      "inputs": [
        {
          "name": "_ownerCutPerMillion",
          "type": "uint256"
        }
      ],
      "name": "setOwnerCutPerMillion",
      "outputs": [],
      "payable": false,
      "stateMutability": "nonpayable",
      "type": "function",
      "signature": "0x19dad16d"
    },
    {
      "constant": false,
      "inputs": [
        {
          "name": "_legacyNFTAddress",
          "type": "address"
        }
      ],
      "name": "setLegacyNFTAddress",
      "outputs": [],
      "payable": false,
      "stateMutability": "nonpayable",
      "type": "function",
      "signature": "0x1b357750"
    },
    {
      "constant": false,
      "inputs": [
        {
          "name": "_sender",
          "type": "address"
        }
      ],
      "name": "initialize",
      "outputs": [],
      "payable": false,
      "stateMutability": "nonpayable",
      "type": "function",
      "signature": "0xc4d66de8"
    },
    {
      "constant": false,
      "inputs": [
        {
          "name": "_acceptedToken",
          "type": "address"
        },
        {
          "name": "_legacyNFTAddress",
          "type": "address"
        },
        {
          "name": "_owner",
          "type": "address"
        }
      ],
      "name": "initialize",
      "outputs": [],
      "payable": false,
      "stateMutability": "nonpayable",
      "type": "function",
      "signature": "0xc0c53b8b"
    },
    {
      "constant": false,
      "inputs": [
        {
          "name": "assetId",
          "type": "uint256"
        },
        {
          "name": "priceInWei",
          "type": "uint256"
        },
        {
          "name": "expiresAt",
          "type": "uint256"
        }
      ],
      "name": "createOrder",
      "outputs": [],
      "payable": false,
      "stateMutability": "nonpayable",
      "type": "function",
      "signature": "0xa1ba444d"
    },
    {
      "constant": false,
      "inputs": [
        {
          "name": "nftAddress",
          "type": "address"
        },
        {
          "name": "assetId",
          "type": "uint256"
        },
        {
          "name": "priceInWei",
          "type": "uint256"
        },
        {
          "name": "expiresAt",
          "type": "uint256"
        }
      ],
      "name": "createOrder",
      "outputs": [],
      "payable": false,
      "stateMutability": "nonpayable",
      "type": "function",
      "signature": "0x6f652e1a"
    },
    {
      "constant": false,
      "inputs": [
        {
          "name": "nftAddress",
          "type": "address"
        },
        {
          "name": "assetId",
          "type": "uint256"
        }
      ],
      "name": "cancelOrder",
      "outputs": [],
      "payable": false,
      "stateMutability": "nonpayable",
      "type": "function",
      "signature": "0x6a206137"
    },
    {
      "constant": false,
      "inputs": [
        {
          "name": "assetId",
          "type": "uint256"
        }
      ],
      "name": "cancelOrder",
      "outputs": [],
      "payable": false,
      "stateMutability": "nonpayable",
      "type": "function",
      "signature": "0x514fcac7"
    },
    {
      "constant": false,
      "inputs": [
        {
          "name": "nftAddress",
          "type": "address"
        },
        {
          "name": "assetId",
          "type": "uint256"
        },
        {
          "name": "price",
          "type": "uint256"
        },
        {
          "name": "fingerprint",
          "type": "bytes"
        }
      ],
      "name": "safeExecuteOrder",
      "outputs": [],
      "payable": false,
      "stateMutability": "nonpayable",
      "type": "function",
      "signature": "0x9b214f77"
    },
    {
      "constant": false,
      "inputs": [
        {
          "name": "nftAddress",
          "type": "address"
        },
        {
          "name": "assetId",
          "type": "uint256"
        },
        {
          "name": "price",
          "type": "uint256"
        }
      ],
      "name": "executeOrder",
      "outputs": [],
      "payable": false,
      "stateMutability": "nonpayable",
      "type": "function",
      "signature": "0xae7b0333"
    },
    {
      "constant": false,
      "inputs": [
        {
          "name": "assetId",
          "type": "uint256"
        },
        {
          "name": "price",
          "type": "uint256"
        }
      ],
      "name": "executeOrder",
      "outputs": [],
      "payable": false,
      "stateMutability": "nonpayable",
      "type": "function",
      "signature": "0xef46e0ca"
    },
    {
      "constant": true,
      "inputs": [
        {
          "name": "assetId",
          "type": "uint256"
        }
      ],
      "name": "auctionByAssetId",
      "outputs": [
        {
          "name": "",
          "type": "bytes32"
        },
        {
          "name": "",
          "type": "address"
        },
        {
          "name": "",
          "type": "uint256"
        },
        {
          "name": "",
          "type": "uint256"
        }
      ],
      "payable": false,
      "stateMutability": "view",
      "type": "function",
      "signature": "0xd7b40107"
    }
  ],
  "bytecode": "0x60806040526001805460a060020a60ff021916905534801561002057600080fd5b5061290f806100306000396000f30060806040526004361061013a5763ffffffff60e060020a60003504166319dad16d811461013f5780631b357750146101595780632b4c32be1461017a57806337f82f37146101c15780633f4ba83a146101d6578063451c3d80146101eb578063514fcac71461021c5780635c975abb146102345780636a2061371461025d5780636f652e1a146102815780638456cb59146102ab5780638da5cb5b146102c05780639b214f77146102d5578063a01f79d414610341578063a1ba444d14610368578063ae4f119814610386578063ae7b03331461039b578063af8996f1146103c2578063c0bac1a8146103da578063c0c53b8b14610471578063c4d66de81461049e578063d6b26813146104bf578063d7b40107146104d4578063e61f38511461051a578063ef46e0ca14610575578063f2fde38b14610590575b600080fd5b34801561014b57600080fd5b506101576004356105b1565b005b34801561016557600080fd5b50610157600160a060020a0360043516610683565b34801561018657600080fd5b5061018f6106f3565b604080517bffffffffffffffffffffffffffffffffffffffffffffffffffffffff199092168252519081900360200190f35b3480156101cd57600080fd5b5061018f610717565b3480156101e257600080fd5b5061015761074c565b3480156101f757600080fd5b506102006107c4565b60408051600160a060020a039092168252519081900360200190f35b34801561022857600080fd5b506101576004356107d3565b34801561024057600080fd5b50610249610855565b604080519115158252519081900360200190f35b34801561026957600080fd5b50610157600160a060020a0360043516602435610865565b34801561028d57600080fd5b50610157600160a060020a036004351660243560443560643561088b565b3480156102b757600080fd5b506101576108b4565b3480156102cc57600080fd5b50610200610931565b3480156102e157600080fd5b50604080516020601f60643560048181013592830184900484028501840190955281845261015794600160a060020a0381351694602480359560443595369560849493019181908401838280828437509497506109409650505050505050565b34801561034d57600080fd5b5061035661096a565b60408051918252519081900360200190f35b34801561037457600080fd5b50610157600435602435604435610970565b34801561039257600080fd5b50610356610a57565b3480156103a757600080fd5b50610157600160a060020a0360043516602435604435610a5d565b3480156103ce57600080fd5b50610157600435610a90565b3480156103e657600080fd5b506040805160206004803580820135601f810184900484028501840190955284845261024994369492936024939284019190819084018382808284375050604080516020601f89358b018035918201839004830284018301909452808352979a999881019791965091820194509250829150840183828082843750949750610ae29650505050505050565b34801561047d57600080fd5b50610157600160a060020a0360043581169060243581169060443516610bab565b3480156104aa57600080fd5b50610157600160a060020a0360043516610f38565b3480156104cb57600080fd5b50610200611193565b3480156104e057600080fd5b506104ec6004356111a2565b60408051948552600160a060020a039093166020850152838301919091526060830152519081900360800190f35b34801561052657600080fd5b5061053e600160a060020a036004351660243561122a565b60408051958652600160a060020a039485166020870152929093168483015260608401526080830191909152519081900360a00190f35b34801561058157600080fd5b5061015760043560243561126d565b34801561059c57600080fd5b50610157600160a060020a036004351661130e565b600154600160a060020a031633146105c857600080fd5b620f42408110610648576040805160e560020a62461bcd02815260206004820152602d60248201527f546865206f776e6572206375742073686f756c64206265206265747765656e2060448201527f3020616e64203939392c39393900000000000000000000000000000000000000606482015290519081900360840190fd5b60048190556040805182815290517ffa406a120a9e7f2b332bfb7a43d3bf1c3f079262202907a6b69c94b2821a02c69181900360200190a150565b600154600160a060020a0316331461069a57600080fd5b6106a381611396565b60068054600160a060020a031916600160a060020a0383811691909117918290556040519116907f6e65d1b616d558dd96db7a58e31a954d28d47d57d568e7d7fc7819803878928f90600090a250565b7f80ac58cd0000000000000000000000000000000000000000000000000000000081565b604080517f76657269667946696e6765727072696e742875696e743235362c6279746573298152905190819003602001902081565b600154600160a060020a0316331461076357600080fd5b60015460a060020a900460ff16151561077b57600080fd5b6001805474ff0000000000000000000000000000000000000000191690556040517f7805862f689e2f13df9f062ff482ad3ad112aca9e0847911ed832e158c525b3390600090a1565b600254600160a060020a031681565b6107db6128b5565b60015460a060020a900460ff16156107f257600080fd5b60065461080890600160a060020a031683611556565b60208082015182516040805191825251939450600160a060020a039091169285927f88bd2ba46f3dc2567144331c35bd4c5ced3d547d8828638a152ddd9591c137a6928290030190a35050565b60015460a060020a900460ff1681565b60015460a060020a900460ff161561087c57600080fd5b6108868282611556565b505050565b60015460a060020a900460ff16156108a257600080fd5b6108ae8484848461174d565b50505050565b600154600160a060020a031633146108cb57600080fd5b60015460a060020a900460ff16156108e257600080fd5b6001805474ff0000000000000000000000000000000000000000191660a060020a1790556040517f6985a02210a168e66602d3235cb6db0e70f92b3ba4d376a33c0f3d9434bff62590600090a1565b600154600160a060020a031681565b60015460a060020a900460ff161561095757600080fd5b61096384848484611df3565b5050505050565b60045481565b6109786128b5565b60015460a060020a900460ff161561098f57600080fd5b6006546109a790600160a060020a031685858561174d565b50600654600160a060020a039081166000908152600360208181526040808420888552825292839020835160a0810185528154808252600183015487168285018190526002840154909716828701529382015460608083018290526004909301546080830181905286519586529385015283850192909252925190939287927f9493ae82b9872af74473effb9d302efba34e0df360a99cc5e577cd3f28e3cab2929081900390910190a350505050565b60055481565b60015460a060020a900460ff1615610a7457600080fd5b6108ae8383836020604051908101604052806000815250611df3565b600154600160a060020a03163314610aa757600080fd5b60058190556040805182815290517fe7fa8737293f41b5dfa0d5c3e552860a06275bed7015581b083c7be7003308ba9181900360200190a150565b600080836040518082805190602001908083835b60208310610b155780518252601f199092019160209182019101610af6565b51815160209384036101000a6000190180199092169116179052920194855250604051938490038101842086519094879450925082918401908083835b60208310610b715780518252601f199092019160209182019101610b52565b51815160209384036101000a600019018019909216911617905292019485525060405193849003019092205460ff16925050505b92915050565b6040805190810160405280600b81526020017f4d61726b6574706c6163650000000000000000000000000000000000000000008152506040805190810160405280600581526020017f302e302e31000000000000000000000000000000000000000000000000000000815250610c218282610ae2565b15610c2b57600080fd5b600160a060020a0383161515610c8b576040805160e560020a62461bcd02815260206004820152600d60248201527f496e76616c6964206f776e657200000000000000000000000000000000000000604482015290519081900360640190fd5b610c9483610f38565b610ca685600160a060020a031661274f565b1515610d22576040805160e560020a62461bcd02815260206004820152603660248201527f54686520616363657074656420746f6b656e2061646472657373206d7573742060448201527f62652061206465706c6f79656420636f6e747261637400000000000000000000606482015290519081900360840190fd5b60028054600160a060020a031916600160a060020a038716179055610d4684611396565b60068054600160a060020a031916600160a060020a0386161790556040805181815283519181019190915282517fdd117a11c22118c9dee4b5a67ce578bc44529dce21ee0ccc439588fbb9fb4ea39184918491908190602080830191606084019187019080838360005b83811015610dc8578181015183820152602001610db0565b50505050905090810190601f168015610df55780820380516001836020036101000a031916815260200191505b50838103825284518152845160209182019186019080838360005b83811015610e28578181015183820152602001610e10565b50505050905090810190601f168015610e555780820380516001836020036101000a031916815260200191505b5094505050505060405180910390a160016000836040518082805190602001908083835b60208310610e985780518252601f199092019160209182019101610e79565b51815160209384036101000a6000190180199092169116179052920194855250604051938490038101842086519094879450925082918401908083835b60208310610ef45780518252601f199092019160209182019101610ed5565b51815160209384036101000a60001901801990921691161790529201948552506040519384900301909220805460ff19169315159390931790925550505050505050565b6040805190810160405280600881526020017f5061757361626c650000000000000000000000000000000000000000000000008152506040805190810160405280600581526020017f312e392e30000000000000000000000000000000000000000000000000000000815250610fae8282610ae2565b15610fb857600080fd5b610fc183612757565b7fdd117a11c22118c9dee4b5a67ce578bc44529dce21ee0ccc439588fbb9fb4ea38282604051808060200180602001838103835285818151815260200191508051906020019080838360005b8381101561102557818101518382015260200161100d565b50505050905090810190601f1680156110525780820380516001836020036101000a031916815260200191505b50838103825284518152845160209182019186019080838360005b8381101561108557818101518382015260200161106d565b50505050905090810190601f1680156110b25780820380516001836020036101000a031916815260200191505b5094505050505060405180910390a160016000836040518082805190602001908083835b602083106110f55780518252601f1990920191602091820191016110d6565b51815160209384036101000a6000190180199092169116179052920194855250604051938490038101842086519094879450925082918401908083835b602083106111515780518252601f199092019160209182019101611132565b51815160209384036101000a60001901801990921691161790529201948552506040519384900301909220805460ff1916931515939093179092555050505050565b600654600160a060020a031681565b6000806000806111b06128b5565b5050600654600160a060020a039081166000908152600360208181526040808420898552825292839020835160a08101855281548082526001830154871693820184905260028301549096169481019490945291820154606084018190526004909201546080840181905293965094509250509193509193565b60036020818152600093845260408085209091529183529120805460018201546002830154938301546004909301549193600160a060020a039182169391169185565b6112756128b5565b60015460a060020a900460ff161561128c57600080fd5b6006546040805160208101909152600081526112b591600160a060020a03169085908590611df3565b60208181015182516040805191825292810186905282519394503393600160a060020a039092169287927fedcc7e1c269bc295dc24e74dc46b129c8449e6b0544af73b57c4201b78d119db9281900390910190a4505050565b600154600160a060020a0316331461132557600080fd5b600160a060020a038116151561133a57600080fd5b600154604051600160a060020a038084169216907f8be0079c531659141344cd1fd0a4f28419497f9722a3daafe3b4186f6b6457e090600090a360018054600160a060020a031916600160a060020a0392909216919091179055565b60006113aa82600160a060020a031661274f565b1515611425576040805160e560020a62461bcd028152602060048201526024808201527f546865204e465420416464726573732073686f756c64206265206120636f6e7460448201527f7261637400000000000000000000000000000000000000000000000000000000606482015290519081900360840190fd5b50604080517f01ffc9a70000000000000000000000000000000000000000000000000000000081527f80ac58cd00000000000000000000000000000000000000000000000000000000600482015290518291600160a060020a038316916301ffc9a7916024808201926020929091908290030181600087803b1580156114aa57600080fd5b505af11580156114be573d6000803e3d6000fd5b505050506040513d60208110156114d457600080fd5b50511515611552576040805160e560020a62461bcd02815260206004820152603560248201527f546865204e465420636f6e74726163742068617320616e20696e76616c69642060448201527f45524337323120696d706c656d656e746174696f6e0000000000000000000000606482015290519081900360840190fd5b5050565b61155e6128b5565b6115666128b5565b50600160a060020a0380841660009081526003602081815260408084208785528252808420815160a081018352815480825260018301548816948201949094526002820154909616918601919091529182015460608501526004909101546080840152819081901515611623576040805160e560020a62461bcd02815260206004820152601360248201527f4173736574206e6f74207075626c697368656400000000000000000000000000604482015290519081900360640190fd5b6020840151600160a060020a03163314806116485750600154600160a060020a031633145b151561169e576040805160e560020a62461bcd02815260206004820152601160248201527f556e617574686f72697a65642075736572000000000000000000000000000000604482015290519081900360640190fd5b50508151602080840151604080860151600160a060020a03808b16600090815260038087528482208c83528752848220828155600181018054600160a060020a03199081169091556002820180549091169055908101829055600401558251868152818316958101959095528251959650929490939285169289927f0325426328de5b91ae4ad8462ad4076de4bcaf4551e81556185cacde5a425c6b92918290030190a3509195945050505050565b600080600061175b87611396565b86925082600160a060020a0316636352211e876040518263ffffffff1660e060020a02815260040180828152602001915050602060405180830381600087803b1580156117a757600080fd5b505af11580156117bb573d6000803e3d6000fd5b505050506040513d60208110156117d157600080fd5b5051915033600160a060020a03831614611835576040805160e560020a62461bcd02815260206004820181905260248201527f4f6e6c7920746865206f776e65722063616e20637265617465206f7264657273604482015290519081900360640190fd5b30600160a060020a031683600160a060020a031663081812fc886040518263ffffffff1660e060020a02815260040180828152602001915050602060405180830381600087803b15801561188857600080fd5b505af115801561189c573d6000803e3d6000fd5b505050506040513d60208110156118b257600080fd5b5051600160a060020a0316148061195c5750604080517fe985e9c5000000000000000000000000000000000000000000000000000000008152600160a060020a03848116600483015230602483015291519185169163e985e9c5916044808201926020929091908290030181600087803b15801561192f57600080fd5b505af1158015611943573d6000803e3d6000fd5b505050506040513d602081101561195957600080fd5b50515b15156119d8576040805160e560020a62461bcd02815260206004820152603260248201527f54686520636f6e7472616374206973206e6f7420617574686f72697a6564207460448201527f6f206d616e616765207468652061737365740000000000000000000000000000606482015290519081900360840190fd5b60008511611a30576040805160e560020a62461bcd02815260206004820152601d60248201527f50726963652073686f756c6420626520626967676572207468616e2030000000604482015290519081900360640190fd5b611a4142603c63ffffffff61285816565b8411611abd576040805160e560020a62461bcd02815260206004820152603660248201527f5075626c69636174696f6e2073686f756c64206265206d6f7265207468616e2060448201527f31206d696e75746520696e207468652066757475726500000000000000000000606482015290519081900360840190fd5b60408051426020808301919091526c01000000000000000000000000600160a060020a03808716820284860152605484018b90528b1602607483015260888083018990528351808403909101815260a890920192839052815191929182918401908083835b60208310611b415780518252601f199092019160209182019101611b22565b6001836020036101000a0380198251168184511680821785525050505050509050019150506040518091039020905060a0604051908101604052808260001916815260200183600160a060020a0316815260200188600160a060020a03168152602001868152602001858152506003600089600160a060020a0316600160a060020a0316815260200190815260200160002060008881526020019081526020016000206000820151816000019060001916905560208201518160010160006101000a815481600160a060020a030219169083600160a060020a0316021790555060408201518160020160006101000a815481600160a060020a030219169083600160a060020a03160217905550606082015181600301556080820151816004015590505060006005541115611d9357600254600154600554604080517f23b872dd000000000000000000000000000000000000000000000000000000008152336004820152600160a060020a03938416602482015260448101929092525191909216916323b872dd9160648083019260209291908290030181600087803b158015611ceb57600080fd5b505af1158015611cff573d6000803e3d6000fd5b505050506040513d6020811015611d1557600080fd5b50511515611d93576040805160e560020a62461bcd02815260206004820152603f60248201527f5472616e73666572696e6720746865207075626c69636174696f6e206665652060448201527f746f20746865204d61726b6574706c616365206f776e6572206661696c656400606482015290519081900360840190fd5b60408051828152600160a060020a0389811660208301528183018890526060820187905291519184169188917f84c66c3f7ba4b390e20e8e8233e2a516f3ce34a72749e4f12bd010dfba238039919081900360800190a350505050505050565b611dfb6128b5565b6000611e056128b5565b6000806000611e138a611396565b604080517f76657269667946696e6765727072696e742875696e743235362c6279746573298152815190819003602090810182207f01ffc9a70000000000000000000000000000000000000000000000000000000083527bffffffffffffffffffffffffffffffffffffffffffffffffffffffff1916600483015291518c9750600160a060020a038816926301ffc9a792602480820193918290030181600087803b158015611ec157600080fd5b505af1158015611ed5573d6000803e3d6000fd5b505050506040513d6020811015611eeb57600080fd5b50511561206457604080517f8f9f4b63000000000000000000000000000000000000000000000000000000008152600481018b815260248201928352895160448301528951600160a060020a03891693638f9f4b63938e938d9390929160640190602085019080838360005b83811015611f6f578181015183820152602001611f57565b50505050905090810190601f168015611f9c5780820380516001836020036101000a031916815260200191505b509350505050602060405180830381600087803b158015611fbc57600080fd5b505af1158015611fd0573d6000803e3d6000fd5b505050506040513d6020811015611fe657600080fd5b50511515612064576040805160e560020a62461bcd02815260206004820152602260248201527f5468652061737365742066696e6765727072696e74206973206e6f742076616c60448201527f6964000000000000000000000000000000000000000000000000000000000000606482015290519081900360840190fd5b600160a060020a03808b1660009081526003602081815260408084208e8552825292839020835160a0810185528154808252600183015487169382019390935260028201549095169385019390935290820154606084015260049091015460808301529094501515612120576040805160e560020a62461bcd02815260206004820152601360248201527f4173736574206e6f74207075626c697368656400000000000000000000000000604482015290519081900360640190fd5b60208401519250600160a060020a0383161515612187576040805160e560020a62461bcd02815260206004820152600f60248201527f496e76616c696420616464726573730000000000000000000000000000000000604482015290519081900360640190fd5b600160a060020a0383163314156121e8576040805160e560020a62461bcd02815260206004820152601160248201527f556e617574686f72697a65642075736572000000000000000000000000000000604482015290519081900360640190fd5b60608401518814612243576040805160e560020a62461bcd02815260206004820152601860248201527f546865207072696365206973206e6f7420636f72726563740000000000000000604482015290519081900360640190fd5b6080840151421061229e576040805160e560020a62461bcd02815260206004820152601160248201527f546865206f726465722065787069726564000000000000000000000000000000604482015290519081900360640190fd5b84600160a060020a0316636352211e8a6040518263ffffffff1660e060020a02815260040180828152602001915050602060405180830381600087803b1580156122e757600080fd5b505af11580156122fb573d6000803e3d6000fd5b505050506040513d602081101561231157600080fd5b5051600160a060020a0384811691161461239b576040805160e560020a62461bcd02815260206004820152602160248201527f5468652073656c6c6572206973206e6f206c6f6e67657220746865206f776e6560448201527f7200000000000000000000000000000000000000000000000000000000000000606482015290519081900360840190fd5b50508151600160a060020a03891660009081526003602081815260408084208c85529091528220828155600181018054600160a060020a0319908116909155600282018054909116905590810182905560049081018290555490919082101561254857612426620f424061241a6004548b61286590919063ffffffff16565b9063ffffffff61288e16565b600254600154604080517f23b872dd000000000000000000000000000000000000000000000000000000008152336004820152600160a060020a0392831660248201526044810185905290519395509116916323b872dd916064808201926020929091908290030181600087803b1580156124a057600080fd5b505af11580156124b4573d6000803e3d6000fd5b505050506040513d60208110156124ca57600080fd5b50511515612548576040805160e560020a62461bcd02815260206004820152603360248201527f5472616e73666572696e67207468652063757420746f20746865204d61726b6560448201527f74706c616365206f776e6572206661696c656400000000000000000000000000606482015290519081900360840190fd5b600254600160a060020a03166323b872dd338561256b8c8763ffffffff6128a316565b6040805160e060020a63ffffffff8716028152600160a060020a0394851660048201529290931660248301526044820152905160648083019260209291908290030181600087803b1580156125bf57600080fd5b505af11580156125d3573d6000803e3d6000fd5b505050506040513d60208110156125e957600080fd5b50511515612667576040805160e560020a62461bcd02815260206004820152603060248201527f5472616e73666572696e67207468652073616c6520616d6f756e7420746f207460448201527f68652073656c6c6572206661696c656400000000000000000000000000000000606482015290519081900360840190fd5b604080517f42842e0e000000000000000000000000000000000000000000000000000000008152600160a060020a038581166004830152336024830152604482018c90529151918716916342842e0e9160648082019260009290919082900301818387803b1580156126d857600080fd5b505af11580156126ec573d6000803e3d6000fd5b505060408051848152600160a060020a038e811660208301528183018d9052915133945091871692508c917f695ec315e8a642a74d450a4505eeea53df699b47a7378c7d752e97d5b16eb9bb9181900360600190a4509198975050505050505050565b6000903b1190565b6040805190810160405280600781526020017f4f776e61626c65000000000000000000000000000000000000000000000000008152506040805190810160405280600581526020017f312e392e300000000000000000000000000000000000000000000000000000008152506127cd8282610ae2565b156127d757600080fd5b60018054600160a060020a031916600160a060020a0385161790556040805181815283519181019190915282517fdd117a11c22118c9dee4b5a67ce578bc44529dce21ee0ccc439588fbb9fb4ea39184918491908190602080830191606084019187019080838360008381101561102557818101518382015260200161100d565b81810182811015610ba557fe5b600082151561287657506000610ba5565b5081810281838281151561288657fe5b0414610ba557fe5b6000818381151561289b57fe5b049392505050565b6000828211156128af57fe5b50900390565b6040805160a081018252600080825260208201819052918101829052606081018290526080810191909152905600a165627a7a72305820126a243e946c18241c86b1ed896978e1e60d036a8f92576c172a008fa1876cbb0029",
  "source": "pragma solidity ^0.4.24;\n\nimport \"openzeppelin-zos/contracts/ownership/Ownable.sol\";\nimport \"openzeppelin-zos/contracts/lifecycle/Pausable.sol\";\nimport \"openzeppelin-zos/contracts/math/SafeMath.sol\";\nimport \"openzeppelin-zos/contracts/AddressUtils.sol\";\nimport \"zos-lib/contracts/migrations/Migratable.sol\";\n\nimport \"./MarketplaceStorage.sol\";\n\n\ncontract Marketplace is Migratable, Ownable, Pausable, MarketplaceStorage {\n  using SafeMath for uint256;\n  using AddressUtils for address;\n\n  /**\n    * @dev Sets the publication fee that's charged to users to publish items\n    * @param _publicationFee - Fee amount in wei this contract charges to publish an item\n    */\n  function setPublicationFee(uint256 _publicationFee) external onlyOwner {\n    publicationFeeInWei = _publicationFee;\n    emit ChangedPublicationFee(publicationFeeInWei);\n  }\n\n  /**\n    * @dev Sets the share cut for the owner of the contract that's\n    *  charged to the seller on a successful sale\n    * @param _ownerCutPerMillion - Share amount, from 0 to 999,999\n    */\n  function setOwnerCutPerMillion(uint256 _ownerCutPerMillion) external onlyOwner {\n    require(_ownerCutPerMillion < 1000000, \"The owner cut should be between 0 and 999,999\");\n\n    ownerCutPerMillion = _ownerCutPerMillion;\n    emit ChangedOwnerCutPerMillion(ownerCutPerMillion);\n  }\n\n  /**\n    * @dev Sets the legacy NFT address to be used\n    * @param _legacyNFTAddress - Address of the NFT address used for legacy methods that don't have nftAddress as parameter\n    */\n  function setLegacyNFTAddress(address _legacyNFTAddress) external onlyOwner {\n    _requireERC721(_legacyNFTAddress);\n\n    legacyNFTAddress = _legacyNFTAddress;\n    emit ChangeLegacyNFTAddress(legacyNFTAddress);\n  }\n\n  /**\n    * @dev Initialize this contract. Acts as a constructor\n    * @param _acceptedToken - Address of the ERC20 accepted for this marketplace\n    * @param _legacyNFTAddress - Address of the NFT address used for legacy methods that don't have nftAddress as parameter\n    */\n  function initialize(\n    address _acceptedToken,\n    address _legacyNFTAddress,\n    address _owner\n  )\n  public\n  isInitializer(\"Marketplace\", \"0.0.1\")\n  {\n\n    // msg.sender is the App contract not the real owner. Calls ownable behind the scenes...sigh\n    require(_owner != address(0), \"Invalid owner\");\n    Pausable.initialize(_owner);\n\n    require(_acceptedToken.isContract(), \"The accepted token address must be a deployed contract\");\n    acceptedToken = ERC20Interface(_acceptedToken);\n\n    _requireERC721(_legacyNFTAddress);\n    legacyNFTAddress = _legacyNFTAddress;\n  }\n\n  /**\n    * @dev Creates a new order\n    * @param nftAddress - Non fungible registry address\n    * @param assetId - ID of the published NFT\n    * @param priceInWei - Price in Wei for the supported coin\n    * @param expiresAt - Duration of the order (in hours)\n    */\n  function createOrder(\n    address nftAddress,\n    uint256 assetId,\n    uint256 priceInWei,\n    uint256 expiresAt\n  )\n  public\n  whenNotPaused\n  {\n    _createOrder(\n      nftAddress,\n      assetId,\n      priceInWei,\n      expiresAt\n    );\n  }\n\n  /**\n    * @dev [LEGACY] Creates a new order\n    * @param assetId - ID of the published NFT\n    * @param priceInWei - Price in Wei for the supported coin\n    * @param expiresAt - Duration of the order (in hours)\n    */\n  function createOrder(\n    uint256 assetId,\n    uint256 priceInWei,\n    uint256 expiresAt\n  )\n  public\n  whenNotPaused\n  {\n    _createOrder(\n      legacyNFTAddress,\n      assetId,\n      priceInWei,\n      expiresAt\n    );\n\n    Order memory order = orderByAssetId[legacyNFTAddress][assetId];\n    emit AuctionCreated(\n      order.id,\n      assetId,\n      order.seller,\n      order.price,\n      order.expiresAt\n    );\n  }\n\n  /**\n    * @dev Cancel an already published order\n    *  can only be canceled by seller or the contract owner\n    * @param nftAddress - Address of the NFT registry\n    * @param assetId - ID of the published NFT\n    */\n  function cancelOrder(address nftAddress, uint256 assetId) public whenNotPaused {\n    _cancelOrder(nftAddress, assetId);\n  }\n\n  /**\n    * @dev [LEGACY] Cancel an already published order\n    *  can only be canceled by seller or the contract owner\n    * @param assetId - ID of the published NFT\n    */\n  function cancelOrder(uint256 assetId) public whenNotPaused {\n    Order memory order = _cancelOrder(legacyNFTAddress, assetId);\n\n    emit AuctionCancelled(\n      order.id,\n      assetId,\n      order.seller\n    );\n  }\n\n  /**\n    * @dev Executes the sale for a published NFT and checks for the asset fingerprint\n    * @param nftAddress - Address of the NFT registry\n    * @param assetId - ID of the published NFT\n    * @param price - Order price\n    * @param fingerprint - Verification info for the asset\n    */\n  function safeExecuteOrder(\n    address nftAddress,\n    uint256 assetId,\n    uint256 price,\n    bytes fingerprint\n  )\n  public\n  whenNotPaused\n  {\n    _executeOrder(\n      nftAddress,\n      assetId,\n      price,\n      fingerprint\n    );\n  }\n\n  /**\n    * @dev Executes the sale for a published NFT\n    * @param nftAddress - Address of the NFT registry\n    * @param assetId - ID of the published NFT\n    * @param price - Order price\n    */\n  function executeOrder(\n    address nftAddress,\n    uint256 assetId,\n    uint256 price\n  )\n  public\n  whenNotPaused\n  {\n    _executeOrder(\n      nftAddress,\n      assetId,\n      price,\n      \"\"\n    );\n  }\n\n  /**\n    * @dev [LEGACY] Executes the sale for a published NFT\n    * @param assetId - ID of the published NFT\n    * @param price - Order price\n    */\n  function executeOrder(\n    uint256 assetId,\n    uint256 price\n  )\n  public\n  whenNotPaused\n  {\n    Order memory order = _executeOrder(\n      legacyNFTAddress,\n      assetId,\n      price,\n      \"\"\n    );\n\n    emit AuctionSuccessful(\n      order.id,\n      assetId,\n      order.seller,\n      price,\n      msg.sender\n    );\n  }\n\n  /**\n    * @dev [LEGACY] Gets an order using the legacy NFT address.\n    * @dev It's equivalent to orderByAssetId[legacyNFTAddress][assetId] but returns same structure as the old Auction\n    * @param assetId - ID of the published NFT\n    */\n  function auctionByAssetId(\n    uint256 assetId\n  )\n  public\n  view\n  returns\n  (bytes32, address, uint256, uint256)\n  {\n    Order memory order = orderByAssetId[legacyNFTAddress][assetId];\n    return (order.id, order.seller, order.price, order.expiresAt);\n  }\n\n  /**\n    * @dev Creates a new order\n    * @param nftAddress - Non fungible registry address\n    * @param assetId - ID of the published NFT\n    * @param priceInWei - Price in Wei for the supported coin\n    * @param expiresAt - Duration of the order (in hours)\n    */\n  function _createOrder(\n    address nftAddress,\n    uint256 assetId,\n    uint256 priceInWei,\n    uint256 expiresAt\n  )\n  internal\n  {\n    _requireERC721(nftAddress);\n\n    ERC721Interface nftRegistry = ERC721Interface(nftAddress);\n    address assetOwner = nftRegistry.ownerOf(assetId);\n\n    require(msg.sender == assetOwner, \"Only the owner can create orders\");\n    require(\n      nftRegistry.getApproved(assetId) == address(this) || nftRegistry.isApprovedForAll(assetOwner, address(this)),\n      \"The contract is not authorized to manage the asset\"\n    );\n    require(priceInWei > 0, \"Price should be bigger than 0\");\n    require(expiresAt > block.timestamp.add(1 minutes), \"Publication should be more than 1 minute in the future\");\n\n    bytes32 orderId = keccak256(\n      abi.encodePacked(\n        block.timestamp,\n        assetOwner,\n        assetId,\n        nftAddress,\n        priceInWei\n      )\n    );\n\n    orderByAssetId[nftAddress][assetId] = Order({\n      id: orderId,\n      seller: assetOwner,\n      nftAddress: nftAddress,\n      price: priceInWei,\n      expiresAt: expiresAt\n      });\n\n    // Check if there's a publication fee and\n    // transfer the amount to marketplace owner\n    if (publicationFeeInWei > 0) {\n      require(\n        acceptedToken.transferFrom(msg.sender, owner, publicationFeeInWei),\n        \"Transfering the publication fee to the Marketplace owner failed\"\n      );\n    }\n\n    emit OrderCreated(\n      orderId,\n      assetId,\n      assetOwner,\n      nftAddress,\n      priceInWei,\n      expiresAt\n    );\n  }\n\n  /**\n    * @dev Cancel an already published order\n    *  can only be canceled by seller or the contract owner\n    * @param nftAddress - Address of the NFT registry\n    * @param assetId - ID of the published NFT\n    */\n  function _cancelOrder(address nftAddress, uint256 assetId) internal returns (Order) {\n    Order memory order = orderByAssetId[nftAddress][assetId];\n\n    require(order.id != 0, \"Asset not published\");\n    require(order.seller == msg.sender || msg.sender == owner, \"Unauthorized user\");\n\n    bytes32 orderId = order.id;\n    address orderSeller = order.seller;\n    address orderNftAddress = order.nftAddress;\n    delete orderByAssetId[nftAddress][assetId];\n\n    emit OrderCancelled(\n      orderId,\n      assetId,\n      orderSeller,\n      orderNftAddress\n    );\n\n    return order;\n  }\n\n  /**\n    * @dev Executes the sale for a published NFT\n    * @param nftAddress - Address of the NFT registry\n    * @param assetId - ID of the published NFT\n    * @param price - Order price\n    * @param fingerprint - Verification info for the asset\n    */\n  function _executeOrder(\n    address nftAddress,\n    uint256 assetId,\n    uint256 price,\n    bytes fingerprint\n  )\n  internal returns (Order)\n  {\n    _requireERC721(nftAddress);\n\n    ERC721Verifiable nftRegistry = ERC721Verifiable(nftAddress);\n\n    if (nftRegistry.supportsInterface(InterfaceId_ValidateFingerprint)) {\n      require(\n        nftRegistry.verifyFingerprint(assetId, fingerprint),\n        \"The asset fingerprint is not valid\"\n      );\n    }\n    Order memory order = orderByAssetId[nftAddress][assetId];\n\n    require(order.id != 0, \"Asset not published\");\n\n    address seller = order.seller;\n\n    require(seller != address(0), \"Invalid address\");\n    require(seller != msg.sender, \"Unauthorized user\");\n    require(order.price == price, \"The price is not correct\");\n    require(block.timestamp < order.expiresAt, \"The order expired\");\n    require(seller == nftRegistry.ownerOf(assetId), \"The seller is no longer the owner\");\n\n    uint saleShareAmount = 0;\n\n    bytes32 orderId = order.id;\n    delete orderByAssetId[nftAddress][assetId];\n\n    if (ownerCutPerMillion > 0) {\n      // Calculate sale share\n      saleShareAmount = price.mul(ownerCutPerMillion).div(1000000);\n\n      // Transfer share amount for marketplace Owner\n      require(\n        acceptedToken.transferFrom(msg.sender, owner, saleShareAmount),\n        \"Transfering the cut to the Marketplace owner failed\"\n      );\n    }\n\n    // Transfer sale amount to seller\n    require(\n      acceptedToken.transferFrom(msg.sender, seller, price.sub(saleShareAmount)),\n      \"Transfering the sale amount to the seller failed\"\n    );\n\n    // Transfer asset owner\n    nftRegistry.safeTransferFrom(\n      seller,\n      msg.sender,\n      assetId\n    );\n\n    emit OrderSuccessful(\n      orderId,\n      assetId,\n      seller,\n      nftAddress,\n      price,\n      msg.sender\n    );\n\n    return order;\n  }\n\n  function _requireERC721(address nftAddress) internal view {\n    require(nftAddress.isContract(), \"The NFT Address should be a contract\");\n\n    ERC721Interface nftRegistry = ERC721Interface(nftAddress);\n    require(\n      nftRegistry.supportsInterface(ERC721_Interface),\n      \"The NFT contract has an invalid ERC721 implementation\"\n    );\n  }\n}\n",
  "sourcePath": "/Users/jules/WebstormProjects/RobInTheHood/chain/landSC/contracts/marketplace/Marketplace.sol",
  "compiler": {
    "name": "solc",
    "version": "0.4.25+commit.59dbf8f1.Emscripten.clang"
  },
  "schemaVersion": "3.0.1",
  "updatedAt": "2019-04-24T09:23:08.932Z",
  "devdoc": {
    "methods": {
      "auctionByAssetId(uint256)": {
        "details": "[LEGACY] Gets an order using the legacy NFT address.It's equivalent to orderByAssetId[legacyNFTAddress][assetId] but returns same structure as the old Auction",
        "params": {
          "assetId": "- ID of the published NFT"
        }
      },
      "cancelOrder(address,uint256)": {
        "details": "Cancel an already published order can only be canceled by seller or the contract owner",
        "params": {
          "assetId": "- ID of the published NFT",
          "nftAddress": "- Address of the NFT registry"
        }
      },
      "cancelOrder(uint256)": {
        "details": "[LEGACY] Cancel an already published order can only be canceled by seller or the contract owner",
        "params": {
          "assetId": "- ID of the published NFT"
        }
      },
      "createOrder(address,uint256,uint256,uint256)": {
        "details": "Creates a new order",
        "params": {
          "assetId": "- ID of the published NFT",
          "expiresAt": "- Duration of the order (in hours)",
          "nftAddress": "- Non fungible registry address",
          "priceInWei": "- Price in Wei for the supported coin"
        }
      },
      "createOrder(uint256,uint256,uint256)": {
        "details": "[LEGACY] Creates a new order",
        "params": {
          "assetId": "- ID of the published NFT",
          "expiresAt": "- Duration of the order (in hours)",
          "priceInWei": "- Price in Wei for the supported coin"
        }
      },
      "executeOrder(address,uint256,uint256)": {
        "details": "Executes the sale for a published NFT",
        "params": {
          "assetId": "- ID of the published NFT",
          "nftAddress": "- Address of the NFT registry",
          "price": "- Order price"
        }
      },
      "executeOrder(uint256,uint256)": {
        "details": "[LEGACY] Executes the sale for a published NFT",
        "params": {
          "assetId": "- ID of the published NFT",
          "price": "- Order price"
        }
      },
      "initialize(address,address,address)": {
        "details": "Initialize this contract. Acts as a constructor",
        "params": {
          "_acceptedToken": "- Address of the ERC20 accepted for this marketplace",
          "_legacyNFTAddress": "- Address of the NFT address used for legacy methods that don't have nftAddress as parameter"
        }
      },
      "isMigrated(string,string)": {
        "params": {
          "contractName": "Contract name",
          "migrationId": "migration id"
        },
        "return": "if the contract was already migrated with given migration"
      },
      "pause()": {
        "details": "called by the owner to pause, triggers stopped state"
      },
      "safeExecuteOrder(address,uint256,uint256,bytes)": {
        "details": "Executes the sale for a published NFT and checks for the asset fingerprint",
        "params": {
          "assetId": "- ID of the published NFT",
          "fingerprint": "- Verification info for the asset",
          "nftAddress": "- Address of the NFT registry",
          "price": "- Order price"
        }
      },
      "setLegacyNFTAddress(address)": {
        "details": "Sets the legacy NFT address to be used",
        "params": {
          "_legacyNFTAddress": "- Address of the NFT address used for legacy methods that don't have nftAddress as parameter"
        }
      },
      "setOwnerCutPerMillion(uint256)": {
        "details": "Sets the share cut for the owner of the contract that's charged to the seller on a successful sale",
        "params": {
          "_ownerCutPerMillion": "- Share amount, from 0 to 999,999"
        }
      },
      "setPublicationFee(uint256)": {
        "details": "Sets the publication fee that's charged to users to publish items",
        "params": {
          "_publicationFee": "- Fee amount in wei this contract charges to publish an item"
        }
      },
      "transferOwnership(address)": {
        "details": "Allows the current owner to transfer control of the contract to a newOwner.",
        "params": {
          "newOwner": "The address to transfer ownership to."
        }
      },
      "unpause()": {
        "details": "called by the owner to unpause, returns to normal state"
      }
    }
  },
  "userdoc": {
    "methods": {}
  }
}