{
  "contractName": "MarketplaceStorage",
  "abi": [
    {
      "constant": true,
      "inputs": [],
      "name": "ERC721_Interface",
      "outputs": [
        {
          "name": "",
          "type": "bytes4"
        }
      ],
      "payable": false,
      "stateMutability": "view",
      "type": "function"
    },
    {
      "constant": true,
      "inputs": [],
      "name": "InterfaceId_ValidateFingerprint",
      "outputs": [
        {
          "name": "",
          "type": "bytes4"
        }
      ],
      "payable": false,
      "stateMutability": "view",
      "type": "function"
    },
    {
      "constant": true,
      "inputs": [],
      "name": "acceptedToken",
      "outputs": [
        {
          "name": "",
          "type": "address"
        }
      ],
      "payable": false,
      "stateMutability": "view",
      "type": "function"
    },
    {
      "constant": true,
      "inputs": [],
      "name": "ownerCutPerMillion",
      "outputs": [
        {
          "name": "",
          "type": "uint256"
        }
      ],
      "payable": false,
      "stateMutability": "view",
      "type": "function"
    },
    {
      "constant": true,
      "inputs": [],
      "name": "publicationFeeInWei",
      "outputs": [
        {
          "name": "",
          "type": "uint256"
        }
      ],
      "payable": false,
      "stateMutability": "view",
      "type": "function"
    },
    {
      "constant": true,
      "inputs": [],
      "name": "legacyNFTAddress",
      "outputs": [
        {
          "name": "",
          "type": "address"
        }
      ],
      "payable": false,
      "stateMutability": "view",
      "type": "function"
    },
    {
      "constant": true,
      "inputs": [
        {
          "name": "",
          "type": "address"
        },
        {
          "name": "",
          "type": "uint256"
        }
      ],
      "name": "orderByAssetId",
      "outputs": [
        {
          "name": "id",
          "type": "bytes32"
        },
        {
          "name": "seller",
          "type": "address"
        },
        {
          "name": "nftAddress",
          "type": "address"
        },
        {
          "name": "price",
          "type": "uint256"
        },
        {
          "name": "expiresAt",
          "type": "uint256"
        }
      ],
      "payable": false,
      "stateMutability": "view",
      "type": "function"
    },
    {
      "anonymous": false,
      "inputs": [
        {
          "indexed": false,
          "name": "id",
          "type": "bytes32"
        },
        {
          "indexed": true,
          "name": "assetId",
          "type": "uint256"
        },
        {
          "indexed": true,
          "name": "seller",
          "type": "address"
        },
        {
          "indexed": false,
          "name": "nftAddress",
          "type": "address"
        },
        {
          "indexed": false,
          "name": "priceInWei",
          "type": "uint256"
        },
        {
          "indexed": false,
          "name": "expiresAt",
          "type": "uint256"
        }
      ],
      "name": "OrderCreated",
      "type": "event"
    },
    {
      "anonymous": false,
      "inputs": [
        {
          "indexed": false,
          "name": "id",
          "type": "bytes32"
        },
        {
          "indexed": true,
          "name": "assetId",
          "type": "uint256"
        },
        {
          "indexed": true,
          "name": "seller",
          "type": "address"
        },
        {
          "indexed": false,
          "name": "nftAddress",
          "type": "address"
        },
        {
          "indexed": false,
          "name": "totalPrice",
          "type": "uint256"
        },
        {
          "indexed": true,
          "name": "buyer",
          "type": "address"
        }
      ],
      "name": "OrderSuccessful",
      "type": "event"
    },
    {
      "anonymous": false,
      "inputs": [
        {
          "indexed": false,
          "name": "id",
          "type": "bytes32"
        },
        {
          "indexed": true,
          "name": "assetId",
          "type": "uint256"
        },
        {
          "indexed": true,
          "name": "seller",
          "type": "address"
        },
        {
          "indexed": false,
          "name": "nftAddress",
          "type": "address"
        }
      ],
      "name": "OrderCancelled",
      "type": "event"
    },
    {
      "anonymous": false,
      "inputs": [
        {
          "indexed": false,
          "name": "publicationFee",
          "type": "uint256"
        }
      ],
      "name": "ChangedPublicationFee",
      "type": "event"
    },
    {
      "anonymous": false,
      "inputs": [
        {
          "indexed": false,
          "name": "ownerCutPerMillion",
          "type": "uint256"
        }
      ],
      "name": "ChangedOwnerCutPerMillion",
      "type": "event"
    },
    {
      "anonymous": false,
      "inputs": [
        {
          "indexed": true,
          "name": "legacyNFTAddress",
          "type": "address"
        }
      ],
      "name": "ChangeLegacyNFTAddress",
      "type": "event"
    },
    {
      "anonymous": false,
      "inputs": [
        {
          "indexed": false,
          "name": "id",
          "type": "bytes32"
        },
        {
          "indexed": true,
          "name": "assetId",
          "type": "uint256"
        },
        {
          "indexed": true,
          "name": "seller",
          "type": "address"
        },
        {
          "indexed": false,
          "name": "priceInWei",
          "type": "uint256"
        },
        {
          "indexed": false,
          "name": "expiresAt",
          "type": "uint256"
        }
      ],
      "name": "AuctionCreated",
      "type": "event"
    },
    {
      "anonymous": false,
      "inputs": [
        {
          "indexed": false,
          "name": "id",
          "type": "bytes32"
        },
        {
          "indexed": true,
          "name": "assetId",
          "type": "uint256"
        },
        {
          "indexed": true,
          "name": "seller",
          "type": "address"
        },
        {
          "indexed": false,
          "name": "totalPrice",
          "type": "uint256"
        },
        {
          "indexed": true,
          "name": "winner",
          "type": "address"
        }
      ],
      "name": "AuctionSuccessful",
      "type": "event"
    },
    {
      "anonymous": false,
      "inputs": [
        {
          "indexed": false,
          "name": "id",
          "type": "bytes32"
        },
        {
          "indexed": true,
          "name": "assetId",
          "type": "uint256"
        },
        {
          "indexed": true,
          "name": "seller",
          "type": "address"
        }
      ],
      "name": "AuctionCancelled",
      "type": "event"
    }
  ],
  "bytecode": "0x608060405234801561001057600080fd5b50610303806100206000396000f3006080604052600436106100825763ffffffff7c01000000000000000000000000000000000000000000000000000000006000350416632b4c32be811461008757806337f82f37146100d1578063451c3d80146100e6578063a01f79d414610124578063ae4f11981461014b578063d6b2681314610160578063e61f385114610175575b600080fd5b34801561009357600080fd5b5061009c6101ea565b604080517fffffffff000000000000000000000000000000000000000000000000000000009092168252519081900360200190f35b3480156100dd57600080fd5b5061009c61020e565b3480156100f257600080fd5b506100fb610243565b6040805173ffffffffffffffffffffffffffffffffffffffff9092168252519081900360200190f35b34801561013057600080fd5b5061013961025f565b60408051918252519081900360200190f35b34801561015757600080fd5b50610139610265565b34801561016c57600080fd5b506100fb61026b565b34801561018157600080fd5b506101a673ffffffffffffffffffffffffffffffffffffffff60043516602435610287565b6040805195865273ffffffffffffffffffffffffffffffffffffffff9485166020870152929093168483015260608401526080830191909152519081900360a00190f35b7f80ac58cd0000000000000000000000000000000000000000000000000000000081565b604080517f76657269667946696e6765727072696e742875696e743235362c6279746573298152905190819003602001902081565b60005473ffffffffffffffffffffffffffffffffffffffff1681565b60025481565b60035481565b60045473ffffffffffffffffffffffffffffffffffffffff1681565b600160208181526000938452604080852090915291835291208054918101546002820154600383015460049093015473ffffffffffffffffffffffffffffffffffffffff928316939190921691855600a165627a7a72305820f204a0505491dab14486a927a05e37582f417fe5dab285da6badb442885cce330029",
  "source": "pragma solidity ^0.4.24;\n\n\n/**\n * @title Interface for contracts conforming to ERC-20\n */\ncontract ERC20Interface {\n  function transferFrom(address from, address to, uint tokens) public returns (bool success);\n}\n\n\n/**\n * @title Interface for contracts conforming to ERC-721\n */\ncontract ERC721Interface {\n  function ownerOf(uint256 _tokenId) public view returns (address _owner);\n  function approve(address _to, uint256 _tokenId) public;\n  function getApproved(uint256 _tokenId) public view returns (address);\n  function isApprovedForAll(address _owner, address _operator) public view returns (bool);\n  function transferFrom(address _from, address _to, uint256 _tokenId) public; //TODO safeTransferFrom revert\n  function supportsInterface(bytes4) public view returns (bool);\n}\n\n\ncontract ERC721Verifiable is ERC721Interface {\n  function verifyFingerprint(uint256, bytes) public view returns (bool);\n}\n\n\ncontract MarketplaceStorage {\n  ERC20Interface public acceptedToken;\n\n  struct Order {\n    // Order ID\n    bytes32 id;\n    // Owner of the NFT\n    address seller;\n    // NFT registry address\n    address nftAddress;\n    // Price (in wei) for the published item\n    uint256 price;\n    // Time when this sale ends\n    uint256 expiresAt;\n  }\n\n  // From ERC721 registry assetId to Order (to avoid asset collision)\n  mapping (address => mapping(uint256 => Order)) public orderByAssetId;\n\n  uint256 public ownerCutPerMillion;\n  uint256 public publicationFeeInWei;\n\n  address public legacyNFTAddress;\n\n  bytes4 public constant InterfaceId_ValidateFingerprint = bytes4(\n    keccak256(\"verifyFingerprint(uint256,bytes)\")\n  );\n\n  bytes4 public constant ERC721_Interface = bytes4(0x80ac58cd);\n\n  // EVENTS\n  event OrderCreated(\n    bytes32 id,\n    uint256 indexed assetId,\n    address indexed seller,\n    address nftAddress,\n    uint256 priceInWei,\n    uint256 expiresAt\n  );\n  event OrderSuccessful(\n    bytes32 id,\n    uint256 indexed assetId,\n    address indexed seller,\n    address nftAddress,\n    uint256 totalPrice,\n    address indexed buyer\n  );\n  event OrderCancelled(\n    bytes32 id,\n    uint256 indexed assetId,\n    address indexed seller,\n    address nftAddress\n  );\n\n  event ChangedPublicationFee(uint256 publicationFee);\n  event ChangedOwnerCutPerMillion(uint256 ownerCutPerMillion);\n  event ChangeLegacyNFTAddress(address indexed legacyNFTAddress);\n\n  // [LEGACY] Auction events\n  event AuctionCreated(\n    bytes32 id,\n    uint256 indexed assetId,\n    address indexed seller,\n    uint256 priceInWei,\n    uint256 expiresAt\n  );\n  event AuctionSuccessful(\n    bytes32 id,\n    uint256 indexed assetId,\n    address indexed seller,\n    uint256 totalPrice,\n    address indexed winner\n  );\n  event AuctionCancelled(\n    bytes32 id,\n    uint256 indexed assetId,\n    address indexed seller\n  );\n}\n",
  "sourcePath": "/Users/jules/WebstormProjects/RobInTheHood/chain/landSC/contracts/marketplace/MarketplaceStorage.sol",
  "compiler": {
    "name": "solc",
    "version": "0.4.25+commit.59dbf8f1.Emscripten.clang"
  },
  "schemaVersion": "3.0.1",
  "updatedAt": "2019-04-26T13:47:14.080Z",
  "devdoc": {
    "methods": {}
  },
  "userdoc": {
    "methods": {}
  }
}