{
  "contractName": "Migratable",
  "abi": [
    {
      "anonymous": false,
      "inputs": [
        {
          "indexed": false,
          "name": "contractName",
          "type": "string"
        },
        {
          "indexed": false,
          "name": "migrationId",
          "type": "string"
        }
      ],
      "name": "Migrated",
      "type": "event"
    },
    {
      "constant": true,
      "inputs": [
        {
          "name": "contractName",
          "type": "string"
        },
        {
          "name": "migrationId",
          "type": "string"
        }
      ],
      "name": "isMigrated",
      "outputs": [
        {
          "name": "",
          "type": "bool"
        }
      ],
      "payable": false,
      "stateMutability": "view",
      "type": "function"
    }
  ],
  "bytecode": "0x608060405234801561001057600080fd5b506101e3806100206000396000f3006080604052600436106100405763ffffffff7c0100000000000000000000000000000000000000000000000000000000600035041663c0bac1a88114610045575b600080fd5b34801561005157600080fd5b506040805160206004803580820135601f81018490048402850184019095528484526100dc94369492936024939284019190819084018382808284375050604080516020601f89358b018035918201839004830284018301909452808352979a9998810197919650918201945092508291508401838280828437509497506100f09650505050505050565b604080519115158252519081900360200190f35b600080836040518082805190602001908083835b602083106101235780518252601f199092019160209182019101610104565b51815160209384036101000a6000190180199092169116179052920194855250604051938490038101842086519094879450925082918401908083835b6020831061017f5780518252601f199092019160209182019101610160565b51815160209384036101000a600019018019909216911617905292019485525060405193849003019092205460ff16959450505050505600a165627a7a72305820883a8a921ee7c02a2056f323b7cefdc802c31f7915a5db6cde134c6b263663df0029",
  "source": "pragma solidity ^0.4.21;\n\n\n/**\n * @title Migratable\n *\n * @dev Helper contract to support migration schemes between different\n * @dev implementations of a contract in the context of upgradeability.\n *\n * @dev Beware! It is the developer's responsibility to ensure migrations are\n * @dev run in a correct order, or that they are run at all.\n *\n * @dev See Initializable for a simpler version.\n */\ncontract Migratable {\n  /**\n   * @dev Emitted when the contract performs a migration\n   * @param contractName Contract name\n   * @param migrationId migration id applied\n   */\n  event Migrated(string contractName, string migrationId);\n\n  /**\n   * @dev Stores which migrations have been applied already. \n   * @dev (contractName => (migrationId => bool))\n   */\n  mapping (string => mapping (string => bool)) internal migrated;\n\n\n  /**\n   * @dev used to decorate the initialization function of a contract version\n   * @param contractName Contract name\n   * @param migrationId migration id to be applied\n   */\n  modifier isInitializer(string contractName, string migrationId) {\n    require(!isMigrated(contractName, migrationId));\n    _;\n    emit Migrated(contractName, migrationId);\n    migrated[contractName][migrationId] = true;\n  }\n\n  /**\n   * @dev used to decorate a migration function of a contract\n   * @param contractName Contract name\n   * @param requiredMigrationId previous migration required to run new one\n   * @param newMigrationId new migration id to be applied\n   */\n  modifier isMigration(string contractName, string requiredMigrationId, string newMigrationId) {\n    require(isMigrated(contractName, requiredMigrationId) && !isMigrated(contractName, newMigrationId));\n    _;\n    emit Migrated(contractName, newMigrationId);\n    migrated[contractName][newMigrationId] = true;\n  }\n\n  /**\n   * @param contractName Contract name\n   * @param migrationId migration id\n   * @return if the contract was already migrated with given migration\n   */\n  function isMigrated(string contractName, string migrationId) public view returns(bool) {\n    return migrated[contractName][migrationId];\n  }\n}\n",
  "sourcePath": "zos-lib/contracts/migrations/Migratable.sol",
  "compiler": {
    "name": "solc",
    "version": "0.4.25+commit.59dbf8f1.Emscripten.clang"
  },
  "schemaVersion": "3.0.1",
  "updatedAt": "2019-04-23T11:14:05.445Z",
  "devdoc": {
    "methods": {
      "isMigrated(string,string)": {
        "params": {
          "contractName": "Contract name",
          "migrationId": "migration id"
        },
        "return": "if the contract was already migrated with given migration"
      }
    },
    "title": "Migratable"
  },
  "userdoc": {
    "methods": {}
  }
}