{
  "contractName": "Ownable",
  "abi": [
    {
      "constant": true,
      "inputs": [],
      "name": "proxyOwner",
      "outputs": [
        {
          "name": "",
          "type": "address"
        }
      ],
      "payable": false,
      "stateMutability": "view",
      "type": "function"
    },
    {
      "constant": true,
      "inputs": [
        {
          "name": "",
          "type": "address"
        }
      ],
      "name": "latestPing",
      "outputs": [
        {
          "name": "",
          "type": "uint256"
        }
      ],
      "payable": false,
      "stateMutability": "view",
      "type": "function"
    },
    {
      "constant": true,
      "inputs": [
        {
          "name": "",
          "type": "address"
        }
      ],
      "name": "authorizedDeploy",
      "outputs": [
        {
          "name": "",
          "type": "bool"
        }
      ],
      "payable": false,
      "stateMutability": "view",
      "type": "function"
    },
    {
      "constant": true,
      "inputs": [],
      "name": "currentContract",
      "outputs": [
        {
          "name": "",
          "type": "address"
        }
      ],
      "payable": false,
      "stateMutability": "view",
      "type": "function"
    },
    {
      "constant": true,
      "inputs": [],
      "name": "owner",
      "outputs": [
        {
          "name": "",
          "type": "address"
        }
      ],
      "payable": false,
      "stateMutability": "view",
      "type": "function"
    },
    {
      "constant": true,
      "inputs": [
        {
          "name": "",
          "type": "uint256"
        }
      ],
      "name": "updateOperator",
      "outputs": [
        {
          "name": "",
          "type": "address"
        }
      ],
      "payable": false,
      "stateMutability": "view",
      "type": "function"
    },
    {
      "constant": true,
      "inputs": [],
      "name": "estateRegistry",
      "outputs": [
        {
          "name": "",
          "type": "address"
        }
      ],
      "payable": false,
      "stateMutability": "view",
      "type": "function"
    },
    {
      "anonymous": false,
      "inputs": [
        {
          "indexed": false,
          "name": "_prevOwner",
          "type": "address"
        },
        {
          "indexed": false,
          "name": "_newOwner",
          "type": "address"
        }
      ],
      "name": "OwnerUpdate",
      "type": "event"
    },
    {
      "constant": false,
      "inputs": [
        {
          "name": "_newOwner",
          "type": "address"
        }
      ],
      "name": "transferOwnership",
      "outputs": [],
      "payable": false,
      "stateMutability": "nonpayable",
      "type": "function"
    }
  ],
  "bytecode": "0x608060405260028054600160a060020a0319163317905561030f806100256000396000f30060806040526004361061008d5763ffffffff7c0100000000000000000000000000000000000000000000000000000000600035041663025313a281146100925780631e375901146100c357806329ffab3b146100f6578063721d7d8e1461012b5780638da5cb5b146101405780639d40b85014610155578063e387d31a1461016d578063f2fde38b14610182575b600080fd5b34801561009e57600080fd5b506100a76101a5565b60408051600160a060020a039092168252519081900360200190f35b3480156100cf57600080fd5b506100e4600160a060020a03600435166101b4565b60408051918252519081900360200190f35b34801561010257600080fd5b50610117600160a060020a03600435166101c6565b604080519115158252519081900360200190f35b34801561013757600080fd5b506100a76101db565b34801561014c57600080fd5b506100a76101ea565b34801561016157600080fd5b506100a76004356101f9565b34801561017957600080fd5b506100a7610214565b34801561018e57600080fd5b506101a3600160a060020a0360043516610223565b005b600154600160a060020a031681565b600d6020526000908152604090205481565b60116020526000908152604090205460ff1681565b600054600160a060020a031681565b600254600160a060020a031681565b600f60205260009081526040902054600160a060020a031681565b601054600160a060020a031681565b600254600160a060020a0316331461023757fe5b600254600160a060020a03828116911614156102b457604080517f08c379a000000000000000000000000000000000000000000000000000000000815260206004820152601b60248201527f43616e6e6f74207472616e7366657220746f20796f757273656c660000000000604482015290519081900360640190fd5b6002805473ffffffffffffffffffffffffffffffffffffffff1916600160a060020a03929092169190911790555600a165627a7a723058200cdd8b4e156f9e487a72c216457988bc5ce9120d7a94d369c0b629fc650c69c40029",
  "source": "pragma solidity ^0.4.18;\n\nimport \"./.././Storage.sol\";\n\ncontract Ownable is Storage {\n\n  event OwnerUpdate(address _prevOwner, address _newOwner);\n\n  modifier onlyOwner {\n    assert(msg.sender == owner);\n    _;\n  }\n\n  function transferOwnership(address _newOwner) public onlyOwner {\n    require(_newOwner != owner, \"Cannot transfer to yourself\");\n    owner = _newOwner;\n  }\n}\n",
  "sourcePath": "/Users/jules/WebstormProjects/RobInTheHood/chain/landSC/contracts/upgradable/Ownable.sol",
  "compiler": {
    "name": "solc",
    "version": "0.4.25+commit.59dbf8f1.Emscripten.clang"
  },
  "schemaVersion": "3.0.1",
  "updatedAt": "2019-04-24T14:59:42.223Z",
  "devdoc": {
    "methods": {}
  },
  "userdoc": {
    "methods": {}
  }
}