{
  "contractName": "Pausable",
  "abi": [
    {
      "constant": true,
      "inputs": [],
      "name": "paused",
      "outputs": [
        {
          "name": "",
          "type": "bool"
        }
      ],
      "payable": false,
      "stateMutability": "view",
      "type": "function"
    },
    {
      "constant": true,
      "inputs": [],
      "name": "owner",
      "outputs": [
        {
          "name": "",
          "type": "address"
        }
      ],
      "payable": false,
      "stateMutability": "view",
      "type": "function"
    },
    {
      "constant": true,
      "inputs": [
        {
          "name": "contractName",
          "type": "string"
        },
        {
          "name": "migrationId",
          "type": "string"
        }
      ],
      "name": "isMigrated",
      "outputs": [
        {
          "name": "",
          "type": "bool"
        }
      ],
      "payable": false,
      "stateMutability": "view",
      "type": "function"
    },
    {
      "constant": false,
      "inputs": [
        {
          "name": "newOwner",
          "type": "address"
        }
      ],
      "name": "transferOwnership",
      "outputs": [],
      "payable": false,
      "stateMutability": "nonpayable",
      "type": "function"
    },
    {
      "anonymous": false,
      "inputs": [],
      "name": "Pause",
      "type": "event"
    },
    {
      "anonymous": false,
      "inputs": [],
      "name": "Unpause",
      "type": "event"
    },
    {
      "anonymous": false,
      "inputs": [
        {
          "indexed": true,
          "name": "previousOwner",
          "type": "address"
        },
        {
          "indexed": true,
          "name": "newOwner",
          "type": "address"
        }
      ],
      "name": "OwnershipTransferred",
      "type": "event"
    },
    {
      "anonymous": false,
      "inputs": [
        {
          "indexed": false,
          "name": "contractName",
          "type": "string"
        },
        {
          "indexed": false,
          "name": "migrationId",
          "type": "string"
        }
      ],
      "name": "Migrated",
      "type": "event"
    },
    {
      "constant": false,
      "inputs": [
        {
          "name": "_sender",
          "type": "address"
        }
      ],
      "name": "initialize",
      "outputs": [],
      "payable": false,
      "stateMutability": "nonpayable",
      "type": "function"
    },
    {
      "constant": false,
      "inputs": [],
      "name": "pause",
      "outputs": [],
      "payable": false,
      "stateMutability": "nonpayable",
      "type": "function"
    },
    {
      "constant": false,
      "inputs": [],
      "name": "unpause",
      "outputs": [],
      "payable": false,
      "stateMutability": "nonpayable",
      "type": "function"
    }
  ],
  "bytecode": "0x60806040526001805460a060020a60ff021916905534801561002057600080fd5b5061082f806100306000396000f3006080604052600436106100825763ffffffff7c01000000000000000000000000000000000000000000000000000000006000350416633f4ba83a81146100875780635c975abb1461009e5780638456cb59146100c75780638da5cb5b146100dc578063c0bac1a81461010d578063c4d66de8146101a4578063f2fde38b146101c5575b600080fd5b34801561009357600080fd5b5061009c6101e6565b005b3480156100aa57600080fd5b506100b361026f565b604080519115158252519081900360200190f35b3480156100d357600080fd5b5061009c610290565b3480156100e857600080fd5b506100f161032f565b60408051600160a060020a039092168252519081900360200190f35b34801561011957600080fd5b506040805160206004803580820135601f81018490048402850184019095528484526100b394369492936024939284019190819084018382808284375050604080516020601f89358b018035918201839004830284018301909452808352979a99988101979196509182019450925082915084018382808284375094975061033e9650505050505050565b3480156101b057600080fd5b5061009c600160a060020a0360043516610405565b3480156101d157600080fd5b5061009c600160a060020a0360043516610660565b600154600160a060020a031633146101fd57600080fd5b60015474010000000000000000000000000000000000000000900460ff16151561022657600080fd5b6001805474ff0000000000000000000000000000000000000000191690556040517f7805862f689e2f13df9f062ff482ad3ad112aca9e0847911ed832e158c525b3390600090a1565b60015474010000000000000000000000000000000000000000900460ff1681565b600154600160a060020a031633146102a757600080fd5b60015474010000000000000000000000000000000000000000900460ff16156102cf57600080fd5b6001805474ff00000000000000000000000000000000000000001916740100000000000000000000000000000000000000001790556040517f6985a02210a168e66602d3235cb6db0e70f92b3ba4d376a33c0f3d9434bff62590600090a1565b600154600160a060020a031681565b600080836040518082805190602001908083835b602083106103715780518252601f199092019160209182019101610352565b51815160209384036101000a6000190180199092169116179052920194855250604051938490038101842086519094879450925082918401908083835b602083106103cd5780518252601f1990920191602091820191016103ae565b51815160209384036101000a600019018019909216911617905292019485525060405193849003019092205460ff1695945050505050565b6040805190810160405280600881526020017f5061757361626c650000000000000000000000000000000000000000000000008152506040805190810160405280600581526020017f312e392e3000000000000000000000000000000000000000000000000000000081525061047b828261033e565b1561048557600080fd5b61048e836106f5565b7fdd117a11c22118c9dee4b5a67ce578bc44529dce21ee0ccc439588fbb9fb4ea38282604051808060200180602001838103835285818151815260200191508051906020019080838360005b838110156104f25781810151838201526020016104da565b50505050905090810190601f16801561051f5780820380516001836020036101000a031916815260200191505b50838103825284518152845160209182019186019080838360005b8381101561055257818101518382015260200161053a565b50505050905090810190601f16801561057f5780820380516001836020036101000a031916815260200191505b5094505050505060405180910390a160016000836040518082805190602001908083835b602083106105c25780518252601f1990920191602091820191016105a3565b51815160209384036101000a6000190180199092169116179052920194855250604051938490038101842086519094879450925082918401908083835b6020831061061e5780518252601f1990920191602091820191016105ff565b51815160209384036101000a60001901801990921691161790529201948552506040519384900301909220805460ff1916931515939093179092555050505050565b600154600160a060020a0316331461067757600080fd5b600160a060020a038116151561068c57600080fd5b600154604051600160a060020a038084169216907f8be0079c531659141344cd1fd0a4f28419497f9722a3daafe3b4186f6b6457e090600090a36001805473ffffffffffffffffffffffffffffffffffffffff1916600160a060020a0392909216919091179055565b6040805190810160405280600781526020017f4f776e61626c65000000000000000000000000000000000000000000000000008152506040805190810160405280600581526020017f312e392e3000000000000000000000000000000000000000000000000000000081525061076b828261033e565b1561077557600080fd5b6001805473ffffffffffffffffffffffffffffffffffffffff1916600160a060020a0385161790556040805181815283519181019190915282517fdd117a11c22118c9dee4b5a67ce578bc44529dce21ee0ccc439588fbb9fb4ea3918491849190819060208083019160608401918701908083836000838110156104f25781810151838201526020016104da5600a165627a7a7230582010caa382f2f9b0a3134b9f026aaf60ce3421958c40cf14a59afdd1d8a210160d0029",
  "source": "pragma solidity ^0.4.21;\n\n\nimport \"../ownership/Ownable.sol\";\n\n\n/**\n * @title Pausable\n * @dev Base contract which allows children to implement an emergency stop mechanism.\n */\ncontract Pausable is Migratable, Ownable {\n  event Pause();\n  event Unpause();\n\n  bool public paused = false;\n\n\n  function initialize(address _sender) isInitializer(\"Pausable\", \"1.9.0\")  public {\n    Ownable.initialize(_sender);\n  }\n\n  /**\n   * @dev Modifier to make a function callable only when the contract is not paused.\n   */\n  modifier whenNotPaused() {\n    require(!paused);\n    _;\n  }\n\n  /**\n   * @dev Modifier to make a function callable only when the contract is paused.\n   */\n  modifier whenPaused() {\n    require(paused);\n    _;\n  }\n\n  /**\n   * @dev called by the owner to pause, triggers stopped state\n   */\n  function pause() onlyOwner whenNotPaused public {\n    paused = true;\n    emit Pause();\n  }\n\n  /**\n   * @dev called by the owner to unpause, returns to normal state\n   */\n  function unpause() onlyOwner whenPaused public {\n    paused = false;\n    emit Unpause();\n  }\n}\n",
  "sourcePath": "openzeppelin-zos/contracts/lifecycle/Pausable.sol",
  "compiler": {
    "name": "solc",
    "version": "0.4.25+commit.59dbf8f1.Emscripten.clang"
  },
  "schemaVersion": "3.0.1",
  "updatedAt": "2019-04-23T16:33:40.932Z",
  "devdoc": {
    "methods": {
      "isMigrated(string,string)": {
        "params": {
          "contractName": "Contract name",
          "migrationId": "migration id"
        },
        "return": "if the contract was already migrated with given migration"
      },
      "pause()": {
        "details": "called by the owner to pause, triggers stopped state"
      },
      "transferOwnership(address)": {
        "details": "Allows the current owner to transfer control of the contract to a newOwner.",
        "params": {
          "newOwner": "The address to transfer ownership to."
        }
      },
      "unpause()": {
        "details": "called by the owner to unpause, returns to normal state"
      }
    },
    "title": "Pausable"
  },
  "userdoc": {
    "methods": {}
  }
}