{
  "contractName": "ProxyStorage",
  "abi": [
    {
      "constant": true,
      "inputs": [],
      "name": "proxyOwner",
      "outputs": [
        {
          "name": "",
          "type": "address"
        }
      ],
      "payable": false,
      "stateMutability": "view",
      "type": "function"
    },
    {
      "constant": true,
      "inputs": [],
      "name": "currentContract",
      "outputs": [
        {
          "name": "",
          "type": "address"
        }
      ],
      "payable": false,
      "stateMutability": "view",
      "type": "function"
    }
  ],
  "bytecode": "0x608060405234801561001057600080fd5b5060fe8061001f6000396000f30060806040526004361060485763ffffffff7c0100000000000000000000000000000000000000000000000000000000600035041663025313a28114604d578063721d7d8e146088575b600080fd5b348015605857600080fd5b50605f609a565b6040805173ffffffffffffffffffffffffffffffffffffffff9092168252519081900360200190f35b348015609357600080fd5b50605f60b6565b60015473ffffffffffffffffffffffffffffffffffffffff1681565b60005473ffffffffffffffffffffffffffffffffffffffff16815600a165627a7a72305820b83fa9dd422977a4d3f49973cfd323d57a32b02fa114a2f06a9578da64d0c6640029",
  "source": "pragma solidity ^0.4.18;\n\n\ncontract ProxyStorage {\n\n  /**\n   * Current contract to which we are proxing\n   */\n  address public currentContract;\n  address public proxyOwner;\n}\n",
  "sourcePath": "/Users/jules/WebstormProjects/RobInTheHood/chain/landSC/contracts/upgradable/ProxyStorage.sol",
  "compiler": {
    "name": "solc",
    "version": "0.4.25+commit.59dbf8f1.Emscripten.clang"
  },
  "schemaVersion": "3.0.1",
  "updatedAt": "2019-04-24T14:55:24.036Z",
  "devdoc": {
    "methods": {}
  },
  "userdoc": {
    "methods": {}
  }
}