{
  "contractName": "Storage",
  "abi": [
    {
      "constant": true,
      "inputs": [],
      "name": "proxyOwner",
      "outputs": [
        {
          "name": "",
          "type": "address"
        }
      ],
      "payable": false,
      "stateMutability": "view",
      "type": "function"
    },
    {
      "constant": true,
      "inputs": [
        {
          "name": "",
          "type": "address"
        }
      ],
      "name": "latestPing",
      "outputs": [
        {
          "name": "",
          "type": "uint256"
        }
      ],
      "payable": false,
      "stateMutability": "view",
      "type": "function"
    },
    {
      "constant": true,
      "inputs": [
        {
          "name": "",
          "type": "address"
        }
      ],
      "name": "authorizedDeploy",
      "outputs": [
        {
          "name": "",
          "type": "bool"
        }
      ],
      "payable": false,
      "stateMutability": "view",
      "type": "function"
    },
    {
      "constant": true,
      "inputs": [],
      "name": "currentContract",
      "outputs": [
        {
          "name": "",
          "type": "address"
        }
      ],
      "payable": false,
      "stateMutability": "view",
      "type": "function"
    },
    {
      "constant": true,
      "inputs": [],
      "name": "owner",
      "outputs": [
        {
          "name": "",
          "type": "address"
        }
      ],
      "payable": false,
      "stateMutability": "view",
      "type": "function"
    },
    {
      "constant": true,
      "inputs": [
        {
          "name": "",
          "type": "uint256"
        }
      ],
      "name": "updateOperator",
      "outputs": [
        {
          "name": "",
          "type": "address"
        }
      ],
      "payable": false,
      "stateMutability": "view",
      "type": "function"
    },
    {
      "constant": true,
      "inputs": [],
      "name": "estateRegistry",
      "outputs": [
        {
          "name": "",
          "type": "address"
        }
      ],
      "payable": false,
      "stateMutability": "view",
      "type": "function"
    }
  ],
  "bytecode": "0x608060405260028054600160a060020a03191633179055610221806100256000396000f3006080604052600436106100825763ffffffff7c0100000000000000000000000000000000000000000000000000000000600035041663025313a281146100875780631e375901146100b857806329ffab3b146100eb578063721d7d8e146101205780638da5cb5b146101355780639d40b8501461014a578063e387d31a14610162575b600080fd5b34801561009357600080fd5b5061009c610177565b60408051600160a060020a039092168252519081900360200190f35b3480156100c457600080fd5b506100d9600160a060020a0360043516610186565b60408051918252519081900360200190f35b3480156100f757600080fd5b5061010c600160a060020a0360043516610198565b604080519115158252519081900360200190f35b34801561012c57600080fd5b5061009c6101ad565b34801561014157600080fd5b5061009c6101bc565b34801561015657600080fd5b5061009c6004356101cb565b34801561016e57600080fd5b5061009c6101e6565b600154600160a060020a031681565b600d6020526000908152604090205481565b60116020526000908152604090205460ff1681565b600054600160a060020a031681565b600254600160a060020a031681565b600f60205260009081526040902054600160a060020a031681565b601054600160a060020a0316815600a165627a7a7230582054e4df0cd4c0ae4c8f9afd73c5e77fdb7ce7587b401c0e44661911314fd52eb60029",
  "source": "pragma solidity ^0.4.18;\n\nimport \"./upgradable/ProxyStorage.sol\";\n\nimport \"./upgradable/OwnableStorage.sol\";\n\nimport \"erc821/contracts/AssetRegistryStorage.sol\";\n\nimport \"./land/LANDStorage.sol\";\n\n\ncontract Storage is ProxyStorage, OwnableStorage, AssetRegistryStorage, LANDStorage {\n}\n",
  "sourcePath": "/Users/jules/WebstormProjects/RobInTheHood/chain/landSC/contracts/Storage.sol",
  "compiler": {
    "name": "solc",
    "version": "0.4.25+commit.59dbf8f1.Emscripten.clang"
  },
  "schemaVersion": "3.0.1",
  "updatedAt": "2019-04-26T12:31:47.907Z",
  "devdoc": {
    "methods": {}
  },
  "userdoc": {
    "methods": {}
  }
}