{
  "contractName": "ContractDetector",
  "abi": [
    {
      "inputs": [],
      "payable": false,
      "stateMutability": "nonpayable",
      "type": "constructor"
    },
    {
      "constant": false,
      "inputs": [
        {
          "name": "_addr",
          "type": "address"
        }
      ],
      "name": "isContract",
      "outputs": [
        {
          "name": "isContract",
          "type": "bool"
        }
      ],
      "payable": false,
      "stateMutability": "nonpayable",
      "type": "function"
    }
  ],
  "bytecode": "0x608060405234801561001057600080fd5b5060c78061001f6000396000f3fe6080604052348015600f57600080fd5b50600436106044577c010000000000000000000000000000000000000000000000000000000060003504631627905581146049575b600080fd5b607960048036036020811015605d57600080fd5b503573ffffffffffffffffffffffffffffffffffffffff16608d565b604080519115158252519081900360200190f35b6000903b63ffffffff16119056fea165627a7a72305820bb646787f9c4179c3ef2280558321f5eda121c22893cab47542dd64c53f03f730029",
  "source": "pragma solidity 0.5.3;\n\ncontract ContractDetector {\n\n  constructor() public {}\n\n  function isContract(address _addr) public returns (bool isContract) {\n\n    uint32 size;\n\n    assembly {\n      size := extcodesize(_addr)\n    }\n\n    return (size > 0);\n\n  }\n\n}\n",
  "sourcePath": "/home/stefan/Work/RobInTheHood/contracts/contracts/zeppelin/ContractDetector.sol",
  "compiler": {
    "name": "solc",
    "version": "0.5.3+commit.10d17f24.Emscripten.clang"
  },
  "schemaVersion": "3.0.1",
  "updatedAt": "2019-04-16T17:38:38.764Z",
  "devdoc": {
    "methods": {}
  },
  "userdoc": {
    "methods": {}
  }
}