{
  "contractName": "ERC721Holder",
  "abi": [
    {
      "constant": false,
      "inputs": [
        {
          "name": "",
          "type": "address"
        },
        {
          "name": "",
          "type": "uint256"
        },
        {
          "name": "",
          "type": "bytes"
        }
      ],
      "name": "onERC721Received",
      "outputs": [
        {
          "name": "",
          "type": "bytes4"
        }
      ],
      "payable": false,
      "stateMutability": "nonpayable",
      "type": "function"
    }
  ],
  "bytecode": "0x608060405234801561001057600080fd5b5061019d806100206000396000f3fe608060405234801561001057600080fd5b5060043610610047577c01000000000000000000000000000000000000000000000000000000006000350463f0b9e5ba811461004c575b600080fd5b6101146004803603606081101561006257600080fd5b73ffffffffffffffffffffffffffffffffffffffff8235169160208101359181019060608101604082013564010000000081111561009f57600080fd5b8201836020820111156100b157600080fd5b803590602001918460018302840111640100000000831117156100d357600080fd5b91908080601f016020809104026020016040519081016040528093929190818152602001838380828437600092019190915250929550610149945050505050565b604080517fffffffff000000000000000000000000000000000000000000000000000000009092168252519081900360200190f35b7ff0b9e5ba00000000000000000000000000000000000000000000000000000000939250505056fea165627a7a723058203555cc75e3762f4469d37c8fc41151762e18d2a9f90a475badfef59b7ed2915a0029",
  "source": "pragma solidity 0.5.3;\n\nimport \"contracts/zeppelin/ERC721/ERC721Receiver.sol\";\n\n\ncontract ERC721Holder is ERC721Receiver {\n  function onERC721Received(address, uint256, bytes memory) public returns(bytes4) {\n    return ERC721_RECEIVED;\n  }\n}\n",
  "sourcePath": "/home/stefan/Work/RobInTheHood/contracts/contracts/zeppelin/ERC721/ERC721Holder.sol",
  "compiler": {
    "name": "solc",
    "version": "0.5.3+commit.10d17f24.Emscripten.clang"
  },
  "schemaVersion": "3.0.1",
  "updatedAt": "2019-04-16T17:38:38.775Z",
  "devdoc": {
    "methods": {}
  },
  "userdoc": {
    "methods": {}
  }
}