{
  "contractName": "ERC721Token",
  "abi": [
    {
      "constant": true,
      "inputs": [
        {
          "name": "_tokenId",
          "type": "uint256"
        }
      ],
      "name": "getApproved",
      "outputs": [
        {
          "name": "",
          "type": "address"
        }
      ],
      "payable": false,
      "stateMutability": "view",
      "type": "function"
    },
    {
      "constant": false,
      "inputs": [
        {
          "name": "_to",
          "type": "address"
        },
        {
          "name": "_tokenId",
          "type": "uint256"
        }
      ],
      "name": "approve",
      "outputs": [],
      "payable": false,
      "stateMutability": "nonpayable",
      "type": "function"
    },
    {
      "constant": false,
      "inputs": [
        {
          "name": "_from",
          "type": "address"
        },
        {
          "name": "_to",
          "type": "address"
        },
        {
          "name": "_tokenId",
          "type": "uint256"
        }
      ],
      "name": "transferFrom",
      "outputs": [],
      "payable": false,
      "stateMutability": "nonpayable",
      "type": "function"
    },
    {
      "constant": false,
      "inputs": [
        {
          "name": "_from",
          "type": "address"
        },
        {
          "name": "_to",
          "type": "address"
        },
        {
          "name": "_tokenId",
          "type": "uint256"
        }
      ],
      "name": "safeTransferFrom",
      "outputs": [],
      "payable": false,
      "stateMutability": "nonpayable",
      "type": "function"
    },
    {
      "constant": true,
      "inputs": [
        {
          "name": "_tokenId",
          "type": "uint256"
        }
      ],
      "name": "exists",
      "outputs": [
        {
          "name": "",
          "type": "bool"
        }
      ],
      "payable": false,
      "stateMutability": "view",
      "type": "function"
    },
    {
      "constant": true,
      "inputs": [
        {
          "name": "_tokenId",
          "type": "uint256"
        }
      ],
      "name": "ownerOf",
      "outputs": [
        {
          "name": "",
          "type": "address"
        }
      ],
      "payable": false,
      "stateMutability": "view",
      "type": "function"
    },
    {
      "constant": true,
      "inputs": [
        {
          "name": "_owner",
          "type": "address"
        }
      ],
      "name": "balanceOf",
      "outputs": [
        {
          "name": "",
          "type": "uint256"
        }
      ],
      "payable": false,
      "stateMutability": "view",
      "type": "function"
    },
    {
      "constant": false,
      "inputs": [
        {
          "name": "_to",
          "type": "address"
        },
        {
          "name": "_approved",
          "type": "bool"
        }
      ],
      "name": "setApprovalForAll",
      "outputs": [],
      "payable": false,
      "stateMutability": "nonpayable",
      "type": "function"
    },
    {
      "constant": false,
      "inputs": [
        {
          "name": "_from",
          "type": "address"
        },
        {
          "name": "_to",
          "type": "address"
        },
        {
          "name": "_tokenId",
          "type": "uint256"
        },
        {
          "name": "_data",
          "type": "bytes"
        }
      ],
      "name": "safeTransferFrom",
      "outputs": [],
      "payable": false,
      "stateMutability": "nonpayable",
      "type": "function"
    },
    {
      "constant": true,
      "inputs": [
        {
          "name": "_owner",
          "type": "address"
        },
        {
          "name": "_operator",
          "type": "address"
        }
      ],
      "name": "isApprovedForAll",
      "outputs": [
        {
          "name": "",
          "type": "bool"
        }
      ],
      "payable": false,
      "stateMutability": "view",
      "type": "function"
    },
    {
      "inputs": [
        {
          "name": "_name",
          "type": "string"
        },
        {
          "name": "_symbol",
          "type": "string"
        }
      ],
      "payable": false,
      "stateMutability": "nonpayable",
      "type": "constructor"
    },
    {
      "anonymous": false,
      "inputs": [
        {
          "indexed": true,
          "name": "_from",
          "type": "address"
        },
        {
          "indexed": true,
          "name": "_to",
          "type": "address"
        },
        {
          "indexed": false,
          "name": "_tokenId",
          "type": "uint256"
        }
      ],
      "name": "Transfer",
      "type": "event"
    },
    {
      "anonymous": false,
      "inputs": [
        {
          "indexed": true,
          "name": "_owner",
          "type": "address"
        },
        {
          "indexed": true,
          "name": "_approved",
          "type": "address"
        },
        {
          "indexed": false,
          "name": "_tokenId",
          "type": "uint256"
        }
      ],
      "name": "Approval",
      "type": "event"
    },
    {
      "anonymous": false,
      "inputs": [
        {
          "indexed": true,
          "name": "_owner",
          "type": "address"
        },
        {
          "indexed": true,
          "name": "_operator",
          "type": "address"
        },
        {
          "indexed": false,
          "name": "_approved",
          "type": "bool"
        }
      ],
      "name": "ApprovalForAll",
      "type": "event"
    },
    {
      "constant": true,
      "inputs": [],
      "name": "name",
      "outputs": [
        {
          "name": "",
          "type": "string"
        }
      ],
      "payable": false,
      "stateMutability": "view",
      "type": "function"
    },
    {
      "constant": true,
      "inputs": [],
      "name": "symbol",
      "outputs": [
        {
          "name": "",
          "type": "string"
        }
      ],
      "payable": false,
      "stateMutability": "view",
      "type": "function"
    },
    {
      "constant": true,
      "inputs": [
        {
          "name": "_tokenId",
          "type": "uint256"
        }
      ],
      "name": "tokenURI",
      "outputs": [
        {
          "name": "",
          "type": "string"
        }
      ],
      "payable": false,
      "stateMutability": "view",
      "type": "function"
    },
    {
      "constant": true,
      "inputs": [
        {
          "name": "_owner",
          "type": "address"
        },
        {
          "name": "_index",
          "type": "uint256"
        }
      ],
      "name": "tokenOfOwnerByIndex",
      "outputs": [
        {
          "name": "",
          "type": "uint256"
        }
      ],
      "payable": false,
      "stateMutability": "view",
      "type": "function"
    },
    {
      "constant": true,
      "inputs": [],
      "name": "totalSupply",
      "outputs": [
        {
          "name": "",
          "type": "uint256"
        }
      ],
      "payable": false,
      "stateMutability": "view",
      "type": "function"
    },
    {
      "constant": true,
      "inputs": [
        {
          "name": "_index",
          "type": "uint256"
        }
      ],
      "name": "tokenByIndex",
      "outputs": [
        {
          "name": "",
          "type": "uint256"
        }
      ],
      "payable": false,
      "stateMutability": "view",
      "type": "function"
    }
  ],
  "bytecode": "0x60806040523480156200001157600080fd5b506040516200118f3803806200118f833981018060405260408110156200003757600080fd5b8101908080516401000000008111156200005057600080fd5b820160208101848111156200006457600080fd5b81516401000000008111828201871017156200007f57600080fd5b505092919060200180516401000000008111156200009c57600080fd5b82016020810184811115620000b057600080fd5b8151640100000000811182820187101715620000cb57600080fd5b50508451909350620000e7925060049150602085019062000106565b508051620000fd90600590602084019062000106565b505050620001ab565b828054600181600116156101000203166002900490600052602060002090601f016020900481019282601f106200014957805160ff191683800117855562000179565b8280016001018555821562000179579182015b82811115620001795782518255916020019190600101906200015c565b50620001879291506200018b565b5090565b620001a891905b8082111562000187576000815560010162000192565b90565b610fd480620001bb6000396000f3fe608060405234801561001057600080fd5b506004361061011d576000357c0100000000000000000000000000000000000000000000000000000000900480634f6ccce7116100b4578063a22cb46511610083578063a22cb46514610351578063b88d4fde1461037f578063c87b56dd14610445578063e985e9c5146104625761011d565b80634f6ccce7146102e95780636352211e1461030657806370a082311461032357806395d89b41146103495761011d565b806323b872dd116100f057806323b872dd146102205780632f745c591461025657806342842e0e146102825780634f558e79146102b85761011d565b806306fdde0314610122578063081812fc1461019f578063095ea7b3146101d857806318160ddd14610206575b600080fd5b61012a610490565b6040805160208082528351818301528351919283929083019185019080838360005b8381101561016457818101518382015260200161014c565b50505050905090810190601f1680156101915780820380516001836020036101000a031916815260200191505b509250505060405180910390f35b6101bc600480360360208110156101b557600080fd5b5035610527565b60408051600160a060020a039092168252519081900360200190f35b610204600480360360408110156101ee57600080fd5b50600160a060020a038135169060200135610542565b005b61020e610634565b60408051918252519081900360200190f35b6102046004803603606081101561023657600080fd5b50600160a060020a0381358116916020810135909116906040013561063a565b61020e6004803603604081101561026c57600080fd5b50600160a060020a0381351690602001356106e9565b6102046004803603606081101561029857600080fd5b50600160a060020a03813581169160208101359091169060400135610736565b6102d5600480360360208110156102ce57600080fd5b503561076e565b604080519115158252519081900360200190f35b61020e600480360360208110156102ff57600080fd5b503561078b565b6101bc6004803603602081101561031c57600080fd5b50356107c0565b61020e6004803603602081101561033957600080fd5b5035600160a060020a03166107ea565b61012a61081d565b6102046004803603604081101561036757600080fd5b50600160a060020a038135169060200135151561087e565b6102046004803603608081101561039557600080fd5b600160a060020a038235811692602081013590911691604082013591908101906080810160608201356401000000008111156103d057600080fd5b8201836020820111156103e257600080fd5b8035906020019184600183028401116401000000008311171561040457600080fd5b91908080601f016020809104026020016040519081016040528093929190818152602001838380828437600092019190915250929550610902945050505050565b61012a6004803603602081101561045b57600080fd5b5035610941565b6102d56004803603604081101561047857600080fd5b50600160a060020a03813581169160200135166109f6565b60048054604080516020601f600260001961010060018816150201909516949094049384018190048102820181019092528281526060939092909183018282801561051c5780601f106104f15761010080835404028352916020019161051c565b820191906000526020600020905b8154815290600101906020018083116104ff57829003601f168201915b505050505090505b90565b600090815260016020526040902054600160a060020a031690565b600061054d826107c0565b9050600160a060020a03838116908216141561056857600080fd5b33600160a060020a0382161480610584575061058481336109f6565b151561058f57600080fd5b600061059a83610527565b600160a060020a03161415806105b85750600160a060020a03831615155b1561062f57600082815260016020908152604091829020805473ffffffffffffffffffffffffffffffffffffffff1916600160a060020a03878116918217909255835186815293519093918516927f8c5be1e5ebec7d5bd14f71427d1e84f3dd0314c0f7b2291e5b200ac8c7c3b925928290030190a35b505050565b60085490565b806106453382610a24565b151561065057600080fd5b600160a060020a038416151561066557600080fd5b600160a060020a038316151561067a57600080fd5b6106848483610a83565b61068e8483610b31565b6106988383610c65565b82600160a060020a031684600160a060020a03167fddf252ad1be2c89b69c2b068fc378daa952ba7f163c4a11628f55a4df523b3ef846040518082815260200191505060405180910390a350505050565b60006106f4836107ea565b82106106ff57600080fd5b600160a060020a038316600090815260066020526040902080548390811061072357fe5b9060005260206000200154905092915050565b806107413382610a24565b151561074c57600080fd5b6107688484846020604051908101604052806000815250610902565b50505050565b600090815260208190526040902054600160a060020a0316151590565b6000610795610634565b82106107a057600080fd5b60088054839081106107ae57fe5b90600052602060002001549050919050565b600081815260208190526040812054600160a060020a03168015156107e457600080fd5b92915050565b6000600160a060020a038216151561080157600080fd5b50600160a060020a031660009081526002602052604090205490565b60058054604080516020601f600260001961010060018816150201909516949094049384018190048102820181019092528281526060939092909183018282801561051c5780601f106104f15761010080835404028352916020019161051c565b600160a060020a03821633141561089457600080fd5b336000818152600360209081526040808320600160a060020a03871680855290835292819020805460ff1916861515908117909155815190815290519293927f17307eab39ab6107e8899845ad3d59bd9653f200f220920489ca2b5937696c31929181900390910190a35050565b8161090d3382610a24565b151561091857600080fd5b61092385858561063a565b61092f85858585610cab565b151561093a57600080fd5b5050505050565b606061094c8261076e565b151561095757600080fd5b6000828152600a602090815260409182902080548351601f6002600019610100600186161502019093169290920491820184900484028101840190945280845290918301828280156109ea5780601f106109bf576101008083540402835291602001916109ea565b820191906000526020600020905b8154815290600101906020018083116109cd57829003601f168201915b50505050509050919050565b600160a060020a03918216600090815260036020908152604080832093909416825291909152205460ff1690565b600080610a30836107c0565b905080600160a060020a031684600160a060020a03161480610a6b575083600160a060020a0316610a6084610527565b600160a060020a0316145b80610a7b5750610a7b81856109f6565b949350505050565b81600160a060020a0316610a96826107c0565b600160a060020a031614610aa957600080fd5b600081815260016020526040902054600160a060020a031615610b2d576000818152600160209081526040808320805473ffffffffffffffffffffffffffffffffffffffff1916905580518481529051600160a060020a038616927f8c5be1e5ebec7d5bd14f71427d1e84f3dd0314c0f7b2291e5b200ac8c7c3b925928290030190a35b5050565b610b3b8282610e20565b600081815260076020908152604080832054600160a060020a03861684526006909252822054909190610b7590600163ffffffff610eb516565b600160a060020a03851660009081526006602052604081208054929350909183908110610b9e57fe5b90600052602060002001549050806006600087600160a060020a0316600160a060020a0316815260200190815260200160002084815481101515610bde57fe5b6000918252602080832090910192909255600160a060020a0387168152600690915260408120805484908110610c1057fe5b6000918252602080832090910192909255600160a060020a0387168152600690915260409020805490610c47906000198301610f6b565b50600093845260076020526040808520859055908452909220555050565b610c6f8282610ec7565b600160a060020a039091166000908152600660209081526040808320805460018101825590845282842081018590559383526007909152902055565b6000610cbf84600160a060020a0316610f56565b1515610ccd57506001610a7b565b6040517ff0b9e5ba000000000000000000000000000000000000000000000000000000008152600160a060020a0386811660048301908152602483018690526060604484019081528551606485015285516000949389169363f0b9e5ba938b938a938a936084019060208501908083838d5b83811015610d57578181015183820152602001610d3f565b50505050905090810190601f168015610d845780820380516001836020036101000a031916815260200191505b50945050505050602060405180830381600087803b158015610da557600080fd5b505af1158015610db9573d6000803e3d6000fd5b505050506040513d6020811015610dcf57600080fd5b50517fffffffff00000000000000000000000000000000000000000000000000000000167ff0b9e5ba0000000000000000000000000000000000000000000000000000000014915050949350505050565b81600160a060020a0316610e33826107c0565b600160a060020a031614610e4657600080fd5b600160a060020a038216600090815260026020526040902054610e7090600163ffffffff610eb516565b600160a060020a039092166000908152600260209081526040808320949094559181529081905220805473ffffffffffffffffffffffffffffffffffffffff19169055565b600082821115610ec157fe5b50900390565b600081815260208190526040902054600160a060020a031615610ee957600080fd5b600081815260208181526040808320805473ffffffffffffffffffffffffffffffffffffffff1916600160a060020a03871690811790915583526002909152902054610f36906001610f5e565b600160a060020a0390921660009081526002602052604090209190915550565b6000903b1190565b818101828110156107e457fe5b81548183558181111561062f5760008381526020902061062f91810190830161052491905b80821115610fa45760008155600101610f90565b509056fea165627a7a72305820249f95d76c7c805a6771a66ec08585974a3724fa0354f274595d533eb1c34a2f0029",
  "source": "pragma solidity 0.5.3;\n\nimport \"contracts/zeppelin/ERC721/ERC721.sol\";\nimport \"contracts/zeppelin/ERC721/ERC721BasicToken.sol\";\n\n\n/**\n * @title Full ERC721 Token\n * This implementation includes all the required and some optional functionality of the ERC721 standard\n * Moreover, it includes approve all functionality using operator terminology\n * @dev see https://github.com/ethereum/EIPs/blob/master/EIPS/eip-721.md\n */\ncontract ERC721Token is ERC721, ERC721BasicToken {\n  // Token name\n  string internal name_;\n\n  // Token symbol\n  string internal symbol_;\n\n  // Mapping from owner to list of owned token IDs\n  mapping(address => uint256[]) internal ownedTokens;\n\n  // Mapping from token ID to index of the owner tokens list\n  mapping(uint256 => uint256) internal ownedTokensIndex;\n\n  // Array with all token ids, used for enumeration\n  uint256[] internal allTokens;\n\n  // Mapping from token id to position in the allTokens array\n  mapping(uint256 => uint256) internal allTokensIndex;\n\n  // Optional mapping for token URIs\n  mapping(uint256 => string) internal tokenURIs;\n\n  /**\n   * @dev Constructor function\n   */\n  constructor(string memory _name, string memory _symbol) public {\n    name_ = _name;\n    symbol_ = _symbol;\n  }\n\n  /**\n   * @dev Gets the token name\n   * @return string representing the token name\n   */\n  function name() public view returns (string memory) {\n    return name_;\n  }\n\n  /**\n   * @dev Gets the token symbol\n   * @return string representing the token symbol\n   */\n  function symbol() public view returns (string memory) {\n    return symbol_;\n  }\n\n  /**\n   * @dev Returns an URI for a given token ID\n   * @dev Throws if the token ID does not exist. May return an empty string.\n   * @param _tokenId uint256 ID of the token to query\n   */\n  function tokenURI(uint256 _tokenId) public view returns (string memory) {\n    require(exists(_tokenId));\n    return tokenURIs[_tokenId];\n  }\n\n  /**\n   * @dev Gets the token ID at a given index of the tokens list of the requested owner\n   * @param _owner address owning the tokens list to be accessed\n   * @param _index uint256 representing the index to be accessed of the requested tokens list\n   * @return uint256 token ID at the given index of the tokens list owned by the requested address\n   */\n  function tokenOfOwnerByIndex(\n    address _owner,\n    uint256 _index\n  )\n    public\n    view\n    returns (uint256)\n  {\n    require(_index < balanceOf(_owner));\n    return ownedTokens[_owner][_index];\n  }\n\n  /**\n   * @dev Gets the total amount of tokens stored by the contract\n   * @return uint256 representing the total amount of tokens\n   */\n  function totalSupply() public view returns (uint256) {\n    return allTokens.length;\n  }\n\n  /**\n   * @dev Gets the token ID at a given index of all the tokens in this contract\n   * @dev Reverts if the index is greater or equal to the total number of tokens\n   * @param _index uint256 representing the index to be accessed of the tokens list\n   * @return uint256 token ID at the given index of the tokens list\n   */\n  function tokenByIndex(uint256 _index) public view returns (uint256) {\n    require(_index < totalSupply());\n    return allTokens[_index];\n  }\n\n  /**\n   * @dev Internal function to set the token URI for a given token\n   * @dev Reverts if the token ID does not exist\n   * @param _tokenId uint256 ID of the token to set its URI\n   * @param _uri string URI to assign\n   */\n  function _setTokenURI(uint256 _tokenId, string memory _uri) internal {\n    require(exists(_tokenId));\n    tokenURIs[_tokenId] = _uri;\n  }\n\n  /**\n   * @dev Internal function to add a token ID to the list of a given address\n   * @param _to address representing the new owner of the given token ID\n   * @param _tokenId uint256 ID of the token to be added to the tokens list of the given address\n   */\n  function addTokenTo(address _to, uint256 _tokenId) internal {\n    super.addTokenTo(_to, _tokenId);\n    uint256 length = ownedTokens[_to].length;\n    ownedTokens[_to].push(_tokenId);\n    ownedTokensIndex[_tokenId] = length;\n  }\n\n  /**\n   * @dev Internal function to remove a token ID from the list of a given address\n   * @param _from address representing the previous owner of the given token ID\n   * @param _tokenId uint256 ID of the token to be removed from the tokens list of the given address\n   */\n  function removeTokenFrom(address _from, uint256 _tokenId) internal {\n    super.removeTokenFrom(_from, _tokenId);\n\n    uint256 tokenIndex = ownedTokensIndex[_tokenId];\n    uint256 lastTokenIndex = ownedTokens[_from].length.sub(1);\n    uint256 lastToken = ownedTokens[_from][lastTokenIndex];\n\n    ownedTokens[_from][tokenIndex] = lastToken;\n    ownedTokens[_from][lastTokenIndex] = 0;\n    // Note that this will handle single-element arrays. In that case, both tokenIndex and lastTokenIndex are going to\n    // be zero. Then we can make sure that we will remove _tokenId from the ownedTokens list since we are first swapping\n    // the lastToken to the first position, and then dropping the element placed in the last position of the list\n\n    ownedTokens[_from].length--;\n    ownedTokensIndex[_tokenId] = 0;\n    ownedTokensIndex[lastToken] = tokenIndex;\n  }\n\n  /**\n   * @dev Reverts if the given token ID already exists\n   * @param _to address the beneficiary that will own the minted token\n   * @param _tokenId uint256 ID of the token to be minted by the msg.sender\n   */\n  function _mint(address _to, uint256 _tokenId) internal {\n    super._mint(_to, _tokenId);\n\n    allTokensIndex[_tokenId] = allTokens.length;\n    allTokens.push(_tokenId);\n  }\n\n  /**\n   * @dev Internal function to burn a specific token\n   * @dev Reverts if the token does not exist\n   * @param _owner owner of the token to burn\n   * @param _tokenId uint256 ID of the token being burned by the msg.sender\n   */\n  function _burn(address _owner, uint256 _tokenId) internal {\n    super._burn(_owner, _tokenId);\n\n    // Clear metadata (if any)\n    if (bytes(tokenURIs[_tokenId]).length != 0) {\n      delete tokenURIs[_tokenId];\n    }\n\n    // Reorg all tokens array\n    uint256 tokenIndex = allTokensIndex[_tokenId];\n    uint256 lastTokenIndex = allTokens.length.sub(1);\n    uint256 lastToken = allTokens[lastTokenIndex];\n\n    allTokens[tokenIndex] = lastToken;\n    allTokens[lastTokenIndex] = 0;\n\n    allTokens.length--;\n    allTokensIndex[_tokenId] = 0;\n    allTokensIndex[lastToken] = tokenIndex;\n  }\n\n}\n",
  "sourcePath": "/home/stefan/Work/RobInTheHood/contracts/contracts/zeppelin/ERC721/ERC721Token.sol",
  "compiler": {
    "name": "solc",
    "version": "0.5.3+commit.10d17f24.Emscripten.clang"
  },
  "schemaVersion": "3.0.1",
  "updatedAt": "2019-04-16T17:38:38.775Z",
  "devdoc": {
    "details": "see https://github.com/ethereum/EIPs/blob/master/EIPS/eip-721.md",
    "methods": {
      "approve(address,uint256)": {
        "details": "Approves another address to transfer the given token IDThe zero address indicates there is no approved address.There can only be one approved address per token at a given time.Can only be called by the token owner or an approved operator.",
        "params": {
          "_to": "address to be approved for the given token ID",
          "_tokenId": "uint256 ID of the token to be approved"
        }
      },
      "balanceOf(address)": {
        "details": "Gets the balance of the specified address",
        "params": {
          "_owner": "address to query the balance of"
        },
        "return": "uint256 representing the amount owned by the passed address"
      },
      "constructor": {
        "details": "Constructor function"
      },
      "exists(uint256)": {
        "details": "Returns whether the specified token exists",
        "params": {
          "_tokenId": "uint256 ID of the token to query the existence of"
        },
        "return": "whether the token exists"
      },
      "getApproved(uint256)": {
        "details": "Gets the approved address for a token ID, or zero if no address set",
        "params": {
          "_tokenId": "uint256 ID of the token to query the approval of"
        },
        "return": "address currently approved for the given token ID"
      },
      "isApprovedForAll(address,address)": {
        "details": "Tells whether an operator is approved by a given owner",
        "params": {
          "_operator": "operator address which you want to query the approval of",
          "_owner": "owner address which you want to query the approval of"
        },
        "return": "bool whether the given operator is approved by the given owner"
      },
      "name()": {
        "details": "Gets the token name",
        "return": "string representing the token name"
      },
      "ownerOf(uint256)": {
        "details": "Gets the owner of the specified token ID",
        "params": {
          "_tokenId": "uint256 ID of the token to query the owner of"
        },
        "return": "owner address currently marked as the owner of the given token ID"
      },
      "safeTransferFrom(address,address,uint256)": {
        "details": "Safely transfers the ownership of a given token ID to another addressIf the target address is a contract, it must implement `onERC721Received`, which is called upon a safe transfer, and return the magic value `bytes4(keccak256(\"onERC721Received(address,uint256,bytes)\"))`; otherwise, the transfer is reverted.Requires the msg sender to be the owner, approved, or operator",
        "params": {
          "_from": "current owner of the token",
          "_to": "address to receive the ownership of the given token ID",
          "_tokenId": "uint256 ID of the token to be transferred"
        }
      },
      "safeTransferFrom(address,address,uint256,bytes)": {
        "details": "Safely transfers the ownership of a given token ID to another addressIf the target address is a contract, it must implement `onERC721Received`, which is called upon a safe transfer, and return the magic value `bytes4(keccak256(\"onERC721Received(address,uint256,bytes)\"))`; otherwise, the transfer is reverted.Requires the msg sender to be the owner, approved, or operator",
        "params": {
          "_data": "bytes data to send along with a safe transfer check",
          "_from": "current owner of the token",
          "_to": "address to receive the ownership of the given token ID",
          "_tokenId": "uint256 ID of the token to be transferred"
        }
      },
      "setApprovalForAll(address,bool)": {
        "details": "Sets or unsets the approval of a given operatorAn operator is allowed to transfer all tokens of the sender on their behalf",
        "params": {
          "_approved": "representing the status of the approval to be set",
          "_to": "operator address to set the approval"
        }
      },
      "symbol()": {
        "details": "Gets the token symbol",
        "return": "string representing the token symbol"
      },
      "tokenByIndex(uint256)": {
        "details": "Gets the token ID at a given index of all the tokens in this contractReverts if the index is greater or equal to the total number of tokens",
        "params": {
          "_index": "uint256 representing the index to be accessed of the tokens list"
        },
        "return": "uint256 token ID at the given index of the tokens list"
      },
      "tokenOfOwnerByIndex(address,uint256)": {
        "details": "Gets the token ID at a given index of the tokens list of the requested owner",
        "params": {
          "_index": "uint256 representing the index to be accessed of the requested tokens list",
          "_owner": "address owning the tokens list to be accessed"
        },
        "return": "uint256 token ID at the given index of the tokens list owned by the requested address"
      },
      "tokenURI(uint256)": {
        "details": "Returns an URI for a given token IDThrows if the token ID does not exist. May return an empty string.",
        "params": {
          "_tokenId": "uint256 ID of the token to query"
        }
      },
      "totalSupply()": {
        "details": "Gets the total amount of tokens stored by the contract",
        "return": "uint256 representing the total amount of tokens"
      },
      "transferFrom(address,address,uint256)": {
        "details": "Transfers the ownership of a given token ID to another addressUsage of this method is discouraged, use `safeTransferFrom` whenever possibleRequires the msg sender to be the owner, approved, or operator",
        "params": {
          "_from": "current owner of the token",
          "_to": "address to receive the ownership of the given token ID",
          "_tokenId": "uint256 ID of the token to be transferred"
        }
      }
    },
    "title": "Full ERC721 Token This implementation includes all the required and some optional functionality of the ERC721 standard Moreover, it includes approve all functionality using operator terminology"
  },
  "userdoc": {
    "methods": {}
  }
}