{
  "contractName": "MintableToken",
  "abi": [
    {
      "constant": true,
      "inputs": [],
      "name": "mintingFinished",
      "outputs": [
        {
          "name": "",
          "type": "bool"
        }
      ],
      "payable": false,
      "stateMutability": "view",
      "type": "function"
    },
    {
      "constant": false,
      "inputs": [
        {
          "name": "_spender",
          "type": "address"
        },
        {
          "name": "_value",
          "type": "uint256"
        }
      ],
      "name": "approve",
      "outputs": [
        {
          "name": "",
          "type": "bool"
        }
      ],
      "payable": false,
      "stateMutability": "nonpayable",
      "type": "function"
    },
    {
      "constant": true,
      "inputs": [],
      "name": "totalSupply",
      "outputs": [
        {
          "name": "",
          "type": "uint256"
        }
      ],
      "payable": false,
      "stateMutability": "view",
      "type": "function"
    },
    {
      "constant": false,
      "inputs": [
        {
          "name": "_from",
          "type": "address"
        },
        {
          "name": "_to",
          "type": "address"
        },
        {
          "name": "_value",
          "type": "uint256"
        }
      ],
      "name": "transferFrom",
      "outputs": [
        {
          "name": "",
          "type": "bool"
        }
      ],
      "payable": false,
      "stateMutability": "nonpayable",
      "type": "function"
    },
    {
      "constant": false,
      "inputs": [
        {
          "name": "_spender",
          "type": "address"
        },
        {
          "name": "_subtractedValue",
          "type": "uint256"
        }
      ],
      "name": "decreaseApproval",
      "outputs": [
        {
          "name": "",
          "type": "bool"
        }
      ],
      "payable": false,
      "stateMutability": "nonpayable",
      "type": "function"
    },
    {
      "constant": true,
      "inputs": [
        {
          "name": "_owner",
          "type": "address"
        }
      ],
      "name": "balanceOf",
      "outputs": [
        {
          "name": "",
          "type": "uint256"
        }
      ],
      "payable": false,
      "stateMutability": "view",
      "type": "function"
    },
    {
      "constant": false,
      "inputs": [],
      "name": "renounceOwnership",
      "outputs": [],
      "payable": false,
      "stateMutability": "nonpayable",
      "type": "function"
    },
    {
      "constant": true,
      "inputs": [],
      "name": "owner",
      "outputs": [
        {
          "name": "",
          "type": "address"
        }
      ],
      "payable": false,
      "stateMutability": "view",
      "type": "function"
    },
    {
      "constant": false,
      "inputs": [
        {
          "name": "_to",
          "type": "address"
        },
        {
          "name": "_value",
          "type": "uint256"
        }
      ],
      "name": "transfer",
      "outputs": [
        {
          "name": "",
          "type": "bool"
        }
      ],
      "payable": false,
      "stateMutability": "nonpayable",
      "type": "function"
    },
    {
      "constant": false,
      "inputs": [
        {
          "name": "_spender",
          "type": "address"
        },
        {
          "name": "_addedValue",
          "type": "uint256"
        }
      ],
      "name": "increaseApproval",
      "outputs": [
        {
          "name": "",
          "type": "bool"
        }
      ],
      "payable": false,
      "stateMutability": "nonpayable",
      "type": "function"
    },
    {
      "constant": true,
      "inputs": [
        {
          "name": "_owner",
          "type": "address"
        },
        {
          "name": "_spender",
          "type": "address"
        }
      ],
      "name": "allowance",
      "outputs": [
        {
          "name": "",
          "type": "uint256"
        }
      ],
      "payable": false,
      "stateMutability": "view",
      "type": "function"
    },
    {
      "constant": false,
      "inputs": [
        {
          "name": "_newOwner",
          "type": "address"
        }
      ],
      "name": "transferOwnership",
      "outputs": [],
      "payable": false,
      "stateMutability": "nonpayable",
      "type": "function"
    },
    {
      "anonymous": false,
      "inputs": [
        {
          "indexed": true,
          "name": "to",
          "type": "address"
        },
        {
          "indexed": false,
          "name": "amount",
          "type": "uint256"
        }
      ],
      "name": "Mint",
      "type": "event"
    },
    {
      "anonymous": false,
      "inputs": [],
      "name": "MintFinished",
      "type": "event"
    },
    {
      "anonymous": false,
      "inputs": [
        {
          "indexed": true,
          "name": "previousOwner",
          "type": "address"
        }
      ],
      "name": "OwnershipRenounced",
      "type": "event"
    },
    {
      "anonymous": false,
      "inputs": [
        {
          "indexed": true,
          "name": "previousOwner",
          "type": "address"
        },
        {
          "indexed": true,
          "name": "newOwner",
          "type": "address"
        }
      ],
      "name": "OwnershipTransferred",
      "type": "event"
    },
    {
      "anonymous": false,
      "inputs": [
        {
          "indexed": true,
          "name": "owner",
          "type": "address"
        },
        {
          "indexed": true,
          "name": "spender",
          "type": "address"
        },
        {
          "indexed": false,
          "name": "value",
          "type": "uint256"
        }
      ],
      "name": "Approval",
      "type": "event"
    },
    {
      "anonymous": false,
      "inputs": [
        {
          "indexed": true,
          "name": "from",
          "type": "address"
        },
        {
          "indexed": true,
          "name": "to",
          "type": "address"
        },
        {
          "indexed": false,
          "name": "value",
          "type": "uint256"
        }
      ],
      "name": "Transfer",
      "type": "event"
    },
    {
      "constant": false,
      "inputs": [
        {
          "name": "_to",
          "type": "address"
        },
        {
          "name": "_amount",
          "type": "uint256"
        }
      ],
      "name": "mint",
      "outputs": [
        {
          "name": "",
          "type": "bool"
        }
      ],
      "payable": false,
      "stateMutability": "nonpayable",
      "type": "function"
    },
    {
      "constant": false,
      "inputs": [],
      "name": "finishMinting",
      "outputs": [
        {
          "name": "",
          "type": "bool"
        }
      ],
      "payable": false,
      "stateMutability": "nonpayable",
      "type": "function"
    }
  ],
  "bytecode": "0x608060405260038054600160a860020a03191633179055610acc806100256000396000f3fe608060405234801561001057600080fd5b5060043610610107576000357c010000000000000000000000000000000000000000000000000000000090048063715018a6116100a9578063a9059cbb11610083578063a9059cbb14610258578063d73dd62314610284578063dd62ed3e146102b0578063f2fde38b146102de57610107565b8063715018a6146102225780637d64bcb41461022c5780638da5cb5b1461023457610107565b806323b872dd116100e557806323b872dd1461016e57806340c10f19146101a457806366188463146101d057806370a08231146101fc57610107565b806305d2035b1461010c578063095ea7b31461012857806318160ddd14610154575b600080fd5b610114610304565b604080519115158252519081900360200190f35b6101146004803603604081101561013e57600080fd5b50600160a060020a038135169060200135610325565b61015c61038b565b60408051918252519081900360200190f35b6101146004803603606081101561018457600080fd5b50600160a060020a03813581169160208101359091169060400135610391565b610114600480360360408110156101ba57600080fd5b50600160a060020a038135169060200135610506565b610114600480360360408110156101e657600080fd5b50600160a060020a03813516906020013561060a565b61015c6004803603602081101561021257600080fd5b5035600160a060020a03166106f9565b61022a610714565b005b610114610782565b61023c610828565b60408051600160a060020a039092168252519081900360200190f35b6101146004803603604081101561026e57600080fd5b50600160a060020a038135169060200135610837565b6101146004803603604081101561029a57600080fd5b50600160a060020a038135169060200135610916565b61015c600480360360408110156102c657600080fd5b50600160a060020a03813581169160200135166109af565b61022a600480360360208110156102f457600080fd5b5035600160a060020a03166109da565b60035474010000000000000000000000000000000000000000900460ff1681565b336000818152600260209081526040808320600160a060020a038716808552908352818420869055815186815291519394909390927f8c5be1e5ebec7d5bd14f71427d1e84f3dd0314c0f7b2291e5b200ac8c7c3b925928290030190a350600192915050565b60015490565b600160a060020a0383166000908152602081905260408120548211156103b657600080fd5b600160a060020a03841660009081526002602090815260408083203384529091529020548211156103e657600080fd5b600160a060020a03831615156103fb57600080fd5b600160a060020a038416600090815260208190526040902054610424908363ffffffff6109fd16565b600160a060020a038086166000908152602081905260408082209390935590851681522054610459908363ffffffff610a0f16565b600160a060020a0380851660009081526020818152604080832094909455918716815260028252828120338252909152205461049b908363ffffffff6109fd16565b600160a060020a03808616600081815260026020908152604080832033845282529182902094909455805186815290519287169391927fddf252ad1be2c89b69c2b068fc378daa952ba7f163c4a11628f55a4df523b3ef929181900390910190a35060019392505050565b60035460009074010000000000000000000000000000000000000000900460ff161561053157600080fd5b600154610544908363ffffffff610a0f16565b600155600160a060020a038316600090815260208190526040902054610570908363ffffffff610a0f16565b600160a060020a03841660008181526020818152604091829020939093558051858152905191927f0f6798a560793a54c3bcfe86a93cde1e73087d944c0ea20544137d412139688592918290030190a2604080518381529051600160a060020a038516916000917fddf252ad1be2c89b69c2b068fc378daa952ba7f163c4a11628f55a4df523b3ef9181900360200190a350600192915050565b336000908152600260209081526040808320600160a060020a038616845290915281205480831061065e57336000908152600260209081526040808320600160a060020a0388168452909152812055610693565b61066e818463ffffffff6109fd16565b336000908152600260209081526040808320600160a060020a03891684529091529020555b336000818152600260209081526040808320600160a060020a0389168085529083529281902054815190815290519293927f8c5be1e5ebec7d5bd14f71427d1e84f3dd0314c0f7b2291e5b200ac8c7c3b925929181900390910190a35060019392505050565b600160a060020a031660009081526020819052604090205490565b600354600160a060020a0316331461072b57600080fd5b600354604051600160a060020a03909116907ff8df31144d9c2f0f6b59d69b8b98abd5459d07f2742c4df920b25aae33c6482090600090a26003805473ffffffffffffffffffffffffffffffffffffffff19169055565b600354600090600160a060020a0316331461079c57600080fd5b60035474010000000000000000000000000000000000000000900460ff16156107c457600080fd5b6003805474ff00000000000000000000000000000000000000001916740100000000000000000000000000000000000000001790556040517fae5184fba832cb2b1f702aca6117b8d265eaf03ad33eb133f19dde0f5920fa0890600090a150600190565b600354600160a060020a031681565b3360009081526020819052604081205482111561085357600080fd5b600160a060020a038316151561086857600080fd5b33600090815260208190526040902054610888908363ffffffff6109fd16565b3360009081526020819052604080822092909255600160a060020a038516815220546108ba908363ffffffff610a0f16565b600160a060020a038416600081815260208181526040918290209390935580518581529051919233927fddf252ad1be2c89b69c2b068fc378daa952ba7f163c4a11628f55a4df523b3ef9281900390910190a350600192915050565b336000908152600260209081526040808320600160a060020a038616845290915281205461094a908363ffffffff610a0f16565b336000818152600260209081526040808320600160a060020a0389168085529083529281902085905580519485525191937f8c5be1e5ebec7d5bd14f71427d1e84f3dd0314c0f7b2291e5b200ac8c7c3b925929081900390910190a350600192915050565b600160a060020a03918216600090815260026020908152604080832093909416825291909152205490565b600354600160a060020a031633146109f157600080fd5b6109fa81610a22565b50565b600082821115610a0957fe5b50900390565b81810182811015610a1c57fe5b92915050565b600160a060020a0381161515610a3757600080fd5b600354604051600160a060020a038084169216907f8be0079c531659141344cd1fd0a4f28419497f9722a3daafe3b4186f6b6457e090600090a36003805473ffffffffffffffffffffffffffffffffffffffff1916600160a060020a039290921691909117905556fea165627a7a723058205fa9f25c62a683616acb54ac662e320a933a3102d84485205f8b3f06578f234e0029",
  "source": "pragma solidity 0.5.3;\n\nimport \"contracts/zeppelin/ERC20/StandardToken.sol\";\nimport \"contracts/zeppelin/ownership/Ownable.sol\";\n\n\n/**\n * @title Mintable token\n * @dev Simple ERC20 Token example, with mintable token creation\n * Based on code by TokenMarketNet: https://github.com/TokenMarketNet/ico/blob/master/contracts/MintableToken.sol\n */\ncontract MintableToken is StandardToken, Ownable {\n  event Mint(address indexed to, uint256 amount);\n  event MintFinished();\n\n  bool public mintingFinished = false;\n\n\n  modifier canMint() {\n    require(!mintingFinished);\n    _;\n  }\n\n  /**\n   * @dev Function to mint tokens\n   * @param _to The address that will receive the minted tokens.\n   * @param _amount The amount of tokens to mint.\n   * @return A boolean that indicates if the operation was successful.\n   */\n  function mint(\n    address _to,\n    uint256 _amount\n  )\n    public\n    canMint\n    returns (bool)\n  {\n    totalSupply_ = totalSupply_.add(_amount);\n    balances[_to] = balances[_to].add(_amount);\n    emit Mint(_to, _amount);\n    emit Transfer(address(0), _to, _amount);\n    return true;\n  }\n\n  /**\n   * @dev Function to stop minting new tokens.\n   * @return True if the operation was successful.\n   */\n  function finishMinting() public onlyOwner canMint returns (bool) {\n    mintingFinished = true;\n    emit MintFinished();\n    return true;\n  }\n}\n",
  "sourcePath": "contracts/zeppelin/ERC20/MintableToken.sol",
  "compiler": {
    "name": "solc",
    "version": "0.5.3+commit.10d17f24.Emscripten.clang"
  },
  "schemaVersion": "3.0.1",
  "updatedAt": "2019-04-16T17:38:38.771Z",
  "devdoc": {
    "details": "Simple ERC20 Token example, with mintable token creation Based on code by TokenMarketNet: https://github.com/TokenMarketNet/ico/blob/master/contracts/MintableToken.sol",
    "methods": {
      "allowance(address,address)": {
        "details": "Function to check the amount of tokens that an owner allowed to a spender.",
        "params": {
          "_owner": "address The address which owns the funds.",
          "_spender": "address The address which will spend the funds."
        },
        "return": "A uint256 specifying the amount of tokens still available for the spender."
      },
      "approve(address,uint256)": {
        "details": "Approve the passed address to spend the specified amount of tokens on behalf of msg.sender. Beware that changing an allowance with this method brings the risk that someone may use both the old and the new allowance by unfortunate transaction ordering. One possible solution to mitigate this race condition is to first reduce the spender's allowance to 0 and set the desired value afterwards: https://github.com/ethereum/EIPs/issues/20#issuecomment-263524729",
        "params": {
          "_spender": "The address which will spend the funds.",
          "_value": "The amount of tokens to be spent."
        }
      },
      "balanceOf(address)": {
        "details": "Gets the balance of the specified address.",
        "params": {
          "_owner": "The address to query the the balance of."
        },
        "return": "An uint256 representing the amount owned by the passed address."
      },
      "decreaseApproval(address,uint256)": {
        "details": "Decrease the amount of tokens that an owner allowed to a spender. approve should be called when allowed[_spender] == 0. To decrement allowed value is better to use this function to avoid 2 calls (and wait until the first transaction is mined) From MonolithDAO Token.sol",
        "params": {
          "_spender": "The address which will spend the funds.",
          "_subtractedValue": "The amount of tokens to decrease the allowance by."
        }
      },
      "finishMinting()": {
        "details": "Function to stop minting new tokens.",
        "return": "True if the operation was successful."
      },
      "increaseApproval(address,uint256)": {
        "details": "Increase the amount of tokens that an owner allowed to a spender. approve should be called when allowed[_spender] == 0. To increment allowed value is better to use this function to avoid 2 calls (and wait until the first transaction is mined) From MonolithDAO Token.sol",
        "params": {
          "_addedValue": "The amount of tokens to increase the allowance by.",
          "_spender": "The address which will spend the funds."
        }
      },
      "mint(address,uint256)": {
        "details": "Function to mint tokens",
        "params": {
          "_amount": "The amount of tokens to mint.",
          "_to": "The address that will receive the minted tokens."
        },
        "return": "A boolean that indicates if the operation was successful."
      },
      "renounceOwnership()": {
        "details": "Allows the current owner to relinquish control of the contract."
      },
      "totalSupply()": {
        "details": "Total number of tokens in existence"
      },
      "transfer(address,uint256)": {
        "details": "Transfer token for a specified address",
        "params": {
          "_to": "The address to transfer to.",
          "_value": "The amount to be transferred."
        }
      },
      "transferFrom(address,address,uint256)": {
        "details": "Transfer tokens from one address to another",
        "params": {
          "_from": "address The address which you want to send tokens from",
          "_to": "address The address which you want to transfer to",
          "_value": "uint256 the amount of tokens to be transferred"
        }
      },
      "transferOwnership(address)": {
        "details": "Allows the current owner to transfer control of the contract to a newOwner.",
        "params": {
          "_newOwner": "The address to transfer ownership to."
        }
      }
    },
    "title": "Mintable token"
  },
  "userdoc": {
    "methods": {
      "renounceOwnership()": {
        "notice": "Renouncing to ownership will leave the contract without an owner. It will not be possible to call the functions with the `onlyOwner` modifier anymore."
      }
    }
  }
}