{
  "contractName": "Bank",
  "abi": [
    {
      "constant": true,
      "inputs": [],
      "name": "MAX_LAND_OWNERS",
      "outputs": [
        {
          "name": "",
          "type": "uint8"
        }
      ],
      "payable": false,
      "stateMutability": "view",
      "type": "function",
      "signature": "0x4a419f49"
    },
    {
      "constant": true,
      "inputs": [],
      "name": "wholeLandMANAFunds",
      "outputs": [
        {
          "name": "",
          "type": "uint256"
        }
      ],
      "payable": false,
      "stateMutability": "view",
      "type": "function",
      "signature": "0x59e8508b"
    },
    {
      "constant": true,
      "inputs": [],
      "name": "BID_DURATION",
      "outputs": [
        {
          "name": "",
          "type": "uint256"
        }
      ],
      "payable": false,
      "stateMutability": "view",
      "type": "function",
      "signature": "0x6439034b"
    },
    {
      "constant": false,
      "inputs": [],
      "name": "renounceOwnership",
      "outputs": [],
      "payable": false,
      "stateMutability": "nonpayable",
      "type": "function",
      "signature": "0x715018a6"
    },
    {
      "constant": true,
      "inputs": [],
      "name": "splitLandMANAFunds",
      "outputs": [
        {
          "name": "",
          "type": "uint256"
        }
      ],
      "payable": false,
      "stateMutability": "view",
      "type": "function",
      "signature": "0x844f3dc4"
    },
    {
      "constant": true,
      "inputs": [],
      "name": "NO_ACTION_CANCEL_BID_AFTER",
      "outputs": [
        {
          "name": "",
          "type": "uint256"
        }
      ],
      "payable": false,
      "stateMutability": "view",
      "type": "function",
      "signature": "0x8ada357f"
    },
    {
      "constant": true,
      "inputs": [],
      "name": "owner",
      "outputs": [
        {
          "name": "",
          "type": "address"
        }
      ],
      "payable": false,
      "stateMutability": "view",
      "type": "function",
      "signature": "0x8da5cb5b"
    },
    {
      "constant": true,
      "inputs": [],
      "name": "isOwner",
      "outputs": [
        {
          "name": "",
          "type": "bool"
        }
      ],
      "payable": false,
      "stateMutability": "view",
      "type": "function",
      "signature": "0x8f32d59b"
    },
    {
      "constant": true,
      "inputs": [],
      "name": "MAX_LAND_SPLITS",
      "outputs": [
        {
          "name": "",
          "type": "uint16"
        }
      ],
      "payable": false,
      "stateMutability": "view",
      "type": "function",
      "signature": "0xe4628b41"
    },
    {
      "constant": true,
      "inputs": [],
      "name": "MANA",
      "outputs": [
        {
          "name": "",
          "type": "bytes32"
        }
      ],
      "payable": false,
      "stateMutability": "view",
      "type": "function",
      "signature": "0xecb42795"
    },
    {
      "constant": false,
      "inputs": [
        {
          "name": "newOwner",
          "type": "address"
        }
      ],
      "name": "transferOwnership",
      "outputs": [],
      "payable": false,
      "stateMutability": "nonpayable",
      "type": "function",
      "signature": "0xf2fde38b"
    },
    {
      "inputs": [
        {
          "name": "_manaTicker",
          "type": "string"
        },
        {
          "name": "_maxLandOwners",
          "type": "uint8"
        },
        {
          "name": "_max_land_splits",
          "type": "uint16"
        },
        {
          "name": "_maxBidDuration",
          "type": "uint256"
        },
        {
          "name": "_noActionCancelAfter",
          "type": "uint256"
        },
        {
          "name": "_addressManaToken",
          "type": "address"
        },
        {
          "name": "_addressMarketplace",
          "type": "address"
        },
        {
          "name": "_addressLandToken",
          "type": "address"
        },
        {
          "name": "_addressDecentralandBid",
          "type": "address"
        },
        {
          "name": "_addressLandRegistry",
          "type": "address"
        }
      ],
      "payable": false,
      "stateMutability": "nonpayable",
      "type": "constructor",
      "signature": "constructor"
    },
    {
      "anonymous": false,
      "inputs": [
        {
          "indexed": true,
          "name": "previousOwner",
          "type": "address"
        },
        {
          "indexed": true,
          "name": "newOwner",
          "type": "address"
        }
      ],
      "name": "OwnershipTransferred",
      "type": "event",
      "signature": "0x8be0079c531659141344cd1fd0a4f28419497f9722a3daafe3b4186f6b6457e0"
    },
    {
      "anonymous": false,
      "inputs": [
        {
          "indexed": false,
          "name": "landId",
          "type": "uint256"
        },
        {
          "indexed": false,
          "name": "totalBid",
          "type": "uint256"
        },
        {
          "indexed": false,
          "name": "duration",
          "type": "uint256"
        }
      ],
      "name": "ProcessedBid",
      "type": "event",
      "signature": "0xc6974514421d914ce9c35eb01633882b1894a22836846b73e501cc1d3da49183"
    },
    {
      "anonymous": false,
      "inputs": [
        {
          "indexed": false,
          "name": "landId",
          "type": "uint256"
        }
      ],
      "name": "BoughtLand",
      "type": "event",
      "signature": "0x4af7526a59f94558fcde918a34ac7d1794a6ef4eda440bf3807a51a745838ec0"
    },
    {
      "anonymous": false,
      "inputs": [
        {
          "indexed": false,
          "name": "depositType",
          "type": "uint8"
        },
        {
          "indexed": false,
          "name": "caller",
          "type": "address"
        },
        {
          "indexed": false,
          "name": "target",
          "type": "address"
        },
        {
          "indexed": false,
          "name": "amount",
          "type": "uint256"
        }
      ],
      "name": "DepositedMANA",
      "type": "event",
      "signature": "0xd52433f75403820e78bae39dae7b5ac64bf92c773c5165b94201477fcbff2e86"
    },
    {
      "anonymous": false,
      "inputs": [
        {
          "indexed": false,
          "name": "depositType",
          "type": "uint8"
        },
        {
          "indexed": false,
          "name": "caller",
          "type": "address"
        },
        {
          "indexed": false,
          "name": "amount",
          "type": "uint256"
        }
      ],
      "name": "WithdrewMANA",
      "type": "event",
      "signature": "0x28c0ff278a5c050be1954860ba8051072e1255ffc3c876e380a57f76294aaeb8"
    },
    {
      "anonymous": false,
      "inputs": [
        {
          "indexed": false,
          "name": "result",
          "type": "uint8"
        },
        {
          "indexed": false,
          "name": "bidPosition",
          "type": "uint256"
        }
      ],
      "name": "RegisteredBidResult",
      "type": "event",
      "signature": "0x1243959027de1b1bda8d9a767b2a115ef02319fea9c10f5b0dae0a64e6a95458"
    },
    {
      "anonymous": false,
      "inputs": [
        {
          "indexed": false,
          "name": "_tokenAddress",
          "type": "address"
        },
        {
          "indexed": false,
          "name": "_tokenId",
          "type": "uint256"
        },
        {
          "indexed": false,
          "name": "parts",
          "type": "uint256"
        }
      ],
      "name": "SplitUnassignedLand",
      "type": "event",
      "signature": "0x23668c75fbef183e32b862658de53e41985d0847fc250c35ead0fd761662fdf1"
    },
    {
      "anonymous": false,
      "inputs": [
        {
          "indexed": false,
          "name": "to",
          "type": "address"
        },
        {
          "indexed": false,
          "name": "tokenId",
          "type": "uint256"
        }
      ],
      "name": "TransferredUnassignedLand",
      "type": "event",
      "signature": "0x78bddb8c74a05d607fbcdca8496ef69626f149ac88c51c01de94ece203ecedf5"
    },
    {
      "anonymous": false,
      "inputs": [
        {
          "indexed": false,
          "name": "owner",
          "type": "address"
        },
        {
          "indexed": false,
          "name": "_tokenAddress",
          "type": "address"
        },
        {
          "indexed": false,
          "name": "_tokenId",
          "type": "uint256"
        },
        {
          "indexed": false,
          "name": "parts",
          "type": "uint256"
        }
      ],
      "name": "SplitExternalLand",
      "type": "event",
      "signature": "0xe0ad9f2ea558b151aa1f524bf4edde2a29b4406a277a81f67ea032ecd2ea8c6f"
    },
    {
      "anonymous": false,
      "inputs": [
        {
          "indexed": false,
          "name": "id",
          "type": "uint256"
        },
        {
          "indexed": false,
          "name": "caller",
          "type": "address"
        },
        {
          "indexed": false,
          "name": "reconstructedLandReceiver",
          "type": "address"
        }
      ],
      "name": "ReconstructedLand",
      "type": "event",
      "signature": "0x01a5242c7cf7a101f3476adcc1dd808af73ddb5cdf6a81e10807a229d020afc5"
    },
    {
      "constant": false,
      "inputs": [
        {
          "name": "maxLandOwners",
          "type": "uint8"
        }
      ],
      "name": "changeMaxLandOwners",
      "outputs": [],
      "payable": false,
      "stateMutability": "nonpayable",
      "type": "function",
      "signature": "0x3df1c729"
    },
    {
      "constant": false,
      "inputs": [
        {
          "name": "max_land_splits",
          "type": "uint16"
        }
      ],
      "name": "changeMaxLandSplits",
      "outputs": [],
      "payable": false,
      "stateMutability": "nonpayable",
      "type": "function",
      "signature": "0x2f7dfded"
    },
    {
      "constant": false,
      "inputs": [
        {
          "name": "maxBidDuration",
          "type": "uint256"
        }
      ],
      "name": "changeBidDuration",
      "outputs": [],
      "payable": false,
      "stateMutability": "nonpayable",
      "type": "function",
      "signature": "0xbe0a1582"
    },
    {
      "constant": false,
      "inputs": [
        {
          "name": "_noActionCancelAfter",
          "type": "uint256"
        }
      ],
      "name": "changeNoActionCancelTime",
      "outputs": [],
      "payable": false,
      "stateMutability": "nonpayable",
      "type": "function",
      "signature": "0x18f08d38"
    },
    {
      "constant": false,
      "inputs": [
        {
          "name": "investmentType",
          "type": "uint8"
        },
        {
          "name": "landId",
          "type": "uint256"
        },
        {
          "name": "investors",
          "type": "address[]"
        },
        {
          "name": "_amountsInvested",
          "type": "uint256[]"
        }
      ],
      "name": "bidForLand",
      "outputs": [],
      "payable": false,
      "stateMutability": "nonpayable",
      "type": "function",
      "signature": "0xa1f0b741"
    },
    {
      "constant": false,
      "inputs": [
        {
          "name": "_investmentType",
          "type": "uint8"
        },
        {
          "name": "_landId",
          "type": "uint256"
        },
        {
          "name": "_investors",
          "type": "address[]"
        },
        {
          "name": "_amountsInvested",
          "type": "uint256[]"
        }
      ],
      "name": "directBuyLand",
      "outputs": [],
      "payable": false,
      "stateMutability": "nonpayable",
      "type": "function",
      "signature": "0x07ef5ec7"
    },
    {
      "constant": false,
      "inputs": [
        {
          "name": "unassignedLandId",
          "type": "uint256"
        }
      ],
      "name": "assignLand",
      "outputs": [],
      "payable": false,
      "stateMutability": "nonpayable",
      "type": "function",
      "signature": "0x854c51de"
    },
    {
      "constant": false,
      "inputs": [
        {
          "name": "_balanceType",
          "type": "uint8"
        },
        {
          "name": "_target",
          "type": "address"
        },
        {
          "name": "_amount",
          "type": "uint256"
        }
      ],
      "name": "depositMANA",
      "outputs": [],
      "payable": false,
      "stateMutability": "nonpayable",
      "type": "function",
      "signature": "0x8038381b"
    },
    {
      "constant": false,
      "inputs": [
        {
          "name": "_balanceType",
          "type": "uint8"
        },
        {
          "name": "_amount",
          "type": "uint256"
        }
      ],
      "name": "withdrawMANA",
      "outputs": [],
      "payable": false,
      "stateMutability": "nonpayable",
      "type": "function",
      "signature": "0x0caec78b"
    },
    {
      "constant": false,
      "inputs": [
        {
          "name": "result",
          "type": "uint8"
        },
        {
          "name": "bidPosition",
          "type": "uint256"
        }
      ],
      "name": "registerBidResult",
      "outputs": [],
      "payable": false,
      "stateMutability": "nonpayable",
      "type": "function",
      "signature": "0x09308bfb"
    },
    {
      "constant": false,
      "inputs": [
        {
          "name": "_tokenId",
          "type": "uint256"
        },
        {
          "name": "landParts",
          "type": "uint256"
        }
      ],
      "name": "generalSplitLand",
      "outputs": [],
      "payable": false,
      "stateMutability": "nonpayable",
      "type": "function",
      "signature": "0x8877d9b1"
    },
    {
      "constant": false,
      "inputs": [
        {
          "name": "id",
          "type": "uint256"
        },
        {
          "name": "reconstructedLandReceiver",
          "type": "address"
        }
      ],
      "name": "reconstructLand",
      "outputs": [],
      "payable": false,
      "stateMutability": "nonpayable",
      "type": "function",
      "signature": "0x4f0b68fc"
    },
    {
      "constant": false,
      "inputs": [
        {
          "name": "bidPosition",
          "type": "uint256"
        }
      ],
      "name": "cancelBidAfterNoAction",
      "outputs": [],
      "payable": false,
      "stateMutability": "nonpayable",
      "type": "function",
      "signature": "0x3c91bb49"
    },
    {
      "constant": true,
      "inputs": [],
      "name": "getSplitInvestorsData",
      "outputs": [
        {
          "name": "investorsAddress",
          "type": "address[]"
        },
        {
          "name": "amountInvested",
          "type": "uint256[]"
        }
      ],
      "payable": false,
      "stateMutability": "view",
      "type": "function",
      "signature": "0xf2919976"
    },
    {
      "constant": true,
      "inputs": [
        {
          "name": "landID",
          "type": "uint256"
        }
      ],
      "name": "getLandTokenSplitAddress",
      "outputs": [
        {
          "name": "",
          "type": "address"
        }
      ],
      "payable": false,
      "stateMutability": "view",
      "type": "function",
      "signature": "0x78e0598b"
    },
    {
      "constant": true,
      "inputs": [
        {
          "name": "landID",
          "type": "uint256"
        }
      ],
      "name": "getDepositedLandParts",
      "outputs": [
        {
          "name": "",
          "type": "uint256"
        }
      ],
      "payable": false,
      "stateMutability": "view",
      "type": "function",
      "signature": "0x0ff78774"
    },
    {
      "constant": true,
      "inputs": [
        {
          "name": "who",
          "type": "address"
        },
        {
          "name": "hashedCoinTicker",
          "type": "bytes32"
        }
      ],
      "name": "getSplitBalance",
      "outputs": [
        {
          "name": "",
          "type": "uint256"
        }
      ],
      "payable": false,
      "stateMutability": "view",
      "type": "function",
      "signature": "0x19bdf71e"
    },
    {
      "constant": true,
      "inputs": [
        {
          "name": "who",
          "type": "address"
        },
        {
          "name": "hashedCoinTicker",
          "type": "bytes32"
        }
      ],
      "name": "getWholeBalance",
      "outputs": [
        {
          "name": "",
          "type": "uint256"
        }
      ],
      "payable": false,
      "stateMutability": "view",
      "type": "function",
      "signature": "0x5a1da12a"
    },
    {
      "constant": true,
      "inputs": [
        {
          "name": "who",
          "type": "address"
        },
        {
          "name": "coinTicker",
          "type": "bytes32"
        }
      ],
      "name": "getLockedFunds",
      "outputs": [
        {
          "name": "",
          "type": "uint256"
        }
      ],
      "payable": false,
      "stateMutability": "view",
      "type": "function",
      "signature": "0xf09c1976"
    },
    {
      "constant": true,
      "inputs": [
        {
          "name": "landId",
          "type": "uint256"
        }
      ],
      "name": "landIsBeingBid",
      "outputs": [
        {
          "name": "",
          "type": "bool"
        }
      ],
      "payable": false,
      "stateMutability": "view",
      "type": "function",
      "signature": "0x48546a8c"
    },
    {
      "constant": true,
      "inputs": [
        {
          "name": "position",
          "type": "uint256"
        }
      ],
      "name": "getBidInvestorData",
      "outputs": [
        {
          "name": "",
          "type": "bytes"
        }
      ],
      "payable": false,
      "stateMutability": "view",
      "type": "function",
      "signature": "0x3fe81731"
    },
    {
      "constant": true,
      "inputs": [
        {
          "name": "position",
          "type": "uint256"
        }
      ],
      "name": "getBidStatus",
      "outputs": [
        {
          "name": "",
          "type": "uint8"
        }
      ],
      "payable": false,
      "stateMutability": "view",
      "type": "function",
      "signature": "0x2fdd0f51"
    },
    {
      "constant": false,
      "inputs": [
        {
          "name": "_operator",
          "type": "address"
        },
        {
          "name": "_from",
          "type": "address"
        },
        {
          "name": "_tokenId",
          "type": "uint256"
        },
        {
          "name": "_data",
          "type": "bytes"
        }
      ],
      "name": "onERC721Received",
      "outputs": [
        {
          "name": "",
          "type": "bytes4"
        }
      ],
      "payable": false,
      "stateMutability": "nonpayable",
      "type": "function",
      "signature": "0x150b7a02"
    }
  ],
  "bytecode": "0x60c0604052600160808190527f300000000000000000000000000000000000000000000000000000000000000060a0908152620000409160159190620003ef565b503480156200004e57600080fd5b50604051620053073803806200530783398101806040526101408110156200007557600080fd5b8101908080516401000000008111156200008e57600080fd5b82016020810184811115620000a257600080fd5b8151640100000000811182820187101715620000bd57600080fd5b505060208201516040808401516060850151608086015160a087015160c088015160e08901516101008a0151610120909a0151601380546001600160a01b0319163317908190559751999c50979a509498939792969195909493926001600160a01b0391909116906000907f8be0079c531659141344cd1fd0a4f28419497f9722a3daafe3b4186f6b6457e0908290a360008960ff1611620001ab576040517f08c379a0000000000000000000000000000000000000000000000000000000008152600401808060200182810382526029815260200180620052de6029913960400191505060405180910390fd5b60008861ffff16116200020a576040517f08c379a0000000000000000000000000000000000000000000000000000000008152600401808060200182810382526029815260200180620052906029913960400191505060405180910390fd5b6000871162000265576040517f08c379a0000000000000000000000000000000000000000000000000000000008152600401808060200182810382526025815260200180620052b96025913960400191505060405180910390fd5b60008611620002c0576040517f08c379a0000000000000000000000000000000000000000000000000000000008152600401808060200182810382526027815260200180620052696027913960400191505060405180910390fd5b896040516020018080602001828103825283818151815260200191508051906020019080838360005b8381101562000303578181015183820152602001620002e9565b50505050905090810190601f168015620003315780820380516001836020036101000a031916815260200191505b5060408051808303601f19018152919052805160209091012060005550506001805460ff191660ff9b909b169a909a1762ffff00191661010061ffff9a909a169990990298909817909855600295909555600393909355600680546001600160a01b03199081166001600160a01b039485161790915560078054821692841692909217909155600980548216938316939093179092556014805483169382169390931790925560088054909116919093161790915550620004949050565b828054600181600116156101000203166002900490600052602060002090601f016020900481019282601f106200043257805160ff191683800117855562000462565b8280016001018555821562000462579182015b828111156200046257825182559160200191906001019062000445565b506200047092915062000474565b5090565b6200049191905b808211156200047057600081556001016200047b565b90565b614dc580620004a46000396000f3fe60806040523480156200001157600080fd5b5060043610620002385760003560e01c80636439034b11620001355780638da5cb5b11620000bd578063e4628b411162000087578063e4628b411462000896578063ecb4279514620008b7578063f09c197614620008c1578063f291997614620008f0578063f2fde38b14620009975762000238565b80638da5cb5b146200078c5780638f32d59b1462000796578063a1f0b74114620007a0578063be0a158214620008765762000238565b8063844f3dc411620000ff578063844f3dc41462000732578063854c51de146200073c5780638877d9b1146200075c5780638ada357f14620007825762000238565b80636439034b14620006aa578063715018a614620006b457806378e0598b14620006be5780638038381b14620006fa5762000238565b80632fdd0f5111620001c557806348546a8c116200018f57806348546a8c14620006045780634a419f4914620006385780634f0b68fc146200064257806359e8508b14620006715780635a1da12a146200067b5762000238565b80632fdd0f5114620004f35780633c91bb4914620005295780633df1c72914620005495780633fe81731146200056c5762000238565b8063150b7a021162000207578063150b7a02146200039957806318f08d38146200048057806319bdf71e14620004a05780632f7dfded14620004cf5762000238565b806307ef5ec7146200023d57806309308bfb14620003155780630caec78b146200033e5780630ff787741462000367575b600080fd5b62000313600480360360808110156200025557600080fd5b60ff82351691602081013591810190606081016040820135600160201b8111156200027f57600080fd5b8201836020820111156200029257600080fd5b803590602001918460208302840111600160201b83111715620002b457600080fd5b919390929091602081019035600160201b811115620002d257600080fd5b820183602082011115620002e557600080fd5b803590602001918460208302840111600160201b831117156200030757600080fd5b509092509050620009c0565b005b62000313600480360360408110156200032d57600080fd5b5060ff813516906020013562001118565b62000313600480360360408110156200035657600080fd5b5060ff81351690602001356200187c565b62000387600480360360208110156200037f57600080fd5b503562001b9e565b60408051918252519081900360200190f35b6200046360048036036080811015620003b157600080fd5b6001600160a01b03823581169260208101359091169160408201359190810190608081016060820135600160201b811115620003ec57600080fd5b820183602082011115620003ff57600080fd5b803590602001918460018302840111600160201b831117156200042157600080fd5b91908080601f01602080910402602001604051908101604052809392919081815260200183838082843760009201919091525092955062001bb3945050505050565b604080516001600160e01b03199092168252519081900360200190f35b62000313600480360360208110156200049857600080fd5b503562001bc6565b6200038760048036036040811015620004b857600080fd5b506001600160a01b03813516906020013562001c23565b6200031360048036036020811015620004e757600080fd5b503561ffff1662001c4b565b62000513600480360360208110156200050b57600080fd5b503562001cc5565b6040805160ff9092168252519081900360200190f35b62000313600480360360208110156200054157600080fd5b503562001cf2565b62000313600480360360208110156200056157600080fd5b503560ff16620021b2565b6200058c600480360360208110156200058457600080fd5b503562002223565b6040805160208082528351818301528351919283929083019185019080838360005b83811015620005c8578181015183820152602001620005ae565b50505050905090810190601f168015620005f65780820380516001836020036101000a031916815260200191505b509250505060405180910390f35b62000624600480360360208110156200061c57600080fd5b5035620022d6565b604080519115158252519081900360200190f35b62000513620022eb565b62000313600480360360408110156200065a57600080fd5b50803590602001356001600160a01b0316620022f4565b62000387620022f8565b62000387600480360360408110156200069357600080fd5b506001600160a01b038135169060200135620022fe565b6200038762002326565b620003136200232c565b620006de60048036036020811015620006d657600080fd5b50356200238a565b604080516001600160a01b039092168252519081900360200190f35b62000313600480360360608110156200071257600080fd5b5060ff813516906001600160a01b036020820135169060400135620023a5565b620003876200269c565b62000313600480360360208110156200075457600080fd5b5035620026a2565b62000313600480360360408110156200077457600080fd5b5080359060200135620022f4565b6200038762002dd0565b620006de62002dd6565b6200062462002de6565b6200031360048036036080811015620007b857600080fd5b60ff82351691602081013591810190606081016040820135600160201b811115620007e257600080fd5b820183602082011115620007f557600080fd5b803590602001918460208302840111600160201b831117156200081757600080fd5b919390929091602081019035600160201b8111156200083557600080fd5b8201836020820111156200084857600080fd5b803590602001918460208302840111600160201b831117156200086a57600080fd5b50909250905062002df7565b62000313600480360360208110156200088e57600080fd5b503562003705565b620008a062003762565b6040805161ffff9092168252519081900360200190f35b6200038762003771565b6200038760048036036040811015620008d957600080fd5b506001600160a01b03813516906020013562003777565b620008fa6200379f565b604051808060200180602001838103835285818151815260200191508051906020019060200280838360005b838110156200094057818101518382015260200162000926565b50505050905001838103825284818151815260200191508051906020019060200280838360005b838110156200098157818101518382015260200162000967565b5050505090500194505050505060405180910390f35b6200031360048036036020811015620009af57600080fd5b50356001600160a01b0316620038b3565b620009ca62002de6565b620009d457600080fd5b8583828760ff84161580620009ec57508360ff166001145b62000a2c57604051600160e51b62461bcd02815260040180806020018281038252602e81526020018062004b06602e913960400191505060405180910390fd5b81831462000a6f57604051600160e51b62461bcd0281526004018080602001828103825260458152602001806200495b6045913960600191505060405180910390fd5b60008181526011602052604090205460ff161562000ac257604051600160e51b62461bcd02815260040180806020018281038252602f81526020018062004aab602f913960400191505060405180910390fd5b60ff841662000b15578260011462000b0f57604051600160e51b62461bcd02815260040180806020018281038252603981526020018062004c136039913960400191505060405180910390fd5b62000b66565b8360ff166001141562000b66576001831162000b6657604051600160e51b62461bcd028152600401808060200182810382526040815260200180620049eb6040913960400191505060405180910390fd5b600062000ba6878780806020026020016040519081016040528093929190818152602001838360200280828437600092019190915250620038d592505050565b905060ff8b1662000ce85780600454101562000bf757604051600160e51b62461bcd02815260040180806020018281038252602c81526020018062004ccb602c913960400191505060405180910390fd5b60045462000c0c908263ffffffff6200391f16565b60045562000c8a878760008162000c1f57fe5b90506020020135600d60008c8c600081811062000c3857fe5b905060200201356001600160a01b03166001600160a01b03166001600160a01b03168152602001908152602001600020600080548152602001908152602001600020546200391f90919063ffffffff16565b600d60008b8b600081811062000c9c57fe5b905060200201356001600160a01b03166001600160a01b03166001600160a01b031681526020019081526020016000206000805481526020019081526020016000208190555062000e6e565b8a60ff166001141562000e6e5780600554101562000d3b57604051600160e51b62461bcd02815260040180806020018281038252602c81526020018062004ada602c913960400191505060405180910390fd5b60055462000d50908263ffffffff6200391f16565b60055560005b8881101562000e6c5762000d8888888381811062000d7057fe5b90506020020135600b60008d8d8681811062000c3857fe5b600b60008c8c8581811062000d9957fe5b905060200201356001600160a01b03166001600160a01b03166001600160a01b0316815260200190815260200160002060008054815260200190815260200160002081905550600b60008b8b8481811062000df057fe5b905060200201356001600160a01b03166001600160a01b03166001600160a01b03168152602001908152602001600020600080548152602001908152602001600020546000141562000e635762000e638a8a8381811062000e4d57fe5b905060200201356001600160a01b031662003935565b60010162000d56565b505b60065460075460408051600160e01b63095ea7b30281526001600160a01b0392831660048201526000602482018190529151929093169263095ea7b39260448083019360209383900390910190829087803b15801562000ecd57600080fd5b505af115801562000ee2573d6000803e3d6000fd5b505050506040513d602081101562000ef957600080fd5b505060065460075460408051600160e01b63095ea7b30281526001600160a01b039283166004820152602481018590529051919092169163095ea7b39160448083019260209291908290030181600087803b15801562000f5857600080fd5b505af115801562000f6d573d6000803e3d6000fd5b505050506040513d602081101562000f8457600080fd5b505060075460095460408051600160e01b63ae7b03330281526001600160a01b039283166004820152602481018e9052604481018590529051919092169163ae7b033391606480830192600092919082900301818387803b15801562000fe957600080fd5b505af115801562000ffe573d6000803e3d6000fd5b50505060008b815260116020908152604091829020805460ff19166001179055815180820183815260608281018e905294508d938d938d938d9392839290820191608001908890880280828437600083820152601f01601f19169091018481038352858152602090810191508690860280828437600081840152601f19601f8201169050808301925050509650505050505050604051602081830303815290604052905080601260008d81526020019081526020016000209080519060200190620010cb92919062003b31565b50620010d78b620026a2565b604080518c815290517f4af7526a59f94558fcde918a34ac7d1794a6ef4eda440bf3807a51a745838ec09181900360200190a1505050505050505050505050565b600a54819081106200115f57604051600160e51b62461bcd02815260040180806020018281038252602581526020018062004b916025913960400191505060405180910390fd5b600060ff16600a82815481106200117257fe5b600091825260209091206003600490920201015460ff1614620011df5760408051600160e51b62461bcd02815260206004820152601660248201527f54686520626964206973206e6f74206f6e676f696e6700000000000000000000604482015290519081900360640190fd5b60038360ff1611158015620011f7575060008360ff16115b6200124c5760408051600160e51b62461bcd02815260206004820152601f60248201527f54686520726573756c74206973206e6f742077697468696e20626f756e647300604482015290519081900360640190fd5b82600a83815481106200125b57fe5b906000526020600020906004020160030160006101000a81548160ff021916908360ff160217905550606080600a84815481106200129557fe5b6000918252602091829020600490910201805460408051601f60026000196101006001871615020190941693909304928301859004850281018501909152818152928301828280156200132c5780601f1062001300576101008083540402835291602001916200132c565b820191906000526020600020905b8154815290600101906020018083116200130e57829003601f168201915b505050505080602001905160408110156200134657600080fd5b810190808051600160201b8111156200135e57600080fd5b820160208101848111156200137257600080fd5b81518560208202830111600160201b821117156200138f57600080fd5b50509291906020018051600160201b811115620013ab57600080fd5b82016020810184811115620013bf57600080fd5b81518560208202830111600160201b82111715620013dc57600080fd5b50949650945060039350620013f092505050565b60ff168560ff16148062001407575060ff85166002145b15620016ae57815160011415620015aa576200148e816000815181106200142a57fe5b6020026020010151600e6000856000815181106200144457fe5b60200260200101516001600160a01b03166001600160a01b03168152602001908152602001600020600080548152602001908152602001600020546200391f90919063ffffffff16565b600e600084600081518110620014a057fe5b60200260200101516001600160a01b03166001600160a01b03168152602001908152602001600020600080548152602001908152602001600020819055506200155481600081518110620014f057fe5b6020026020010151600d6000856000815181106200150a57fe5b60200260200101516001600160a01b03166001600160a01b031681526020019081526020016000206000805481526020019081526020016000205462003a2d90919063ffffffff16565b600d6000846000815181106200156657fe5b60200260200101516001600160a01b03166001600160a01b0316815260200190815260200160002060008054815260200190815260200160002081905550620016a8565b60005b8251811015620016a657620015e1828281518110620015c857fe5b6020026020010151600e60008685815181106200144457fe5b600e6000858481518110620015f257fe5b60200260200101516001600160a01b03166001600160a01b03168152602001908152602001600020600080548152602001908152602001600020819055506200165a8282815181106200164157fe5b6020026020010151600b60008685815181106200150a57fe5b600b60008584815181106200166b57fe5b6020908102919091018101516001600160a01b03168252818101929092526040908101600090812081548252909252902055600101620015ad565b505b620017e5565b60ff851660011415620017e55760005b82518110156200172557620016d9828281518110620015c857fe5b600e6000858481518110620016ea57fe5b6020908102919091018101516001600160a01b03168252818101929092526040908101600090812081548252909252902055600101620016be565b50600060116000600a87815481106200173a57fe5b906000526020600020906004020160010154815260200190815260200160002060006101000a81548160ff021916908315150217905550600a84815481106200177f57fe5b906000526020600020906004020160000160126000600a8781548110620017a257fe5b90600052602060002090600402016001015481526020019081526020016000209080546001816001161561010002031660029004620017e392919062003bb6565b505b6000600f6000600a8781548110620017f957fe5b906000526020600020906004020160010154815260200190815260200160002060006101000a81548160ff0219169083151502179055507f1243959027de1b1bda8d9a767b2a115ef02319fea9c10f5b0dae0a64e6a954588585604051808360ff1660ff1681526020018281526020019250505060405180910390a15050505050565b60ff821615806200189057508160ff166001145b620018d057604051600160e51b62461bcd02815260040180806020018281038252602381526020018062004c816023913960400191505060405180910390fd5b60ff8216620019a057336000908152600d60209081526040808320835484529091529020548111156200193857604051600160e51b62461bcd02815260040180806020018281038252603481526020018062004b346034913960400191505060405180910390fd5b336000908152600d602090815260408083208354845290915290205462001966908263ffffffff6200391f16565b336000908152600d602090815260408083208354845290915290205560045462001997908263ffffffff6200391f16565b60045562001a8d565b336000908152600b6020908152604080832083548452909152902054811115620019ff57604051600160e51b62461bcd02815260040180806020018281038252603481526020018062004cf76034913960400191505060405180910390fd5b336000908152600b602090815260408083208354845290915290205462001a2d908263ffffffff6200391f16565b336000908152600b602090815260408083208354845290915290205560055462001a5e908263ffffffff6200391f16565b600555336000908152600b602090815260408083208354845290915290205462001a8d5762001a8d3362003935565b60065460408051600160e01b63a9059cbb0281523360048201526024810184905290516001600160a01b039092169163a9059cbb916044808201926020929091908290030181600087803b15801562001ae557600080fd5b505af115801562001afa573d6000803e3d6000fd5b505050506040513d602081101562001b1157600080fd5b5051151560011462001b5857604051600160e51b62461bcd02815260040180806020018281038252603181526020018062004a546031913960400191505060405180910390fd5b6040805160ff8416815233602082015280820183905290517f28c0ff278a5c050be1954860ba8051072e1255ffc3c876e380a57f76294aaeb89181900360600190a15050565b60009081526010602052604090206001015490565b600160e11b63785cf2dd02949350505050565b62001bd062002de6565b62001bda57600080fd5b6000811162001c1e57604051600160e51b62461bcd028152600401808060200182810382526027815260200180620049c46027913960400191505060405180910390fd5b600355565b6001600160a01b03919091166000908152600b60209081526040808320938352929052205490565b62001c5562002de6565b62001c5f57600080fd5b60008161ffff161162001ca757604051600160e51b62461bcd02815260040180806020018281038252602981526020018062004b686029913960400191505060405180910390fd5b6001805461ffff9092166101000262ffff0019909216919091179055565b6000600a828154811062001cd557fe5b600091825260209091206004909102016003015460ff1692915050565b600a548190811062001d3957604051600160e51b62461bcd02815260040180806020018281038252602581526020018062004b916025913960400191505060405180910390fd5b600060ff16600a828154811062001d4c57fe5b600091825260209091206003600490920201015460ff161462001db95760408051600160e51b62461bcd02815260206004820152601660248201527f54686520626964206973206e6f74206f6e676f696e6700000000000000000000604482015290519081900360640190fd5b42600354600102600a848154811062001dce57fe5b906000526020600020906004020160020154011062001e2257604051600160e51b62461bcd02815260040180806020018281038252603581526020018062004c4c6035913960400191505060405180910390fd5b6003600a838154811062001e3257fe5b906000526020600020906004020160030160006101000a81548160ff021916908360ff160217905550606080600a848154811062001e6c57fe5b6000918252602091829020600490910201805460408051601f600260001961010060018716150201909416939093049283018590048502810185019091528181529283018282801562001f035780601f1062001ed75761010080835404028352916020019162001f03565b820191906000526020600020905b81548152906001019060200180831162001ee557829003601f168201915b5050505050806020019051604081101562001f1d57600080fd5b810190808051600160201b81111562001f3557600080fd5b8201602081018481111562001f4957600080fd5b81518560208202830111600160201b8211171562001f6657600080fd5b50509291906020018051600160201b81111562001f8257600080fd5b8201602081018481111562001f9657600080fd5b81518560208202830111600160201b8211171562001fb357600080fd5b50508451949650945050506001909114159050620020955762001fdd816000815181106200142a57fe5b600e60008460008151811062001fef57fe5b60200260200101516001600160a01b03166001600160a01b03168152602001908152602001600020600080548152602001908152602001600020819055506200203f81600081518110620014f057fe5b600d6000846000815181106200205157fe5b60200260200101516001600160a01b03166001600160a01b031681526020019081526020016000206000805481526020019081526020016000208190555062002161565b60005b82518110156200215f57620020b3828281518110620015c857fe5b600e6000858481518110620020c457fe5b60200260200101516001600160a01b03166001600160a01b0316815260200190815260200160002060008054815260200190815260200160002081905550620021138282815181106200164157fe5b600b60008584815181106200212457fe5b6020908102919091018101516001600160a01b0316825281810192909252604090810160009081208154825290925290205560010162002098565b505b6000600f6000600a87815481106200217557fe5b906000526020600020906004020160010154815260200190815260200160002060006101000a81548160ff02191690831515021790555050505050565b620021bc62002de6565b620021c657600080fd5b60008160ff16116200220d57604051600160e51b62461bcd02815260040180806020018281038252602981526020018062004d506029913960400191505060405180910390fd5b6001805460ff191660ff92909216919091179055565b6060600a82815481106200223357fe5b6000918252602091829020600490910201805460408051601f6002600019610100600187161502019094169390930492830185900485028101850190915281815292830182828015620022ca5780601f106200229e57610100808354040283529160200191620022ca565b820191906000526020600020905b815481529060010190602001808311620022ac57829003601f168201915b50505050509050919050565b6000908152600f602052604090205460ff1690565b60015460ff1681565b5050565b60045481565b6001600160a01b03919091166000908152600d60209081526040808320938352929052205490565b60025481565b6200233662002de6565b6200234057600080fd5b6013546040516000916001600160a01b0316907f8be0079c531659141344cd1fd0a4f28419497f9722a3daafe3b4186f6b6457e0908390a3601380546001600160a01b0319169055565b6000908152601060205260409020546001600160a01b031690565b60065460408051600160e01b6370a08231028152336004820152905183926001600160a01b0316916370a08231916024808301926020929190829003018186803b158015620023f357600080fd5b505afa15801562002408573d6000803e3d6000fd5b505050506040513d60208110156200241f57600080fd5b505110156200246357604051600160e51b62461bcd02815260040180806020018281038252602981526020018062004a2b6029913960400191505060405180910390fd5b60ff831615806200247757508260ff166001145b620024b757604051600160e51b62461bcd02815260040180806020018281038252602381526020018062004c816023913960400191505060405180910390fd5b60065460408051600160e01b6323b872dd0281523360048201523060248201526044810184905290516001600160a01b03909216916323b872dd916064808201926020929091908290030181600087803b1580156200251557600080fd5b505af11580156200252a573d6000803e3d6000fd5b505050506040513d60208110156200254157600080fd5b505060ff8316620025c6576001600160a01b0382166000908152600d602090815260408083208354845290915290205462002583908263ffffffff62003a2d16565b6001600160a01b0383166000908152600d6020908152604080832083548452909152902055600454620025bd908263ffffffff62003a2d16565b60045562002646565b620025d18262003a47565b6001600160a01b0382166000908152600b602090815260408083208354845290915290205462002608908263ffffffff62003a2d16565b6001600160a01b0383166000908152600b602090815260408083208354845290915290205560055462002642908263ffffffff62003a2d16565b6005555b6040805160ff851681523360208201526001600160a01b038416818301526060810183905290517fd52433f75403820e78bae39dae7b5ac64bf92c773c5165b94201477fcbff2e869181900360800190a1505050565b60055481565b620026ac62002de6565b620026b657600080fd5b60156040518082805460018160011615610100020316600290048015620027175780601f10620026f457610100808354040283529182019162002717565b820191906000526020600020905b81548152906001019060200180831162002702575b50509150506040518091039020601260008381526020019081526020016000206040518082805460018160011615610100020316600290048015620027965780601f106200277357610100808354040283529182019162002796565b820191906000526020600020905b81548152906001019060200180831162002781575b505091505060405180910390201415620027fa5760408051600160e51b62461bcd02815260206004820152601e60248201527f54686973206c616e642077617320616c72656164792061737369676e65640000604482015290519081900360640190fd5b60008181526011602052604090205460ff1615156001146200285157604051600160e51b62461bcd02815260040180806020018281038252602681526020018062004a856026913960400191505060405180910390fd5b6000818152601260209081526040918290208054835160026001831615610100026000190190921691909104601f81018490048402820184019094528381526060938493919291830182828015620028ed5780601f10620028c157610100808354040283529160200191620028ed565b820191906000526020600020905b815481529060010190602001808311620028cf57829003601f168201915b505050505080602001905160408110156200290757600080fd5b810190808051600160201b8111156200291f57600080fd5b820160208101848111156200293357600080fd5b81518560208202830111600160201b821117156200295057600080fd5b50509291906020018051600160201b8111156200296c57600080fd5b820160208101848111156200298057600080fd5b81518560208202830111600160201b821117156200299d57600080fd5b5050845194965094505050600190911080159150620029be57506001815110155b8015620029cc575081518151145b62002a0c57604051600160e51b62461bcd028152600401808060200182810382526024815260200180620049a06024913960400191505060405180910390fd5b60008381526012602052604090206015805462002a3e9291906002600019610100600184161502019091160462003bb6565b5081516001141562002c3857600083815260116020526040808220805460ff1916905560085490516060916001600160a01b03169080602762004ca4823960270190506040518091039020308660008151811062002a9857fe5b602090810291909101810151604080516001600160e01b0319909516858401526001600160a01b03938416858201529216606084015260808084018a90528251808503909101815260a090930191829052825182918401908083835b6020831062002b155780518252601f19909201916020918201910162002af4565b6001836020036101000a0380198251168184511680821785525050505050509050019150506000604051808303816000865af19150503d806000811462002b79576040519150601f19603f3d011682016040523d82523d6000602084013e62002b7e565b606091505b50909250905060018215151462002bca57604051600160e51b62461bcd02815260040180806020018281038252603181526020018062004bb66031913960400191505060405180910390fd5b7f78bddb8c74a05d607fbcdca8496ef69626f149ac88c51c01de94ece203ecedf58460008151811062002bf957fe5b60200260200101518660405180836001600160a01b03166001600160a01b031681526020018281526020019250505060405180910390a1505062002dcb565b600082826001809054906101000a900461ffff168660405162002c5b9062003c30565b61ffff831660408201526060810182905260808082528551908201528451819060208083019160a0840191898101910280838360005b8381101562002cab57818101518382015260200162002c91565b50505050905001838103825286818151815260200191508051906020019060200280838360005b8381101562002cec57818101518382015260200162002cd2565b505050509050019650505050505050604051809103906000f08015801562002d18573d6000803e3d6000fd5b50905062002d2562003c3e565b506040805180820182526001600160a01b038084168083526001805461ffff610100918290048116602080880191825260008d8152601082528990208851815498166001600160a01b0319909816979097178755905195840195909555915486519384529383018a905290920490911681840152915190917f23668c75fbef183e32b862658de53e41985d0847fc250c35ead0fd761662fdf1919081900360600190a150505b505050565b60035481565b6013546001600160a01b03165b90565b6013546001600160a01b0316331490565b62002e0162002de6565b62002e0b57600080fd5b8583828760ff8416158062002e2357508360ff166001145b62002e6357604051600160e51b62461bcd02815260040180806020018281038252602e81526020018062004b06602e913960400191505060405180910390fd5b81831462002ea657604051600160e51b62461bcd0281526004018080602001828103825260458152602001806200495b6045913960600191505060405180910390fd5b60008181526011602052604090205460ff161562002ef957604051600160e51b62461bcd02815260040180806020018281038252602f81526020018062004aab602f913960400191505060405180910390fd5b60ff841662002f4c578260011462002f4657604051600160e51b62461bcd02815260040180806020018281038252603981526020018062004c136039913960400191505060405180910390fd5b62002f9d565b8360ff166001141562002f9d576001831162002f9d57604051600160e51b62461bcd028152600401808060200182810382526040815260200180620049eb6040913960400191505060405180910390fd5b6000898152600f602052604090205460ff161562002ff057604051600160e51b62461bcd02815260040180806020018281038252602181526020018062004d796021913960400191505060405180910390fd5b6000898152600f60209081526040808320805460ff1916600117905580518883028181018401909252888152620030459290918a918a918291850190849080828437600092019190915250620038d592505050565b905060ff8b16620031f1578060045410156200309657604051600160e51b62461bcd02815260040180806020018281038252602c81526020018062004ccb602c913960400191505060405180910390fd5b600454620030ab908263ffffffff6200391f16565b600455620030be878760008162000c1f57fe5b600d60008b8b6000818110620030d057fe5b905060200201356001600160a01b03166001600160a01b03166001600160a01b031681526020019081526020016000206000805481526020019081526020016000208190555062003193878760008181106200312857fe5b90506020020135600e60008c8c60008181106200314157fe5b905060200201356001600160a01b03166001600160a01b03166001600160a01b031681526020019081526020016000206000805481526020019081526020016000205462003a2d90919063ffffffff16565b600e60008b8b6000818110620031a557fe5b905060200201356001600160a01b03166001600160a01b03166001600160a01b031681526020019081526020016000206000805481526020019081526020016000208190555062003346565b8a60ff166001141562003346578060055410156200324457604051600160e51b62461bcd02815260040180806020018281038252602c81526020018062004ada602c913960400191505060405180910390fd5b60055462003259908263ffffffff6200391f16565b60055560005b8881101562003344576200327988888381811062000d7057fe5b600b60008c8c858181106200328a57fe5b905060200201356001600160a01b03166001600160a01b03166001600160a01b0316815260200190815260200160002060008054815260200190815260200160002081905550620032f9888883818110620032e157fe5b90506020020135600e60008d8d868181106200314157fe5b600e60008c8c858181106200330a57fe5b602090810292909201356001600160a01b03168352508181019290925260409081016000908120815482529092529020556001016200325f565b505b60065460145460408051600160e11b636eb1769f0281523060048201526001600160a01b0392831660248201529051600093929092169163dd62ed3e91604480820192602092909190829003018186803b158015620033a457600080fd5b505afa158015620033b9573d6000803e3d6000fd5b505050506040513d6020811015620033d057600080fd5b505160065460145460408051600160e01b63095ea7b30281526001600160a01b0392831660048201526000602482018190529151949550919092169263095ea7b392604480840193602093929083900390910190829087803b1580156200343657600080fd5b505af11580156200344b573d6000803e3d6000fd5b505050506040513d60208110156200346257600080fd5b50506006546014546001600160a01b039182169163095ea7b391166200348f848663ffffffff62003a2d16565b6040518363ffffffff1660e01b815260040180836001600160a01b03166001600160a01b0316815260200182815260200192505050602060405180830381600087803b158015620034df57600080fd5b505af1158015620034f4573d6000803e3d6000fd5b505050506040513d60208110156200350b57600080fd5b50506014546040516000916060916001600160a01b039091169080602c62004be78239602c0190506040518091039020600960009054906101000a90046001600160a01b03168f8760025460405160200180866001600160e01b0319166001600160e01b0319168152602001856001600160a01b03166001600160a01b03168152602001848152602001838152602001828152602001955050505050506040516020818303038152906040526040518082805190602001908083835b60208310620035e85780518252601f199092019160209182019101620035c7565b6001836020036101000a0380198251168184511680821785525050505050509050019150506000604051808303816000865af19150503d80600081146200364c576040519150601f19603f3d011682016040523d82523d6000602084013e62003651565b606091505b509092509050600182151514620036b25760408051600160e51b62461bcd02815260206004820152601660248201527f436f756c64206e6f742062696420666f72204c414e4400000000000000000000604482015290519081900360640190fd5b600254604080518f81526020810187905280820192909252517fc6974514421d914ce9c35eb01633882b1894a22836846b73e501cc1d3da491839181900360600190a15050505050505050505050505050565b6200370f62002de6565b6200371957600080fd5b600081116200375d57604051600160e51b62461bcd02815260040180806020018281038252602581526020018062004d2b6025913960400191505060405180910390fd5b600255565b600154610100900461ffff1681565b60005481565b6001600160a01b03919091166000908152600e60209081526040808320938352929052205490565b600c5460408051828152602080840282010190915260609182918290828015620037d3578160200160208202803883390190505b50905060608260405190808252806020026020018201604052801562003803578160200160208202803883390190505b50905060005b83811015620038a8576000600c82815481106200382257fe5b60009182526020808320909101546001600160a01b0316808352600b825260408084208454855290925291205485519192509082908690859081106200386457fe5b60200260200101906001600160a01b031690816001600160a01b031681525050808484815181106200389257fe5b6020908102919091010152505060010162003809565b509093509150509091565b620038bd62002de6565b620038c757600080fd5b620038d28162003ac1565b50565b600080805b835181101562003918576200390d848281518110620038f557fe5b60200260200101518362003a2d90919063ffffffff16565b9150600101620038da565b5092915050565b6000828211156200392f57600080fd5b50900390565b600c5460005b8181101562002dcb57826001600160a01b0316600c82815481106200395c57fe5b6000918252602090912001546001600160a01b0316141562003a2457600c60018303815481106200398957fe5b600091825260209091200154600c80546001600160a01b039092169183908110620039b057fe5b9060005260206000200160006101000a8154816001600160a01b0302191690836001600160a01b03160217905550600c6001830381548110620039ef57fe5b600091825260209091200180546001600160a01b0319169055600c80549062003a1d90600019830162003c55565b5062002dcb565b6001016200393b565b60008282018381101562003a4057600080fd5b9392505050565b6001600160a01b0381166000908152600b6020908152604080832083548452909152902054620038d257600c80546001810182556000919091527fdf6966c971051c3d54ec59162606531493a51404a002842f56009d7e5cf4a8c70180546001600160a01b0383166001600160a01b031990911617905550565b6001600160a01b03811662003ad557600080fd5b6013546040516001600160a01b038084169216907f8be0079c531659141344cd1fd0a4f28419497f9722a3daafe3b4186f6b6457e090600090a3601380546001600160a01b0319166001600160a01b0392909216919091179055565b828054600181600116156101000203166002900490600052602060002090601f016020900481019282601f1062003b7457805160ff191683800117855562003ba4565b8280016001018555821562003ba4579182015b8281111562003ba457825182559160200191906001019062003b87565b5062003bb292915062003c77565b5090565b828054600181600116156101000203166002900490600052602060002090601f016020900481019282601f1062003bf1578054855562003ba4565b8280016001018555821562003ba457600052602060002091601f016020900482015b8281111562003ba457825482559160010191906001019062003c13565b610cc68062003c9583390190565b604080518082019091526000808252602082015290565b81548183558181111562002dcb5760008381526020902062002dcb9181019083015b62002de391905b8082111562003bb2576000815560010162003c7e56fe60806040523480156200001157600080fd5b5060405162000cc638038062000cc6833981018060405260808110156200003757600080fd5b8101908080516401000000008111156200005057600080fd5b820160208101848111156200006457600080fd5b81518560208202830111640100000000821117156200008257600080fd5b505092919060200180516401000000008111156200009f57600080fd5b82016020810184811115620000b357600080fd5b8151856020820283011164010000000082111715620000d157600080fd5b505060208083015160409093015191945091925090620000f790339062000290811b901c565b825184511462000153576040517f08c379a000000000000000000000000000000000000000000000000000000000815260040180806020018281038252602b81526020018062000c9b602b913960400191505060405180910390fd5b6000805b84518210156200019d576200018f8583815181106200017257fe5b602002602001015182620002e260201b620005a91790919060201c565b600190920191905062000157565b6000915081805b8751841015620002825782878581518110620001bc57fe5b602002602001015160640281620001cf57fe5b049050600188510384141562000216576200020c888581518110620001f057fe5b6020026020010151838803620002fc60201b620003521760201c565b5085915062000271565b6200024e8885815181106200022757fe5b60200260200101516064888402816200023c57fe5b04620002fc60201b620003521760201c565b506200026e60648288020483620002e260201b620005a91790919060201c565b91505b6007859055600190930192620001a4565b50505050505050506200049c565b620002ab8160036200033460201b6200072f1790919060201c565b6040516001600160a01b038216907f6ae172837ea30b801fbfcdd4108aa1d5bf8ff775444fd70256b44e6bf3dfc3f690600090a250565b600082820183811015620002f557600080fd5b9392505050565b60006200030f336200038a60201b60201c565b6200031957600080fd5b6200032b8383620003ad60201b60201c565b50600192915050565b6001600160a01b0381166200034857600080fd5b6200035a82826200046660201b60201c565b156200036557600080fd5b6001600160a01b0316600090815260209190915260409020805460ff19166001179055565b6000620003a78260036200046660201b620006fa1790919060201c565b92915050565b6001600160a01b038216620003c157600080fd5b620003dd81600254620002e260201b620005a91790919060201c565b6002556001600160a01b0382166000908152602081815260409091205462000410918390620005a9620002e2821b17901c565b6001600160a01b0383166000818152602081815260408083209490945583518581529351929391927fddf252ad1be2c89b69c2b068fc378daa952ba7f163c4a11628f55a4df523b3ef9281900390910190a35050565b60006001600160a01b0382166200047c57600080fd5b506001600160a01b03166000908152602091909152604090205460ff1690565b6107ef80620004ac6000396000f3fe608060405234801561001057600080fd5b50600436106100b45760003560e01c8063983b2d5611610071578063983b2d56146101c757806398650275146101ef578063a457c2d7146101f7578063a9059cbb14610223578063aa271e1a1461024f578063dd62ed3e14610275576100b4565b8063095ea7b3146100b957806318160ddd146100f957806323b872dd14610113578063395093511461014957806340c10f191461017557806370a08231146101a1575b600080fd5b6100e5600480360360408110156100cf57600080fd5b506001600160a01b0381351690602001356102a3565b604080519115158252519081900360200190f35b6101016102b9565b60408051918252519081900360200190f35b6100e56004803603606081101561012957600080fd5b506001600160a01b038135811691602081013590911690604001356102bf565b6100e56004803603604081101561015f57600080fd5b506001600160a01b038135169060200135610316565b6100e56004803603604081101561018b57600080fd5b506001600160a01b038135169060200135610352565b610101600480360360208110156101b757600080fd5b50356001600160a01b0316610370565b6101ed600480360360208110156101dd57600080fd5b50356001600160a01b031661038b565b005b6101ed6103a9565b6100e56004803603604081101561020d57600080fd5b506001600160a01b0381351690602001356103b4565b6100e56004803603604081101561023957600080fd5b506001600160a01b0381351690602001356103f0565b6100e56004803603602081101561026557600080fd5b50356001600160a01b03166103fd565b6101016004803603604081101561028b57600080fd5b506001600160a01b0381358116916020013516610416565b60006102b0338484610441565b50600192915050565b60025490565b60006102cc8484846104c9565b6001600160a01b03841660009081526001602090815260408083203380855292529091205461030c918691610307908663ffffffff61059416565b610441565b5060019392505050565b3360008181526001602090815260408083206001600160a01b038716845290915281205490916102b0918590610307908663ffffffff6105a916565b600061035d336103fd565b61036657600080fd5b6102b083836105c2565b6001600160a01b031660009081526020819052604090205490565b610394336103fd565b61039d57600080fd5b6103a68161066a565b50565b6103b2336106b2565b565b3360008181526001602090815260408083206001600160a01b038716845290915281205490916102b0918590610307908663ffffffff61059416565b60006102b03384846104c9565b600061041060038363ffffffff6106fa16565b92915050565b6001600160a01b03918216600090815260016020908152604080832093909416825291909152205490565b6001600160a01b03821661045457600080fd5b6001600160a01b03831661046757600080fd5b6001600160a01b03808416600081815260016020908152604080832094871680845294825291829020859055815185815291517f8c5be1e5ebec7d5bd14f71427d1e84f3dd0314c0f7b2291e5b200ac8c7c3b9259281900390910190a3505050565b6001600160a01b0382166104dc57600080fd5b6001600160a01b038316600090815260208190526040902054610505908263ffffffff61059416565b6001600160a01b03808516600090815260208190526040808220939093559084168152205461053a908263ffffffff6105a916565b6001600160a01b038084166000818152602081815260409182902094909455805185815290519193928716927fddf252ad1be2c89b69c2b068fc378daa952ba7f163c4a11628f55a4df523b3ef92918290030190a3505050565b6000828211156105a357600080fd5b50900390565b6000828201838110156105bb57600080fd5b9392505050565b6001600160a01b0382166105d557600080fd5b6002546105e8908263ffffffff6105a916565b6002556001600160a01b038216600090815260208190526040902054610614908263ffffffff6105a916565b6001600160a01b0383166000818152602081815260408083209490945583518581529351929391927fddf252ad1be2c89b69c2b068fc378daa952ba7f163c4a11628f55a4df523b3ef9281900390910190a35050565b61067b60038263ffffffff61072f16565b6040516001600160a01b038216907f6ae172837ea30b801fbfcdd4108aa1d5bf8ff775444fd70256b44e6bf3dfc3f690600090a250565b6106c360038263ffffffff61077b16565b6040516001600160a01b038216907fe94479a9f7e1952cc78f2d6baab678adc1b772d936c6583def489e524cb6669290600090a250565b60006001600160a01b03821661070f57600080fd5b506001600160a01b03166000908152602091909152604090205460ff1690565b6001600160a01b03811661074257600080fd5b61074c82826106fa565b1561075657600080fd5b6001600160a01b0316600090815260209190915260409020805460ff19166001179055565b6001600160a01b03811661078e57600080fd5b61079882826106fa565b6107a157600080fd5b6001600160a01b0316600090815260209190915260409020805460ff1916905556fea165627a7a72305820f0e75904ad652a99524421f582e4337cb511a6b3d000df6a5d19b2dba93dec8c00295468652074776f2061727261797320646f206e6f742068617665207468652073616d65206c656e6774687354686520696e766573746f727320616e64205f616d6f756e7473496e7665737465642061727261797320646f206e6f742068617665207468652073616d65206c656e6774685468652061727261797320646f206e6f7420686176652076616c6964206c656e677468735f6e6f416374696f6e43616e63656c41667465722068617320746f20626520706f7369746976655769746820612073706c697420696e766573746d656e74207468657265206e6565647320746f206265206d6f7265207468616e206f6e6520696e766573746f72596f7520646f206e6f7420686176652074686174206d756368204d414e4120746f206465706f736974436f756c64206e6f74207472616e736665722066756e647320696e207468652077697468647261772066756e6374696f6e546865204c414e44206973206e6f74206f776e6564206279207468697320636f6e7472616374546865206c616e642073706563696669656420697320616c7265616479206f776e6564206279207468652062616e6b546865206973206e6f7420656e6f756768204d414e4120666f722073706c697420696e766573746d656e747354686520696e766573746d656e742074797065206e6565647320746f206265206265747765656e20626f756e6473596f7520646f206e6f7420686176652074686174206d756368204d414e4120666f722077686f6c6520696e766573746d656e7473596f75206e656564206120706f736974697665206e756d626572206f66206c616e642073706c6974735468652062696420706f736974696f6e206973206e6f742077697468696e20626f756e6473436f756c64206e6f74207472616e73666572207468652077686f6c65204c414e4420746f2074686520696e766573746f72706c61636542696428616464726573732c2075696e743235362c2075696e743235362c2075696e74323536295769746820612077686f6c6520696e766573746d656e74207468657265206e6565647320746f206265206f6e6c79203120696e766573746f724e6f7420656e6f7567682074696d652077656e742062792073696e636520746865206372656174696f6e206f6620746865206269645468652062616c616e63652074797065206e6565647320746f2062652030206f7220317472616e7366657246726f6d28616464726573732c20616464726573732c2075696e7432353629546865206973206e6f7420656e6f756768204d414e4120666f722077686f6c6520696e766573746d656e7473596f7520646f206e6f7420686176652074686174206d756368204d414e4120666f722073706c697420696e766573746d656e747354686520626964206475726174696f6e206e6565647320746f20626520706f736974697665596f75206e656564206120706f736974697665206e756d626572206f66206c616e64206f776e65727354686973204c414e4420697320616c7265616479206265696e6720626964206f6ea165627a7a72305820df9987e2541759e9b00bf456e0cd6f29cdbedf42131fb881089fd38a30db160400295f6e6f416374696f6e43616e63656c41667465722068617320746f20626520706f736974697665596f75206e656564206120706f736974697665206e756d626572206f66206c616e642073706c69747354686520626964206475726174696f6e206e6565647320746f20626520706f736974697665596f75206e656564206120706f736974697665206e756d626572206f66206c616e64206f776e657273",
  "source": "pragma solidity 0.5.7;\n\nimport \"openzeppelin-solidity/contracts/ownership/Ownable.sol\";\nimport \"openzeppelin-solidity/contracts/utils/Address.sol\";\nimport \"openzeppelin-solidity/contracts/math/SafeMath.sol\";\n\n//import \"../interfaces/IBid.sol\";\nimport \"../investing/SplitLand.sol\";\nimport \"../interfaces/IBank.sol\";\nimport \"../interfaces/decentraland/IMarketplace.sol\";\n\ncontract Bank is IBank, Ownable {\n\n  using SafeMath for uint256;\n  using SafeMath for int256;\n  using Address for address;\n\n  //IBid decentralandBid;\n\n  address decentralandBid;\n\n  bytes nullBytes = bytes(\"0\");\n  /**\n   * @dev Magic value to be returned upon successful reception of an NFT\n   *  Equals to `bytes4(keccak256(\"onERC721Received(address,address,uint256,bytes)\"))`\n   */\n  bytes4 constant ERC721_RECEIVED = 0xf0b9e5ba;\n\n  modifier checkBeforeBuying(uint8 investmentType,\n    uint256 investorsLength,\n    uint256 amountsInvestedLength,\n    uint256 landId) {\n\n    require(investmentType == 0 || investmentType == 1, \"The investment type needs to be between bounds\");\n    require(investorsLength == amountsInvestedLength,\n      \"The investors and _amountsInvested arrays do not have the same length\");\n    require(landIsInBank[landId] == false, \"The land specified is already owned by the bank\");\n\n    if (investmentType == 0) {\n\n      require(investorsLength == 1,\n        \"With a whole investment there needs to be only 1 investor\");\n\n    } else if (investmentType == 1) {\n\n      require(investorsLength > 1,\n        \"With a split investment there needs to be more than one investor\");\n\n    }\n\n    _;\n\n  }\n\n  modifier onlyOngoingBid(uint256 bidPosition) {\n\n    require(bidPosition < bids.length,\n      \"The bid position is not within bounds\");\n\n    require(bids[bidPosition].bidStatus == uint8(BID_RESULT.ONGOING),\n      \"The bid is not ongoing\");\n\n    _;\n\n  }\n\n  constructor(\n    string memory _manaTicker,\n    uint8 _maxLandOwners,\n    uint16 _max_land_splits,\n    uint256 _maxBidDuration,\n    uint256 _noActionCancelAfter,\n    address _addressManaToken,\n    address _addressMarketplace,\n    address _addressLandToken,\n    address _addressDecentralandBid,\n    address _addressLandRegistry\n  ) public {\n\n    require(_maxLandOwners > 0, \"You need a positive number of land owners\");\n    require(_max_land_splits > 0, \"You need a positive number of land splits\");\n    require(_maxBidDuration > 0, \"The bid duration needs to be positive\");\n    require(_noActionCancelAfter > 0, \"_noActionCancelAfter has to be positive\");\n\n    MANA = keccak256(abi.encode(_manaTicker) );\n    MAX_LAND_OWNERS = _maxLandOwners;\n    MAX_LAND_SPLITS = _max_land_splits;\n    BID_DURATION = _maxBidDuration;\n    NO_ACTION_CANCEL_BID_AFTER = _noActionCancelAfter;\n    manaToken = IERC20(_addressManaToken);\n    marketplace = Marketplace(_addressMarketplace);\n    landAddress = _addressLandToken;\n    decentralandBid = _addressDecentralandBid;\n    landRegistry = _addressLandRegistry;\n    //decentralandBid = IBid(_decentralandBid);\n\n\n  }\n\n  function changeMaxLandOwners(uint8 maxLandOwners) external onlyOwner {\n\n    require(maxLandOwners > 0, \"You need a positive number of land owners\");\n\n    MAX_LAND_OWNERS = maxLandOwners;\n\n  }\n\n  function changeMaxLandSplits(uint16 max_land_splits) external onlyOwner {\n\n    require(max_land_splits > 0, \"You need a positive number of land splits\");\n\n    MAX_LAND_SPLITS = max_land_splits;\n\n  }\n\n  function changeBidDuration(uint256 maxBidDuration) external onlyOwner {\n\n    require(maxBidDuration > 0, \"The bid duration needs to be positive\");\n\n    BID_DURATION = maxBidDuration;\n\n  }\n\n  function changeNoActionCancelTime(uint256 _noActionCancelAfter) external onlyOwner {\n\n    require(_noActionCancelAfter > 0, \"_noActionCancelAfter has to be positive\");\n\n    NO_ACTION_CANCEL_BID_AFTER = _noActionCancelAfter;\n\n  }\n\n  function addSplitInvestor(address investor) internal {\n\n    if (splitBalances[investor][MANA] == 0) {\n\n      splitBalancesIndices.push(investor);\n\n    }\n\n  }\n\n  function removeSplitInvestor(address investor) internal {\n\n    uint length = splitBalancesIndices.length;\n\n    for (uint i = 0; i < length; i++) {\n\n      if(splitBalancesIndices[i] == investor){\n\n        splitBalancesIndices[i] = splitBalancesIndices[length - 1];\n        delete splitBalancesIndices[length - 1];\n        splitBalancesIndices.length--;\n        break;\n\n      }\n\n    }\n\n\n  }\n\n  function bidForLand(\n    uint8 investmentType,\n    uint256 landId,\n    address[] calldata investors,\n    uint256[] calldata _amountsInvested)\n  external\n  onlyOwner\n  checkBeforeBuying(investmentType, investors.length,\n    _amountsInvested.length, landId) {\n\n    require(beingBid[landId] == false, \"This LAND is already being bid on\");\n\n    beingBid[landId] = true;\n\n    uint256 totalToInvest = computeTotalInvested(_amountsInvested);\n\n    if (investmentType == 0) {\n\n      require(wholeLandMANAFunds >= totalToInvest,\n        \"The is not enough MANA for whole investments\");\n\n      wholeLandMANAFunds = wholeLandMANAFunds.sub(totalToInvest);\n\n      wholeBalances[investors[0]][MANA] =\n      wholeBalances[investors[0]][MANA].sub(_amountsInvested[0]);\n\n      lockedForBidding[investors[0]][MANA] =\n      lockedForBidding[investors[0]][MANA].add(_amountsInvested[0]);\n\n    } else if (investmentType == 1) {\n\n      require(splitLandMANAFunds >= totalToInvest,\n        \"The is not enough MANA for split investments\");\n\n      splitLandMANAFunds = splitLandMANAFunds.sub(totalToInvest);\n\n      for (uint j = 0; j < investors.length; j++) {\n\n        splitBalances[investors[j]][MANA] =\n        splitBalances[investors[j]][MANA].sub(_amountsInvested[j]);\n\n        lockedForBidding[investors[j]][MANA] =\n        lockedForBidding[investors[j]][MANA].add(_amountsInvested[j]);\n\n      }\n\n    }\n\n    uint256 currentlyApproved =\n    manaToken.allowance(address(this), decentralandBid);\n\n    //Mitigate front-running\n    manaToken.approve(decentralandBid, 0);\n\n    //Allow the bid contract to get MANA from this contract\n    manaToken.approve(decentralandBid,\n      currentlyApproved.add(totalToInvest));\n\n    bool status;\n    bytes memory result;\n\n    //Call the executeOrder function from the marketplace\n    (status, result) = decentralandBid.call(\n      abi.encode(\n        bytes4(keccak256(\"placeBid(address, uint256, uint256, uint256)\")),\n        landAddress,\n        landId,\n        totalToInvest,\n        BID_DURATION));\n\n    /*decentralandBid.placeBid(\n      landAddress,\n      landId,\n      totalToInvest,\n      BID_DURATION\n    );*/\n\n    require(status == true, \"Could not bid for LAND\");\n\n    //    bytes memory encodedInvestors =\n    //    abi.encode(investors, _amountsInvested);\n    //\n    //    BidData memory newBid =\n    //    BidData(encodedInvestors, landId, now, uint8(BID_RESULT.ONGOING));\n    //\n    //    bids.push(newBid);\n\n    emit ProcessedBid(landId, totalToInvest, BID_DURATION);\n\n  }\n\n  function directBuyLand(\n    uint8 _investmentType,\n    uint256 _landId,\n    address[] calldata _investors,\n    uint256[] calldata _amountsInvested\n  ) external onlyOwner checkBeforeBuying(_investmentType, _investors.length, _amountsInvested.length, _landId) {\n\n    uint256 totalToInvest = computeTotalInvested(_amountsInvested);\n\n    if (_investmentType == 0) {\n\n      require(wholeLandMANAFunds >= totalToInvest,\n        \"The is not enough MANA for whole investments\");\n\n      wholeLandMANAFunds = wholeLandMANAFunds.sub(totalToInvest);\n\n      wholeBalances[_investors[0]][MANA] = wholeBalances[_investors[0]][MANA].sub(_amountsInvested[0]);\n\n    } else if (_investmentType == 1) {\n\n      require(splitLandMANAFunds >= totalToInvest,\n        \"The is not enough MANA for split investments\");\n\n      splitLandMANAFunds = splitLandMANAFunds.sub(totalToInvest);\n\n      for (uint j = 0; j < _investors.length; j++) {\n\n        splitBalances[_investors[j]][MANA] = splitBalances[_investors[j]][MANA].sub(_amountsInvested[j]);\n\n        if(splitBalances[_investors[j]][MANA] == 0){\n\n          removeSplitInvestor(_investors[j]);\n\n        }\n\n      }\n\n    }\n\n    // Mitigate front-running\n    manaToken.approve(address(marketplace), 0);\n\n    // Allow the bank contract to get MANA from this contract\n    manaToken.approve(address(marketplace), totalToInvest);\n\n    // Call the executeOrder from the marketplace\n    marketplace.executeOrder(landAddress, _landId, totalToInvest);\n\n    landIsInBank[_landId] = true;\n\n    bytes memory encodedInvestors = abi.encode(_investors, _amountsInvested);\n\n    unassignedLand[_landId] = encodedInvestors;\n\n    assignLand(_landId);\n    emit BoughtLand(_landId);\n\n  }\n\n  function assignLand(uint256 unassignedLandId) public onlyOwner {\n\n    require(keccak256(unassignedLand[unassignedLandId]) != keccak256(nullBytes),\n      \"This land was already assigned\");\n\n    require(landIsInBank[unassignedLandId] == true, \"The LAND is not owned by this contract\");\n\n    address[] memory investors;\n    uint256[] memory money;\n\n    (investors, money) =\n    abi.decode(unassignedLand[unassignedLandId],\n      (address[], uint256[]));\n\n    require(investors.length >= 1\n    && money.length >= 1\n    && money.length == investors.length,\n      \"The arrays do not have valid lengths\");\n\n    unassignedLand[unassignedLandId] = nullBytes;\n\n    if (investors.length == 1) {\n\n      landIsInBank[unassignedLandId] = false;\n\n      bool status;\n      bytes memory result;\n\n      //Call the executeOrder function from the marketplace\n      (status, result) = landRegistry.call(\n        abi.encode(\n          bytes4(keccak256(\"transferFrom(address, address, uint256)\")),\n          address(this),\n          investors[0],\n          unassignedLandId));\n\n      require(status == true, \"Could not transfer the whole LAND to the investor\");\n\n      emit TransferredUnassignedLand(investors[0], unassignedLandId);\n\n    } else {\n\n      ISplitLand newSplitLand = new SplitLand(investors, money, MAX_LAND_SPLITS, unassignedLandId);\n\n      Land memory newLandData = Land(newSplitLand, MAX_LAND_SPLITS);\n\n      landDetails[unassignedLandId] = newLandData;\n\n      emit SplitUnassignedLand(address(newSplitLand), unassignedLandId, MAX_LAND_SPLITS);\n\n    }\n\n  }\n\n  function depositMANA(uint8 _balanceType, address _target, uint256 _amount) external {\n\n    require(manaToken.balanceOf(msg.sender) >= _amount,\n      \"You do not have that much MANA to deposit\");\n\n    require(_balanceType == 0 || _balanceType == 1, \"The balance type needs to be 0 or 1\");\n\n    manaToken.transferFrom(msg.sender, address(this), _amount);\n\n    if (_balanceType == 0) {\n\n      wholeBalances[_target][MANA] = wholeBalances[_target][MANA].add(_amount);\n\n      wholeLandMANAFunds = wholeLandMANAFunds.add(_amount);\n\n    } else {\n\n      addSplitInvestor(_target);\n      splitBalances[_target][MANA] = splitBalances[_target][MANA].add(_amount);\n\n      splitLandMANAFunds = splitLandMANAFunds.add(_amount);\n\n    }\n\n    emit DepositedMANA(_balanceType, msg.sender, _target, _amount);\n\n  }\n\n  function withdrawMANA(uint8 _balanceType, uint256 _amount) external {\n\n    require(_balanceType == 0 || _balanceType == 1, \"The balance type needs to be 0 or 1\");\n\n    if (_balanceType == 0) {\n\n      require(wholeBalances[msg.sender][MANA] >= _amount,\n        \"You do not have that much MANA for whole investments\");\n\n      wholeBalances[msg.sender][MANA] = wholeBalances[msg.sender][MANA].sub(_amount);\n\n      wholeLandMANAFunds = wholeLandMANAFunds.sub(_amount);\n\n    } else {\n\n      require(splitBalances[msg.sender][MANA] >= _amount,\n        \"You do not have that much MANA for split investments\");\n\n      splitBalances[msg.sender][MANA] = splitBalances[msg.sender][MANA].sub(_amount);\n\n      splitLandMANAFunds = splitLandMANAFunds.sub(_amount);\n\n      if(splitBalances[msg.sender][MANA] == 0){\n\n        removeSplitInvestor(msg.sender);\n\n      }\n\n    }\n\n    require(manaToken.transfer(msg.sender, _amount) == true,\n      \"Could not transfer funds in the withdraw function\");\n\n    emit WithdrewMANA(_balanceType, msg.sender, _amount);\n\n  }\n\n  function registerBidResult(\n    uint8 result,\n    uint256 bidPosition)\n  external onlyOngoingBid(bidPosition) {\n\n    require(result <= 3 && result > 0, \"The result is not within bounds\");\n\n    bids[bidPosition].bidStatus = result;\n\n    address[] memory investors;\n    uint256[] memory money;\n\n    (investors, money) =\n    abi.decode(bids[bidPosition].bidData,\n      (address[], uint256[]));\n\n    if (result == uint8(BID_RESULT.CANCELLED) ||\n    result == uint8(BID_RESULT.FAILED)) {\n\n      if (investors.length == 1) {\n\n        lockedForBidding[investors[0]][MANA] =\n        lockedForBidding[investors[0]][MANA].sub(money[0]);\n\n        wholeBalances[investors[0]][MANA] =\n        wholeBalances[investors[0]][MANA].add(money[0]);\n\n      } else {\n\n        for (uint i = 0; i < investors.length; i++) {\n\n          lockedForBidding[investors[i]][MANA] =\n          lockedForBidding[investors[i]][MANA].sub(money[i]);\n\n          splitBalances[investors[i]][MANA] =\n          splitBalances[investors[i]][MANA].add(money[i]);\n\n        }\n\n      }\n\n    } else if (result == uint8(BID_RESULT.SUCCESSFUL)) {\n\n      for (uint i = 0; i < investors.length; i++) {\n\n        lockedForBidding[investors[i]][MANA] =\n        lockedForBidding[investors[i]][MANA].sub(money[i]);\n\n      }\n\n      landIsInBank[bids[bidPosition].landId] = false;\n\n      unassignedLand[bids[bidPosition].landId] = bids[bidPosition].bidData;\n\n    }\n\n    beingBid[bids[bidPosition].landId] = false;\n\n    emit RegisteredBidResult(result, bidPosition);\n\n  }\n\n  function generalSplitLand(\n    uint256 _tokenId,\n    uint256 landParts)\n  external {\n\n\n\n  }\n\n  function reconstructLand(\n    uint256 id,\n    address reconstructedLandReceiver)\n  external {\n\n\n\n  }\n\n  function cancelBidAfterNoAction(\n    uint256 bidPosition\n  ) external onlyOngoingBid(bidPosition) {\n\n    require(bids[bidPosition].creationTimestamp\n    + NO_ACTION_CANCEL_BID_AFTER * 1 seconds < now,\n      \"Not enough time went by since the creation of the bid\");\n\n    bids[bidPosition].bidStatus = uint8(BID_RESULT.CANCELLED);\n\n    address[] memory investors;\n    uint256[] memory money;\n\n    (investors, money) =\n    abi.decode(bids[bidPosition].bidData,\n      (address[], uint256[]));\n\n    if (investors.length == 1) {\n\n      lockedForBidding[investors[0]][MANA] =\n      lockedForBidding[investors[0]][MANA].sub(money[0]);\n\n      wholeBalances[investors[0]][MANA] =\n      wholeBalances[investors[0]][MANA].add(money[0]);\n\n    } else {\n\n      for (uint i = 0; i < investors.length; i++) {\n\n        lockedForBidding[investors[i]][MANA] =\n        lockedForBidding[investors[i]][MANA].sub(money[i]);\n\n        splitBalances[investors[i]][MANA] =\n        splitBalances[investors[i]][MANA].add(money[i]);\n\n      }\n\n    }\n\n    beingBid[bids[bidPosition].landId] = false;\n\n  }\n\n  //PRIVATE\n\n  function computeTotalInvested(uint256[] memory _amountsInvested) private pure returns (uint256) {\n\n    uint256 totalToInvest = 0;\n\n    for (uint i = 0; i < _amountsInvested.length; i++) {\n\n      totalToInvest = totalToInvest.add(_amountsInvested[i]);\n\n    }\n\n    return totalToInvest;\n\n  }\n\n  //GETTERS\n\n  function getSplitInvestorsData() public view returns (address[] memory investorsAddress, uint256[] memory amountInvested) {\n\n    uint length = splitBalancesIndices.length;\n\n    address[] memory investorsAddress = new address[](length);\n    uint256[] memory amountInvested = new uint256[](length);\n\n    for (uint i = 0; i < length; i++) {\n\n      address investor = splitBalancesIndices[i];\n      uint256 balance = splitBalances[investor][MANA];\n      investorsAddress[i] = investor;\n      amountInvested[i] = balance;\n\n    }\n\n    return (investorsAddress, amountInvested);\n\n  }\n\n  function getLandTokenSplitAddress(\n    uint256 landID\n  ) public view returns (address) {\n\n    return address(landDetails[landID].splitLandToken);\n\n  }\n\n  function getDepositedLandParts(\n    uint256 landID\n  ) public view returns (uint256) {\n\n    return landDetails[landID].parts;\n\n  }\n\n  function getSplitBalance(\n    address who,\n    bytes32 hashedCoinTicker\n  ) public view returns (uint256) {\n\n    return splitBalances[who][hashedCoinTicker];\n\n  }\n\n  function getWholeBalance(\n    address who,\n    bytes32 hashedCoinTicker\n  ) public view returns (uint256) {\n\n    return wholeBalances[who][hashedCoinTicker];\n\n  }\n\n  function getLockedFunds(\n    address who,\n    bytes32 coinTicker\n  ) public view returns (uint256) {\n\n    return lockedForBidding[who][coinTicker];\n\n  }\n\n  function landIsBeingBid(\n    uint256 landId\n  ) public view returns (bool) {\n\n    return beingBid[landId];\n\n  }\n\n  function getBidInvestorData(\n    uint256 position\n  ) public view returns (bytes memory) {\n\n    return bids[position].bidData;\n\n  }\n\n  function getBidStatus(\n    uint256 position\n  ) public view returns (uint8) {\n\n    return bids[position].bidStatus;\n\n  }\n\n  function onERC721Received(\n    address _operator,\n    address _from,\n    uint256 _tokenId,\n    bytes memory _data\n  ) public returns (bytes4) {\n\n    return ERC721_RECEIVED;\n\n  }\n\n}\n",
  "sourcePath": "/Users/jules/WebstormProjects/RobInTheHood/chain/bankContracts/contracts/investing/Bank.sol",
  "compiler": {
    "name": "solc",
    "version": "0.5.7+commit.6da8b019.Emscripten.clang"
  },
  "schemaVersion": "3.0.1",
  "updatedAt": "2019-04-27T09:03:12.121Z",
  "devdoc": {
    "methods": {
      "isOwner()": {
        "return": "true if `msg.sender` is the owner of the contract."
      },
      "owner()": {
        "return": "the address of the owner."
      },
      "renounceOwnership()": {
        "details": "Allows the current owner to relinquish control of the contract. It will not be possible to call the functions with the `onlyOwner` modifier anymore."
      },
      "transferOwnership(address)": {
        "details": "Allows the current owner to transfer control of the contract to a newOwner.",
        "params": {
          "newOwner": "The address to transfer ownership to."
        }
      }
    }
  },
  "userdoc": {
    "methods": {
      "renounceOwnership()": {
        "notice": "Renouncing ownership will leave the contract without an owner, thereby removing any functionality that is only available to the owner."
      }
    }
  }
}