{
  "contractName": "Bank",
  "abi": [
    {
      "constant": true,
      "inputs": [],
      "name": "MAX_LAND_OWNERS",
      "outputs": [
        {
          "name": "",
          "type": "uint8"
        }
      ],
      "payable": false,
      "stateMutability": "view",
      "type": "function",
      "signature": "0x4a419f49"
    },
    {
      "constant": true,
      "inputs": [],
      "name": "wholeLandMANAFunds",
      "outputs": [
        {
          "name": "",
          "type": "uint256"
        }
      ],
      "payable": false,
      "stateMutability": "view",
      "type": "function",
      "signature": "0x59e8508b"
    },
    {
      "constant": true,
      "inputs": [],
      "name": "BID_DURATION",
      "outputs": [
        {
          "name": "",
          "type": "uint256"
        }
      ],
      "payable": false,
      "stateMutability": "view",
      "type": "function",
      "signature": "0x6439034b"
    },
    {
      "constant": false,
      "inputs": [],
      "name": "renounceOwnership",
      "outputs": [],
      "payable": false,
      "stateMutability": "nonpayable",
      "type": "function",
      "signature": "0x715018a6"
    },
    {
      "constant": true,
      "inputs": [],
      "name": "splitLandMANAFunds",
      "outputs": [
        {
          "name": "",
          "type": "uint256"
        }
      ],
      "payable": false,
      "stateMutability": "view",
      "type": "function",
      "signature": "0x844f3dc4"
    },
    {
      "constant": true,
      "inputs": [],
      "name": "NO_ACTION_CANCEL_BID_AFTER",
      "outputs": [
        {
          "name": "",
          "type": "uint256"
        }
      ],
      "payable": false,
      "stateMutability": "view",
      "type": "function",
      "signature": "0x8ada357f"
    },
    {
      "constant": true,
      "inputs": [],
      "name": "owner",
      "outputs": [
        {
          "name": "",
          "type": "address"
        }
      ],
      "payable": false,
      "stateMutability": "view",
      "type": "function",
      "signature": "0x8da5cb5b"
    },
    {
      "constant": true,
      "inputs": [],
      "name": "isOwner",
      "outputs": [
        {
          "name": "",
          "type": "bool"
        }
      ],
      "payable": false,
      "stateMutability": "view",
      "type": "function",
      "signature": "0x8f32d59b"
    },
    {
      "constant": true,
      "inputs": [],
      "name": "MAX_LAND_SPLITS",
      "outputs": [
        {
          "name": "",
          "type": "uint16"
        }
      ],
      "payable": false,
      "stateMutability": "view",
      "type": "function",
      "signature": "0xe4628b41"
    },
    {
      "constant": true,
      "inputs": [],
      "name": "MANA",
      "outputs": [
        {
          "name": "",
          "type": "bytes32"
        }
      ],
      "payable": false,
      "stateMutability": "view",
      "type": "function",
      "signature": "0xecb42795"
    },
    {
      "constant": false,
      "inputs": [
        {
          "name": "newOwner",
          "type": "address"
        }
      ],
      "name": "transferOwnership",
      "outputs": [],
      "payable": false,
      "stateMutability": "nonpayable",
      "type": "function",
      "signature": "0xf2fde38b"
    },
    {
      "inputs": [
        {
          "name": "_manaTicker",
          "type": "string"
        },
        {
          "name": "_maxLandOwners",
          "type": "uint8"
        },
        {
          "name": "_max_land_splits",
          "type": "uint16"
        },
        {
          "name": "_maxBidDuration",
          "type": "uint256"
        },
        {
          "name": "_noActionCancelAfter",
          "type": "uint256"
        },
        {
          "name": "_manaToken",
          "type": "address"
        },
        {
          "name": "_landToken",
          "type": "address"
        },
        {
          "name": "_decentralandBid",
          "type": "address"
        },
        {
          "name": "_landRegistry",
          "type": "address"
        }
      ],
      "payable": false,
      "stateMutability": "nonpayable",
      "type": "constructor",
      "signature": "constructor"
    },
    {
      "anonymous": false,
      "inputs": [
        {
          "indexed": true,
          "name": "previousOwner",
          "type": "address"
        },
        {
          "indexed": true,
          "name": "newOwner",
          "type": "address"
        }
      ],
      "name": "OwnershipTransferred",
      "type": "event",
      "signature": "0x8be0079c531659141344cd1fd0a4f28419497f9722a3daafe3b4186f6b6457e0"
    },
    {
      "anonymous": false,
      "inputs": [
        {
          "indexed": false,
          "name": "landId",
          "type": "uint256"
        },
        {
          "indexed": false,
          "name": "totalBid",
          "type": "uint256"
        },
        {
          "indexed": false,
          "name": "duration",
          "type": "uint256"
        }
      ],
      "name": "ProcessedBid",
      "type": "event",
      "signature": "0xc6974514421d914ce9c35eb01633882b1894a22836846b73e501cc1d3da49183"
    },
    {
      "anonymous": false,
      "inputs": [
        {
          "indexed": false,
          "name": "landId",
          "type": "uint256"
        }
      ],
      "name": "BoughtLand",
      "type": "event",
      "signature": "0x4af7526a59f94558fcde918a34ac7d1794a6ef4eda440bf3807a51a745838ec0"
    },
    {
      "anonymous": false,
      "inputs": [
        {
          "indexed": false,
          "name": "depositType",
          "type": "uint8"
        },
        {
          "indexed": false,
          "name": "caller",
          "type": "address"
        },
        {
          "indexed": false,
          "name": "target",
          "type": "address"
        },
        {
          "indexed": false,
          "name": "amount",
          "type": "uint256"
        }
      ],
      "name": "DepositedMANA",
      "type": "event",
      "signature": "0xd52433f75403820e78bae39dae7b5ac64bf92c773c5165b94201477fcbff2e86"
    },
    {
      "anonymous": false,
      "inputs": [
        {
          "indexed": false,
          "name": "depositType",
          "type": "uint8"
        },
        {
          "indexed": false,
          "name": "caller",
          "type": "address"
        },
        {
          "indexed": false,
          "name": "amount",
          "type": "uint256"
        }
      ],
      "name": "WithdrewMANA",
      "type": "event",
      "signature": "0x28c0ff278a5c050be1954860ba8051072e1255ffc3c876e380a57f76294aaeb8"
    },
    {
      "anonymous": false,
      "inputs": [
        {
          "indexed": false,
          "name": "result",
          "type": "uint8"
        },
        {
          "indexed": false,
          "name": "bidPosition",
          "type": "uint256"
        }
      ],
      "name": "RegisteredBidResult",
      "type": "event",
      "signature": "0x1243959027de1b1bda8d9a767b2a115ef02319fea9c10f5b0dae0a64e6a95458"
    },
    {
      "anonymous": false,
      "inputs": [
        {
          "indexed": false,
          "name": "_tokenAddress",
          "type": "address"
        },
        {
          "indexed": false,
          "name": "_tokenId",
          "type": "uint256"
        },
        {
          "indexed": false,
          "name": "parts",
          "type": "uint256"
        }
      ],
      "name": "SplitUnassignedLand",
      "type": "event",
      "signature": "0x23668c75fbef183e32b862658de53e41985d0847fc250c35ead0fd761662fdf1"
    },
    {
      "anonymous": false,
      "inputs": [
        {
          "indexed": false,
          "name": "to",
          "type": "address"
        },
        {
          "indexed": false,
          "name": "tokenId",
          "type": "uint256"
        }
      ],
      "name": "TransferredUnassignedLand",
      "type": "event",
      "signature": "0x78bddb8c74a05d607fbcdca8496ef69626f149ac88c51c01de94ece203ecedf5"
    },
    {
      "anonymous": false,
      "inputs": [
        {
          "indexed": false,
          "name": "owner",
          "type": "address"
        },
        {
          "indexed": false,
          "name": "_tokenAddress",
          "type": "address"
        },
        {
          "indexed": false,
          "name": "_tokenId",
          "type": "uint256"
        },
        {
          "indexed": false,
          "name": "parts",
          "type": "uint256"
        }
      ],
      "name": "SplitExternalLand",
      "type": "event",
      "signature": "0xe0ad9f2ea558b151aa1f524bf4edde2a29b4406a277a81f67ea032ecd2ea8c6f"
    },
    {
      "anonymous": false,
      "inputs": [
        {
          "indexed": false,
          "name": "id",
          "type": "uint256"
        },
        {
          "indexed": false,
          "name": "caller",
          "type": "address"
        },
        {
          "indexed": false,
          "name": "reconstructedLandReceiver",
          "type": "address"
        }
      ],
      "name": "ReconstructedLand",
      "type": "event",
      "signature": "0x01a5242c7cf7a101f3476adcc1dd808af73ddb5cdf6a81e10807a229d020afc5"
    },
    {
      "constant": false,
      "inputs": [
        {
          "name": "maxLandOwners",
          "type": "uint8"
        }
      ],
      "name": "changeMaxLandOwners",
      "outputs": [],
      "payable": false,
      "stateMutability": "nonpayable",
      "type": "function",
      "signature": "0x3df1c729"
    },
    {
      "constant": false,
      "inputs": [
        {
          "name": "max_land_splits",
          "type": "uint16"
        }
      ],
      "name": "changeMaxLandSplits",
      "outputs": [],
      "payable": false,
      "stateMutability": "nonpayable",
      "type": "function",
      "signature": "0x2f7dfded"
    },
    {
      "constant": false,
      "inputs": [
        {
          "name": "maxBidDuration",
          "type": "uint256"
        }
      ],
      "name": "changeBidDuration",
      "outputs": [],
      "payable": false,
      "stateMutability": "nonpayable",
      "type": "function",
      "signature": "0xbe0a1582"
    },
    {
      "constant": false,
      "inputs": [
        {
          "name": "_noActionCancelAfter",
          "type": "uint256"
        }
      ],
      "name": "changeNoActionCancelTime",
      "outputs": [],
      "payable": false,
      "stateMutability": "nonpayable",
      "type": "function",
      "signature": "0x18f08d38"
    },
    {
      "constant": false,
      "inputs": [
        {
          "name": "investmentType",
          "type": "uint8"
        },
        {
          "name": "landId",
          "type": "uint256"
        },
        {
          "name": "investors",
          "type": "address[]"
        },
        {
          "name": "_amountsInvested",
          "type": "uint256[]"
        }
      ],
      "name": "bidForLand",
      "outputs": [],
      "payable": false,
      "stateMutability": "nonpayable",
      "type": "function",
      "signature": "0xa1f0b741"
    },
    {
      "constant": false,
      "inputs": [
        {
          "name": "marketplace",
          "type": "address"
        },
        {
          "name": "investmentType",
          "type": "uint8"
        },
        {
          "name": "landId",
          "type": "uint256"
        },
        {
          "name": "investors",
          "type": "address[]"
        },
        {
          "name": "_amountsInvested",
          "type": "uint256[]"
        }
      ],
      "name": "directBuyLand",
      "outputs": [],
      "payable": false,
      "stateMutability": "nonpayable",
      "type": "function",
      "signature": "0x017d79c1"
    },
    {
      "constant": false,
      "inputs": [
        {
          "name": "unassignedLandId",
          "type": "uint256"
        }
      ],
      "name": "assignLand",
      "outputs": [],
      "payable": false,
      "stateMutability": "nonpayable",
      "type": "function",
      "signature": "0x854c51de"
    },
    {
      "constant": false,
      "inputs": [
        {
          "name": "balanceType",
          "type": "uint8"
        },
        {
          "name": "_target",
          "type": "address"
        },
        {
          "name": "_amount",
          "type": "uint256"
        }
      ],
      "name": "depositMANA",
      "outputs": [],
      "payable": false,
      "stateMutability": "nonpayable",
      "type": "function",
      "signature": "0x8038381b"
    },
    {
      "constant": false,
      "inputs": [
        {
          "name": "balanceType",
          "type": "uint8"
        },
        {
          "name": "_amount",
          "type": "uint256"
        }
      ],
      "name": "withdrawMANA",
      "outputs": [],
      "payable": false,
      "stateMutability": "nonpayable",
      "type": "function",
      "signature": "0x0caec78b"
    },
    {
      "constant": false,
      "inputs": [
        {
          "name": "result",
          "type": "uint8"
        },
        {
          "name": "bidPosition",
          "type": "uint256"
        }
      ],
      "name": "registerBidResult",
      "outputs": [],
      "payable": false,
      "stateMutability": "nonpayable",
      "type": "function",
      "signature": "0x09308bfb"
    },
    {
      "constant": false,
      "inputs": [
        {
          "name": "_tokenId",
          "type": "uint256"
        },
        {
          "name": "landParts",
          "type": "uint256"
        }
      ],
      "name": "generalSplitLand",
      "outputs": [],
      "payable": false,
      "stateMutability": "nonpayable",
      "type": "function",
      "signature": "0x8877d9b1"
    },
    {
      "constant": false,
      "inputs": [
        {
          "name": "id",
          "type": "uint256"
        },
        {
          "name": "reconstructedLandReceiver",
          "type": "address"
        }
      ],
      "name": "reconstructLand",
      "outputs": [],
      "payable": false,
      "stateMutability": "nonpayable",
      "type": "function",
      "signature": "0x4f0b68fc"
    },
    {
      "constant": false,
      "inputs": [
        {
          "name": "bidPosition",
          "type": "uint256"
        }
      ],
      "name": "cancelBidAfterNoAction",
      "outputs": [],
      "payable": false,
      "stateMutability": "nonpayable",
      "type": "function",
      "signature": "0x3c91bb49"
    },
    {
      "constant": true,
      "inputs": [
        {
          "name": "landID",
          "type": "uint256"
        }
      ],
      "name": "getDepositedLandSplitAddress",
      "outputs": [
        {
          "name": "",
          "type": "address"
        }
      ],
      "payable": false,
      "stateMutability": "view",
      "type": "function",
      "signature": "0x43898a97"
    },
    {
      "constant": true,
      "inputs": [
        {
          "name": "landID",
          "type": "uint256"
        }
      ],
      "name": "getDepositedLandParts",
      "outputs": [
        {
          "name": "",
          "type": "uint256"
        }
      ],
      "payable": false,
      "stateMutability": "view",
      "type": "function",
      "signature": "0x0ff78774"
    },
    {
      "constant": true,
      "inputs": [
        {
          "name": "who",
          "type": "address"
        },
        {
          "name": "hashedCoinTicker",
          "type": "bytes32"
        }
      ],
      "name": "getSplitBalance",
      "outputs": [
        {
          "name": "",
          "type": "uint256"
        }
      ],
      "payable": false,
      "stateMutability": "view",
      "type": "function",
      "signature": "0x19bdf71e"
    },
    {
      "constant": true,
      "inputs": [
        {
          "name": "who",
          "type": "address"
        },
        {
          "name": "hashedCoinTicker",
          "type": "bytes32"
        }
      ],
      "name": "getWholeBalance",
      "outputs": [
        {
          "name": "",
          "type": "uint256"
        }
      ],
      "payable": false,
      "stateMutability": "view",
      "type": "function",
      "signature": "0x5a1da12a"
    },
    {
      "constant": true,
      "inputs": [
        {
          "name": "who",
          "type": "address"
        },
        {
          "name": "coinTicker",
          "type": "bytes32"
        }
      ],
      "name": "getLockedFunds",
      "outputs": [
        {
          "name": "",
          "type": "uint256"
        }
      ],
      "payable": false,
      "stateMutability": "view",
      "type": "function",
      "signature": "0xf09c1976"
    },
    {
      "constant": true,
      "inputs": [
        {
          "name": "landId",
          "type": "uint256"
        }
      ],
      "name": "landIsBeingBid",
      "outputs": [
        {
          "name": "",
          "type": "bool"
        }
      ],
      "payable": false,
      "stateMutability": "view",
      "type": "function",
      "signature": "0x48546a8c"
    },
    {
      "constant": true,
      "inputs": [
        {
          "name": "position",
          "type": "uint256"
        }
      ],
      "name": "getBidInvestorData",
      "outputs": [
        {
          "name": "",
          "type": "bytes"
        }
      ],
      "payable": false,
      "stateMutability": "view",
      "type": "function",
      "signature": "0x3fe81731"
    },
    {
      "constant": true,
      "inputs": [
        {
          "name": "position",
          "type": "uint256"
        }
      ],
      "name": "getBidStatus",
      "outputs": [
        {
          "name": "",
          "type": "uint8"
        }
      ],
      "payable": false,
      "stateMutability": "view",
      "type": "function",
      "signature": "0x2fdd0f51"
    }
  ],
  "bytecode": "0x60c0604052600160808190527f300000000000000000000000000000000000000000000000000000000000000060a0908152620000409160139190620003d7565b503480156200004e57600080fd5b5060405162004e5438038062004e5483398101806040526101208110156200007557600080fd5b8101908080516401000000008111156200008e57600080fd5b82016020810184811115620000a257600080fd5b8151640100000000811182820187101715620000bd57600080fd5b505060208201516040808401516060850151608086015160a087015160c088015160e089015161010090990151601180546001600160a01b0319163317908190559651989b50969950939792969195909490916001600160a01b0391909116906000907f8be0079c531659141344cd1fd0a4f28419497f9722a3daafe3b4186f6b6457e0908290a360008860ff1611620001a3576040517f08c379a000000000000000000000000000000000000000000000000000000000815260040180806020018281038252602981526020018062004e2b6029913960400191505060405180910390fd5b60008761ffff161162000202576040517f08c379a000000000000000000000000000000000000000000000000000000000815260040180806020018281038252602981526020018062004ddd6029913960400191505060405180910390fd5b600086116200025d576040517f08c379a000000000000000000000000000000000000000000000000000000000815260040180806020018281038252602581526020018062004e066025913960400191505060405180910390fd5b60008511620002b8576040517f08c379a000000000000000000000000000000000000000000000000000000000815260040180806020018281038252602781526020018062004db66027913960400191505060405180910390fd5b886040516020018080602001828103825283818151815260200191508051906020019080838360005b83811015620002fb578181015183820152602001620002e1565b50505050905090810190601f168015620003295780820380516001836020036101000a031916815260200191505b5060408051808303601f19018152919052805160209091012060005550506001805460ff191660ff9a909a169990991762ffff00191661010061ffff999099169890980297909717909755600294909455600392909255600680546001600160a01b03199081166001600160a01b03938416179091556008805482169383169390931790925560128054831693821693909317909255600780549091169190931617909155506200047c9050565b828054600181600116156101000203166002900490600052602060002090601f016020900481019282601f106200041a57805160ff19168380011785556200044a565b828001600101855582156200044a579182015b828111156200044a5782518255916020019190600101906200042d565b50620004589291506200045c565b5090565b6200047991905b8082111562000458576000815560010162000463565b90565b61492a806200048c6000396000f3fe60806040523480156200001157600080fd5b5060043610620002205760003560e01c80635a1da12a11620001295780638da5cb5b11620000b1578063e4628b41116200007b578063e4628b4114620007a7578063ecb4279514620007c8578063f09c197614620007d2578063f2fde38b14620008015762000220565b80638da5cb5b146200069d5780638f32d59b14620006a7578063a1f0b74114620006b1578063be0a158214620007875762000220565b8063844f3dc411620000f3578063844f3dc41462000643578063854c51de146200064d5780638877d9b1146200066d5780638ada357f14620006935762000220565b80635a1da12a14620005c85780636439034b14620005f7578063715018a614620006015780638038381b146200060b5762000220565b80633c91bb4911620001ad57806348546a8c116200017757806348546a8c14620005515780634a419f4914620005855780634f0b68fc146200058f57806359e8508b14620005be5762000220565b80633c91bb49146200043a5780633df1c729146200045a5780633fe81731146200047d57806343898a9714620005155762000220565b806318f08d3811620001ef57806318f08d38146200039157806319bdf71e14620003b15780632f7dfded14620003e05780632fdd0f5114620004045762000220565b8063017d79c1146200022557806309308bfb146200030d5780630caec78b14620003365780630ff78774146200035f575b600080fd5b6200030b600480360360a08110156200023d57600080fd5b6001600160a01b038235169160ff6020820135169160408201359190810190608081016060820135600160201b8111156200027757600080fd5b8201836020820111156200028a57600080fd5b803590602001918460208302840111600160201b83111715620002ac57600080fd5b919390929091602081019035600160201b811115620002ca57600080fd5b820183602082011115620002dd57600080fd5b803590602001918460208302840111600160201b83111715620002ff57600080fd5b5090925090506200082a565b005b6200030b600480360360408110156200032557600080fd5b5060ff813516906020013562000fd7565b6200030b600480360360408110156200034e57600080fd5b5060ff81351690602001356200173b565b6200037f600480360360208110156200037757600080fd5b503562001a26565b60408051918252519081900360200190f35b6200030b60048036036020811015620003a957600080fd5b503562001a3b565b6200037f60048036036040811015620003c957600080fd5b506001600160a01b03813516906020013562001a98565b6200030b60048036036020811015620003f857600080fd5b503561ffff1662001ac0565b62000424600480360360208110156200041c57600080fd5b503562001b3a565b6040805160ff9092168252519081900360200190f35b6200030b600480360360208110156200045257600080fd5b503562001b67565b6200030b600480360360208110156200047257600080fd5b503560ff1662002027565b6200049d600480360360208110156200049557600080fd5b503562002098565b6040805160208082528351818301528351919283929083019185019080838360005b83811015620004d9578181015183820152602001620004bf565b50505050905090810190601f168015620005075780820380516001836020036101000a031916815260200191505b509250505060405180910390f35b62000535600480360360208110156200052d57600080fd5b50356200214b565b604080516001600160a01b039092168252519081900360200190f35b62000571600480360360208110156200056957600080fd5b503562002166565b604080519115158252519081900360200190f35b620004246200217b565b6200030b60048036036040811015620005a757600080fd5b50803590602001356001600160a01b031662002184565b6200037f62002188565b6200037f60048036036040811015620005e057600080fd5b506001600160a01b0381351690602001356200218e565b6200037f620021b6565b6200030b620021bc565b6200030b600480360360608110156200062357600080fd5b5060ff813516906001600160a01b0360208201351690604001356200221a565b6200037f620024fa565b6200030b600480360360208110156200066557600080fd5b503562002500565b6200030b600480360360408110156200068557600080fd5b508035906020013562002184565b6200037f62002c2e565b6200053562002c34565b6200057162002c44565b6200030b60048036036080811015620006c957600080fd5b60ff82351691602081013591810190606081016040820135600160201b811115620006f357600080fd5b8201836020820111156200070657600080fd5b803590602001918460208302840111600160201b831117156200072857600080fd5b919390929091602081019035600160201b8111156200074657600080fd5b8201836020820111156200075957600080fd5b803590602001918460208302840111600160201b831117156200077b57600080fd5b50909250905062002c55565b6200030b600480360360208110156200079f57600080fd5b503562003500565b620007b16200355d565b6040805161ffff9092168252519081900360200190f35b6200037f6200356c565b6200037f60048036036040811015620007ea57600080fd5b506001600160a01b03813516906020013562003572565b6200030b600480360360208110156200081957600080fd5b50356001600160a01b03166200359a565b6200083462002c44565b6200083e57600080fd5b85838287600160ff851611156200088a57604051600160e51b62461bcd02815260040180806020018281038252602e8152602001806200463a602e913960400191505060405180910390fd5b818314620008cd57604051600160e51b62461bcd028152600401808060200182810382526045815260200180620044ae6045913960600191505060405180910390fd5b6000818152600f602052604090205460ff16156200092057604051600160e51b62461bcd02815260040180806020018281038252602f815260200180620045df602f913960400191505060405180910390fd5b60ff84166200096d57826001146200096d57604051600160e51b62461bcd028152600401808060200182810382526039815260200180620047476039913960400191505060405180910390fd5b6000620009ad878780806020026020016040519081016040528093929190818152602001838360200280828437600092019190915250620035bc92505050565b905060ff8b1662000aef57806004541015620009fe57604051600160e51b62461bcd02815260040180806020018281038252602c81526020018062004830602c913960400191505060405180910390fd5b60045462000a13908263ffffffff6200360616565b60045562000a91878760008162000a2657fe5b90506020020135600b60008c8c600081811062000a3f57fe5b905060200201356001600160a01b03166001600160a01b03166001600160a01b03168152602001908152602001600020600080548152602001908152602001600020546200360690919063ffffffff16565b600b60008b8b600081811062000aa357fe5b905060200201356001600160a01b03166001600160a01b03166001600160a01b031681526020019081526020016000206000805481526020019081526020016000208190555062000bdc565b8a60ff166001141562000bdc5780600554101562000b4257604051600160e51b62461bcd02815260040180806020018281038252602c8152602001806200460e602c913960400191505060405180910390fd5b60055462000b57908263ffffffff6200360616565b60055560005b8881101562000bda5762000b8f88888381811062000b7757fe5b90506020020135600a60008d8d8681811062000a3f57fe5b600a60008c8c8581811062000ba057fe5b602090810292909201356001600160a01b031683525081810192909252604090810160009081208154825290925290205560010162000b5d565b505b60065460408051600160e01b63095ea7b30281526001600160a01b038f81166004830152600060248301819052925193169263095ea7b392604480840193602093929083900390910190829087803b15801562000c3857600080fd5b505af115801562000c4d573d6000803e3d6000fd5b505050506040513d602081101562000c6457600080fd5b505060065460408051600160e01b63095ea7b30281526001600160a01b038f81166004830152602482018590529151919092169163095ea7b39160448083019260209291908290030181600087803b15801562000cc057600080fd5b505af115801562000cd5573d6000803e3d6000fd5b505050506040513d602081101562000cec57600080fd5b5051151560011462000d3357604051600160e51b62461bcd02815260040180806020018281038252602b8152602001806200458e602b913960400191505060405180910390fd5b600060608d6001600160a01b03166040518080620044f36027913960270190506040518091039020600860009054906101000a90046001600160a01b03168e8660405160200180856001600160e01b0319166001600160e01b0319168152602001846001600160a01b03166001600160a01b031681526020018381526020018281526020019450505050506040516020818303038152906040526040518082805190602001908083835b6020831062000dfe5780518252601f19909201916020918201910162000ddd565b6001836020036101000a0380198251168184511680821785525050505050509050019150506000604051808303816000865af19150503d806000811462000e62576040519150601f19603f3d011682016040523d82523d6000602084013e62000e67565b606091505b50909250905060018215151462000ec85760408051600160e51b62461bcd02815260206004820152601260248201527f436f756c64206e6f7420627579204c414e440000000000000000000000000000604482015290519081900360640190fd5b60008c8152600f6020908152604091829020805460ff19166001179055815180820183815260608281018f9052938f938f938f938f939092839291820191608001908890880280828437600083820152601f01601f19169091018481038352858152602090810191508690860280828437600081840152601f19601f8201169050808301925050509650505050505050604051602081830303815290604052905080601060008f8152602001908152602001600020908051906020019062000f92929190620036a6565b50604080518e815290517f4af7526a59f94558fcde918a34ac7d1794a6ef4eda440bf3807a51a745838ec09181900360200190a1505050505050505050505050505050565b600954819081106200101e57604051600160e51b62461bcd028152600401808060200182810382526025815260200180620046c56025913960400191505060405180910390fd5b600060ff16600982815481106200103157fe5b600091825260209091206003600490920201015460ff16146200109e5760408051600160e51b62461bcd02815260206004820152601660248201527f54686520626964206973206e6f74206f6e676f696e6700000000000000000000604482015290519081900360640190fd5b60038360ff1611158015620010b6575060008360ff16115b6200110b5760408051600160e51b62461bcd02815260206004820152601f60248201527f54686520726573756c74206973206e6f742077697468696e20626f756e647300604482015290519081900360640190fd5b82600983815481106200111a57fe5b906000526020600020906004020160030160006101000a81548160ff021916908360ff160217905550606080600984815481106200115457fe5b6000918252602091829020600490910201805460408051601f6002600019610100600187161502019094169390930492830185900485028101850190915281815292830182828015620011eb5780601f10620011bf57610100808354040283529160200191620011eb565b820191906000526020600020905b815481529060010190602001808311620011cd57829003601f168201915b505050505080602001905160408110156200120557600080fd5b810190808051600160201b8111156200121d57600080fd5b820160208101848111156200123157600080fd5b81518560208202830111600160201b821117156200124e57600080fd5b50509291906020018051600160201b8111156200126a57600080fd5b820160208101848111156200127e57600080fd5b81518560208202830111600160201b821117156200129b57600080fd5b50949650945060039350620012af92505050565b60ff168560ff161480620012c6575060ff85166002145b156200156d5781516001141562001469576200134d81600081518110620012e957fe5b6020026020010151600c6000856000815181106200130357fe5b60200260200101516001600160a01b03166001600160a01b03168152602001908152602001600020600080548152602001908152602001600020546200360690919063ffffffff16565b600c6000846000815181106200135f57fe5b60200260200101516001600160a01b03166001600160a01b03168152602001908152602001600020600080548152602001908152602001600020819055506200141381600081518110620013af57fe5b6020026020010151600b600085600081518110620013c957fe5b60200260200101516001600160a01b03166001600160a01b03168152602001908152602001600020600080548152602001908152602001600020546200361c90919063ffffffff16565b600b6000846000815181106200142557fe5b60200260200101516001600160a01b03166001600160a01b031681526020019081526020016000206000805481526020019081526020016000208190555062001567565b60005b82518110156200156557620014a08282815181106200148757fe5b6020026020010151600c60008685815181106200130357fe5b600c6000858481518110620014b157fe5b60200260200101516001600160a01b03166001600160a01b0316815260200190815260200160002060008054815260200190815260200160002081905550620015198282815181106200150057fe5b6020026020010151600a6000868581518110620013c957fe5b600a60008584815181106200152a57fe5b6020908102919091018101516001600160a01b031682528181019290925260409081016000908120815482529092529020556001016200146c565b505b620016a4565b60ff851660011415620016a45760005b8251811015620015e457620015988282815181106200148757fe5b600c6000858481518110620015a957fe5b6020908102919091018101516001600160a01b031682528181019290925260409081016000908120815482529092529020556001016200157d565b506000600f600060098781548110620015f957fe5b906000526020600020906004020160010154815260200190815260200160002060006101000a81548160ff021916908315150217905550600984815481106200163e57fe5b906000526020600020906004020160000160106000600987815481106200166157fe5b90600052602060002090600402016001015481526020019081526020016000209080546001816001161561010002031660029004620016a29291906200372b565b505b6000600d600060098781548110620016b857fe5b906000526020600020906004020160010154815260200190815260200160002060006101000a81548160ff0219169083151502179055507f1243959027de1b1bda8d9a767b2a115ef02319fea9c10f5b0dae0a64e6a954588585604051808360ff1660ff1681526020018281526020019250505060405180910390a15050505050565b60018260ff1611156200178357604051600160e51b62461bcd028152600401808060200182810382526023815260200180620047b56023913960400191505060405180910390fd5b60ff82166200185357336000908152600b6020908152604080832083548452909152902054811115620017eb57604051600160e51b62461bcd028152600401808060200182810382526034815260200180620046686034913960400191505060405180910390fd5b336000908152600b602090815260408083208354845290915290205462001819908263ffffffff6200360616565b336000908152600b60209081526040808320835484529091529020556004546200184a908263ffffffff6200360616565b60045562001915565b336000908152600a6020908152604080832083548452909152902054811115620018b257604051600160e51b62461bcd0281526004018080602001828103825260348152602001806200485c6034913960400191505060405180910390fd5b336000908152600a6020908152604080832083548452909152902054620018e0908263ffffffff6200360616565b336000908152600a602090815260408083208354845290915290205560055462001911908263ffffffff6200360616565b6005555b60065460408051600160e01b63a9059cbb0281523360048201526024810184905290516001600160a01b039092169163a9059cbb916044808201926020929091908290030181600087803b1580156200196d57600080fd5b505af115801562001982573d6000803e3d6000fd5b505050506040513d60208110156200199957600080fd5b50511515600114620019e057604051600160e51b62461bcd028152600401808060200182810382526031815260200180620047ff6031913960400191505060405180910390fd5b6040805160ff8416815233602082015280820183905290517f28c0ff278a5c050be1954860ba8051072e1255ffc3c876e380a57f76294aaeb89181900360600190a15050565b6000908152600e602052604090206001015490565b62001a4562002c44565b62001a4f57600080fd5b6000811162001a9357604051600160e51b62461bcd0281526004018080602001828103825260278152602001806200453e6027913960400191505060405180910390fd5b600355565b6001600160a01b03919091166000908152600a60209081526040808320938352929052205490565b62001aca62002c44565b62001ad457600080fd5b60008161ffff161162001b1c57604051600160e51b62461bcd0281526004018080602001828103825260298152602001806200469c6029913960400191505060405180910390fd5b6001805461ffff9092166101000262ffff0019909216919091179055565b60006009828154811062001b4a57fe5b600091825260209091206004909102016003015460ff1692915050565b6009548190811062001bae57604051600160e51b62461bcd028152600401808060200182810382526025815260200180620046c56025913960400191505060405180910390fd5b600060ff166009828154811062001bc157fe5b600091825260209091206003600490920201015460ff161462001c2e5760408051600160e51b62461bcd02815260206004820152601660248201527f54686520626964206973206e6f74206f6e676f696e6700000000000000000000604482015290519081900360640190fd5b426003546001026009848154811062001c4357fe5b906000526020600020906004020160020154011062001c9757604051600160e51b62461bcd028152600401808060200182810382526035815260200180620047806035913960400191505060405180910390fd5b60036009838154811062001ca757fe5b906000526020600020906004020160030160006101000a81548160ff021916908360ff1602179055506060806009848154811062001ce157fe5b6000918252602091829020600490910201805460408051601f600260001961010060018716150201909416939093049283018590048502810185019091528181529283018282801562001d785780601f1062001d4c5761010080835404028352916020019162001d78565b820191906000526020600020905b81548152906001019060200180831162001d5a57829003601f168201915b5050505050806020019051604081101562001d9257600080fd5b810190808051600160201b81111562001daa57600080fd5b8201602081018481111562001dbe57600080fd5b81518560208202830111600160201b8211171562001ddb57600080fd5b50509291906020018051600160201b81111562001df757600080fd5b8201602081018481111562001e0b57600080fd5b81518560208202830111600160201b8211171562001e2857600080fd5b5050845194965094505050600190911415905062001f0a5762001e5281600081518110620012e957fe5b600c60008460008151811062001e6457fe5b60200260200101516001600160a01b03166001600160a01b031681526020019081526020016000206000805481526020019081526020016000208190555062001eb481600081518110620013af57fe5b600b60008460008151811062001ec657fe5b60200260200101516001600160a01b03166001600160a01b031681526020019081526020016000206000805481526020019081526020016000208190555062001fd6565b60005b825181101562001fd45762001f288282815181106200148757fe5b600c600085848151811062001f3957fe5b60200260200101516001600160a01b03166001600160a01b031681526020019081526020016000206000805481526020019081526020016000208190555062001f888282815181106200150057fe5b600a600085848151811062001f9957fe5b6020908102919091018101516001600160a01b0316825281810192909252604090810160009081208154825290925290205560010162001f0d565b505b6000600d60006009878154811062001fea57fe5b906000526020600020906004020160010154815260200190815260200160002060006101000a81548160ff02191690831515021790555050505050565b6200203162002c44565b6200203b57600080fd5b60008160ff16116200208257604051600160e51b62461bcd028152600401808060200182810382526029815260200180620048b56029913960400191505060405180910390fd5b6001805460ff191660ff92909216919091179055565b606060098281548110620020a857fe5b6000918252602091829020600490910201805460408051601f60026000196101006001871615020190941693909304928301859004850281018501909152818152928301828280156200213f5780601f1062002113576101008083540402835291602001916200213f565b820191906000526020600020905b8154815290600101906020018083116200212157829003601f168201915b50505050509050919050565b6000908152600e60205260409020546001600160a01b031690565b6000908152600d602052604090205460ff1690565b60015460ff1681565b5050565b60045481565b6001600160a01b03919091166000908152600b60209081526040808320938352929052205490565b60025481565b620021c662002c44565b620021d057600080fd5b6011546040516000916001600160a01b0316907f8be0079c531659141344cd1fd0a4f28419497f9722a3daafe3b4186f6b6457e0908390a3601180546001600160a01b0319169055565b60065460408051600160e01b6370a08231028152336004820152905183926001600160a01b0316916370a08231916024808301926020929190829003018186803b1580156200226857600080fd5b505afa1580156200227d573d6000803e3d6000fd5b505050506040513d60208110156200229457600080fd5b50511015620022d857604051600160e51b62461bcd028152600401808060200182810382526029815260200180620045656029913960400191505060405180910390fd5b60018360ff1611156200232057604051600160e51b62461bcd028152600401808060200182810382526023815260200180620047b56023913960400191505060405180910390fd5b60065460408051600160e01b6323b872dd0281523360048201523060248201526044810184905290516001600160a01b03909216916323b872dd916064808201926020929091908290030181600087803b1580156200237e57600080fd5b505af115801562002393573d6000803e3d6000fd5b505050506040513d6020811015620023aa57600080fd5b505060ff83166200242f576001600160a01b0382166000908152600b6020908152604080832083548452909152902054620023ec908263ffffffff6200361c16565b6001600160a01b0383166000908152600b602090815260408083208354845290915290205560045462002426908263ffffffff6200361c16565b600455620024a4565b6001600160a01b0382166000908152600a602090815260408083208354845290915290205462002466908263ffffffff6200361c16565b6001600160a01b0383166000908152600a6020908152604080832083548452909152902055600554620024a0908263ffffffff6200361c16565b6005555b6040805160ff851681523360208201526001600160a01b038416818301526060810183905290517fd52433f75403820e78bae39dae7b5ac64bf92c773c5165b94201477fcbff2e869181900360800190a1505050565b60055481565b6200250a62002c44565b6200251457600080fd5b60136040518082805460018160011615610100020316600290048015620025755780601f106200255257610100808354040283529182019162002575565b820191906000526020600020905b81548152906001019060200180831162002560575b50509150506040518091039020601060008381526020019081526020016000206040518082805460018160011615610100020316600290048015620025f45780601f10620025d1576101008083540402835291820191620025f4565b820191906000526020600020905b815481529060010190602001808311620025df575b505091505060405180910390201415620026585760408051600160e51b62461bcd02815260206004820152601e60248201527f54686973206c616e642077617320616c72656164792061737369676e65640000604482015290519081900360640190fd5b6000818152600f602052604090205460ff161515600114620026af57604051600160e51b62461bcd028152600401808060200182810382526026815260200180620045b96026913960400191505060405180910390fd5b6000818152601060209081526040918290208054835160026001831615610100026000190190921691909104601f810184900484028201840190945283815260609384939192918301828280156200274b5780601f106200271f576101008083540402835291602001916200274b565b820191906000526020600020905b8154815290600101906020018083116200272d57829003601f168201915b505050505080602001905160408110156200276557600080fd5b810190808051600160201b8111156200277d57600080fd5b820160208101848111156200279157600080fd5b81518560208202830111600160201b82111715620027ae57600080fd5b50509291906020018051600160201b811115620027ca57600080fd5b82016020810184811115620027de57600080fd5b81518560208202830111600160201b82111715620027fb57600080fd5b50508451949650945050506001909110801591506200281c57506001815110155b80156200282a575081518151145b6200286a57604051600160e51b62461bcd0281526004018080602001828103825260248152602001806200451a6024913960400191505060405180910390fd5b6000838152601060205260409020601380546200289c929190600260001961010060018416150201909116046200372b565b5081516001141562002a96576000838152600f6020526040808220805460ff1916905560075490516060916001600160a01b031690806027620047d88239602701905060405180910390203086600081518110620028f657fe5b602090810291909101810151604080516001600160e01b0319909516858401526001600160a01b03938416858201529216606084015260808084018a90528251808503909101815260a090930191829052825182918401908083835b60208310620029735780518252601f19909201916020918201910162002952565b6001836020036101000a0380198251168184511680821785525050505050509050019150506000604051808303816000865af19150503d8060008114620029d7576040519150601f19603f3d011682016040523d82523d6000602084013e620029dc565b606091505b50909250905060018215151462002a2857604051600160e51b62461bcd028152600401808060200182810382526031815260200180620046ea6031913960400191505060405180910390fd5b7f78bddb8c74a05d607fbcdca8496ef69626f149ac88c51c01de94ece203ecedf58460008151811062002a5757fe5b60200260200101518660405180836001600160a01b03166001600160a01b031681526020018281526020019250505060405180910390a1505062002c29565b600082826001809054906101000a900461ffff168660405162002ab990620037a5565b61ffff831660408201526060810182905260808082528551908201528451819060208083019160a0840191898101910280838360005b8381101562002b0957818101518382015260200162002aef565b50505050905001838103825286818151815260200191508051906020019060200280838360005b8381101562002b4a57818101518382015260200162002b30565b505050509050019650505050505050604051809103906000f08015801562002b76573d6000803e3d6000fd5b50905062002b83620037b3565b506040805180820182526001600160a01b038084168083526001805461ffff610100918290048116602080880191825260008d8152600e82528990208851815498166001600160a01b0319909816979097178755905195840195909555915486519384529383018a905290920490911681840152915190917f23668c75fbef183e32b862658de53e41985d0847fc250c35ead0fd761662fdf1919081900360600190a150505b505050565b60035481565b6011546001600160a01b03165b90565b6011546001600160a01b0316331490565b62002c5f62002c44565b62002c6957600080fd5b85838287600160ff8516111562002cb557604051600160e51b62461bcd02815260040180806020018281038252602e8152602001806200463a602e913960400191505060405180910390fd5b81831462002cf857604051600160e51b62461bcd028152600401808060200182810382526045815260200180620044ae6045913960600191505060405180910390fd5b6000818152600f602052604090205460ff161562002d4b57604051600160e51b62461bcd02815260040180806020018281038252602f815260200180620045df602f913960400191505060405180910390fd5b60ff841662002d98578260011462002d9857604051600160e51b62461bcd028152600401808060200182810382526039815260200180620047476039913960400191505060405180910390fd5b6000898152600d602052604090205460ff161562002deb57604051600160e51b62461bcd028152600401808060200182810382526021815260200180620048de6021913960400191505060405180910390fd5b6000898152600d60209081526040808320805460ff191660011790558051888302818101840190925288815262002e409290918a918a918291850190849080828437600092019190915250620035bc92505050565b905060ff8b1662002fec5780600454101562002e9157604051600160e51b62461bcd02815260040180806020018281038252602c81526020018062004830602c913960400191505060405180910390fd5b60045462002ea6908263ffffffff6200360616565b60045562002eb9878760008162000a2657fe5b600b60008b8b600081811062002ecb57fe5b905060200201356001600160a01b03166001600160a01b03166001600160a01b031681526020019081526020016000206000805481526020019081526020016000208190555062002f8e8787600081811062002f2357fe5b90506020020135600c60008c8c600081811062002f3c57fe5b905060200201356001600160a01b03166001600160a01b03166001600160a01b03168152602001908152602001600020600080548152602001908152602001600020546200361c90919063ffffffff16565b600c60008b8b600081811062002fa057fe5b905060200201356001600160a01b03166001600160a01b03166001600160a01b031681526020019081526020016000206000805481526020019081526020016000208190555062003141565b8a60ff166001141562003141578060055410156200303f57604051600160e51b62461bcd02815260040180806020018281038252602c8152602001806200460e602c913960400191505060405180910390fd5b60055462003054908263ffffffff6200360616565b60055560005b888110156200313f576200307488888381811062000b7757fe5b600a60008c8c858181106200308557fe5b905060200201356001600160a01b03166001600160a01b03166001600160a01b0316815260200190815260200160002060008054815260200190815260200160002081905550620030f4888883818110620030dc57fe5b90506020020135600c60008d8d8681811062002f3c57fe5b600c60008c8c858181106200310557fe5b602090810292909201356001600160a01b03168352508181019290925260409081016000908120815482529092529020556001016200305a565b505b60065460125460408051600160e11b636eb1769f0281523060048201526001600160a01b0392831660248201529051600093929092169163dd62ed3e91604480820192602092909190829003018186803b1580156200319f57600080fd5b505afa158015620031b4573d6000803e3d6000fd5b505050506040513d6020811015620031cb57600080fd5b505160065460125460408051600160e01b63095ea7b30281526001600160a01b0392831660048201526000602482018190529151949550919092169263095ea7b392604480840193602093929083900390910190829087803b1580156200323157600080fd5b505af115801562003246573d6000803e3d6000fd5b505050506040513d60208110156200325d57600080fd5b50506006546012546001600160a01b039182169163095ea7b391166200328a848663ffffffff6200361c16565b6040518363ffffffff1660e01b815260040180836001600160a01b03166001600160a01b0316815260200182815260200192505050602060405180830381600087803b158015620032da57600080fd5b505af1158015620032ef573d6000803e3d6000fd5b505050506040513d60208110156200330657600080fd5b50506012546040516000916060916001600160a01b039091169080602c6200471b8239602c0190506040518091039020600860009054906101000a90046001600160a01b03168f8760025460405160200180866001600160e01b0319166001600160e01b0319168152602001856001600160a01b03166001600160a01b03168152602001848152602001838152602001828152602001955050505050506040516020818303038152906040526040518082805190602001908083835b60208310620033e35780518252601f199092019160209182019101620033c2565b6001836020036101000a0380198251168184511680821785525050505050509050019150506000604051808303816000865af19150503d806000811462003447576040519150601f19603f3d011682016040523d82523d6000602084013e6200344c565b606091505b509092509050600182151514620034ad5760408051600160e51b62461bcd02815260206004820152601660248201527f436f756c64206e6f742062696420666f72204c414e4400000000000000000000604482015290519081900360640190fd5b600254604080518f81526020810187905280820192909252517fc6974514421d914ce9c35eb01633882b1894a22836846b73e501cc1d3da491839181900360600190a15050505050505050505050505050565b6200350a62002c44565b6200351457600080fd5b600081116200355857604051600160e51b62461bcd028152600401808060200182810382526025815260200180620048906025913960400191505060405180910390fd5b600255565b600154610100900461ffff1681565b60005481565b6001600160a01b03919091166000908152600c60209081526040808320938352929052205490565b620035a462002c44565b620035ae57600080fd5b620035b98162003636565b50565b600080805b8351811015620035ff57620035f4848281518110620035dc57fe5b6020026020010151836200361c90919063ffffffff16565b9150600101620035c1565b5092915050565b6000828211156200361657600080fd5b50900390565b6000828201838110156200362f57600080fd5b9392505050565b6001600160a01b0381166200364a57600080fd5b6011546040516001600160a01b038084169216907f8be0079c531659141344cd1fd0a4f28419497f9722a3daafe3b4186f6b6457e090600090a3601180546001600160a01b0319166001600160a01b0392909216919091179055565b828054600181600116156101000203166002900490600052602060002090601f016020900481019282601f10620036e957805160ff191683800117855562003719565b8280016001018555821562003719579182015b8281111562003719578251825591602001919060010190620036fc565b5062003727929150620037ca565b5090565b828054600181600116156101000203166002900490600052602060002090601f016020900481019282601f1062003766578054855562003719565b828001600101855582156200371957600052602060002091601f016020900482015b828111156200371957825482559160010191906001019062003788565b610cc680620037e883390190565b604080518082019091526000808252602082015290565b62002c4191905b80821115620037275760008155600101620037d156fe60806040523480156200001157600080fd5b5060405162000cc638038062000cc6833981018060405260808110156200003757600080fd5b8101908080516401000000008111156200005057600080fd5b820160208101848111156200006457600080fd5b81518560208202830111640100000000821117156200008257600080fd5b505092919060200180516401000000008111156200009f57600080fd5b82016020810184811115620000b357600080fd5b8151856020820283011164010000000082111715620000d157600080fd5b505060208083015160409093015191945091925090620000f790339062000290811b901c565b825184511462000153576040517f08c379a000000000000000000000000000000000000000000000000000000000815260040180806020018281038252602b81526020018062000c9b602b913960400191505060405180910390fd5b6000805b84518210156200019d576200018f8583815181106200017257fe5b602002602001015182620002e260201b620005a91790919060201c565b600190920191905062000157565b6000915081805b8751841015620002825782878581518110620001bc57fe5b602002602001015160640281620001cf57fe5b049050600188510384141562000216576200020c888581518110620001f057fe5b6020026020010151838803620002fc60201b620003521760201c565b5085915062000271565b6200024e8885815181106200022757fe5b60200260200101516064888402816200023c57fe5b04620002fc60201b620003521760201c565b506200026e60648288020483620002e260201b620005a91790919060201c565b91505b6007859055600190930192620001a4565b50505050505050506200049c565b620002ab8160036200033460201b6200072f1790919060201c565b6040516001600160a01b038216907f6ae172837ea30b801fbfcdd4108aa1d5bf8ff775444fd70256b44e6bf3dfc3f690600090a250565b600082820183811015620002f557600080fd5b9392505050565b60006200030f336200038a60201b60201c565b6200031957600080fd5b6200032b8383620003ad60201b60201c565b50600192915050565b6001600160a01b0381166200034857600080fd5b6200035a82826200046660201b60201c565b156200036557600080fd5b6001600160a01b0316600090815260209190915260409020805460ff19166001179055565b6000620003a78260036200046660201b620006fa1790919060201c565b92915050565b6001600160a01b038216620003c157600080fd5b620003dd81600254620002e260201b620005a91790919060201c565b6002556001600160a01b0382166000908152602081815260409091205462000410918390620005a9620002e2821b17901c565b6001600160a01b0383166000818152602081815260408083209490945583518581529351929391927fddf252ad1be2c89b69c2b068fc378daa952ba7f163c4a11628f55a4df523b3ef9281900390910190a35050565b60006001600160a01b0382166200047c57600080fd5b506001600160a01b03166000908152602091909152604090205460ff1690565b6107ef80620004ac6000396000f3fe608060405234801561001057600080fd5b50600436106100b45760003560e01c8063983b2d5611610071578063983b2d56146101c757806398650275146101ef578063a457c2d7146101f7578063a9059cbb14610223578063aa271e1a1461024f578063dd62ed3e14610275576100b4565b8063095ea7b3146100b957806318160ddd146100f957806323b872dd14610113578063395093511461014957806340c10f191461017557806370a08231146101a1575b600080fd5b6100e5600480360360408110156100cf57600080fd5b506001600160a01b0381351690602001356102a3565b604080519115158252519081900360200190f35b6101016102b9565b60408051918252519081900360200190f35b6100e56004803603606081101561012957600080fd5b506001600160a01b038135811691602081013590911690604001356102bf565b6100e56004803603604081101561015f57600080fd5b506001600160a01b038135169060200135610316565b6100e56004803603604081101561018b57600080fd5b506001600160a01b038135169060200135610352565b610101600480360360208110156101b757600080fd5b50356001600160a01b0316610370565b6101ed600480360360208110156101dd57600080fd5b50356001600160a01b031661038b565b005b6101ed6103a9565b6100e56004803603604081101561020d57600080fd5b506001600160a01b0381351690602001356103b4565b6100e56004803603604081101561023957600080fd5b506001600160a01b0381351690602001356103f0565b6100e56004803603602081101561026557600080fd5b50356001600160a01b03166103fd565b6101016004803603604081101561028b57600080fd5b506001600160a01b0381358116916020013516610416565b60006102b0338484610441565b50600192915050565b60025490565b60006102cc8484846104c9565b6001600160a01b03841660009081526001602090815260408083203380855292529091205461030c918691610307908663ffffffff61059416565b610441565b5060019392505050565b3360008181526001602090815260408083206001600160a01b038716845290915281205490916102b0918590610307908663ffffffff6105a916565b600061035d336103fd565b61036657600080fd5b6102b083836105c2565b6001600160a01b031660009081526020819052604090205490565b610394336103fd565b61039d57600080fd5b6103a68161066a565b50565b6103b2336106b2565b565b3360008181526001602090815260408083206001600160a01b038716845290915281205490916102b0918590610307908663ffffffff61059416565b60006102b03384846104c9565b600061041060038363ffffffff6106fa16565b92915050565b6001600160a01b03918216600090815260016020908152604080832093909416825291909152205490565b6001600160a01b03821661045457600080fd5b6001600160a01b03831661046757600080fd5b6001600160a01b03808416600081815260016020908152604080832094871680845294825291829020859055815185815291517f8c5be1e5ebec7d5bd14f71427d1e84f3dd0314c0f7b2291e5b200ac8c7c3b9259281900390910190a3505050565b6001600160a01b0382166104dc57600080fd5b6001600160a01b038316600090815260208190526040902054610505908263ffffffff61059416565b6001600160a01b03808516600090815260208190526040808220939093559084168152205461053a908263ffffffff6105a916565b6001600160a01b038084166000818152602081815260409182902094909455805185815290519193928716927fddf252ad1be2c89b69c2b068fc378daa952ba7f163c4a11628f55a4df523b3ef92918290030190a3505050565b6000828211156105a357600080fd5b50900390565b6000828201838110156105bb57600080fd5b9392505050565b6001600160a01b0382166105d557600080fd5b6002546105e8908263ffffffff6105a916565b6002556001600160a01b038216600090815260208190526040902054610614908263ffffffff6105a916565b6001600160a01b0383166000818152602081815260408083209490945583518581529351929391927fddf252ad1be2c89b69c2b068fc378daa952ba7f163c4a11628f55a4df523b3ef9281900390910190a35050565b61067b60038263ffffffff61072f16565b6040516001600160a01b038216907f6ae172837ea30b801fbfcdd4108aa1d5bf8ff775444fd70256b44e6bf3dfc3f690600090a250565b6106c360038263ffffffff61077b16565b6040516001600160a01b038216907fe94479a9f7e1952cc78f2d6baab678adc1b772d936c6583def489e524cb6669290600090a250565b60006001600160a01b03821661070f57600080fd5b506001600160a01b03166000908152602091909152604090205460ff1690565b6001600160a01b03811661074257600080fd5b61074c82826106fa565b1561075657600080fd5b6001600160a01b0316600090815260209190915260409020805460ff19166001179055565b6001600160a01b03811661078e57600080fd5b61079882826106fa565b6107a157600080fd5b6001600160a01b0316600090815260209190915260409020805460ff1916905556fea165627a7a7230582048fd23d6224aa34a630aab60e87ad02f80ddf7e398b9185561b3da387be30b9900295468652074776f2061727261797320646f206e6f742068617665207468652073616d65206c656e6774687354686520696e766573746f727320616e64205f616d6f756e7473496e7665737465642061727261797320646f206e6f742068617665207468652073616d65206c656e677468657865637574654f7264657228616464726573732c2075696e743235362c2075696e74323536295468652061727261797320646f206e6f7420686176652076616c6964206c656e677468735f6e6f416374696f6e43616e63656c41667465722068617320746f20626520706f736974697665596f7520646f206e6f7420686176652074686174206d756368204d414e4120746f206465706f736974436f756c64206e6f7420617070726f7665204d414e4120746f206469726563746c7920627579204c414e44546865204c414e44206973206e6f74206f776e6564206279207468697320636f6e7472616374546865206c616e642073706563696669656420697320616c7265616479206f776e6564206279207468652062616e6b546865206973206e6f7420656e6f756768204d414e4120666f722073706c697420696e766573746d656e747354686520696e766573746d656e742074797065206e6565647320746f206265206265747765656e20626f756e6473596f7520646f206e6f7420686176652074686174206d756368204d414e4120666f722077686f6c6520696e766573746d656e7473596f75206e656564206120706f736974697665206e756d626572206f66206c616e642073706c6974735468652062696420706f736974696f6e206973206e6f742077697468696e20626f756e6473436f756c64206e6f74207472616e73666572207468652077686f6c65204c414e4420746f2074686520696e766573746f72706c61636542696428616464726573732c2075696e743235362c2075696e743235362c2075696e74323536295769746820612077686f6c6520696e766573746d656e74207468657265206e6565647320746f206265206f6e6c79203120696e766573746f724e6f7420656e6f7567682074696d652077656e742062792073696e636520746865206372656174696f6e206f6620746865206269645468652062616c616e63652074797065206e6565647320746f2062652030206f7220317472616e7366657246726f6d28616464726573732c20616464726573732c2075696e7432353629436f756c64206e6f74207472616e73666572206d6f6e657920696e207468652077697468647261772066756e6374696f6e546865206973206e6f7420656e6f756768204d414e4120666f722077686f6c6520696e766573746d656e7473596f7520646f206e6f7420686176652074686174206d756368204d414e4120666f722073706c697420696e766573746d656e747354686520626964206475726174696f6e206e6565647320746f20626520706f736974697665596f75206e656564206120706f736974697665206e756d626572206f66206c616e64206f776e65727354686973204c414e4420697320616c7265616479206265696e6720626964206f6ea165627a7a723058205ab38f7fb40c4fc00ee516ed9e0b843e33e9e1b91c55cad1231e2cb7f6b3335d00295f6e6f416374696f6e43616e63656c41667465722068617320746f20626520706f736974697665596f75206e656564206120706f736974697665206e756d626572206f66206c616e642073706c69747354686520626964206475726174696f6e206e6565647320746f20626520706f736974697665596f75206e656564206120706f736974697665206e756d626572206f66206c616e64206f776e657273",
  "source": "pragma solidity 0.5.7;\n\n//import \"./.././interfaces/IBid.sol\";\n//import \"../../node_modules/openzeppelin-solidity/contracts/token/ERC20/IERC20.sol\";\nimport \"./.././investing/SplitLand.sol\";\nimport \"./.././interfaces/IBank.sol\";\nimport \"../../node_modules/openzeppelin-solidity/contracts/ownership/Ownable.sol\";\nimport \"../../node_modules/openzeppelin-solidity/contracts/utils/Address.sol\";\nimport \"../../node_modules/openzeppelin-solidity/contracts/math/SafeMath.sol\";\n\ncontract Bank is IBank, Ownable {\n\n  using SafeMath for uint256;\n  using SafeMath for int256;\n  using Address for address;\n\n  //IBid decentralandBid;\n\n  address decentralandBid;\n\n  bytes nullBytes = bytes(\"0\");\n\n  modifier checkBeforeBuying(uint8 investmentType,\n    uint256 investorsLength,\n    uint256 amountsInvestedLength,\n    uint256 landId) {\n\n    require(investmentType <= 1, \"The investment type needs to be between bounds\");\n    require(investorsLength == amountsInvestedLength,\n      \"The investors and _amountsInvested arrays do not have the same length\");\n    require(landIsInBank[landId] == false, \"The land specified is already owned by the bank\");\n\n    if (investmentType == 0) {\n\n      require(investorsLength == 1,\n        \"With a whole investment there needs to be only 1 investor\");\n\n    } else if (investmentType == 1) {\n\n      require(investorsLength >= 0,\n        \"With a split investment there needs to be a positive amount of investors\");\n\n    }\n\n    _;\n\n  }\n\n  modifier onlyOngoingBid(uint256 bidPosition) {\n\n    require(bidPosition < bids.length,\n      \"The bid position is not within bounds\");\n\n    require(bids[bidPosition].bidStatus == uint8(BID_RESULT.ONGOING),\n      \"The bid is not ongoing\");\n\n    _;\n\n  }\n\n  constructor(\n    string memory _manaTicker,\n    uint8 _maxLandOwners,\n    uint16 _max_land_splits,\n    uint256 _maxBidDuration,\n    uint256 _noActionCancelAfter,\n    address _manaToken,\n    address _landToken,\n    address _decentralandBid,\n    address _landRegistry\n  ) public {\n\n    require(_maxLandOwners > 0, \"You need a positive number of land owners\");\n    require(_max_land_splits > 0, \"You need a positive number of land splits\");\n    require(_maxBidDuration > 0, \"The bid duration needs to be positive\");\n    require(_noActionCancelAfter > 0, \"_noActionCancelAfter has to be positive\");\n\n    MANA = keccak256(abi.encode(_manaTicker) );\n    MAX_LAND_OWNERS = _maxLandOwners;\n    MAX_LAND_SPLITS = _max_land_splits;\n    BID_DURATION = _maxBidDuration;\n    NO_ACTION_CANCEL_BID_AFTER = _noActionCancelAfter;\n    manaToken = MANAToken(_manaToken);\n    landAddress = _landToken;\n    decentralandBid = _decentralandBid;\n    landRegistry = _landRegistry;\n    //decentralandBid = IBid(_decentralandBid);\n\n\n  }\n\n  function changeMaxLandOwners(uint8 maxLandOwners) external onlyOwner {\n\n    require(maxLandOwners > 0, \"You need a positive number of land owners\");\n\n    MAX_LAND_OWNERS = maxLandOwners;\n\n  }\n\n  function changeMaxLandSplits(uint16 max_land_splits) external onlyOwner {\n\n    require(max_land_splits > 0, \"You need a positive number of land splits\");\n\n    MAX_LAND_SPLITS = max_land_splits;\n\n  }\n\n  function changeBidDuration(uint256 maxBidDuration) external onlyOwner {\n\n    require(maxBidDuration > 0, \"The bid duration needs to be positive\");\n\n    BID_DURATION = maxBidDuration;\n\n  }\n\n  function changeNoActionCancelTime(uint256 _noActionCancelAfter) external onlyOwner {\n\n    require(_noActionCancelAfter > 0, \"_noActionCancelAfter has to be positive\");\n\n    NO_ACTION_CANCEL_BID_AFTER = _noActionCancelAfter;\n\n  }\n\n  function bidForLand(\n    uint8 investmentType,\n    uint256 landId,\n    address[] calldata investors,\n    uint256[] calldata _amountsInvested)\n  external\n  onlyOwner\n  checkBeforeBuying(investmentType, investors.length,\n    _amountsInvested.length, landId) {\n\n    require(beingBid[landId] == false, \"This LAND is already being bid on\");\n\n    beingBid[landId] = true;\n\n    uint256 totalToInvest = computeTotalInvested(_amountsInvested);\n\n    if (investmentType == 0) {\n\n      require(wholeLandMANAFunds >= totalToInvest,\n        \"The is not enough MANA for whole investments\");\n\n      wholeLandMANAFunds = wholeLandMANAFunds.sub(totalToInvest);\n\n      wholeBalances[investors[0]][MANA] =\n      wholeBalances[investors[0]][MANA].sub(_amountsInvested[0]);\n\n      lockedForBidding[investors[0]][MANA] =\n      lockedForBidding[investors[0]][MANA].add(_amountsInvested[0]);\n\n    } else if (investmentType == 1) {\n\n      require(splitLandMANAFunds >= totalToInvest,\n        \"The is not enough MANA for split investments\");\n\n      splitLandMANAFunds = splitLandMANAFunds.sub(totalToInvest);\n\n      for (uint j = 0; j < investors.length; j++) {\n\n        splitBalances[investors[j]][MANA] =\n        splitBalances[investors[j]][MANA].sub(_amountsInvested[j]);\n\n        lockedForBidding[investors[j]][MANA] =\n        lockedForBidding[investors[j]][MANA].add(_amountsInvested[j]);\n\n      }\n\n    }\n\n    uint256 currentlyApproved =\n    manaToken.allowance(address(this), decentralandBid);\n\n    //Mitigate front-running\n    manaToken.approve(decentralandBid, 0);\n\n    //Allow the bid contract to get MANA from this contract\n    manaToken.approve(decentralandBid,\n      currentlyApproved.add(totalToInvest));\n\n    bool status;\n    bytes memory result;\n\n    //Call the executeOrder function from the marketplace\n    (status, result) = decentralandBid.call(\n      abi.encode(\n        bytes4(keccak256(\"placeBid(address, uint256, uint256, uint256)\")),\n        landAddress,\n        landId,\n        totalToInvest,\n        BID_DURATION));\n\n    /*decentralandBid.placeBid(\n      landAddress,\n      landId,\n      totalToInvest,\n      BID_DURATION\n    );*/\n\n    require(status == true, \"Could not bid for LAND\");\n\n    //    bytes memory encodedInvestors =\n    //    abi.encode(investors, _amountsInvested);\n    //\n    //    BidData memory newBid =\n    //    BidData(encodedInvestors, landId, now, uint8(BID_RESULT.ONGOING));\n    //\n    //    bids.push(newBid);\n\n    emit ProcessedBid(landId, totalToInvest, BID_DURATION);\n\n  }\n\n  function directBuyLand(\n    address marketplace,\n    uint8 investmentType,\n    uint256 landId,\n    address[] calldata investors,\n    uint256[] calldata _amountsInvested\n  ) external onlyOwner\n  checkBeforeBuying(investmentType, investors.length,\n    _amountsInvested.length, landId) {\n\n    uint256 totalToInvest = computeTotalInvested(_amountsInvested);\n\n    if (investmentType == 0) {\n\n      require(wholeLandMANAFunds >= totalToInvest,\n        \"The is not enough MANA for whole investments\");\n\n      wholeLandMANAFunds = wholeLandMANAFunds.sub(totalToInvest);\n\n      wholeBalances[investors[0]][MANA] =\n      wholeBalances[investors[0]][MANA].sub(_amountsInvested[0]);\n\n    } else if (investmentType == 1) {\n\n      require(splitLandMANAFunds >= totalToInvest,\n        \"The is not enough MANA for split investments\");\n\n      splitLandMANAFunds = splitLandMANAFunds.sub(totalToInvest);\n\n      for (uint j = 0; j < investors.length; j++) {\n\n        splitBalances[investors[j]][MANA] =\n        splitBalances[investors[j]][MANA].sub(_amountsInvested[j]);\n\n      }\n\n    }\n\n    //Mitigate front-running\n    manaToken.approve(marketplace, 0);\n\n    //Allow the bid contract to get MANA from this contract\n    require(manaToken.approve(marketplace, totalToInvest) == true,\n      \"Could not approve MANA to directly buy LAND\");\n\n    bool status;\n    bytes memory result;\n\n    //Call the executeOrder function from the marketplace\n    (status, result) = marketplace.call(\n      abi.encode(\n        bytes4(keccak256(\"executeOrder(address, uint256, uint256)\")),\n        landAddress,\n        landId, totalToInvest));\n\n    require(status == true, \"Could not buy LAND\");\n\n    landIsInBank[landId] = true;\n\n    bytes memory encodedInvestors =\n    abi.encode(investors, _amountsInvested);\n\n    unassignedLand[landId] = encodedInvestors;\n\n    emit BoughtLand(landId);\n\n  }\n\n  function assignLand(uint256 unassignedLandId) external onlyOwner {\n\n    require(keccak256(unassignedLand[unassignedLandId]) != keccak256(nullBytes),\n      \"This land was already assigned\");\n\n    require(landIsInBank[unassignedLandId] == true, \"The LAND is not owned by this contract\");\n\n    address[] memory investors;\n    uint256[] memory money;\n\n    (investors, money) =\n    abi.decode(unassignedLand[unassignedLandId],\n      (address[], uint256[]));\n\n    require(investors.length >= 1\n    && money.length >= 1\n    && money.length == investors.length,\n      \"The arrays do not have valid lengths\");\n\n    unassignedLand[unassignedLandId] = nullBytes;\n\n    if (investors.length == 1) {\n\n      landIsInBank[unassignedLandId] = false;\n\n      bool status;\n      bytes memory result;\n\n      //Call the executeOrder function from the marketplace\n      (status, result) = landRegistry.call(\n        abi.encode(\n          bytes4(keccak256(\"transferFrom(address, address, uint256)\")),\n          address(this),\n          investors[0],\n          unassignedLandId));\n\n      require(status == true, \"Could not transfer the whole LAND to the investor\");\n\n      emit TransferredUnassignedLand(investors[0], unassignedLandId);\n\n    } else {\n\n      address newSplitLand =\n      address(new SplitLand(investors, money, MAX_LAND_SPLITS, unassignedLandId));\n\n      Land memory newLandData = Land(newSplitLand, MAX_LAND_SPLITS);\n\n      landDetails[unassignedLandId] = newLandData;\n\n      emit SplitUnassignedLand(newSplitLand, unassignedLandId, MAX_LAND_SPLITS);\n\n    }\n\n  }\n\n  function depositMANA(uint8 balanceType, address _target, uint256 _amount) external {\n\n    require(manaToken.balanceOf(msg.sender) >= _amount,\n      \"You do not have that much MANA to deposit\");\n\n    require(balanceType <= 1, \"The balance type needs to be 0 or 1\");\n\n    manaToken.transferFrom(msg.sender, address(this), _amount);\n\n    if (balanceType == 0) {\n\n      wholeBalances[_target][MANA] =\n      wholeBalances[_target][MANA].add(_amount);\n\n      wholeLandMANAFunds = wholeLandMANAFunds.add(_amount);\n\n    } else {\n\n      splitBalances[_target][MANA] =\n      splitBalances[_target][MANA].add(_amount);\n\n      splitLandMANAFunds = splitLandMANAFunds.add(_amount);\n\n    }\n\n    emit DepositedMANA(balanceType, msg.sender, _target, _amount);\n\n  }\n\n  function withdrawMANA(uint8 balanceType, uint256 _amount) external {\n\n    require(balanceType <= 1, \"The balance type needs to be 0 or 1\");\n\n    if (balanceType == 0) {\n\n      require(wholeBalances[msg.sender][MANA] >= _amount,\n        \"You do not have that much MANA for whole investments\");\n\n      wholeBalances[msg.sender][MANA] =\n      wholeBalances[msg.sender][MANA].sub(_amount);\n\n      wholeLandMANAFunds = wholeLandMANAFunds.sub(_amount);\n\n    } else {\n\n      require(splitBalances[msg.sender][MANA] >= _amount,\n        \"You do not have that much MANA for split investments\");\n\n      splitBalances[msg.sender][MANA] =\n      splitBalances[msg.sender][MANA].sub(_amount);\n\n      splitLandMANAFunds = splitLandMANAFunds.sub(_amount);\n\n    }\n\n    require(manaToken.transfer(msg.sender, _amount) == true,\n      \"Could not transfer money in the withdraw function\");\n\n    emit WithdrewMANA(balanceType, msg.sender, _amount);\n\n  }\n\n  function registerBidResult(\n    uint8 result,\n    uint256 bidPosition)\n  external onlyOngoingBid(bidPosition) {\n\n    require(result <= 3 && result > 0, \"The result is not within bounds\");\n\n    bids[bidPosition].bidStatus = result;\n\n    address[] memory investors;\n    uint256[] memory money;\n\n    (investors, money) =\n    abi.decode(bids[bidPosition].bidData,\n      (address[], uint256[]));\n\n    if (result == uint8(BID_RESULT.CANCELLED) ||\n    result == uint8(BID_RESULT.FAILED)) {\n\n      if (investors.length == 1) {\n\n        lockedForBidding[investors[0]][MANA] =\n        lockedForBidding[investors[0]][MANA].sub(money[0]);\n\n        wholeBalances[investors[0]][MANA] =\n        wholeBalances[investors[0]][MANA].add(money[0]);\n\n      } else {\n\n        for (uint i = 0; i < investors.length; i++) {\n\n          lockedForBidding[investors[i]][MANA] =\n          lockedForBidding[investors[i]][MANA].sub(money[i]);\n\n          splitBalances[investors[i]][MANA] =\n          splitBalances[investors[i]][MANA].add(money[i]);\n\n        }\n\n      }\n\n    } else if (result == uint8(BID_RESULT.SUCCESSFUL)) {\n\n      for (uint i = 0; i < investors.length; i++) {\n\n        lockedForBidding[investors[i]][MANA] =\n        lockedForBidding[investors[i]][MANA].sub(money[i]);\n\n      }\n\n      landIsInBank[bids[bidPosition].landId] = false;\n\n      unassignedLand[bids[bidPosition].landId] = bids[bidPosition].bidData;\n\n    }\n\n    beingBid[bids[bidPosition].landId] = false;\n\n    emit RegisteredBidResult(result, bidPosition);\n\n  }\n\n  function generalSplitLand(\n    uint256 _tokenId,\n    uint256 landParts)\n  external {\n\n\n\n  }\n\n  function reconstructLand(\n    uint256 id,\n    address reconstructedLandReceiver)\n  external {\n\n\n\n  }\n\n  function cancelBidAfterNoAction(\n    uint256 bidPosition\n  ) external onlyOngoingBid(bidPosition) {\n\n    require(bids[bidPosition].creationTimestamp\n    + NO_ACTION_CANCEL_BID_AFTER * 1 seconds < now,\n      \"Not enough time went by since the creation of the bid\");\n\n    bids[bidPosition].bidStatus = uint8(BID_RESULT.CANCELLED);\n\n    address[] memory investors;\n    uint256[] memory money;\n\n    (investors, money) =\n    abi.decode(bids[bidPosition].bidData,\n      (address[], uint256[]));\n\n    if (investors.length == 1) {\n\n      lockedForBidding[investors[0]][MANA] =\n      lockedForBidding[investors[0]][MANA].sub(money[0]);\n\n      wholeBalances[investors[0]][MANA] =\n      wholeBalances[investors[0]][MANA].add(money[0]);\n\n    } else {\n\n      for (uint i = 0; i < investors.length; i++) {\n\n        lockedForBidding[investors[i]][MANA] =\n        lockedForBidding[investors[i]][MANA].sub(money[i]);\n\n        splitBalances[investors[i]][MANA] =\n        splitBalances[investors[i]][MANA].add(money[i]);\n\n      }\n\n    }\n\n    beingBid[bids[bidPosition].landId] = false;\n\n  }\n\n  //PRIVATE\n\n  function computeTotalInvested(uint256[] memory _amountsInvested) private pure returns (uint256) {\n\n    uint256 totalToInvest = 0;\n\n    for (uint i = 0; i < _amountsInvested.length; i++) {\n\n      totalToInvest = totalToInvest.add(_amountsInvested[i]);\n\n    }\n\n    return totalToInvest;\n\n  }\n\n  //GETTERS\n\n  function getDepositedLandSplitAddress(\n    uint256 landID\n  ) public view returns (address) {\n\n    return landDetails[landID].splitLandToken;\n\n  }\n\n  function getDepositedLandParts(\n    uint256 landID\n  ) public view returns (uint256) {\n\n    return landDetails[landID].parts;\n\n  }\n\n  function getSplitBalance(\n    address who,\n    bytes32 hashedCoinTicker\n  ) public view returns (uint256) {\n\n    return splitBalances[who][hashedCoinTicker];\n\n  }\n\n  function getWholeBalance(\n    address who,\n    bytes32 hashedCoinTicker\n  ) public view returns (uint256) {\n\n    return wholeBalances[who][hashedCoinTicker];\n\n  }\n\n  function getLockedFunds(\n    address who,\n    bytes32 coinTicker\n  ) public view returns (uint256) {\n\n    return lockedForBidding[who][coinTicker];\n\n  }\n\n  function landIsBeingBid(\n    uint256 landId\n  ) public view returns (bool) {\n\n    return beingBid[landId];\n\n  }\n\n  function getBidInvestorData(\n    uint256 position\n  ) public view returns (bytes memory) {\n\n    return bids[position].bidData;\n\n  }\n\n  function getBidStatus(\n    uint256 position\n  ) public view returns (uint8) {\n\n    return bids[position].bidStatus;\n\n  }\n\n}\n",
  "sourcePath": "/Users/jules/WebstormProjects/RobInTheHood/chain/bankContracts/contracts/investing/Bank.sol",
  "compiler": {
    "name": "solc",
    "version": "0.5.7+commit.6da8b019.Emscripten.clang"
  },
  "schemaVersion": "3.0.1",
  "updatedAt": "2019-04-24T15:01:48.994Z",
  "devdoc": {
    "methods": {
      "isOwner()": {
        "return": "true if `msg.sender` is the owner of the contract."
      },
      "owner()": {
        "return": "the address of the owner."
      },
      "renounceOwnership()": {
        "details": "Allows the current owner to relinquish control of the contract. It will not be possible to call the functions with the `onlyOwner` modifier anymore."
      },
      "transferOwnership(address)": {
        "details": "Allows the current owner to transfer control of the contract to a newOwner.",
        "params": {
          "newOwner": "The address to transfer ownership to."
        }
      }
    }
  },
  "userdoc": {
    "methods": {
      "renounceOwnership()": {
        "notice": "Renouncing ownership will leave the contract without an owner, thereby removing any functionality that is only available to the owner."
      }
    }
  }
}