{
  "contractName": "ContractDetector",
  "abi": [
    {
      "inputs": [],
      "payable": false,
      "stateMutability": "nonpayable",
      "type": "constructor"
    },
    {
      "constant": false,
      "inputs": [
        {
          "name": "_addr",
          "type": "address"
        }
      ],
      "name": "isContract",
      "outputs": [
        {
          "name": "isContract",
          "type": "bool"
        }
      ],
      "payable": false,
      "stateMutability": "nonpayable",
      "type": "function"
    }
  ],
  "bytecode": "0x6080604052348015600f57600080fd5b50609c8061001e6000396000f3fe6080604052348015600f57600080fd5b506004361060285760003560e01c80631627905514602d575b600080fd5b605060048036036020811015604157600080fd5b50356001600160a01b03166064565b604080519115158252519081900360200190f35b3b63ffffffff1615159056fea165627a7a7230582002bd1d78883ef85e43aa565d68a999b04ddba120345ab74a39c876f77beff2990029",
  "source": "pragma solidity 0.5.7;\n\ncontract ContractDetector {\n\n  constructor() public {}\n\n  function isContract(address _addr) public returns (bool isContract) {\n\n    uint32 size;\n\n    assembly {\n      size := extcodesize(_addr)\n    }\n\n    return (size > 0);\n\n  }\n\n}\n",
  "sourcePath": "/home/stefan/Work/RobInTheHood/chain/bankContracts/contracts/zeppelin/ContractDetector.sol",
  "compiler": {
    "name": "solc",
    "version": "0.5.7+commit.6da8b019.Emscripten.clang"
  },
  "schemaVersion": "3.0.1",
  "updatedAt": "2019-04-20T08:44:10.432Z",
  "devdoc": {
    "methods": {}
  },
  "userdoc": {
    "methods": {}
  }
}