{
  "contractName": "Crowdsale",
  "abi": [
    {
      "constant": true,
      "inputs": [],
      "name": "endBlock",
      "outputs": [
        {
          "name": "",
          "type": "uint256"
        }
      ],
      "payable": false,
      "stateMutability": "view",
      "type": "function"
    },
    {
      "constant": true,
      "inputs": [],
      "name": "rate",
      "outputs": [
        {
          "name": "",
          "type": "uint256"
        }
      ],
      "payable": false,
      "stateMutability": "view",
      "type": "function"
    },
    {
      "constant": true,
      "inputs": [],
      "name": "weiRaised",
      "outputs": [
        {
          "name": "",
          "type": "uint256"
        }
      ],
      "payable": false,
      "stateMutability": "view",
      "type": "function"
    },
    {
      "constant": true,
      "inputs": [],
      "name": "startBlock",
      "outputs": [
        {
          "name": "",
          "type": "uint256"
        }
      ],
      "payable": false,
      "stateMutability": "view",
      "type": "function"
    },
    {
      "constant": true,
      "inputs": [],
      "name": "wallet",
      "outputs": [
        {
          "name": "",
          "type": "address"
        }
      ],
      "payable": false,
      "stateMutability": "view",
      "type": "function"
    },
    {
      "constant": true,
      "inputs": [],
      "name": "token",
      "outputs": [
        {
          "name": "",
          "type": "address"
        }
      ],
      "payable": false,
      "stateMutability": "view",
      "type": "function"
    },
    {
      "inputs": [
        {
          "name": "_startBlock",
          "type": "uint256"
        },
        {
          "name": "_endBlock",
          "type": "uint256"
        },
        {
          "name": "_rate",
          "type": "uint256"
        },
        {
          "name": "_wallet",
          "type": "address"
        }
      ],
      "payable": false,
      "stateMutability": "nonpayable",
      "type": "constructor"
    },
    {
      "payable": false,
      "stateMutability": "nonpayable",
      "type": "fallback"
    },
    {
      "anonymous": false,
      "inputs": [
        {
          "indexed": true,
          "name": "purchaser",
          "type": "address"
        },
        {
          "indexed": true,
          "name": "beneficiary",
          "type": "address"
        },
        {
          "indexed": false,
          "name": "value",
          "type": "uint256"
        },
        {
          "indexed": false,
          "name": "amount",
          "type": "uint256"
        }
      ],
      "name": "TokenPurchase",
      "type": "event"
    },
    {
      "constant": false,
      "inputs": [
        {
          "name": "beneficiary",
          "type": "address"
        }
      ],
      "name": "buyTokens",
      "outputs": [],
      "payable": true,
      "stateMutability": "payable",
      "type": "function"
    },
    {
      "constant": true,
      "inputs": [],
      "name": "hasEnded",
      "outputs": [
        {
          "name": "",
          "type": "bool"
        }
      ],
      "payable": false,
      "stateMutability": "view",
      "type": "function"
    }
  ],
  "bytecode": "0x608060405234801561001057600080fd5b50604051608080610f5f8339810180604052608081101561003057600080fd5b50805160208201516040830151606090930151919290914384101561005457600080fd5b8383101561006157600080fd5b6000821161006e57600080fd5b6001600160a01b03811661008157600080fd5b61008f6100d160201b60201c565b600080546001600160a01b03199081166001600160a01b039384161790915560019590955560029390935560049190915560038054909316911617905561010e565b60006040516100df90610101565b604051809103906000f0801580156100fb573d6000803e3d6000fd5b50905090565b610a70806104ef83390190565b6103d28061011d6000396000f3fe60806040526004361061007b5760003560e01c8063521eb2731161004e578063521eb273146100f9578063ec8ac4d81461012a578063ecb70fb714610150578063fc0c546a146101795761007b565b8063083c6323146100935780632c4e722e146100ba5780634042b66f146100cf57806348cd4cb1146100e4575b34801561008757600080fd5b506100913361018e565b005b34801561009f57600080fd5b506100a86102c1565b60408051918252519081900360200190f35b3480156100c657600080fd5b506100a86102c7565b3480156100db57600080fd5b506100a86102cd565b3480156100f057600080fd5b506100a86102d3565b34801561010557600080fd5b5061010e6102d9565b604080516001600160a01b039092168252519081900360200190f35b6100916004803603602081101561014057600080fd5b50356001600160a01b031661018e565b34801561015c57600080fd5b506101656102e8565b604080519115158252519081900360200190f35b34801561018557600080fd5b5061010e6102f0565b6001600160a01b0381166101a157600080fd5b6101a96102ff565b6101b257600080fd5b60045434906000906101cb90839063ffffffff61033216565b6005549091506101e1908363ffffffff61035d16565b6005556000805460408051600160e01b6340c10f190281526001600160a01b03878116600483015260248201869052915191909216926340c10f1992604480820193602093909283900390910190829087803b15801561024057600080fd5b505af1158015610254573d6000803e3d6000fd5b505050506040513d602081101561026a57600080fd5b5050604080518381526020810183905281516001600160a01b0386169233927f623b3804fa71d67900d064613da8f94b9617215ee90799290593e1745087ad18929081900390910190a36102bc61036a565b505050565b60025481565b60045481565b60055481565b60015481565b6003546001600160a01b031681565b600254431190565b6000546001600160a01b031681565b6000804390506000600154821015801561031b57506002548211155b905034151581801561032a5750805b935050505090565b60008261034157506000610357565b508181028183828161034f57fe5b041461035757fe5b92915050565b8181018281101561035757fe5b6003546040516001600160a01b03909116903480156108fc02916000818181858888f193505050501580156103a3573d6000803e3d6000fd5b5056fea165627a7a72305820f5117f9996ce61df18d1d9d636ce0797fa6de4401f9c4ce77a672f8de735bfdb00296080604052600380546001600160a81b03191633179055610a4b806100256000396000f3fe608060405234801561001057600080fd5b50600436106100ea5760003560e01c8063715018a61161008c578063a9059cbb11610066578063a9059cbb1461023b578063d73dd62314610267578063dd62ed3e14610293578063f2fde38b146102c1576100ea565b8063715018a6146102055780637d64bcb41461020f5780638da5cb5b14610217576100ea565b806323b872dd116100c857806323b872dd1461015157806340c10f191461018757806366188463146101b357806370a08231146101df576100ea565b806305d2035b146100ef578063095ea7b31461010b57806318160ddd14610137575b600080fd5b6100f76102e7565b604080519115158252519081900360200190f35b6100f76004803603604081101561012157600080fd5b506001600160a01b0381351690602001356102f7565b61013f61035d565b60408051918252519081900360200190f35b6100f76004803603606081101561016757600080fd5b506001600160a01b03813581169160208101359091169060400135610363565b6100f76004803603604081101561019d57600080fd5b506001600160a01b0381351690602001356104d6565b6100f7600480360360408110156101c957600080fd5b506001600160a01b0381351690602001356105c9565b61013f600480360360208110156101f557600080fd5b50356001600160a01b03166106b8565b61020d6106d3565b005b6100f7610734565b61021f6107b8565b604080516001600160a01b039092168252519081900360200190f35b6100f76004803603604081101561025157600080fd5b506001600160a01b0381351690602001356107c7565b6100f76004803603604081101561027d57600080fd5b506001600160a01b0381351690602001356108a4565b61013f600480360360408110156102a957600080fd5b506001600160a01b038135811691602001351661093d565b61020d600480360360208110156102d757600080fd5b50356001600160a01b0316610968565b600354600160a01b900460ff1681565b3360008181526002602090815260408083206001600160a01b038716808552908352818420869055815186815291519394909390927f8c5be1e5ebec7d5bd14f71427d1e84f3dd0314c0f7b2291e5b200ac8c7c3b925928290030190a350600192915050565b60015490565b6001600160a01b03831660009081526020819052604081205482111561038857600080fd5b6001600160a01b03841660009081526002602090815260408083203384529091529020548211156103b857600080fd5b6001600160a01b0383166103cb57600080fd5b6001600160a01b0384166000908152602081905260409020546103f4908363ffffffff61098b16565b6001600160a01b038086166000908152602081905260408082209390935590851681522054610429908363ffffffff61099d16565b6001600160a01b0380851660009081526020818152604080832094909455918716815260028252828120338252909152205461046b908363ffffffff61098b16565b6001600160a01b03808616600081815260026020908152604080832033845282529182902094909455805186815290519287169391927fddf252ad1be2c89b69c2b068fc378daa952ba7f163c4a11628f55a4df523b3ef929181900390910190a35060019392505050565b600354600090600160a01b900460ff16156104f057600080fd5b600154610503908363ffffffff61099d16565b6001556001600160a01b03831660009081526020819052604090205461052f908363ffffffff61099d16565b6001600160a01b03841660008181526020818152604091829020939093558051858152905191927f0f6798a560793a54c3bcfe86a93cde1e73087d944c0ea20544137d412139688592918290030190a26040805183815290516001600160a01b038516916000917fddf252ad1be2c89b69c2b068fc378daa952ba7f163c4a11628f55a4df523b3ef9181900360200190a350600192915050565b3360009081526002602090815260408083206001600160a01b038616845290915281205480831061061d573360009081526002602090815260408083206001600160a01b0388168452909152812055610652565b61062d818463ffffffff61098b16565b3360009081526002602090815260408083206001600160a01b03891684529091529020555b3360008181526002602090815260408083206001600160a01b0389168085529083529281902054815190815290519293927f8c5be1e5ebec7d5bd14f71427d1e84f3dd0314c0f7b2291e5b200ac8c7c3b925929181900390910190a35060019392505050565b6001600160a01b031660009081526020819052604090205490565b6003546001600160a01b031633146106ea57600080fd5b6003546040516001600160a01b03909116907ff8df31144d9c2f0f6b59d69b8b98abd5459d07f2742c4df920b25aae33c6482090600090a2600380546001600160a01b0319169055565b6003546000906001600160a01b0316331461074e57600080fd5b600354600160a01b900460ff161561076557600080fd5b6003805474ff00000000000000000000000000000000000000001916600160a01b1790556040517fae5184fba832cb2b1f702aca6117b8d265eaf03ad33eb133f19dde0f5920fa0890600090a150600190565b6003546001600160a01b031681565b336000908152602081905260408120548211156107e357600080fd5b6001600160a01b0383166107f657600080fd5b33600090815260208190526040902054610816908363ffffffff61098b16565b33600090815260208190526040808220929092556001600160a01b03851681522054610848908363ffffffff61099d16565b6001600160a01b038416600081815260208181526040918290209390935580518581529051919233927fddf252ad1be2c89b69c2b068fc378daa952ba7f163c4a11628f55a4df523b3ef9281900390910190a350600192915050565b3360009081526002602090815260408083206001600160a01b03861684529091528120546108d8908363ffffffff61099d16565b3360008181526002602090815260408083206001600160a01b0389168085529083529281902085905580519485525191937f8c5be1e5ebec7d5bd14f71427d1e84f3dd0314c0f7b2291e5b200ac8c7c3b925929081900390910190a350600192915050565b6001600160a01b03918216600090815260026020908152604080832093909416825291909152205490565b6003546001600160a01b0316331461097f57600080fd5b610988816109b0565b50565b60008282111561099757fe5b50900390565b818101828110156109aa57fe5b92915050565b6001600160a01b0381166109c357600080fd5b6003546040516001600160a01b038084169216907f8be0079c531659141344cd1fd0a4f28419497f9722a3daafe3b4186f6b6457e090600090a3600380546001600160a01b0319166001600160a01b039290921691909117905556fea165627a7a723058200110c0df486e4f7d90b59f8c591e3448baa24cd630eab24f6fb7fe70b0058ca60029",
  "source": "pragma solidity 0.5.7;\n\nimport 'contracts/zeppelin/ERC20/MintableToken.sol';\nimport 'contracts/zeppelin/SafeMath.sol';\n\n/**\n * @title Crowdsale\n * @dev Crowdsale is a base contract for managing a token crowdsale.\n * Crowdsales have a start and end block, where investors can make\n * token purchases and the crowdsale will assign them tokens based\n * on a token per ETH rate. Funds collected are forwarded to a wallet\n * as they arrive.\n */\ncontract Crowdsale {\n  using SafeMath for uint256;\n\n  // The token being sold\n  MintableToken public token;\n\n  // start and end block where investments are allowed (both inclusive)\n  uint256 public startBlock;\n  uint256 public endBlock;\n\n  // address where funds are collected\n  address payable public wallet;\n\n  // how many token units a buyer gets per wei\n  uint256 public rate;\n\n  // amount of raised money in wei\n  uint256 public weiRaised;\n\n  /**\n   * event for token purchase logging\n   * @param purchaser who paid for the tokens\n   * @param beneficiary who got the tokens\n   * @param value weis paid for purchase\n   * @param amount amount of tokens purchased\n   */\n  event TokenPurchase(address indexed purchaser, address indexed beneficiary, uint256 value, uint256 amount);\n\n\n  constructor (uint256 _startBlock, uint256 _endBlock, uint256 _rate, address payable _wallet) public {\n    require(_startBlock >= block.number);\n    require(_endBlock >= _startBlock);\n    require(_rate > 0);\n    require(_wallet != address(0));\n\n    token = createTokenContract();\n    startBlock = _startBlock;\n    endBlock = _endBlock;\n    rate = _rate;\n    wallet = _wallet;\n  }\n\n  // creates the token to be sold.\n  // override this method to have crowdsale of a specific mintable token.\n  function createTokenContract() internal returns (MintableToken) {\n    return new MintableToken();\n  }\n\n\n  // fallback function can be used to buy tokens\n  function () external {\n    buyTokens(msg.sender);\n  }\n\n  // low level token purchase function\n  function buyTokens(address beneficiary) public payable {\n    require(beneficiary != address(0));\n    require(validPurchase());\n\n    uint256 weiAmount = msg.value;\n\n    // calculate token amount to be created\n    uint256 tokens = weiAmount.mul(rate);\n\n    // update state\n    weiRaised = weiRaised.add(weiAmount);\n\n    token.mint(beneficiary, tokens);\n    emit TokenPurchase(msg.sender, beneficiary, weiAmount, tokens);\n\n    forwardFunds();\n  }\n\n  // send ether to the fund collection wallet\n  // override to create custom fund forwarding mechanisms\n  function forwardFunds() internal {\n    wallet.transfer(msg.value);\n  }\n\n  // @return true if the transaction can buy tokens\n  function validPurchase() internal view returns (bool) {\n    uint256 current = block.number;\n    bool withinPeriod = current >= startBlock && current <= endBlock;\n    bool nonZeroPurchase = msg.value != 0;\n    return withinPeriod && nonZeroPurchase;\n  }\n\n  // @return true if crowdsale event has ended\n  function hasEnded() public view returns (bool) {\n    return block.number > endBlock;\n  }\n\n\n}\n",
  "sourcePath": "/home/stefan/Work/RobInTheHood/chain/bankContracts/contracts/zeppelin/crowdsale/Crowdsale.sol",
  "compiler": {
    "name": "solc",
    "version": "0.5.7+commit.6da8b019.Emscripten.clang"
  },
  "schemaVersion": "3.0.1",
  "updatedAt": "2019-04-20T08:44:10.452Z",
  "devdoc": {
    "details": "Crowdsale is a base contract for managing a token crowdsale. Crowdsales have a start and end block, where investors can make token purchases and the crowdsale will assign them tokens based on a token per ETH rate. Funds collected are forwarded to a wallet as they arrive.",
    "methods": {},
    "title": "Crowdsale"
  },
  "userdoc": {
    "methods": {}
  }
}