{
  "contractName": "CyberBondingERC20",
  "abi": [
    {
      "constant": false,
      "inputs": [],
      "name": "renounceOwnership",
      "outputs": [],
      "payable": false,
      "stateMutability": "nonpayable",
      "type": "function"
    },
    {
      "constant": true,
      "inputs": [],
      "name": "owner",
      "outputs": [
        {
          "name": "",
          "type": "address"
        }
      ],
      "payable": false,
      "stateMutability": "view",
      "type": "function"
    },
    {
      "constant": false,
      "inputs": [
        {
          "name": "_newOwner",
          "type": "address"
        }
      ],
      "name": "transferOwnership",
      "outputs": [],
      "payable": false,
      "stateMutability": "nonpayable",
      "type": "function"
    },
    {
      "anonymous": false,
      "inputs": [],
      "name": "StoppedMinting",
      "type": "event"
    },
    {
      "anonymous": false,
      "inputs": [
        {
          "indexed": false,
          "name": "state",
          "type": "bool"
        }
      ],
      "name": "ToggledMinting",
      "type": "event"
    },
    {
      "anonymous": false,
      "inputs": [
        {
          "indexed": false,
          "name": "buyer",
          "type": "address"
        }
      ],
      "name": "SetDefaultBuyer",
      "type": "event"
    },
    {
      "anonymous": false,
      "inputs": [
        {
          "indexed": false,
          "name": "amount",
          "type": "uint256"
        }
      ],
      "name": "DefaultBuyerBurned",
      "type": "event"
    },
    {
      "anonymous": false,
      "inputs": [
        {
          "indexed": true,
          "name": "previousOwner",
          "type": "address"
        }
      ],
      "name": "OwnershipRenounced",
      "type": "event"
    },
    {
      "anonymous": false,
      "inputs": [
        {
          "indexed": true,
          "name": "previousOwner",
          "type": "address"
        },
        {
          "indexed": true,
          "name": "newOwner",
          "type": "address"
        }
      ],
      "name": "OwnershipTransferred",
      "type": "event"
    },
    {
      "anonymous": false,
      "inputs": [
        {
          "indexed": true,
          "name": "from",
          "type": "address"
        },
        {
          "indexed": true,
          "name": "to",
          "type": "address"
        },
        {
          "indexed": false,
          "name": "value",
          "type": "uint256"
        }
      ],
      "name": "Transfer",
      "type": "event"
    },
    {
      "anonymous": false,
      "inputs": [
        {
          "indexed": true,
          "name": "owner",
          "type": "address"
        },
        {
          "indexed": true,
          "name": "spender",
          "type": "address"
        },
        {
          "indexed": false,
          "name": "value",
          "type": "uint256"
        }
      ],
      "name": "Approval",
      "type": "event"
    },
    {
      "constant": true,
      "inputs": [],
      "name": "totalSupply",
      "outputs": [
        {
          "name": "",
          "type": "uint256"
        }
      ],
      "payable": false,
      "stateMutability": "view",
      "type": "function"
    },
    {
      "constant": true,
      "inputs": [
        {
          "name": "owner",
          "type": "address"
        }
      ],
      "name": "balanceOf",
      "outputs": [
        {
          "name": "",
          "type": "uint256"
        }
      ],
      "payable": false,
      "stateMutability": "view",
      "type": "function"
    },
    {
      "constant": true,
      "inputs": [
        {
          "name": "owner",
          "type": "address"
        },
        {
          "name": "spender",
          "type": "address"
        }
      ],
      "name": "allowance",
      "outputs": [
        {
          "name": "",
          "type": "uint256"
        }
      ],
      "payable": false,
      "stateMutability": "view",
      "type": "function"
    },
    {
      "constant": false,
      "inputs": [
        {
          "name": "to",
          "type": "address"
        },
        {
          "name": "value",
          "type": "uint256"
        }
      ],
      "name": "transfer",
      "outputs": [
        {
          "name": "",
          "type": "bool"
        }
      ],
      "payable": false,
      "stateMutability": "nonpayable",
      "type": "function"
    },
    {
      "constant": false,
      "inputs": [
        {
          "name": "spender",
          "type": "address"
        },
        {
          "name": "value",
          "type": "uint256"
        }
      ],
      "name": "approve",
      "outputs": [
        {
          "name": "",
          "type": "bool"
        }
      ],
      "payable": false,
      "stateMutability": "nonpayable",
      "type": "function"
    },
    {
      "constant": false,
      "inputs": [
        {
          "name": "from",
          "type": "address"
        },
        {
          "name": "to",
          "type": "address"
        },
        {
          "name": "value",
          "type": "uint256"
        }
      ],
      "name": "transferFrom",
      "outputs": [
        {
          "name": "",
          "type": "bool"
        }
      ],
      "payable": false,
      "stateMutability": "nonpayable",
      "type": "function"
    },
    {
      "constant": false,
      "inputs": [
        {
          "name": "spender",
          "type": "address"
        },
        {
          "name": "addedValue",
          "type": "uint256"
        }
      ],
      "name": "increaseAllowance",
      "outputs": [
        {
          "name": "",
          "type": "bool"
        }
      ],
      "payable": false,
      "stateMutability": "nonpayable",
      "type": "function"
    },
    {
      "constant": false,
      "inputs": [
        {
          "name": "spender",
          "type": "address"
        },
        {
          "name": "subtractedValue",
          "type": "uint256"
        }
      ],
      "name": "decreaseAllowance",
      "outputs": [
        {
          "name": "",
          "type": "bool"
        }
      ],
      "payable": false,
      "stateMutability": "nonpayable",
      "type": "function"
    },
    {
      "constant": false,
      "inputs": [],
      "name": "toggleMinting",
      "outputs": [],
      "payable": false,
      "stateMutability": "nonpayable",
      "type": "function"
    },
    {
      "constant": false,
      "inputs": [],
      "name": "stopMinting",
      "outputs": [],
      "payable": false,
      "stateMutability": "nonpayable",
      "type": "function"
    },
    {
      "constant": false,
      "inputs": [
        {
          "name": "newBuyer",
          "type": "address"
        }
      ],
      "name": "setBuyerAddress",
      "outputs": [],
      "payable": false,
      "stateMutability": "nonpayable",
      "type": "function"
    },
    {
      "constant": false,
      "inputs": [
        {
          "name": "amount",
          "type": "uint256"
        }
      ],
      "name": "defaultBuyerBurn",
      "outputs": [],
      "payable": false,
      "stateMutability": "nonpayable",
      "type": "function"
    }
  ],
  "bytecode": "0x60806040526004805461ffff19169055600080546001600160a01b0319163317905561099a806100306000396000f3fe608060405234801561001057600080fd5b50600436106100f55760003560e01c8063715018a611610097578063a9059cbb11610066578063a9059cbb1461026c578063b1f8ac1314610298578063dd62ed3e146102b5578063f2fde38b146102e3576100f5565b8063715018a61461020c5780637d55094d146102145780638da5cb5b1461021c578063a457c2d714610240576100f5565b806323b872dd116100d357806323b872dd1461017c57806339509351146101b25780633e3e0b12146101de57806370a08231146101e6576100f5565b8063095ea7b3146100fa57806318160ddd1461013a5780631b697bb214610154575b600080fd5b6101266004803603604081101561011057600080fd5b506001600160a01b038135169060200135610309565b604080519115158252519081900360200190f35b61014261031f565b60408051918252519081900360200190f35b61017a6004803603602081101561016a57600080fd5b50356001600160a01b0316610325565b005b6101266004803603606081101561019257600080fd5b506001600160a01b038135811691602081013590911690604001356103ea565b610126600480360360408110156101c857600080fd5b506001600160a01b038135169060200135610441565b61017a61047d565b610142600480360360208110156101fc57600080fd5b50356001600160a01b03166104cc565b61017a6104e7565b61017a610546565b6102246105b8565b604080516001600160a01b039092168252519081900360200190f35b6101266004803603604081101561025657600080fd5b506001600160a01b0381351690602001356105c7565b6101266004803603604081101561028257600080fd5b506001600160a01b038135169060200135610603565b61017a600480360360208110156102ae57600080fd5b5035610610565b610142600480360360408110156102cb57600080fd5b506001600160a01b03813581169160200135166106e4565b61017a600480360360208110156102f957600080fd5b50356001600160a01b031661070f565b6000610316338484610732565b50600192915050565b60035490565b6000546001600160a01b0316331461033c57600080fd5b6001600160a01b03811661038457604051600160e51b62461bcd0281526004018080602001828103825260288152602001806109476028913960400191505060405180910390fd5b600480546001600160a01b038084166201000090810262010000600160b01b03199093169290921792839055604080519290930416815290517f69dc364840989403941acdf308c6a9fc5e0096906b93ad13e621ae62f0209d859181900360200190a150565b60006103f78484846107ba565b6001600160a01b038416600090815260026020908152604080832033808552925290912054610437918691610432908663ffffffff61088716565b610732565b5060019392505050565b3360008181526002602090815260408083206001600160a01b03871684529091528120549091610316918590610432908663ffffffff61089916565b6000546001600160a01b0316331461049457600080fd5b6004805460ff191660011790556040517f0234217574d26406ea717eaad400baef298e0624d774ff5536489982c4860f0990600090a1565b6001600160a01b031660009081526001602052604090205490565b6000546001600160a01b031633146104fe57600080fd5b600080546040516001600160a01b03909116917ff8df31144d9c2f0f6b59d69b8b98abd5459d07f2742c4df920b25aae33c6482091a2600080546001600160a01b0319169055565b6000546001600160a01b0316331461055d57600080fd5b6004805460ff610100808304821615810261ff001990931692909217928390556040805192909304161515815290517f274745e14266a32ad81cf4fee4cc0a5236715b549e77189947985e3c230794109181900360200190a1565b6000546001600160a01b031681565b3360008181526002602090815260408083206001600160a01b03871684529091528120549091610316918590610432908663ffffffff61088716565b60006103163384846107ba565b6004546201000090046001600160a01b0316331461066257604051600160e51b62461bcd02815260040180806020018281038252602c81526020018061091b602c913960400191505060405180910390fd5b600354610675908263ffffffff61088716565b60035533600090815260016020526040902054610698908263ffffffff61088716565b3360009081526001602090815260409182902092909255805183815290517fc41f7ce0f4d2e22bedd3b164e77f0417925c950a7760cd1bf2f3022ead1f257b929181900390910190a150565b6001600160a01b03918216600090815260026020908152604080832093909416825291909152205490565b6000546001600160a01b0316331461072657600080fd5b61072f816108ac565b50565b6001600160a01b03821661074557600080fd5b6001600160a01b03831661075857600080fd5b6001600160a01b03808416600081815260026020908152604080832094871680845294825291829020859055815185815291517f8c5be1e5ebec7d5bd14f71427d1e84f3dd0314c0f7b2291e5b200ac8c7c3b9259281900390910190a3505050565b6001600160a01b0382166107cd57600080fd5b6001600160a01b0383166000908152600160205260409020546107f6908263ffffffff61088716565b6001600160a01b03808516600090815260016020526040808220939093559084168152205461082b908263ffffffff61089916565b6001600160a01b0380841660008181526001602090815260409182902094909455805185815290519193928716927fddf252ad1be2c89b69c2b068fc378daa952ba7f163c4a11628f55a4df523b3ef92918290030190a3505050565b60008282111561089357fe5b50900390565b818101828110156108a657fe5b92915050565b6001600160a01b0381166108bf57600080fd5b600080546040516001600160a01b03808516939216917f8be0079c531659141344cd1fd0a4f28419497f9722a3daafe3b4186f6b6457e091a3600080546001600160a01b0319166001600160a01b039290921691909117905556fe5468652073656e646572206973206e6f74207468652064656661756c7420627579696e672061646472657373546865206275796572207370656369666965642069732061206275726e696e672061646472657373a165627a7a72305820812eaac44c1e496f1cf7c55175f65add03ab9b8a4f59f60d7dae851e8825c5100029",
  "source": "pragma solidity 0.5.7;\n\nimport \"contracts/zeppelin/ERC20/IBondingERC20.sol\";\nimport \"contracts/zeppelin/SafeMath.sol\";\nimport \"contracts/zeppelin/ownership/Ownable.sol\";\n\ncontract CyberBondingERC20 is IBondingERC20, Ownable {\n\n    event StoppedMinting();\n    event ToggledMinting(bool state);\n    event SetDefaultBuyer(address buyer);\n    event DefaultBuyerBurned(uint256 amount);\n\n    using SafeMath for uint256;\n\n    mapping (address => uint256) private _balances;\n\n    mapping (address => mapping (address => uint256)) private _allowed;\n\n    uint256 private _totalSupply;\n\n    bool canNeverMint = false;\n    bool pausedMinting = false;\n\n    address buyingAddress;\n\n    modifier mintingNotStopped() {\n\n      require(canNeverMint == false, \"Minting was stopped\");\n      _;\n\n    }\n\n    modifier mintingNotPaused() {\n\n      require(pausedMinting == false, \"Minting is paused\");\n      _;\n\n    }\n\n    modifier buyerWasSet() {\n\n      require(buyingAddress != address(0), \"The buyer address was not specified\");\n      _;\n\n    }\n\n    modifier onlyDefaultBuyer() {\n\n      require(msg.sender == buyingAddress, \"The sender is not the default buying address\");\n      _;\n\n    }\n\n    /**\n     * @dev Total number of tokens in existence\n     */\n    function totalSupply() public view returns (uint256) {\n        return _totalSupply;\n    }\n\n    /**\n     * @dev Gets the balance of the specified address.\n     * @param owner The address to query the balance of.\n     * @return An uint256 representing the amount owned by the passed address.\n     */\n    function balanceOf(address owner) public view returns (uint256) {\n        return _balances[owner];\n    }\n\n    /**\n     * @dev Function to check the amount of tokens that an owner allowed to a spender.\n     * @param owner address The address which owns the funds.\n     * @param spender address The address which will spend the funds.\n     * @return A uint256 specifying the amount of tokens still available for the spender.\n     */\n    function allowance(address owner, address spender) public view returns (uint256) {\n        return _allowed[owner][spender];\n    }\n\n    /**\n     * @dev Transfer token for a specified address\n     * @param to The address to transfer to.\n     * @param value The amount to be transferred.\n     */\n    function transfer(address to, uint256 value) public returns (bool) {\n        _transfer(msg.sender, to, value);\n        return true;\n    }\n\n    /**\n     * @dev Approve the passed address to spend the specified amount of tokens on behalf of msg.sender.\n     * Beware that changing an allowance with this method brings the risk that someone may use both the old\n     * and the new allowance by unfortunate transaction ordering. One possible solution to mitigate this\n     * race condition is to first reduce the spender's allowance to 0 and set the desired value afterwards:\n     * https://github.com/ethereum/EIPs/issues/20#issuecomment-263524729\n     * @param spender The address which will spend the funds.\n     * @param value The amount of tokens to be spent.\n     */\n    function approve(address spender, uint256 value) public returns (bool) {\n        _approve(msg.sender, spender, value);\n        return true;\n    }\n\n    /**\n     * @dev Transfer tokens from one address to another.\n     * Note that while this function emits an Approval event, this is not required as per the specification,\n     * and other compliant implementations may not emit the event.\n     * @param from address The address which you want to send tokens from\n     * @param to address The address which you want to transfer to\n     * @param value uint256 the amount of tokens to be transferred\n     */\n    function transferFrom(address from, address to, uint256 value) public returns (bool) {\n        _transfer(from, to, value);\n        _approve(from, msg.sender, _allowed[from][msg.sender].sub(value));\n        return true;\n    }\n\n    /**\n     * @dev Increase the amount of tokens that an owner allowed to a spender.\n     * approve should be called when allowed_[_spender] == 0. To increment\n     * allowed value is better to use this function to avoid 2 calls (and wait until\n     * the first transaction is mined)\n     * From MonolithDAO Token.sol\n     * Emits an Approval event.\n     * @param spender The address which will spend the funds.\n     * @param addedValue The amount of tokens to increase the allowance by.\n     */\n    function increaseAllowance(address spender, uint256 addedValue) public returns (bool) {\n        _approve(msg.sender, spender, _allowed[msg.sender][spender].add(addedValue));\n        return true;\n    }\n\n    /**\n     * @dev Decrease the amount of tokens that an owner allowed to a spender.\n     * approve should be called when allowed_[_spender] == 0. To decrement\n     * allowed value is better to use this function to avoid 2 calls (and wait until\n     * the first transaction is mined)\n     * From MonolithDAO Token.sol\n     * Emits an Approval event.\n     * @param spender The address which will spend the funds.\n     * @param subtractedValue The amount of tokens to decrease the allowance by.\n     */\n    function decreaseAllowance(address spender, uint256 subtractedValue) public returns (bool) {\n        _approve(msg.sender, spender, _allowed[msg.sender][spender].sub(subtractedValue));\n        return true;\n    }\n\n    /**\n     * @dev Transfer token for a specified addresses\n     * @param from The address to transfer from.\n     * @param to The address to transfer to.\n     * @param value The amount to be transferred.\n     */\n    function _transfer(address from, address to, uint256 value) internal {\n\n        require(to != address(0));\n\n        _balances[from] = _balances[from].sub(value);\n        _balances[to] = _balances[to].add(value);\n        emit Transfer(from, to, value);\n\n    }\n\n    /**\n     * @dev Internal function that mints an amount of the token and assigns it to\n     * an account. This encapsulates the modification of balances such that the\n     * proper events are emitted.\n     * @param account The account that will receive the created tokens.\n     * @param value The amount that will be created.\n     */\n    function _mint(address account, uint256 value)\n      internal mintingNotStopped mintingNotPaused {\n\n        require(account != address(0));\n\n        _totalSupply = _totalSupply.add(value);\n        _balances[account] = _balances[account].add(value);\n        emit Transfer(address(0), account, value);\n\n    }\n\n    /**\n     * @dev Internal function that burns an amount of the token of a given\n     * account and transfers the tokens to a default buying address\n     * @param account The account from where to burn tokens\n     * @param value The amount that will be burnt.\n     */\n    function _burn(address account, uint256 value) internal buyerWasSet {\n\n      require(account != address(0), \"The account must not be a burning address\");\n\n      _balances[account] = _balances[account].sub(value);\n      _balances[buyingAddress] = _balances[buyingAddress].add(value);\n      emit Transfer(account, address(0), value);\n\n    }\n\n    /**\n     * @dev Approve an address to spend another addresses' tokens.\n     * @param owner The address that owns the tokens.\n     * @param spender The address that will spend the tokens.\n     * @param value The number of tokens that can be spent.\n     */\n    function _approve(address owner, address spender, uint256 value) internal {\n        require(spender != address(0));\n        require(owner != address(0));\n\n        _allowed[owner][spender] = value;\n        emit Approval(owner, spender, value);\n    }\n\n    /**\n     * @dev Internal function that burns an amount of the token of a given\n     * account, deducting from the sender's allowance for said account. Uses the\n     * internal burn function.\n     * Emits an Approval event (reflecting the reduced allowance).\n     * @param account The account whose tokens will be burnt.\n     * @param value The amount that will be burnt.\n     */\n    function _burnFrom(address account, uint256 value) internal {\n        _burn(account, value);\n        _approve(account, msg.sender, _allowed[account][msg.sender].sub(value));\n    }\n\n    function toggleMinting() public onlyOwner {\n\n      pausedMinting = !pausedMinting;\n\n      emit ToggledMinting(pausedMinting);\n\n    }\n\n    function stopMinting() public onlyOwner {\n\n      canNeverMint = true;\n\n      emit StoppedMinting();\n\n    }\n\n    function setBuyerAddress(address newBuyer) public onlyOwner {\n\n      require(newBuyer != address(0), \"The buyer specified is a burning address\");\n\n      buyingAddress = newBuyer;\n\n      emit SetDefaultBuyer(buyingAddress);\n\n    }\n\n    function defaultBuyerBurn(uint256 amount) public onlyDefaultBuyer {\n\n      _totalSupply = _totalSupply.sub(amount);\n      _balances[msg.sender] = _balances[msg.sender].sub(amount);\n\n      emit DefaultBuyerBurned(amount);\n\n    }\n\n}\n",
  "sourcePath": "/home/stefan/Work/RobInTheHood/chain/bankContracts/contracts/zeppelin/ERC20/CyberBondingERC20.sol",
  "compiler": {
    "name": "solc",
    "version": "0.5.7+commit.6da8b019.Emscripten.clang"
  },
  "schemaVersion": "3.0.1",
  "updatedAt": "2019-04-20T08:31:01.325Z",
  "devdoc": {
    "methods": {
      "allowance(address,address)": {
        "details": "Function to check the amount of tokens that an owner allowed to a spender.",
        "params": {
          "owner": "address The address which owns the funds.",
          "spender": "address The address which will spend the funds."
        },
        "return": "A uint256 specifying the amount of tokens still available for the spender."
      },
      "approve(address,uint256)": {
        "details": "Approve the passed address to spend the specified amount of tokens on behalf of msg.sender. Beware that changing an allowance with this method brings the risk that someone may use both the old and the new allowance by unfortunate transaction ordering. One possible solution to mitigate this race condition is to first reduce the spender's allowance to 0 and set the desired value afterwards: https://github.com/ethereum/EIPs/issues/20#issuecomment-263524729",
        "params": {
          "spender": "The address which will spend the funds.",
          "value": "The amount of tokens to be spent."
        }
      },
      "balanceOf(address)": {
        "details": "Gets the balance of the specified address.",
        "params": {
          "owner": "The address to query the balance of."
        },
        "return": "An uint256 representing the amount owned by the passed address."
      },
      "decreaseAllowance(address,uint256)": {
        "details": "Decrease the amount of tokens that an owner allowed to a spender. approve should be called when allowed_[_spender] == 0. To decrement allowed value is better to use this function to avoid 2 calls (and wait until the first transaction is mined) From MonolithDAO Token.sol Emits an Approval event.",
        "params": {
          "spender": "The address which will spend the funds.",
          "subtractedValue": "The amount of tokens to decrease the allowance by."
        }
      },
      "increaseAllowance(address,uint256)": {
        "details": "Increase the amount of tokens that an owner allowed to a spender. approve should be called when allowed_[_spender] == 0. To increment allowed value is better to use this function to avoid 2 calls (and wait until the first transaction is mined) From MonolithDAO Token.sol Emits an Approval event.",
        "params": {
          "addedValue": "The amount of tokens to increase the allowance by.",
          "spender": "The address which will spend the funds."
        }
      },
      "renounceOwnership()": {
        "details": "Allows the current owner to relinquish control of the contract."
      },
      "totalSupply()": {
        "details": "Total number of tokens in existence"
      },
      "transfer(address,uint256)": {
        "details": "Transfer token for a specified address",
        "params": {
          "to": "The address to transfer to.",
          "value": "The amount to be transferred."
        }
      },
      "transferFrom(address,address,uint256)": {
        "details": "Transfer tokens from one address to another. Note that while this function emits an Approval event, this is not required as per the specification, and other compliant implementations may not emit the event.",
        "params": {
          "from": "address The address which you want to send tokens from",
          "to": "address The address which you want to transfer to",
          "value": "uint256 the amount of tokens to be transferred"
        }
      },
      "transferOwnership(address)": {
        "details": "Allows the current owner to transfer control of the contract to a newOwner.",
        "params": {
          "_newOwner": "The address to transfer ownership to."
        }
      }
    }
  },
  "userdoc": {
    "methods": {
      "renounceOwnership()": {
        "notice": "Renouncing to ownership will leave the contract without an owner. It will not be possible to call the functions with the `onlyOwner` modifier anymore."
      }
    }
  }
}