{
  "contractName": "MANAToken",
  "abi": [
    {
      "constant": true,
      "inputs": [],
      "name": "name",
      "outputs": [
        {
          "name": "",
          "type": "string"
        }
      ],
      "payable": false,
      "stateMutability": "view",
      "type": "function"
    },
    {
      "constant": false,
      "inputs": [
        {
          "name": "spender",
          "type": "address"
        },
        {
          "name": "value",
          "type": "uint256"
        }
      ],
      "name": "approve",
      "outputs": [
        {
          "name": "",
          "type": "bool"
        }
      ],
      "payable": false,
      "stateMutability": "nonpayable",
      "type": "function"
    },
    {
      "constant": true,
      "inputs": [],
      "name": "totalSupply",
      "outputs": [
        {
          "name": "",
          "type": "uint256"
        }
      ],
      "payable": false,
      "stateMutability": "view",
      "type": "function"
    },
    {
      "constant": false,
      "inputs": [
        {
          "name": "from",
          "type": "address"
        },
        {
          "name": "to",
          "type": "address"
        },
        {
          "name": "value",
          "type": "uint256"
        }
      ],
      "name": "transferFrom",
      "outputs": [
        {
          "name": "",
          "type": "bool"
        }
      ],
      "payable": false,
      "stateMutability": "nonpayable",
      "type": "function"
    },
    {
      "constant": true,
      "inputs": [],
      "name": "decimals",
      "outputs": [
        {
          "name": "",
          "type": "uint8"
        }
      ],
      "payable": false,
      "stateMutability": "view",
      "type": "function"
    },
    {
      "constant": false,
      "inputs": [
        {
          "name": "spender",
          "type": "address"
        },
        {
          "name": "addedValue",
          "type": "uint256"
        }
      ],
      "name": "increaseAllowance",
      "outputs": [
        {
          "name": "success",
          "type": "bool"
        }
      ],
      "payable": false,
      "stateMutability": "nonpayable",
      "type": "function"
    },
    {
      "constant": false,
      "inputs": [],
      "name": "unpause",
      "outputs": [],
      "payable": false,
      "stateMutability": "nonpayable",
      "type": "function"
    },
    {
      "constant": false,
      "inputs": [
        {
          "name": "to",
          "type": "address"
        },
        {
          "name": "value",
          "type": "uint256"
        }
      ],
      "name": "mint",
      "outputs": [
        {
          "name": "",
          "type": "bool"
        }
      ],
      "payable": false,
      "stateMutability": "nonpayable",
      "type": "function"
    },
    {
      "constant": true,
      "inputs": [
        {
          "name": "account",
          "type": "address"
        }
      ],
      "name": "isPauser",
      "outputs": [
        {
          "name": "",
          "type": "bool"
        }
      ],
      "payable": false,
      "stateMutability": "view",
      "type": "function"
    },
    {
      "constant": true,
      "inputs": [],
      "name": "paused",
      "outputs": [
        {
          "name": "",
          "type": "bool"
        }
      ],
      "payable": false,
      "stateMutability": "view",
      "type": "function"
    },
    {
      "constant": false,
      "inputs": [],
      "name": "renouncePauser",
      "outputs": [],
      "payable": false,
      "stateMutability": "nonpayable",
      "type": "function"
    },
    {
      "constant": true,
      "inputs": [
        {
          "name": "owner",
          "type": "address"
        }
      ],
      "name": "balanceOf",
      "outputs": [
        {
          "name": "",
          "type": "uint256"
        }
      ],
      "payable": false,
      "stateMutability": "view",
      "type": "function"
    },
    {
      "constant": false,
      "inputs": [
        {
          "name": "from",
          "type": "address"
        },
        {
          "name": "value",
          "type": "uint256"
        }
      ],
      "name": "burnFrom",
      "outputs": [],
      "payable": false,
      "stateMutability": "nonpayable",
      "type": "function"
    },
    {
      "constant": false,
      "inputs": [
        {
          "name": "account",
          "type": "address"
        }
      ],
      "name": "addPauser",
      "outputs": [],
      "payable": false,
      "stateMutability": "nonpayable",
      "type": "function"
    },
    {
      "constant": false,
      "inputs": [],
      "name": "pause",
      "outputs": [],
      "payable": false,
      "stateMutability": "nonpayable",
      "type": "function"
    },
    {
      "constant": true,
      "inputs": [],
      "name": "symbol",
      "outputs": [
        {
          "name": "",
          "type": "string"
        }
      ],
      "payable": false,
      "stateMutability": "view",
      "type": "function"
    },
    {
      "constant": false,
      "inputs": [
        {
          "name": "account",
          "type": "address"
        }
      ],
      "name": "addMinter",
      "outputs": [],
      "payable": false,
      "stateMutability": "nonpayable",
      "type": "function"
    },
    {
      "constant": false,
      "inputs": [],
      "name": "renounceMinter",
      "outputs": [],
      "payable": false,
      "stateMutability": "nonpayable",
      "type": "function"
    },
    {
      "constant": false,
      "inputs": [
        {
          "name": "spender",
          "type": "address"
        },
        {
          "name": "subtractedValue",
          "type": "uint256"
        }
      ],
      "name": "decreaseAllowance",
      "outputs": [
        {
          "name": "success",
          "type": "bool"
        }
      ],
      "payable": false,
      "stateMutability": "nonpayable",
      "type": "function"
    },
    {
      "constant": false,
      "inputs": [
        {
          "name": "to",
          "type": "address"
        },
        {
          "name": "value",
          "type": "uint256"
        }
      ],
      "name": "transfer",
      "outputs": [
        {
          "name": "",
          "type": "bool"
        }
      ],
      "payable": false,
      "stateMutability": "nonpayable",
      "type": "function"
    },
    {
      "constant": true,
      "inputs": [
        {
          "name": "account",
          "type": "address"
        }
      ],
      "name": "isMinter",
      "outputs": [
        {
          "name": "",
          "type": "bool"
        }
      ],
      "payable": false,
      "stateMutability": "view",
      "type": "function"
    },
    {
      "constant": true,
      "inputs": [
        {
          "name": "owner",
          "type": "address"
        },
        {
          "name": "spender",
          "type": "address"
        }
      ],
      "name": "allowance",
      "outputs": [
        {
          "name": "",
          "type": "uint256"
        }
      ],
      "payable": false,
      "stateMutability": "view",
      "type": "function"
    },
    {
      "anonymous": false,
      "inputs": [
        {
          "indexed": false,
          "name": "account",
          "type": "address"
        }
      ],
      "name": "Paused",
      "type": "event"
    },
    {
      "anonymous": false,
      "inputs": [
        {
          "indexed": false,
          "name": "account",
          "type": "address"
        }
      ],
      "name": "Unpaused",
      "type": "event"
    },
    {
      "anonymous": false,
      "inputs": [
        {
          "indexed": true,
          "name": "account",
          "type": "address"
        }
      ],
      "name": "PauserAdded",
      "type": "event"
    },
    {
      "anonymous": false,
      "inputs": [
        {
          "indexed": true,
          "name": "account",
          "type": "address"
        }
      ],
      "name": "PauserRemoved",
      "type": "event"
    },
    {
      "anonymous": false,
      "inputs": [
        {
          "indexed": true,
          "name": "account",
          "type": "address"
        }
      ],
      "name": "MinterAdded",
      "type": "event"
    },
    {
      "anonymous": false,
      "inputs": [
        {
          "indexed": true,
          "name": "account",
          "type": "address"
        }
      ],
      "name": "MinterRemoved",
      "type": "event"
    },
    {
      "anonymous": false,
      "inputs": [
        {
          "indexed": true,
          "name": "from",
          "type": "address"
        },
        {
          "indexed": true,
          "name": "to",
          "type": "address"
        },
        {
          "indexed": false,
          "name": "value",
          "type": "uint256"
        }
      ],
      "name": "Transfer",
      "type": "event"
    },
    {
      "anonymous": false,
      "inputs": [
        {
          "indexed": true,
          "name": "owner",
          "type": "address"
        },
        {
          "indexed": true,
          "name": "spender",
          "type": "address"
        },
        {
          "indexed": false,
          "name": "value",
          "type": "uint256"
        }
      ],
      "name": "Approval",
      "type": "event"
    },
    {
      "constant": false,
      "inputs": [
        {
          "name": "_value",
          "type": "uint256"
        }
      ],
      "name": "burn",
      "outputs": [],
      "payable": false,
      "stateMutability": "nonpayable",
      "type": "function"
    }
  ],
  "bytecode": "0x60806040526100133361003160201b60201c565b6100223361008060201b60201c565b6005805460ff19169055610156565b6100498160036100cf60201b610d141790919060201c565b6040516001600160a01b038216907f6ae172837ea30b801fbfcdd4108aa1d5bf8ff775444fd70256b44e6bf3dfc3f690600090a250565b6100988160046100cf60201b610d141790919060201c565b6040516001600160a01b038216907f6719d08c1888103bea251a4ed56406bd0c3e69723c8a1686e017e7bbe159b6f890600090a250565b6001600160a01b0381166100e257600080fd5b6100f2828261012160201b60201c565b156100fc57600080fd5b6001600160a01b0316600090815260209190915260409020805460ff19166001179055565b60006001600160a01b03821661013657600080fd5b506001600160a01b03166000908152602091909152604090205460ff1690565b610d8c806101656000396000f3fe608060405234801561001057600080fd5b506004361061014d5760003560e01c80636ef8d66d116100c3578063983b2d561161007c578063983b2d56146103ba57806398650275146103e0578063a457c2d7146103e8578063a9059cbb14610414578063aa271e1a14610440578063dd62ed3e146104665761014d565b80636ef8d66d1461032a57806370a082311461033257806379cc67901461035857806382dc1ec4146103845780638456cb59146103aa57806395d89b41146103b25761014d565b80633950935111610115578063395093511461027d5780633f4ba83a146102a957806340c10f19146102b357806342966c68146102df57806346fbf68e146102fc5780635c975abb146103225761014d565b806306fdde0314610152578063095ea7b3146101cf57806318160ddd1461020f57806323b872dd14610229578063313ce5671461025f575b600080fd5b61015a610494565b6040805160208082528351818301528351919283929083019185019080838360005b8381101561019457818101518382015260200161017c565b50505050905090810190601f1680156101c15780820380516001836020036101000a031916815260200191505b509250505060405180910390f35b6101fb600480360360408110156101e557600080fd5b506001600160a01b0381351690602001356104cd565b604080519115158252519081900360200190f35b6102176104f1565b60408051918252519081900360200190f35b6101fb6004803603606081101561023f57600080fd5b506001600160a01b038135811691602081013590911690604001356104f7565b61026761051d565b6040805160ff9092168252519081900360200190f35b6101fb6004803603604081101561029357600080fd5b506001600160a01b038135169060200135610522565b6102b161053f565b005b6101fb600480360360408110156102c957600080fd5b506001600160a01b03813516906020013561059f565b6102b1600480360360208110156102f557600080fd5b50356105c6565b6101fb6004803603602081101561031257600080fd5b50356001600160a01b03166105e2565b6101fb6105fb565b6102b1610604565b6102176004803603602081101561034857600080fd5b50356001600160a01b031661060f565b6102b16004803603604081101561036e57600080fd5b506001600160a01b03813516906020013561062a565b6102b16004803603602081101561039a57600080fd5b50356001600160a01b0316610638565b6102b1610653565b61015a6106b7565b6102b1600480360360208110156103d057600080fd5b50356001600160a01b03166106da565b6102b16106f5565b6101fb600480360360408110156103fe57600080fd5b506001600160a01b0381351690602001356106fe565b6101fb6004803603604081101561042a57600080fd5b506001600160a01b03813516906020013561071b565b6101fb6004803603602081101561045657600080fd5b50356001600160a01b0316610738565b6102176004803603604081101561047c57600080fd5b506001600160a01b038135811691602001351661074b565b6040518060400160405280601181526020017f446563656e7472616c616e64204d414e4100000000000000000000000000000081525081565b60055460009060ff16156104e057600080fd5b6104ea8383610776565b9392505050565b60025490565b60055460009060ff161561050a57600080fd5b610515848484610783565b949350505050565b601281565b60055460009060ff161561053557600080fd5b6104ea83836107da565b610548336105e2565b61055157600080fd5b60055460ff1661056057600080fd5b6005805460ff191690556040805133815290517f5db9ee0a495bf2e6ff9c91a7834c1ba4fdd244a5e8aa4e537bd38aeae4b073aa9181900360200190a1565b60006105aa33610738565b6105b357600080fd5b6105bd8383610816565b50600192915050565b60055460ff16156105d657600080fd5b6105df816108be565b50565b60006105f560048363ffffffff6108c816565b92915050565b60055460ff1690565b61060d336108fd565b565b6001600160a01b031660009081526020819052604090205490565b6106348282610945565b5050565b610641336105e2565b61064a57600080fd5b6105df8161098a565b61065c336105e2565b61066557600080fd5b60055460ff161561067557600080fd5b6005805460ff191660011790556040805133815290517f62e78cea01bee320cd4e420270b5ea74000d11b0c9f74754ebdbfc544b05a2589181900360200190a1565b604051806040016040528060048152602001600160e01b634d414e410281525081565b6106e333610738565b6106ec57600080fd5b6105df816109d2565b61060d33610a1a565b60055460009060ff161561071157600080fd5b6104ea8383610a62565b60055460009060ff161561072e57600080fd5b6104ea8383610a9e565b60006105f560038363ffffffff6108c816565b6001600160a01b03918216600090815260016020908152604080832093909416825291909152205490565b60006105bd338484610aab565b6000610790848484610b33565b6001600160a01b0384166000908152600160209081526040808320338085529252909120546107d09186916107cb908663ffffffff610bfe16565b610aab565b5060019392505050565b3360008181526001602090815260408083206001600160a01b038716845290915281205490916105bd9185906107cb908663ffffffff610c1316565b6001600160a01b03821661082957600080fd5b60025461083c908263ffffffff610c1316565b6002556001600160a01b038216600090815260208190526040902054610868908263ffffffff610c1316565b6001600160a01b0383166000818152602081815260408083209490945583518581529351929391927fddf252ad1be2c89b69c2b068fc378daa952ba7f163c4a11628f55a4df523b3ef9281900390910190a35050565b6105df3382610c25565b60006001600160a01b0382166108dd57600080fd5b506001600160a01b03166000908152602091909152604090205460ff1690565b61090e60048263ffffffff610ccc16565b6040516001600160a01b038216907fcd265ebaf09df2871cc7bd4133404a235ba12eff2041bb89d9c714a2621c7c7e90600090a250565b61094f8282610c25565b6001600160a01b0382166000908152600160209081526040808320338085529252909120546106349184916107cb908563ffffffff610bfe16565b61099b60048263ffffffff610d1416565b6040516001600160a01b038216907f6719d08c1888103bea251a4ed56406bd0c3e69723c8a1686e017e7bbe159b6f890600090a250565b6109e360038263ffffffff610d1416565b6040516001600160a01b038216907f6ae172837ea30b801fbfcdd4108aa1d5bf8ff775444fd70256b44e6bf3dfc3f690600090a250565b610a2b60038263ffffffff610ccc16565b6040516001600160a01b038216907fe94479a9f7e1952cc78f2d6baab678adc1b772d936c6583def489e524cb6669290600090a250565b3360008181526001602090815260408083206001600160a01b038716845290915281205490916105bd9185906107cb908663ffffffff610bfe16565b60006105bd338484610b33565b6001600160a01b038216610abe57600080fd5b6001600160a01b038316610ad157600080fd5b6001600160a01b03808416600081815260016020908152604080832094871680845294825291829020859055815185815291517f8c5be1e5ebec7d5bd14f71427d1e84f3dd0314c0f7b2291e5b200ac8c7c3b9259281900390910190a3505050565b6001600160a01b038216610b4657600080fd5b6001600160a01b038316600090815260208190526040902054610b6f908263ffffffff610bfe16565b6001600160a01b038085166000908152602081905260408082209390935590841681522054610ba4908263ffffffff610c1316565b6001600160a01b038084166000818152602081815260409182902094909455805185815290519193928716927fddf252ad1be2c89b69c2b068fc378daa952ba7f163c4a11628f55a4df523b3ef92918290030190a3505050565b600082821115610c0d57600080fd5b50900390565b6000828201838110156104ea57600080fd5b6001600160a01b038216610c3857600080fd5b600254610c4b908263ffffffff610bfe16565b6002556001600160a01b038216600090815260208190526040902054610c77908263ffffffff610bfe16565b6001600160a01b038316600081815260208181526040808320949094558351858152935191937fddf252ad1be2c89b69c2b068fc378daa952ba7f163c4a11628f55a4df523b3ef929081900390910190a35050565b6001600160a01b038116610cdf57600080fd5b610ce982826108c8565b610cf257600080fd5b6001600160a01b0316600090815260209190915260409020805460ff19169055565b6001600160a01b038116610d2757600080fd5b610d3182826108c8565b15610d3b57600080fd5b6001600160a01b0316600090815260209190915260409020805460ff1916600117905556fea165627a7a72305820c87168d6649d4a632df31a2a1be1575b9c7ee4c8f691242807181869ed89d8540029",
  "source": "pragma solidity 0.5.7;\n\nimport \"../../node_modules/openzeppelin-solidity/contracts/token/ERC20/ERC20Pausable.sol\";\nimport \"../../node_modules/openzeppelin-solidity/contracts/token/ERC20/ERC20Mintable.sol\";\nimport \"../../node_modules/openzeppelin-solidity/contracts/token/ERC20/ERC20Burnable.sol\";\n\ncontract MANAToken is ERC20Mintable, ERC20Pausable, ERC20Burnable {\n\n    string public constant symbol = \"MANA\";\n\n    string public constant name = \"Decentraland MANA\";\n\n    uint8 public constant decimals = 18;\n\n    function burn(uint256 _value) whenNotPaused public {\n        super.burn(_value);\n    }\n}\n",
  "sourcePath": "/Users/jules/WebstormProjects/RobInTheHood/chain/bankContracts/contracts/mana/MANAToken.sol",
  "compiler": {
    "name": "solc",
    "version": "0.5.7+commit.6da8b019.Emscripten.clang"
  },
  "schemaVersion": "3.0.1",
  "updatedAt": "2019-04-24T15:17:13.750Z",
  "devdoc": {
    "methods": {
      "allowance(address,address)": {
        "details": "Function to check the amount of tokens that an owner allowed to a spender.",
        "params": {
          "owner": "address The address which owns the funds.",
          "spender": "address The address which will spend the funds."
        },
        "return": "A uint256 specifying the amount of tokens still available for the spender."
      },
      "balanceOf(address)": {
        "details": "Gets the balance of the specified address.",
        "params": {
          "owner": "The address to query the balance of."
        },
        "return": "A uint256 representing the amount owned by the passed address."
      },
      "burnFrom(address,uint256)": {
        "details": "Burns a specific amount of tokens from the target address and decrements allowance",
        "params": {
          "from": "address The account whose tokens will be burned.",
          "value": "uint256 The amount of token to be burned."
        }
      },
      "mint(address,uint256)": {
        "details": "Function to mint tokens",
        "params": {
          "to": "The address that will receive the minted tokens.",
          "value": "The amount of tokens to mint."
        },
        "return": "A boolean that indicates if the operation was successful."
      },
      "pause()": {
        "details": "called by the owner to pause, triggers stopped state"
      },
      "paused()": {
        "return": "true if the contract is paused, false otherwise."
      },
      "totalSupply()": {
        "details": "Total number of tokens in existence"
      },
      "unpause()": {
        "details": "called by the owner to unpause, returns to normal state"
      }
    }
  },
  "userdoc": {
    "methods": {}
  }
}