{
  "contractName": "RefundVault",
  "abi": [
    {
      "constant": true,
      "inputs": [],
      "name": "wallet",
      "outputs": [
        {
          "name": "",
          "type": "address"
        }
      ],
      "payable": false,
      "stateMutability": "view",
      "type": "function"
    },
    {
      "constant": false,
      "inputs": [],
      "name": "renounceOwnership",
      "outputs": [],
      "payable": false,
      "stateMutability": "nonpayable",
      "type": "function"
    },
    {
      "constant": true,
      "inputs": [],
      "name": "owner",
      "outputs": [
        {
          "name": "",
          "type": "address"
        }
      ],
      "payable": false,
      "stateMutability": "view",
      "type": "function"
    },
    {
      "constant": true,
      "inputs": [],
      "name": "state",
      "outputs": [
        {
          "name": "",
          "type": "uint8"
        }
      ],
      "payable": false,
      "stateMutability": "view",
      "type": "function"
    },
    {
      "constant": true,
      "inputs": [
        {
          "name": "",
          "type": "address"
        }
      ],
      "name": "deposited",
      "outputs": [
        {
          "name": "",
          "type": "uint256"
        }
      ],
      "payable": false,
      "stateMutability": "view",
      "type": "function"
    },
    {
      "constant": false,
      "inputs": [
        {
          "name": "_newOwner",
          "type": "address"
        }
      ],
      "name": "transferOwnership",
      "outputs": [],
      "payable": false,
      "stateMutability": "nonpayable",
      "type": "function"
    },
    {
      "inputs": [
        {
          "name": "_wallet",
          "type": "address"
        }
      ],
      "payable": false,
      "stateMutability": "nonpayable",
      "type": "constructor"
    },
    {
      "anonymous": false,
      "inputs": [],
      "name": "Closed",
      "type": "event"
    },
    {
      "anonymous": false,
      "inputs": [],
      "name": "RefundsEnabled",
      "type": "event"
    },
    {
      "anonymous": false,
      "inputs": [
        {
          "indexed": true,
          "name": "beneficiary",
          "type": "address"
        },
        {
          "indexed": false,
          "name": "weiAmount",
          "type": "uint256"
        }
      ],
      "name": "Refunded",
      "type": "event"
    },
    {
      "anonymous": false,
      "inputs": [
        {
          "indexed": true,
          "name": "previousOwner",
          "type": "address"
        }
      ],
      "name": "OwnershipRenounced",
      "type": "event"
    },
    {
      "anonymous": false,
      "inputs": [
        {
          "indexed": true,
          "name": "previousOwner",
          "type": "address"
        },
        {
          "indexed": true,
          "name": "newOwner",
          "type": "address"
        }
      ],
      "name": "OwnershipTransferred",
      "type": "event"
    },
    {
      "constant": false,
      "inputs": [
        {
          "name": "investor",
          "type": "address"
        }
      ],
      "name": "deposit",
      "outputs": [],
      "payable": true,
      "stateMutability": "payable",
      "type": "function"
    },
    {
      "constant": false,
      "inputs": [],
      "name": "close",
      "outputs": [],
      "payable": false,
      "stateMutability": "nonpayable",
      "type": "function"
    },
    {
      "constant": false,
      "inputs": [],
      "name": "enableRefunds",
      "outputs": [],
      "payable": false,
      "stateMutability": "nonpayable",
      "type": "function"
    },
    {
      "constant": false,
      "inputs": [
        {
          "name": "investor",
          "type": "address"
        }
      ],
      "name": "refund",
      "outputs": [],
      "payable": false,
      "stateMutability": "nonpayable",
      "type": "function"
    }
  ],
  "bytecode": "0x608060405234801561001057600080fd5b506040516020806106888339810180604052602081101561003057600080fd5b5051600080546001600160a01b031916331790556001600160a01b03811661005757600080fd5b600280546001600160a01b0319166001600160a01b039290921691909117600160a01b60ff02191690556105f8806100906000396000f3fe6080604052600436106100915760003560e01c8063c19d93fb11610059578063c19d93fb1461011d578063cb13cddb14610156578063f2fde38b1461019b578063f340fa01146101ce578063fa89401a146101f457610091565b806343d726d614610096578063521eb273146100ad578063715018a6146100de5780638c52dc41146100f35780638da5cb5b14610108575b600080fd5b3480156100a257600080fd5b506100ab610227565b005b3480156100b957600080fd5b506100c26102de565b604080516001600160a01b039092168252519081900360200190f35b3480156100ea57600080fd5b506100ab6102ed565b3480156100ff57600080fd5b506100ab61034c565b34801561011457600080fd5b506100c26103c8565b34801561012957600080fd5b506101326103d7565b6040518082600281111561014257fe5b60ff16815260200191505060405180910390f35b34801561016257600080fd5b506101896004803603602081101561017957600080fd5b50356001600160a01b03166103e7565b60408051918252519081900360200190f35b3480156101a757600080fd5b506100ab600480360360208110156101be57600080fd5b50356001600160a01b03166103f9565b6100ab600480360360208110156101e457600080fd5b50356001600160a01b0316610419565b34801561020057600080fd5b506100ab6004803603602081101561021757600080fd5b50356001600160a01b0316610499565b6000546001600160a01b0316331461023e57600080fd5b600060028054600160a01b900460ff169081111561025857fe5b1461026257600080fd5b60028054600160a01b60ff021916600160a11b1790556040517f1cdde67b72a90f19919ac732a437ac2f7a10fc128d28c2a6e525d89ce5cd9d3a90600090a16002546040516001600160a01b0390911690303180156108fc02916000818181858888f193505050501580156102db573d6000803e3d6000fd5b50565b6002546001600160a01b031681565b6000546001600160a01b0316331461030457600080fd5b600080546040516001600160a01b03909116917ff8df31144d9c2f0f6b59d69b8b98abd5459d07f2742c4df920b25aae33c6482091a2600080546001600160a01b0319169055565b6000546001600160a01b0316331461036357600080fd5b600060028054600160a01b900460ff169081111561037d57fe5b1461038757600080fd5b60028054600160a01b60ff021916600160a01b1790556040517f599d8e5a83cffb867d051598c4d70e805d59802d8081c1c7d6dffc5b6aca2b8990600090a1565b6000546001600160a01b031681565b600254600160a01b900460ff1681565b60016020526000908152604090205481565b6000546001600160a01b0316331461041057600080fd5b6102db8161054b565b6000546001600160a01b0316331461043057600080fd5b600060028054600160a01b900460ff169081111561044a57fe5b1461045457600080fd5b6001600160a01b03811660009081526001602052604090205461047d903463ffffffff6105b916565b6001600160a01b03909116600090815260016020526040902055565b600160028054600160a01b900460ff16908111156104b357fe5b146104bd57600080fd5b6001600160a01b038116600081815260016020526040808220805490839055905190929183156108fc02918491818181858888f19350505050158015610507573d6000803e3d6000fd5b506040805182815290516001600160a01b038416917fd7dee2702d63ad89917b6a4da9981c90c4d24f8c2bdfd64c604ecae57d8d0651919081900360200190a25050565b6001600160a01b03811661055e57600080fd5b600080546040516001600160a01b03808516939216917f8be0079c531659141344cd1fd0a4f28419497f9722a3daafe3b4186f6b6457e091a3600080546001600160a01b0319166001600160a01b0392909216919091179055565b818101828110156105c657fe5b9291505056fea165627a7a72305820777905969aad03e385c1cbe51bb33b24dc3500ce4f182a9911789e981d49262d0029",
  "source": "pragma solidity 0.5.7;\n\nimport 'contracts/zeppelin/SafeMath.sol';\nimport 'contracts/zeppelin/ownership/Ownable.sol';\n\n/**\n * @title RefundVault\n * @dev This contract is used for storing funds while a crowdsale\n * is in progress. Supports refunding the money if crowdsale fails,\n * and forwarding it if crowdsale is successful.\n */\ncontract RefundVault is Ownable {\n  using SafeMath for uint256;\n\n  enum State { Active, Refunding, Closed }\n\n  mapping (address => uint256) public deposited;\n  address payable public wallet;\n  State public state;\n\n  event Closed();\n  event RefundsEnabled();\n  event Refunded(address indexed beneficiary, uint256 weiAmount);\n\n  constructor (address payable _wallet) public {\n    require(_wallet != address(0));\n    wallet = _wallet;\n    state = State.Active;\n  }\n\n  function deposit(address investor) onlyOwner public payable {\n    require(state == State.Active);\n    deposited[investor] = deposited[investor].add(msg.value);\n  }\n\n  function close() onlyOwner public{\n    require(state == State.Active);\n    state = State.Closed;\n    emit Closed();\n    wallet.transfer(address(this).balance);\n  }\n\n  function enableRefunds() onlyOwner public {\n    require(state == State.Active);\n    state = State.Refunding;\n    emit RefundsEnabled();\n  }\n\n  function refund(address payable investor) public{\n    require(state == State.Refunding);\n    uint256 depositedValue = deposited[investor];\n    deposited[investor] = 0;\n    investor.transfer(depositedValue);\n    emit Refunded(investor, depositedValue);\n  }\n}\n",
  "sourcePath": "contracts/zeppelin/crowdsale/RefundVault.sol",
  "compiler": {
    "name": "solc",
    "version": "0.5.7+commit.6da8b019.Emscripten.clang"
  },
  "schemaVersion": "3.0.1",
  "updatedAt": "2019-04-20T08:31:01.338Z",
  "devdoc": {
    "details": "This contract is used for storing funds while a crowdsale is in progress. Supports refunding the money if crowdsale fails, and forwarding it if crowdsale is successful.",
    "methods": {
      "renounceOwnership()": {
        "details": "Allows the current owner to relinquish control of the contract."
      },
      "transferOwnership(address)": {
        "details": "Allows the current owner to transfer control of the contract to a newOwner.",
        "params": {
          "_newOwner": "The address to transfer ownership to."
        }
      }
    },
    "title": "RefundVault"
  },
  "userdoc": {
    "methods": {
      "renounceOwnership()": {
        "notice": "Renouncing to ownership will leave the contract without an owner. It will not be possible to call the functions with the `onlyOwner` modifier anymore."
      }
    }
  }
}